:020000040000FA
:060000000A128A11F52F1F
:10000800F001F1010130F0070318F10A0030F1079F
:100018007108803AFF0080307F02031D15283230B6
:100028007002031808000628831203138616BE30D0
:100038000A128A155F270A128A11F501F601750856
:10004800013E84000A128A1500200A128A110A1237
:100058008A155F270A128A110130F5070318F60A74
:100068000030F6077608803AFF0080307F02031DD3
:100078003F2808307502031C2328831203138612B5
:100088000800F401831603130616F201F301831224
:10009800031306107408F0000310700CF1007108C7
:1000A800F400061E5C2874088038F0007008F4001C
:1000B80006140130F2070318F30A0030F307730837
:1000C800803AFF0080307F02031D6C2808307202DE
:1000D800031C4B28831603130612831203130610FE
:1000E80074080800700871040319A328F501F50ABB
:1000F800F11B8A2801300310F00DF10DFF3E031D9E
:100108007F280130F4007408F5077C287108730211
:10011800031D902870087202031C98287008F202C8
:100128007108031CF303F30201300310F10CF00C07
:10013800FF3E031D99280130F502031D8A28730824
:10014800F1007208F0000800F5010830F4007408A6
:10015800F6000310F50C831203130910831603131A
:1001680009100000000000000000000000008316D5
:100178000313091400000000000000000000003014
:100188008312031309180130AA002A08031DF51762
:100198000730F4007408F00002300A128A15E926C4
:1001A8000A128A110130F6027608031DAD28750877
:1001B8000800F501F50A75080319080083120313EE
:1001C80009108316031309104630F4007408F00070
:1001D80002300A128A15E9260A128A1183160313B5
:1001E80009140830F4007408F00002300A128A1565
:1001F800E9260A128A1183120313091C0629F5013C
:10020800F50A0729F5013C30F4007408F0000230C3
:100218000A128A15E9260A128A11DF28F70008301F
:10022800F4007408F80077080139F4007408F6003F
:10023800831203130910831603130910000000002A
:100248000000000000007603031D2D298316031308
:1002580009140730F4007408F00002300A128A15F5
:10026800E9260A128A1183160313091400000000F4
:100278007708F4000310740CF5007508F7000130D6
:10028800F8027808031908001729FB01FC01760811
:10029800770403198029FD01FD0AF71B5F29013046
:1002A8000310F60DF70DFF3E031D54290130FA0027
:1002B8007A08FD07512901300310FB0DFC0DFF3EA4
:1002C800031D602977087902031D6C2976087802D6
:1002D800031C75297608F8027708031CF903F9024C
:1002E8007B1401300310F70CF60CFF3E031D762932
:1002F8000130FD02031D5F297C08F7007B08F6002A
:100308000800F601F31F8F29F209F309F20A03190D
:10031800F30AF601F60AF11F9629F009F109F00A25
:100328000319F10A700871040319C329F501F50AC4
:10033800F11BAA2901300310F00DF10DFF3E031D3A
:100348009F290130F4007408F5079C29710873028D
:10035800031DB02970087202031CB8297008F20244
:100368007108031CF303F30201300310F10CF00CC5
:10037800FF3E031DB9290130F502031DAA2976089D
:100388000319CB29F209F309F20A0319F30A7308CE
:10039800F1007208F0000800F601F11FDA29F009EF
:1003A800F109F00A0319F10AF601F60AF31FE52923
:1003B800F209F309F20A0319F30A0130F400740888
:1003C800F606F701F8017008710403191C2AF501F3
:1003D800F50AF11BFB2901300310F00DF10DFF3E6A
:1003E800031DF0290130F4007408F507ED290130E8
:1003F8000310F70DF80DFF3E031DFC297108730269
:10040800031D082A70087202031C112A7008F202E0
:100418007108031CF303F302771401300310F10C85
:10042800F00CFF3E031D122A0130F502031DFB29C3
:1004380076080319242AF709F809F70A0319F80AAC
:100448007808F1007708F0000800831203130710FA
:10045800871407158715071A080001300A128A152C
:1004680048270A128A1180300A128A1548270A1268
:100478008A1144300A128A1531270A128A1161300A
:100488000A128A1531270A128A1174300A128A153B
:1004980031270A128A1165300A128A1531270A1281
:1004A8008A115F300A128A1531270A128A115330CD
:1004B8000A128A1531270A128A1165300A128A151A
:1004C80031270A128A1174300A128A1531270A1242
:1004D8008A1174300A128A1531270A128A11693072
:1004E8000A128A1531270A128A116E300A128A15E1
:1004F80031270A128A1167300A128A1531270A121F
:100508008A1173300A128A1531270A128A11831246
:1005180003130710871407158715871B372A01301F
:100528000A128A1548270800831203130714871430
:1005380007118715071A080001300A128A1548277B
:100548000A128A1180300A128A1548270A128A115B
:1005580054300A128A1531270A128A1169300A1290
:100568008A1531270A128A116D300A128A15312725
:100578000A128A1165300A128A1531270A128A115D
:100588005F300A128A1531270A128A1153300A126B
:100598008A1531270A128A1165300A128A153127FD
:1005A8000A128A1174300A128A1531270A128A111E
:1005B80074300A128A1531270A128A1169300A1210
:1005C8008A1531270A128A116E300A128A153127C4
:1005D8000A128A1167300A128A1531270A128A11FB
:1005E80073300A128A1531270A128A1183120313EB
:1005F8000710871407158715871BA62A01300A12CA
:100608008A1548270800831203138618132B23081A
:10061800F3007308A0002408F3007308A10023085E
:10062800F039F300F4017308F5007408F600750E4C
:100638000F39F500760EF039F504760E0F39F6000D
:10064800F030F61D0030F6047508303E0A128A159F
:1006580031270A128A118312031323080F39F30072
:10066800F4017308F5007408F6007508303E0A12A4
:100678008A1531270A128A112F300A128A15312752
:100688000A128A11831203132408F039F300F401C3
:100698007308F5007408F600750E0F39F500760E2C
:1006A800F039F504760E0F39F600F030F61D0030FB
:1006B800F6047508303E0A128A1531270A128A1183
:1006C8008312031324080F39F300F4017308F500AB
:1006D8007408F6007508303E0A128A1531270A1286
:1006E8008A112F300A128A1531270A128A118312A9
:1006F80003132608F039F300F4017308F5007408B1
:10070800F6007508303E0A128A1531270A128A1136
:100718008312031326080F39F300F4017308F50058
:100728007408F6007508303E0A128A153127080049
:10073800831203138618A82B2308F3007308A0005C
:100748002408F3007308A1002208F039F300F4012B
:100758007308F5007408F600750E0F39F500760E6B
:10076800F039F504760E0F39F600F030F61D00303A
:10077800F6047508303E0A128A1531270A128A11C2
:100788008312031322080F39F300F4017308F500EC
:100798007408F6007508303E0A128A1531270A12C5
:1007A8008A113A300A128A1531270A128A118312DD
:1007B80003132108F039F300F4017308F5007408F5
:1007C800F600750E0F39F500760EF039F504760E41
:1007D8000F39F600F030F61D0030F6047508303E8B
:1007E8000A128A1531270A128A1183120313210863
:1007F8000F39F300F4017308F5007408F600750862
:10080800303E0A128A1531270A128A113A300A1222
:100818008A1531270A128A11831203132008F03926
:10082800F300F4017308F5007408F600750E0F392B
:10083800F500760EF039F504760E0F39F600F03033
:10084800F61D0030F6047508303E0A128A15312765
:100858000A128A118312031320080F39F300F401D6
:100868007308F5007408F6007508303E0A128A15F8
:100878003127080002308316031386000A128A15EE
:10088800C4260A128A110A128A1118200A128A1119
:100898000A128A15F7260A128A110A128A15D3260D
:1008A8000A128A110A128A1585270A128A110A124F
:1008B8008A15C4260A128A110A128A15DC260A1217
:1008C8008A110A128A1100250A128A110A128A1537
:1008D800D4270A128A1180300A128A1548270A1268
:1008E8008A1154300A128A1531270A128A11653082
:1008F8000A128A1531270A128A116D300A128A15CE
:1009080031270A128A1170300A128A1531270A1201
:100918008A113A300A128A1531270A128A110A12E4
:100928008A15AB270A128A1190300A128A154827AD
:100938000A128A1144300A128A1531270A128A11BA
:1009480061300A128A1531270A128A1174300A1284
:100958008A1531270A128A1165300A128A15312739
:100968000A128A113A300A128A1531270A128A1194
:1009780020300A128A1531270A128A110A128A119E
:1009880007230A128A1188300A128A1548270A1280
:100998008A1154300A128A1531270A128A116930CD
:1009A8000A128A1531270A128A116D300A128A151D
:1009B80031270A128A1165300A128A1531270A125C
:1009C8008A113A300A128A1531270A128A110A1234
:1009D8008A119C230A128A110A128A1124260A12E1
:1009E8008A110A128A1129220A128A110A128A11F4
:1009F80098220A128A11652C8316031309140A1205
:100A08008A11DD200A128A11CC300A128A111221A9
:100A18000A128A110A128A1104200A128A11443011
:100A28000A128A1112210A128A110A128A11DD2069
:100A38000A128A11CC300A128A1112210A128A115A
:100A4800BE300A128A1112210A128A110A128A1158
:100A5800A8200A128A1183120313B5003508B400BE
:100A68000A128A11A8200A128A1183120313B500E8
:100A78003508B300831603130914831203133308CC
:100A8800B50004300310B50DFF3E031D462D3F3061
:100A98003505B6003408B70004300310B70CFF3E24
:100AA800031D512D37083604B8003808B200340841
:100AB800B50003300310B50DFF3E031D5E2D031076
:100AC800350DB6003608B1000A30F0000030F100EC
:100AD8003208B500B6013508F2003608F3000A12EC
:100AE8008A1185210A128A11700883120313B7002C
:100AF8003708AF000A30F0000030F1003208B500C6
:100B0800B6013508F2003608F3000A128A11D0211E
:100B18000A128A11700883120313B7003708B0004D
:100B2800A701A801B11FA02D2708883EA700280803
:100B38000318013E133EA800311FAA2D2708C43E02
:100B4800A70028080318013E093EA800B11EB42DCD
:100B58002708E23EA70028080318013E043EA80023
:100B6800311EBE2D2708713EA70028080318013E34
:100B7800023EA800E830F6000330F7002808F90024
:100B88002708F8000A128A1149210A128A117608E0
:100B980083120313B5003508AE006430F600003048
:100BA800F7002808F3002708F200E830F0000330C7
:100BB800F1000A128A1176200A128A117108F900C6
:100BC8007008F8000A128A1149210A128A11760857
:100BD80083120313B5003508AD000A30F600003063
:100BE800F7002808F3002708F2006430F00000300E
:100BF800F1000A128A1176200A128A117108F90086
:100C08007008F8000A128A1149210A128A11760816
:100C180083120313B5003508AC000A30F000003029
:100C2800F1002808F3002708F2000A128A1176203A
:100C3800700883120313B5003508AB0000000800E4
:100C4800831203130714871007158715071A08005E
:100C580001300A128A1548270A128A1180300A12AE
:100C68008A1548270A128A1154300A128A15312720
:100C78000A128A1165300A128A1531270A128A1156
:100C88006D300A128A1531270A128A1170300A1239
:100C98008A1531270A128A115F300A128A153127FC
:100CA8000A128A1174300A128A1531270A128A1117
:100CB80068300A128A1531270A128A1172300A120C
:100CC8008A1531270A128A1165300A128A153127C6
:100CD8000A128A1173300A128A1531270A128A11E8
:100CE80068300A128A1531270A128A116F300A12DF
:100CF8008A1531270A128A116C300A128A1531278F
:100D08000A128A1164300A128A1531270A128A11C6
:100D180090300A128A1548270A128A1143300A129B
:100D28008A1531270A128A1175300A128A15312755
:100D38000A128A1172300A128A1531270A128A1188
:100D480072300A128A1531270A128A1165300A127E
:100D58008A1531270A128A116E300A128A1531272C
:100D68000A128A1174300A128A1531270A128A1156
:100D78003A300A128A1531270A128A11831203138C
:100D880029080A128A150A270A128A1183120313DC
:100D980029080A128A1531270A128A1130300A12D4
:100DA8008A1531270A128A1188300A128A154827AB
:100DB8000A128A1153300A128A1531270A128A1127
:100DC80065300A128A1531270A128A1174300A12FC
:100DD8008A1531270A128A115F300A128A153127BB
:100DE8000A128A1174300A128A1531270A128A11D6
:100DF80068300A128A1531270A128A1172300A12CB
:100E08008A1531270A128A1165300A128A15312784
:100E18000A128A1173300A128A1531270A128A11A6
:100E280068300A128A1531270A128A116F300A129D
:100E38008A1531270A128A116C300A128A1531274D
:100E48000A128A1164300A128A1531270A128A1185
:100E58003A300A128A1531270A128A1198300A1272
:100E68008A1548270A128A11831203130714871058
:100E780007158715FB01FC0107148710071587154F
:100E8800871BAF2F98300A128A1548270A128A1131
:100E98000130FB070318FC0A0030FC071030F00093
:100EA8000030F1007C08F3007B08F2000A128A1176
:100EB800D0210A128A117108803AFF0080307F021F
:100EC800031D682F0B30700203187A2F1030F000C2
:100ED8000030F1007C08F3007B08F2000A128A1146
:100EE800D0210A128A117008303E892F1030F00084
:100EF8000030F1007C08F3007B08F2000A128A1126
:100F0800D0210A128A117008373EFB0071080318B5
:100F1800013E003EFC007B08303E0A128A1531274C
:100F28000A128A11F901FA010130F9070318FA0ABD
:100F38000030FA077A08803AFF00A7307F02031DC5
:100F4800A72F10307902031C982F83120313071060
:100F58008714071587150714871407118715871B2A
:100F6800C72F98300A128A1548270A128A11323078
:100F78000A128A1531270A128A1130300A128A1584
:100F880031270A128A1183120313071487140715CD
:100F98008711871BE12F98300A128A1548270A12F1
:100FA8008A1133300A128A1531270A128A11303011
:100FB8000A128A1531270A128A118312031307109D
:100FC800871407158715871BEE2F01300A128A151B
:100FD800482708000710871407158715871B402F17
:100FE8002C2E83132030840035300A128A15CB2624
:100FF80083010A128A113E2C08308A000408840AE8
:10100800820700340034433407342434113406345E
:041018000934003463
:101D88008316031389018312031389010800640071
:101D98008001840A0406031900340406CC2E073097
:101DA800831603139F000514880181018901080027
:101DB8000630831603139F00F03087003030F000A0
:101DC800700883120313A9000800F2007008F100DC
:101DD8007108F3000130F302031DEE2E0130F20208
:101DE80003190800EA2E83120313061086128616BA
:101DF8008E300A128A155F270A128A1500300A12D5
:101E08008A155F278312031386120800F2008312D3
:101E180003133008303EF000003003180130F100A1
:101E2800720870067104031D1B2F8914080089109D
:101E38000800F001F1010130F0070318F10A003041
:101E4800F1077108803AFF0080307F02031D2E2FB2
:101E580005307002031808001F2FF20083120313C5
:101E68008516051285110A128A151D270A128A1568
:101E7800831203138515720888000A128A151D2714
:101E88008312031385110800F200831203138512CD
:101E9800051285110A128A151D270A128A1583123E
:101EA80003138515720888000A128A151D278312E4
:101EB800031385110800F400F201F30183120313E0
:101EC80006120610741806167408F0000310700C39
:101ED800F1007108F40006140130F2070318F30A40
:101EE8000030F3077308803AFF0080307F02031D3B
:101EF8007F2F08307202031C622F8312031306100F
:101F080008008316031385018312031305100A12B0
:101F18008A151D270A128A1583120313051405153D
:101F280030300A128A1548270A128A1501300A1217
:101F38008A1548270A128A1506300A128A15482770
:101F48000A128A150C300A128A15482708008312CB
:101F580003133008303E0A128A1531270A128A15EF
:101F6800831203132F08303E0A128A1531270A12EA
:101F78008A152E300A128A1531270A128A158312F9
:101F880003132E08303E0A128A1531270A128A15C1
:101F9800831203132D08303E0A128A1531270800D0
:101FA800831203138616BF300A128A155F270A1296
:101FB8008A15F601F7010A128A1145200A128A15B4
:101FC800F5007608203E84007508831380000130F0
:101FD800F6070318F70A0030F7077708803AFF007A
:101FE80080307F02031DFA2F07307602031CDF2F93
:081FF800831203138612080096
:02400E00323F3F
:00000001FF
