:020000040000FA
:060000000A128A11E62F2E
:10000E00F200831203138512051285110A168A1146
:10001E0026270A128A118312031385157208880087
:10002E000A168A1126270A128A11831203138511C2
:10003E00080002308316031386000A168A118426DE
:10004E000A128A110A128A154F200A128A110A16EA
:10005E008A11FB260A128A110A168A119B260A1287
:10006E008A110A168A1182270A128A110A168A1111
:10007E0084260A128A110A168A11A4260A128A11D5
:10008E000A128A1536240A128A110A128A15A72014
:10009E000A128A1180300A128A1107200A128A1156
:1000AE0054300A168A1169270A128A1165300A1607
:1000BE008A1169270A128A116D300A168A11692768
:1000CE000A128A1170300A168A1169270A128A11C9
:1000DE003A300A168A1169270A128A110A168A11EB
:1000EE00D5270A128A1190300A128A1107200A1295
:1000FE008A1144300A168A1169270A128A11613050
:10010E000A168A1169270A128A1174300A168A1180
:10011E0069270A128A1165300A168A1169270A128E
:10012E008A113A300A168A1169270A128A1120306A
:10013E000A168A1169270A128A110A128A15F722DB
:10014E000A128A1188300A128A1107200A128A119D
:10015E0054300A168A1169270A128A1169300A1652
:10016E008A1169270A128A116D300A168A116927B7
:10017E000A128A1165300A168A1169270A128A1123
:10018E003A300A168A1169270A128A110A128A153A
:10019E0090230A128A110A128A1564250A128A11EC
:1001AE000A128A11D3230A128A110A128A11E52021
:1001BE000A128A1147280A128A1100288312031381
:1001CE000714871407118715071AEE28EF28D22B6C
:1001DE0001300A128A1107200A128A1180300A127F
:1001EE008A1107200A128A1154300A168A116927B9
:1001FE000A128A1169300A168A1169270A128A119F
:10020E006D300A168A1169270A128A1165300A168C
:10021E008A1169270A128A115F300A168A11692714
:10022E000A128A1153300A168A1169270A128A1184
:10023E0065300A168A1169270A128A1174300A1655
:10024E008A1169270A128A1174300A168A116927CF
:10025E000A128A1169300A168A1169270A128A113E
:10026E006E300A168A1169270A128A1167300A1629
:10027E008A1169270A128A1173300A168A116927A0
:10028E000A128A1183120313071487100715871594
:10029E00871B52295329B52978303F06031D58294B
:1002AE005929B5290130D0005008C0070130B107D7
:1002BE000318B20A0030B2073208F8003108F7000E
:1002CE000A30F9000030FA000A168A11B2260A1214
:1002DE008A11780883120313B2007708B100300830
:1002EE00CC002F08CB003208CE003108CD003930BB
:1002FE00D0005008CF000A128A1523200A128A1144
:10030E0083120313D100D2015108AF005208B0007E
:10031E005430D0005008F00040080A168A11C42646
:10032E000A128A1183120313D1005108C000023041
:10033E002F063004031DA429A529B0290430310647
:10034E003204031DAB29AC29B029B101B201AF01B2
:10035E00B0010A168A1110270A128A11831203138A
:10036E00871BBA29BB290E2A79303F06031DC029E7
:10037E00C1290E2A0130D0005008BE070130B50742
:10038E000318B60A0030B6073608F8003508F7002D
:10039E000A30F9000030FA000A168A11B2260A1243
:1003AE008A11780883120313B6007708B500340853
:1003BE00CC003308CB003608CE003508CD003930DE
:1003CE00D0005008CF000A128A1523200A128A1173
:1003DE0083120313D100D2015108B3005208B400A6
:1003EE005A303E06031DFC29FD29FE29BE010630AA
:1003FE0033063404031D042A052A092AB301B40165
:10040E00B501B6010A168A1110270A128A11883010
:10041E000A128A1107200A128A1183120313400846
:10042E00D0005008D7003E08D0005008D60011303A
:10043E00D0005008F0003930D1005108F1004008CA
:10044E000A168A1152270A128A1183120313D20036
:10045E005208C0002130D0005008F0004A30D100C0
:10046E005108F10040080A168A1152270A128A1101
:10047E0083120313D2005208C0001130D00050086E
:10048E00F0003930D1005108F1003E080A168A11E9
:10049E0052270A128A1183120313D2005208BE0089
:1004AE002130D0005008F0004A30D1005108F10040
:1004BE003E080A168A1152270A128A118312031352
:1004CE00D2005208BE003130D0005008F000593032
:1004DE00D1005108F1003E080A168A1152270A125D
:1004EE008A1183120313D2005208BE004130D0008D
:1004FE005008F0006A30D1005108F1003E080A168B
:10050E008A1152270A128A1183120313D20052083B
:10051E00BE005130D0005008F0007A30D1005108A2
:10052E00F1003E080A168A1152270A128A11831206
:10053E000313D2005208BE00071087140715871543
:10054E00071BAA2AAB2AC32A01300A128A110720D6
:10055E000A128A1183120313C001BE01B101B20146
:10056E00AF01B001B301B401B501B6010A128A158B
:10057E004F200A128A11D22B0714871407118715E0
:10058E002E08F8002D08F7000230F9000030FA00AE
:10059E000A168A11B2260A128A11780883120313D8
:1005AE00AE007708AD00071ADD2ADE2A1B2B2D08B8
:1005BE002E04031DE32AE42A1B2B90300A128A1103
:1005CE0007200A128A1148300A168A1169270A1260
:1005DE008A116F300A168A1169270A128A1175302C
:1005EE000A168A1169270A128A1172300A168A119E
:1005FE0069270A128A113A300A168A1169270A12D5
:10060E008A11783083120313D0005008BF000A16E7
:10061E008A1110270A128A11013083120313AD07B3
:10062E000318AE0A0030AE0707148714071187159A
:10063E00071A222B232B5E2B2D032E04031D282B92
:10064E00292B5E2B0130AD070318AE0A0030AE0722
:10065E000A168A1110270A128A1190300A128A116C
:10066E0007200A128A114D300A168A1169270A12BA
:10067E008A1169300A168A1169270A128A116E3098
:10068E000A168A1169270A128A1173300A168A11FC
:10069E0069270A128A113A300A168A1169270A1234
:1006AE008A11793083120313D0005008BF008830AE
:1006BE000A128A1107200A128A11831203130714D1
:1006CE0087140711871588300A128A1107200A121B
:1006DE008A1154300A168A1169270A128A11693052
:1006EE000A168A1169270A128A116D300A168A11A2
:1006FE0069270A128A1165300A168A1169270A12A9
:10070E008A113A300A168A1169270A128A1183123F
:10071E0003132F08303E0A168A1169270A128A110E
:10072E00831203133108303E0A168A1169270A1202
:10073E008A113A300A168A1169270A128A1183120F
:10074E0003133308303E0A168A1169270A128A11DA
:10075E00831203133508303E0A168A1169270A12CE
:10076E008A11831203130710871407158715871B29
:10077E00C12BC22BF528C001BE01B101B201AF01E0
:10078E00B001B301B401B501B60101300A128A11EC
:10079E0007200A128A110800831203130710871408
:1007AE0007158715071ADC2BDD2BE52F01300A12F2
:1007BE008A1107200A128A1180300A128A11072024
:1007CE000A128A1144300A168A1169270A128A11EE
:1007DE0061300A168A1169270A128A1174300A16B4
:1007EE008A1169270A128A1165300A168A11692739
:1007FE000A128A115F300A168A1169270A128A11A3
:10080E0053300A168A1169270A128A1165300A16A0
:10081E008A1169270A128A1174300A168A116927F9
:10082E000A128A1174300A168A1169270A128A115D
:10083E0069300A168A1169270A128A116E300A1651
:10084E008A1169270A128A1167300A168A116927D6
:10085E000A128A1173300A168A1169270A128A112E
:10086E00831203130714871007158715871B402C57
:10087E00412CA22C78303F06031D462C472CA22C6F
:10088E000130D0005008C0070130B1070318B20A7A
:10089E000030B2073208F8003108F7000A30F900CC
:1008AE000030FA000A168A11B2260A128A11780846
:1008BE0083120313B2007708B1003008CC002F0862
:1008CE00CB003208CE003108CD003930D0005008B0
:1008DE00CF000A128A1523200A128A1183120313DB
:1008EE00D100D2015108AF005208B0004330D00001
:1008FE005008F00040080A168A11C4260A128A11FE
:10090E0083120313D1005108C0002F033004031DBE
:10091E00912C922C9D2C033031063204031D982C01
:10092E00992C9D2CB101B201AF01B0010A168A11AA
:10093E0010270A128A1183120313871BA72CA82CC7
:10094E000A2D79303F06031DAD2CAE2C0A2D013039
:10095E00D0005008BD070130AB070318AC0A0030B9
:10096E00AC072C08F8002B08F7000A30F90000300D
:10097E00FA000A168A11B2260A128A117808831210
:10098E000313AC007708AB002A08CC002908CB0073
:10099E002C08CE002B08CD003930D0005008CF00E7
:1009AE000A128A1523200A128A1183120313D10008
:1009BE00D2015108A9005208AA006430D000500894
:1009CE00F0003D080A168A11C4260A128A118312F3
:1009DE000313D1005108BD00033029062A04031D5C
:1009EE00F92CFA2C052D02302B062C04031D002D9C
:1009FE00012D052DA901AA01AB01AC010A168A1120
:100A0E0010270A128A1183120313871B0F2D102D24
:100A1E00632D7A303F06031D152D162D632D0130E3
:100A2E00D0005008BE070130B5070318B60A0030D3
:100A3E00B6073608F8003508F7000A30F90000301E
:100A4E00FA000A168A11B2260A128A11780883123F
:100A5E000313B6007708B5003408CC003308CB007A
:100A6E003608CE003508CD003930D0005008CF0002
:100A7E000A128A1523200A128A1183120313D10037
:100A8E00D2015108B3005208B4005A303E06031D7D
:100A9E00512D522D532DBE01063033063404031D45
:100AAE00592D5A2D5E2DB301B401B501B6010A16AA
:100ABE008A1110270A128A11831203134008D000DC
:100ACE005008D9003E08D0005008DB003D08D00089
:100ADE005008D8001130D0005008F0003930D10045
:100AEE005108F10040080A168A1152270A128A117B
:100AFE0083120313D2005208C0001130D0005008E8
:100B0E00F0003930D1005108F1003D080A168A1163
:100B1E0052270A128A1183120313D2005208BD0003
:100B2E002130D0005008F0004A30D1005108F100B9
:100B3E003D080A168A1152270A128A1183120313CC
:100B4E00D2005208BD001130D0005008F0003930EC
:100B5E00D1005108F1003D080A168A1152270A12D7
:100B6E008A1183120313D2005208BD002130D00027
:100B7E005008F0004A30D1005108F1003D080A1625
:100B8E008A1152270A128A1183120313D2005208B5
:100B9E00BD003130D0005008F0005930D10051085E
:100BAE00F1003D080A168A1152270A128A11831281
:100BBE000313D2005208BD001130D0005008F000CF
:100BCE003930D1005108F1003E080A168A11522719
:100BDE000A128A1183120313D2005208BE0021306A
:100BEE00D0005008F0004A30D1005108F1003E0804
:100BFE000A168A1152270A128A1183120313D2007F
:100C0E005208BE001130D0005008F0003930D1002B
:100C1E005108F1003E080A168A1152270A128A114B
:100C2E0083120313D2005208BE002130D0005008A8
:100C3E00F0004A30D1005108F1003E080A168A1120
:100C4E0052270A128A1183120313D2005208BE00D1
:100C5E003130D0005008F0005930D1005108F10069
:100C6E003E080A168A1152270A128A11831203139A
:100C7E00D2005208BE004130D0005008F0006A3059
:100C8E00D1005108F1003E080A168A1152270A12A5
:100C9E008A1183120313D2005208BE005130D000C5
:100CAE005008F0007A30D1005108F1003E080A16C3
:100CBE008A1152270A128A1183120313D200520884
:100CCE00BE0088300A128A1107200A128A11831276
:100CDE0003130710871407158715071B772E782E19
:100CEE008F2EC001BE01BD01B101B201AF01B00135
:100CFE00B301B401B501B60101300A128A11072001
:100D0E000A128A110A128A154F200A128A11E52F29
:100D1E0007108714071587152E08F8002D08F70001
:100D2E000330F9000030FA000A168A11B2260A12B0
:100D3E008A11780883120313AE007708AD00071AE4
:100D4E00A92EAA2EED2E2D082E04031DAF2EB02E89
:100D5E00ED2E90300A128A1107200A128A114430A1
:100D6E000A168A1169270A128A1161300A168A1127
:100D7E0069270A128A1179300A168A1169270A120E
:100D8E008A113A300A168A1169270A128A112030FE
:100D9E000A168A1169270A128A1120300A168A1138
:100DAE0069270A128A11793083120313D000500872
:100DBE00BF000A168A1110270A128A1101308312F7
:100DCE000313AD070318AE0A0030AE0707108714E1
:100DDE0007158715071AF42EF52E362F2D032E0420
:100DEE00031DFA2EFB2E362F0130AD070318AE0A67
:100DFE000030AE070A168A1110270A128A11903097
:100E0E000A128A1107200A128A114D300A168A1107
:100E1E0069270A128A116F300A168A1169270A1277
:100E2E008A116E300A168A1169270A128A117430D5
:100E3E000A168A1169270A128A1168300A168A114F
:100E4E0069270A128A113A300A168A1169270A127C
:100E5E008A11783083120313D0005008BF00071098
:100E6E00871407158715071A3D2F3E2F822F023044
:100E7E002D062E04031D442F452F822F0A168A118C
:100E8E0010270A128A11013083120313AD070318BB
:100E9E00AE0A0030AE0790300A128A1107200A12ED
:100EAE008A1159300A168A1169270A128A11653079
:100EBE000A168A1169270A128A1161300A168A11D6
:100ECE0069270A128A1172300A168A1169270A12C4
:100EDE008A113A300A168A1169270A128A112030AD
:100EEE000A168A1169270A128A117A30831203139D
:100EFE00D0005008BF0088300A128A1107200A124B
:100F0E008A11831203132908303E0A168A116927A3
:100F1E000A128A11831203132B08303E0A168A1105
:100F2E0069270A128A112F300A168A1169270A12A6
:100F3E008A11831203132F08303E0A168A1169276D
:100F4E000A128A11831203133108303E0A168A11CF
:100F5E0069270A128A112F300A168A1169270A1276
:100F6E008A11831203133308303E0A168A11692739
:100F7E000A128A11831203133508303E0A168A119B
:100F8E0069270A128A118312031307108714071593
:100F9E008715871BD32FD42FE32BC001BE01BD01B4
:100FAE00B101B201AF01B001B301B401B501B60197
:100FBE0001300A128A1107200A128A1108008313BF
:100FCE005D30FD001630FE009330FF00553084007A
:100FDE000A168A11EC260A128A11203084004B3030
:100FEE000A168A118B260A128A1183010A128A1195
:100FFE002028F300831203134608303EF100003020
:10100E0003180130F200730871067204031D1028D4
:10101E00112821284508303EF10000300318013018
:10102E00F200700871067204031D1E281F28212865
:10103E008914222889100800831203134D08303EAC
:10104E00FB004E080318013E003EFC004F087B06D5
:10105E007C04031D332834284D280130CB07031898
:10106E00CC0A0030CC074C08F8004B08F7000A30C9
:10107E00F9000030FA000A168A11B2260A128A15F1
:10108E00780883120313CC007708CB004B080800B6
:10109E00831203138616BE300A168A11AA270A1265
:1010AE008A15F501F6017508553E84008313000874
:1010BE000A168A11AA270A128A150130F507031893
:1010CE00F60A0030F6077608803AFF0080307F027D
:1010DE00031D732808307502031C762877285A28BA
:1010EE008312031386120800831203134D08303E39
:1010FE00FB004E080318013E003EFC004F087B0625
:10110E007C04031D8B288C28A528FF30CB070318E1
:10111E00CC0AFF30CC074C08F8004B08F7000A3019
:10112E00F9000030FA000A168A11B2260A128A1540
:10113E00780883120313CC007708CB004B08080005
:10114E00831203138616BF300A168A11AA270A12B3
:10115E008A15F601F7010A128A15D5200A128A1588
:10116E00F5007608203E8400750883138000013058
:10117E00F6070318F70A0030F7077708803AFF00E2
:10118E0080307F02031DCD2807307602031CD02845
:10119E00D128B2288312031386120800F401831695
:1011AE0003130616F201F3018312031306107408DB
:1011BE00F0000310700CF1007108F400061EE82810
:1011CE00E928EE2874088038F0007008F400061440
:1011DE000130F2070318F30A0030F3077308803A60
:1011EE00FF0080307F02031DFE2808307202031CB0
:1011FE0001290229DB288316031306128312031317
:10120E000610740808007008710403190F291029BC
:10121E003F29F501F50A1E2901300310F00DF10DDD
:10122E00FF3E031D14290130F4007408F507F11F69
:10123E0021292229132971087302031D28297008F8
:10124E007202031C2B292C2932297008F202710814
:10125E00031CF303F30201300310F10CF00CFF3EFC
:10126E00031D33290130F502031D3E293F29222992
:10127E007308F1007208F0000800F5010830F40060
:10128E007408F6000310F50C83120313091083166D
:10129E000313091000000000000000000000000011
:1012AE008316031309140000000000000000000064
:1012BE0000308312031309180130B90039080319DD
:1012CE0069296A296B29F5170730F4007408F000B4
:1012DE0002300A168A11D6260A128A150130F60233
:1012EE007608031D7B297C29492975080800F5011C
:1012FE00F50AB2298312031309108316031309107A
:10130E004630F4007408F00002300A168A11D62610
:10131E000A128A158316031309140830F400740890
:10132E00F00002300A168A11D6260A128A15831286
:10133E000313091CA329A429A729F501F50AA82935
:10134E00F5013C30F4007408F00002300A168A11E0
:10135E00D6260A128A157508031DB629B7298129C2
:10136E000800F7000830F4007408F8007708013917
:10137E00F4007408F6008312031309108316031386
:10138E000910000000000000000000007603031D9D
:10139E00D129D229D5298316031309140730F40055
:1013AE007408F00002300A168A11D6260A128A151F
:1013BE00831603130914000000007708F4000310CD
:1013CE00740CF5007508F7000130F8027808031D5B
:1013DE00F129F229BD290800FB01FC0176087704EA
:1013EE000319FA29FB29322AFD01FD0A092A0130C7
:1013FE000310F60DF70DFF3E031DFF290130FA0015
:10140E007A08FD07F71F0C2A0D2AFE29013003105A
:10141E00FB0DFC0DFF3E031D0E2A77087902031DFE
:10142E001A2A76087802031C1D2A1E2A252A7608F7
:10143E00F8027708031CF903F9027B14013003103C
:10144E00F70CF60CFF3E031D262A0130FD02031D8C
:10145E00312A322A0D2A7C08F7007B08F600080094
:10146E00F601F31F3B2A3C2A432AF209F309F20A3A
:10147E000319F30AF601F60AF11F462A472A4C2AE7
:10148E00F009F109F00A0319F10A70087104031941
:10149E00512A522A812AF501F50A602A01300310D9
:1014AE00F00DF10DFF3E031D562A0130F4007408B5
:1014BE00F507F11F632A642A552A71087302031D6A
:1014CE006A2A70087202031C6D2A6E2A742A70082A
:1014DE00F2027108031CF303F30201300310F10C46
:1014EE00F00CFF3E031D752A0130F502031D802A04
:1014FE00812A642A76080319852A862A8B2AF209FC
:10150E00F309F20A0319F30A7308F1007208F000E6
:10151E000800F601F11F942A952A9C2AF009F10978
:10152E00F00A0319F10AF601F60AF31F9F2AA02A00
:10153E00A92AF209F309F20A0319F30A0130F40099
:10154E007408F606F701F801700871040319B02A41
:10155E00B12AE82AF501F50ABF2A01300310F00D71
:10156E00F10DFF3E031DB52A0130F4007408F50796
:10157E00F11FC22AC32AB42A01300310F70DF80D49
:10158E00FF3E031DC42A71087302031DD02A700882
:10159E007202031CD32AD42ADB2A7008F2027108C5
:1015AE00031CF303F302771401300310F10CF00C5B
:1015BE00FF3E031DDC2A0130F502031DE72AE82A4F
:1015CE00C32A76080319EC2AED2AF22AF709F8093C
:1015DE00F70A0319F80A7808F1007708F0000800F6
:1015EE00831203138618FC2AFD2A052B2308F30009
:1015FE007308A0002408F3007308A1002308F03933
:10160E00F300F4017308F5007408F600750E0F3937
:10161E00F500760EF039F504760E0F39F600F0303F
:10162E00F61D0030F6047508303E0A168A11692739
:10163E000A128A158312031323080F39F300F401DB
:10164E007308F5007408F6007508303E0A168A1104
:10165E0069270A128A152F300A168A1169270A126B
:10166E008A15831203132408F039F300F40173086A
:10167E00F5007408F600750E0F39F500760EF03988
:10168E00F504760E0F39F600F030F61D0030F60434
:10169E007508303E0A168A1169270A128A158312B6
:1016AE00031324080F39F300F4017308F5007408CE
:1016BE00F6007508303E0A168A1169270A128A1535
:1016CE002F300A168A1169270A128A1583120313FC
:1016DE002608F039F300F4017308F5007408F600DB
:1016EE007508303E0A168A1169270A128A15831266
:1016FE00031326080F39F300F4017308F50074087C
:10170E00F6007508303E0A168A1169270A128A15E4
:10171E000800831203138618952B962B9E2B2308F5
:10172E00F3007308A0002408F3007308A100220838
:10173E00F039F300F4017308F5007408F600750E25
:10174E000F39F500760EF039F504760E0F39F600E6
:10175E00F030F61D0030F6047508303E0A168A1178
:10176E0069270A128A158312031322080F39F30010
:10177E00F4017308F5007408F6007508303E0A1679
:10178E008A1169270A128A153A300A168A116927B0
:10179E000A128A15831203132108F039F300F4019B
:1017AE007308F5007408F600750E0F39F500760E05
:1017BE00F039F504760E0F39F600F030F61D0030D4
:1017CE00F6047508303E0A168A1169270A128A1520
:1017DE008312031321080F39F300F4017308F50087
:1017EE007408F6007508303E0A168A1169270A1227
:1017FE008A153A300A168A1169270A128A15831237
:10180E0003132008F039F300F4017308F50074088F
:10181E00F600750E0F39F500760EF039F504760EDA
:10182E000F39F600F030F61D0030F6047508303E24
:10183E000A168A1169270A128A15831203132008C1
:10184E000F39F300F4017308F5007408F6007508FB
:10185E00303E0A168A1169270A128A150800831665
:10186E00031309140A128A157E210A128A15CC3026
:10187E000A128A15B8210A128A150A168A113C27ED
:10188E000A128A1544300A128A15B8210A128A15CC
:10189E000A128A157E210A128A15CC300A128A156E
:1018AE00B8210A128A15BE300A128A15B8210A12F8
:1018BE008A150A128A1544210A128A1583120313F5
:1018CE00CB004B08CA000A128A1544210A128A1547
:1018DE0083120313CB004B08C9008316031309149C
:1018EE00831203134908CB0004300310CB0DFF3EC7
:1018FE00031D7C2C3F304B05CC004A08CD00043034
:10190E000310CD0CFF3E031D872C4D084C04CE005A
:10191E004E08C8004A08CB0003300310CB0DFF3E23
:10192E00031D942C03104B0DCC004C08C7000A303D
:10193E00F0000030F1004808CB00CC014B08F2005B
:10194E004C08F3000A128A1537220A128A157008FB
:10195E0083120313CD004D08C5000A30F00000308D
:10196E00F1004808CB00CC014B08F2004C08F30004
:10197E000A128A1590220A128A157008831203130E
:10198E00CD004D08C600B701B801C71FCF2CD02C13
:10199E00D82C3708883EB70038080318013E133E8E
:1019AE00B800471FDB2CDC2CE42C3708C43EB700F4
:1019BE0038080318013E093EB800C71EE72CE82C74
:1019CE00F02C3708E23EB70038080318013E043EFB
:1019DE00B800471EF32CF42CFC2C3708713EB700D0
:1019EE0038080318013E023EB800E830F600033016
:1019FE00F7003808F9003708F8000A128A15F321A3
:101A0E000A128A15760883120313CB004B08C40002
:101A1E006430F6000030F7003808F3003708F200A3
:101A2E00E830F0000330F1000A128A150A210A127A
:101A3E008A157108F9007008F8000A128A15F32148
:101A4E000A128A15760883120313CB004B08C300C3
:101A5E000A30F6000030F7003808F3003708F200BD
:101A6E006430F0000030F1000A128A150A210A12C1
:101A7E008A157108F9007008F8000A128A15F32108
:101A8E000A128A15760883120313CB004B08C20084
:101A9E000A30F0000030F1003808F3003708F20089
:101AAE000A128A150A210A128A1570088312031364
:101ABE00CB004B08C100000008008312031307146B
:101ACE00871007158715071A6D2D6E2DFF2F013004
:101ADE000A128A1107200A128A1580300A128A11F8
:101AEE0007200A128A1574300A168A1169270A12FB
:101AFE008A1568300A168A1169270A128A157230F9
:101B0E000A168A1169270A128A1565300A168A1171
:101B1E0069270A128A1573300A168A1169270A1262
:101B2E008A1568300A168A1169270A128A156F30CB
:101B3E000A168A1169270A128A156C300A168A113A
:101B4E0069270A128A1564300A168A1169270A1241
:101B5E008A1590300A128A1107200A128A1543300C
:101B6E000A168A1169270A128A1575300A168A1101
:101B7E0069270A128A1572300A168A1169270A1203
:101B8E008A1572300A168A1169270A128A1565306B
:101B9E000A168A1169270A128A156E300A168A11D8
:101BAE0069270A128A1574300A168A1169270A12D1
:101BBE008A153A300A168A1169270A128A15831273
:101BCE0003133B08303E0A168A1169270A128A153A
:101BDE00831203133A08303E0A168A1169270A1235
:101BEE008A1588300A128A1107200A128A15533074
:101BFE000A168A1169270A128A1565300A168A1181
:101C0E0069270A128A1574300A168A1169270A1270
:101C1E008A155F300A168A1169270A128A157430DE
:101C2E000A168A1169270A128A1568300A168A114D
:101C3E0069270A128A1572300A168A1169270A1242
:101C4E008A1565300A168A1169270A128A157330A9
:101C5E000A168A1169270A128A1568300A168A111D
:101C6E0069270A128A156F300A168A1169270A1215
:101C7E008A156C300A168A1169270A128A15643081
:101C8E000A168A1169270A128A153A300A168A111B
:101C9E0069270A128A1598300A128A1107200A1229
:101CAE008A15831203130714871007158715B501BC
:101CBE00B601B301B401B101B201AF01B001B1017E
:101CCE00B2010714871007158715871B6F2E702E0C
:101CDE00D32E98300A128A1107200A128A15013063
:101CEE0083120313B1070318B20A0030B2072F088C
:101CFE00D000D1015008AF005108B0003208F800F2
:101D0E003108F7000A30F9000030FA000A168A117D
:101D1E00B2260A128A15770883120313D000D10156
:101D2E005008B1005108B2002F08303E0A168A1131
:101D3E0069270A128A15831203133108303E0A16D8
:101D4E008A1169270A128A15831203133008CC00F0
:101D5E002F08CB003208CE003108CD003930D0002C
:101D6E005008CF000A128A1523200A128A158312F0
:101D7E000313D100D2015108AF005208B00032084F
:101D8E00B6003108B5003008B4002F08B3000A16AB
:101D9E008A1110270A128A1583120313071087144B
:101DAE0007158715071BDC2EDD2E2D2F2F08D000D3
:101DBE005008BB003108D0005008BA003A08D000D5
:101DCE005008F0003B080A128A1500200A128A15E4
:101DDE0001300A128A1107200A128A1553300A1688
:101DEE008A1169270A128A1541300A168A11692743
:101DFE000A128A1556300A168A1169270A128A158E
:101E0E0045300A168A1169270A128A1544300A16B5
:101E1E008A1169270A128A1583120313D301D4017A
:101E2E00013083120313D3070318D40A0030D407EA
:101E3E005408803AFF00F5307F02031D282F303002
:101E4E005302031C2B2F2C2F172FFF2F0714871431
:101E5E0007118715871B342F352FAB2F98300A1299
:101E6E008A1107200A128A15013083120313B50254
:101E7E000030031CB603B6023308D000D10150085F
:101E8E00B3005108B4003608F8003508F7000A30E0
:101E9E00F9000030FA000A168A11B2260A128A15C3
:101EAE00770883120313D000D1015008B5005108F2
:101EBE00B6003308303E0A168A1169270A128A15AF
:101ECE00831203133508303E0A168A1169270A1247
:101EDE008A15831203133408CC003308CB0036085E
:101EEE00CE003508CD003030D0005008CF000A1299
:101EFE008A157B200A128A1583120313D100D20190
:101F0E005108B3005208B4003508303ED0003608F0
:101F1E000318013E003ED100303050065104031D1F
:101F2E00992F9A2F9E2F0A30B5000030B600360832
:101F3E00B2003508B1003408B0003308AF000A16FD
:101F4E008A1110270A128A15831203130710871499
:101F5E0007158715071BB42FB52FF12F3308D000A7
:101F6E005008BB003508D0005008BA003A08D0001F
:101F7E005008F0003B080A128A1500200A128A1532
:101F8E0001300A128A1107200A128A1553300A16D6
:101F9E008A1169270A128A1541300A168A11692791
:101FAE000A128A1556300A168A1169270A128A15DC
:101FBE0045300A168A1169270A128A1544300A1604
:101FCE008A1169270A128A150A168A1110270A120F
:101FDE008A15FF2F0710871407158715871BF82FF3
:101FEE00F92F682E01300A128A1107200A128A155B
:021FFE000800D9
:102D080083160313890183120313890108006400E1
:102D18008001840A04060319003404068C2E00344A
:102D2800003440342434113406342234003407305B
:102D3800831603139F000514880181018901080087
:102D48000630831603139F00F030870083120313A5
:102D5800C001BF01BE01AD01AE0108007A08F10053
:102D68007908F0007808F3007708F2000A128A154B
:102D780037220A168A117108F8007008F70008004F
:102D8800F3007308303EF100003003180130F20000
:102D9800700871067204031DD22ED32ED42EF301AF
:102DA80073080800F2007008F1007108F3000130A0
:102DB800F302031DE02EE12EDB2E0130F202031D8B
:102DC800E62EE72ED72E08007E088A007F088200AC
:102DD8000A168A11E8260A168A118000840A04084D
:102DE8007D0603190034FF0A0319FE0AEC2E83122C
:102DF80003130610861286168E300A168A11AA2721
:102E08000A168A1100300A168A11AA270A168A1188
:102E18008312031386120800F001F1010130F00754
:102E28000318F10A0030F1077108803AFF00A73053
:102E38007F02031D212F10307002031C242F252F21
:102E4800122F0800F001F1010130F0070318F10A10
:102E58000030F1077108803AFF0080307F02031DBF
:102E6800372F05307002031C3A2F3B2F282F0800FC
:102E7800F001F1010130F0070318F10A0030F10701
:102E88007108803AFF0080307F02031D4D2F3230D9
:102E98007002031C502F512F3E2F0800F4007408B5
:102EA800303EF200003003180130F300710872065A
:102EB8007304031D602F612F672F7008F2007208DA
:102EC800F4000130F40274080800F20083120313BE
:102ED8008516051285110A168A1126270A168A11DF
:102EE800831203138515720888000A168A1126278B
:102EF8000A168A1183120313851108008316031317
:102F080085018312031305100A168A1126270A164B
:102F18008A11831203130514051530300A128A1119
:102F280007200A168A1101300A128A1107200A1688
:102F38008A1106300A128A1107200A168A110C30E3
:102F48000A128A1107200A168A110800F400F201F1
:102F5800F3018312031306120610741CB42FB52F45
:102F6800B62F06167408F0000310700CF1007108F3
:102F7800F40006140130F2070318F30A0030F307CF
:102F88007308803AFF0080307F02031DCD2F083080
:102F98007202031CD02FD12FAD2F831203130610FA
:102FA8000800831203134608303E0A168A1169275F
:102FB8000A168A11831203134508303E0A168A112D
:102FC80069270A168A112E300A168A1169270A16E5
:102FD8008A11831203134408303E0A168A1169279E
:102FE8000A168A11831203134308303E0A168A11FF
:082FF80069270A168A1108007E
:02400E00323F3F
:00000001FF
