:020000040000FA
:100000000A128A11F32FF7000830F4007408F80080
:1000100077080139F4007408F600831203130910FD
:100020008316031309100000000000000000000008
:100030007603031D1C281D2820288316031309148A
:100040000730F4007408F00002300A128A155625B1
:100050000A128A118316031309140000000077089E
:10006000F4000310740CF5007508F7000130F80275
:100070007808031D3C283D2808280800F601F31FD6
:10008000422843284A28F209F309F20A0319F30A1D
:10009000F601F60AF11F4D284E285328F009F10900
:1000A000F00A0319F10A7008710403195828592835
:1000B0008828F501F50A672801300310F00DF10DCD
:1000C000FF3E031D5D280130F4007408F507F11FA1
:1000D0006A286B285C2871087302031D7128700858
:1000E0007202031C742875287B287008F2027108BC
:1000F000031CF303F30201300310F10CF00CFF3E7C
:10010000031D7C280130F502031D872888286B28F1
:10011000760803198C288D289228F209F309F20A2F
:100120000319F30A7308F1007208F0000800F601E1
:10013000F11F9B289C28A328F009F109F00A031954
:10014000F10AF601F60AF31FA628A728B028F2093B
:10015000F309F20A0319F30A0130F4007408F606F1
:10016000F701F801700871040319B728B828EF28BF
:10017000F501F50AC62801300310F00DF10DFF3E20
:10018000031DBC280130F4007408F507F11FC928CD
:10019000CA28BB2801300310F70DF80DFF3E031DE0
:1001A000CB2871087302031DD72870087202031C44
:1001B000DA28DB28E2287008F2027108031CF30336
:1001C000F302771401300310F10CF00CFF3E031D15
:1001D000E3280130F502031DEE28EF28CA2876082F
:1001E0000319F328F428F928F709F809F70A03197D
:1001F000F80A7808F1007708F0000800831203136A
:100200000710871407158715071A07290829722967
:1002100001300A128A15C2250A128A1180300A1288
:100220008A15C2250A128A1144300A128A15A92594
:100230000A128A1161300A128A15A9250A128A1136
:1002400074300A128A15A9250A128A1165300A1219
:100250008A15A9250A128A115F300A128A15A92562
:100260000A128A1153300A128A15A9250A128A1114
:1002700065300A128A15A9250A128A1174300A12E9
:100280008A15A9250A128A1174300A128A15A9251D
:100290000A128A1169300A128A15A9250A128A11CE
:1002A0006E300A128A15A9250A128A1167300A12BD
:1002B0008A15A9250A128A1173300A128A15A925EE
:1002C0000A128A1183120313071087140715871562
:1002D000871B6B296C290E2901300A128A15C22549
:1002E0000A128A11080083120313071487140711D6
:1002F0008715071A7C297D29E72901300A128A15FA
:10030000C2250A128A1180300A128A15C2250A12E1
:100310008A1154300A128A15A9250A128A116930E5
:100320000A128A15A9250A128A116D300A128A1535
:10033000A9250A128A1165300A128A15A9250A12FE
:100340008A115F300A128A15A9250A128A115330C0
:100350000A128A15A9250A128A1165300A128A150D
:10036000A9250A128A1174300A128A15A9250A12BF
:100370008A1174300A128A15A9250A128A11693065
:100380000A128A15A9250A128A116E300A128A15D4
:10039000A9250A128A1167300A128A15A9250A129C
:1003A0008A1173300A128A15A9250A128A1183123A
:1003B00003130710871407158715871BE029E12908
:1003C000832901300A128A15C2250A128A110800EF
:1003D000831203138618ED29EE29F6292308F3006A
:1003E0007308A0002408F3007308A1002308F03963
:1003F000F300F4017308F5007408F600750E0F3968
:10040000F500760EF039F504760E0F39F600F0306F
:10041000F61D0030F6047508303E0A128A15A9252B
:100420000A128A118312031323080F39F300F4010F
:100430007308F5007408F6007508303E0A128A1534
:10044000A9250A128A112F300A128A15A9250A1223
:100450008A11831203132408F039F300F40173089E
:10046000F5007408F600750E0F39F500760EF039B8
:10047000F504760E0F39F600F030F61D0030F60464
:100480007508303E0A128A15A9250A128A118312AC
:10049000031324080F39F300F4017308F5007408FE
:1004A000F6007508303E0A128A15A9250A128A112B
:1004B0002F300A128A15A9250A128A1183120313F2
:1004C0002608F039F300F4017308F5007408F6000B
:1004D0007508303E0A128A15A9250A128A1183125C
:1004E000031326080F39F300F4017308F5007408AC
:1004F000F6007508303E0A128A15A9250A128A11DB
:100500000800831203138618862A872A8F2A230855
:10051000F3007308A0002408F3007308A100220868
:10052000F039F300F4017308F5007408F600750E55
:100530000F39F500760EF039F504760E0F39F60016
:10054000F030F61D0030F6047508303E0A128A15A8
:10055000A9250A128A118312031322080F39F30006
:10056000F4017308F5007408F6007508303E0A12AD
:100570008A15A9250A128A113A300A128A15A92564
:100580000A128A11831203132108F039F300F401CF
:100590007308F5007408F600750E0F39F500760E35
:1005A000F039F504760E0F39F600F030F61D003004
:1005B000F6047508303E0A128A15A9250A128A1116
:1005C0008312031321080F39F300F4017308F500B7
:1005D0007408F6007508303E0A128A15A9250A1219
:1005E0008A113A300A128A15A9250A128A11831231
:1005F00003132008F039F300F4017308F5007408C0
:10060000F600750E0F39F500760EF039F504760E0A
:100610000F39F600F030F61D0030F6047508303E54
:100620000A128A15A9250A128A11831203132008B7
:100630000F39F300F4017308F5007408F60075082B
:10064000303E0A128A15A9250A128A1108000230C2
:100650008316031386000A128A1537250A128A1197
:100660000A128A15AA260A128A110A128A15682500
:100670000A128A110A128A154D250A128A110A12C3
:100680008A15FE250A128A110A128A1537250A12BE
:100690008A110A128A153E250A128A110A128A1133
:1006A000EC230A128A110A128A157C260A128A1170
:1006B00080300A128A15C2250A128A1154300A1291
:1006C0008A15A9250A128A1165300A128A15A925E8
:1006D0000A128A116D300A128A15A9250A128A1186
:1006E00070300A128A15A9250A128A113A300A12A4
:1006F0008A15A9250A128A110A128A1526260A12B3
:100700008A1190300A128A15C2250A128A114430C1
:100710000A128A15A9250A128A1161300A128A154D
:10072000A9250A128A1174300A128A15A9250A12FB
:100730008A1165300A128A15A9250A128A113A30DF
:100740000A128A15A9250A128A1120300A128A155E
:10075000A9250A128A110A128A11E8210A128A119D
:1007600088300A128A15C2250A128A1154300A12D8
:100770008A15A9250A128A1169300A128A15A92533
:100780000A128A116D300A128A15A9250A128A11D5
:1007900065300A128A15A9250A128A113A300A12FE
:1007A0008A15A9250A128A110A128A1181220A12AF
:1007B0008A110A128A111A250A128A110A128A113A
:1007C000FE200A128A110A128A1173210A128A1152
:1007D0004E2B0A128A1100288316031309140A12D9
:1007E0008A1582270A128A11CC300A128A11032034
:1007F0000A128A110A128A1593250A128A114430A4
:100800000A128A1103200A128A110A128A158227F3
:100810000A128A11CC300A128A1103200A128A1194
:10082000BE300A128A1103200A128A110A128A158E
:1008300048270A128A1183120313B6003608B5003E
:100840000A128A1548270A128A1183120313B60066
:100850003608B400831603130914831203133408F3
:10086000B60004300310B60DFF3E031D322C3F309E
:100870003605B7003508B80004300310B80CFF3E49
:10088000031D3D2C38083704B9003908B30035087A
:10089000B60003300310B60DFF3E031D4A2C0310B3
:1008A000360DB7003708B2000A30F0000030F10012
:1008B0003308B600B7013608F2003708F3000A1211
:1008C0008A113E200A128A11700883120313B8009D
:1008D0003808B0000A30F0000030F1003308B600EC
:1008E000B7013608F2003708F3000A128A11972080
:1008F0000A128A11700883120313B8003808B10075
:10090000A701A801B21F852C862C8E2C2708883EB3
:10091000A70028080318013E133EA800321F912C9F
:10092000922C9A2C2708C43EA70028080318013EE1
:10093000093EA800B21E9D2C9E2CA62C2708E23E44
:10094000A70028080318013E043EA800321EA92C67
:10095000AA2CB22C2708713EA70028080318013ED4
:10096000023EA800E830F6000330F7002808F9003E
:100970002708F8000A128A15BC270A128A1176087D
:1009800083120313B6003608AF006430F60000305F
:10099000F7002808F3002708F200E830F0000330E1
:1009A000F1000A128A150E270A128A117108F9003D
:1009B0007008F8000A128A15BC270A128A117608F4
:1009C00083120313B6003608AE000A30F60000307A
:1009D000F7002808F3002708F2006430F000003028
:1009E000F1000A128A150E270A128A117108F900FD
:1009F0007008F8000A128A15BC270A128A117608B4
:100A000083120313B6003608AD000A30F000003040
:100A1000F1002808F3002708F2000A128A150E27B1
:100A20000A128A11700883120313B6003608AC004C
:100A30000000080083120313071487100715871599
:100A4000071A232D242DF22F01300A128A15C225F0
:100A50000A128A1180300A128A15C2250A128A11D6
:100A600074300A128A15A9250A128A1168300A12EE
:100A70008A15A9250A128A1172300A128A15A92527
:100A80000A128A1165300A128A15A9250A128A11DA
:100A900073300A128A15A9250A128A1168300A12BF
:100AA0008A15A9250A128A116F300A128A15A925FA
:100AB0000A128A116C300A128A15A9250A128A11A3
:100AC00064300A128A15A9250A128A1190300A1276
:100AD0008A15C2250A128A1143300A128A15A925DD
:100AE0000A128A1175300A128A15A9250A128A116A
:100AF00072300A128A15A9250A128A1172300A1256
:100B00008A15A9250A128A1165300A128A15A925A3
:100B10000A128A116E300A128A15A9250A128A1140
:100B200074300A128A15A9250A128A113A300A125B
:100B30008A15A9250A128A11831203132B08303E45
:100B40000A128A15A9250A128A11831203132A0888
:100B5000303E0A128A15A9250A128A1188300A1213
:100B60008A15C2250A128A1153300A128A15A9253C
:100B70000A128A1165300A128A15A9250A128A11E9
:100B800074300A128A15A9250A128A115F300A12D6
:100B90008A15A9250A128A1174300A128A15A92504
:100BA0000A128A1168300A128A15A9250A128A11B6
:100BB00072300A128A15A9250A128A1165300A12A2
:100BC0008A15A9250A128A1173300A128A15A925D5
:100BD0000A128A1168300A128A15A9250A128A1186
:100BE0006F300A128A15A9250A128A116C300A126E
:100BF0008A15A9250A128A1164300A128A15A925B4
:100C00000A128A113A300A128A15A9250A128A1183
:100C100098300A128A15C2250A128A118312031308
:100C20000714871007158715C201C301BE01BF0154
:100C3000C001C101C401C50107148710071587153C
:100C4000871B232E242EA42E98300A128A15C22523
:100C50000A128A11013083120313C4070318C50A4C
:100C60000030C5070A30F0000030F1004508F300FD
:100C70004408F2000A128A113E200A128A117008F2
:100C8000F700F801770883120313C4007808C50041
:100C90004008303E0A128A15A9250A128A118312C9
:100CA00003134408303E0A128A15A9250A128A1134
:100CB000831203134408303EF70045080318013E31
:100CC000003EF800393077067804031D682E692E3F
:100CD000852E0130C0070318C10A0030C1070A3051
:100CE000F0000030F1004108F3004008F2000A1261
:100CF0008A113E200A128A117008F700F80177085D
:100D000083120313C0007808C1004508C3004408DB
:100D1000C2004108BF004008BE00B601B701013063
:100D200083120313B6070318B70A0030B707370852
:100D3000803AFF00A7307F02031DA02E103036023C
:100D4000031CA32EA42E8F2E8312031307108714C7
:100D500007158715071BAD2EAE2EFE2E4008F70097
:100D60007708AB004408F7007708AA002A08F700C4
:100D70007708F0002B080A128A15DB250A128A115F
:100D800001300A128A15C2250A128A1153300A123A
:100D90008A15A9250A128A1141300A128A15A92535
:100DA0000A128A1156300A128A15A9250A128A11C6
:100DB00045300A128A15A9250A128A1144300A12EE
:100DC0008A15A9250A128A1183120313B801B901E1
:100DD000013083120313B8070318B90A0030B907AA
:100DE0003908803AFF00F5307F02031DF92E3030BC
:100DF0003802031CFC2EFD2EE82EF22F0714871458
:100E000007118715871B052F062F8A2F98300A1286
:100E10008A15C2250A128A11FF3083120313C207F2
:100E20000318C30AFF30C3070A30F0000030F10096
:100E30004308F3004208F2000A128A113E200A1207
:100E40008A117008F700F801770883120313C200B3
:100E50007808C3003E08303E0A128A15A9250A12F6
:100E60008A11831203134208303E0A128A15A925FB
:100E70000A128A11831203134208303EF700430816
:100E80000318013E003EF800303077067804031D59
:100E90004A2F4B2F6B2FFF30BE070318BF0AFF30BE
:100EA000BF070A30F0000030F1003F08F3003E08B1
:100EB000F2000A128A113E200A128A117008F70005
:100EC000F801770883120313BE007808BF000A30C8
:100ED000C2000030C3004308C5004208C4003F08F8
:100EE000C1003E08C000BA01BB01013083120313E8
:100EF000BA070318BB0A0030BB073B08803AFF0063
:100F0000A7307F02031D862F10303A02031C892F61
:100F10008A2F752F8312031307108714071587155F
:100F2000071B932F942FE42F3E08F7007708AB00A0
:100F30004208F7007708AA002A08F7007708F000AF
:100F40002B080A128A15DB250A128A1101300A12AF
:100F50008A15C2250A128A1153300A128A15A92548
:100F60000A128A1141300A128A15A9250A128A1119
:100F700056300A128A15A9250A128A1145300A121A
:100F80008A15A9250A128A1144300A128A15A92540
:100F90000A128A1183120313BC01BD0101308312AE
:100FA0000313BC070318BD0A0030BD073D08803A93
:100FB000FF00A7307F02031DDF2F10303C02031C0F
:100FC000E22FE32FCE2FF22F071087140715871576
:100FD000871BEB2FEC2F1C2E01300A128A15C2251D
:100FE0000A128A11080083132030840036300A1256
:100FF0008A1545250A128A1183010A128A11272BA4
:1010000008308A000408840A82070034003443341C
:0C10100007342434113406340934003451
:101A6E0083160313890183120313890108000630BC
:101A7E00831603139F00F030870008006400800176
:101A8E00840A0406031900340406462D0730831613
:101A9E0003139F0005148801810189010800F200DB
:101AAE007008F1007108F3000130F302031D602D80
:101ABE00612D5B2D0130F202031D662D672D572D12
:101ACE000800831203130610861286168E300A1231
:101ADE008A1551260A128A1500300A128A155126C5
:101AEE000A128A158312031386120800F001F101FF
:101AFE000130F0070318F10A0030F1077108803A3F
:101B0E00FF0080307F02031D8E2D05307002031CF6
:101B1E00912D922D7F2D0800F001F1010130F0077B
:101B2E000318F10A0030F1077108803AFF00803087
:101B3E007F02031DA42D32307002031CA72DA82D89
:101B4E00952D0800F20083120313851605128511D8
:101B5E000A128A157D250A128A158312031385151A
:101B6E00720888000A128A157D250A128A158312B8
:101B7E00031385110800F200831203138512051258
:101B8E0085110A128A157D250A128A1583120313EE
:101B9E008515720888000A128A157D250A128A1583
:101BAE008312031385110800F30083120313310807
:101BBE00303EF100003003180130F2007308710658
:101BCE007204031DEB2DEC2DFC2D3008303EF10080
:101BDE00003003180130F200700871067204031D04
:101BEE00F92DFA2DFC2D8914FD2D89100800831670
:101BFE00031385018312031305100A128A157D251E
:101C0E000A128A15831203130514051530300A12B1
:101C1E008A15C2250A128A1501300A128A15C225A2
:101C2E000A128A1506300A128A15C2250A128A1558
:101C3E000C300A128A15C2250A128A150800831260
:101C4E0003133108303E0A128A15A9250A128A1585
:101C5E00831203133008303E0A128A15A9250A1280
:101C6E008A152E300A128A15A9250A128A15831290
:101C7E0003132F08303E0A128A15A9250A128A1557
:101C8E00831203132E08303E0A128A15A9250A1252
:101C9E008A150800F400F201F301831203130612F1
:101CAE000610741C5B2E5C2E5D2E06167408F0005A
:101CBE000310700CF1007108F40006140130F207E5
:101CCE000318F30A0030F3077308803AFF008030E0
:101CDE007F02031D742E08307202031C772E782E9D
:101CEE00542E831203130610080083120313861654
:101CFE00BF300A128A1551260A128A15F601F7010B
:101D0E000A128A15D9260A128A15F5007608203E7F
:101D1E0084007508831380000130F6070318F70A54
:101D2E000030F7077708803AFF0080307F02031DEE
:101D3E00A22E07307602031CA52EA62E872E831206
:101D4E00031386120800831203138616BE300A127E
:101D5E008A1551260A128A15F501F6017508013EFB
:101D6E0084000A128A1500200A128A150A128A1590
:101D7E0051260A128A150130F5070318F60A0030AB
:101D8E00F6077608803AFF0080307F02031DD12EC1
:101D9E0008307502031CD42ED52EB52E83120313D4
:101DAE0086120800F401831603130616F201F301DE
:101DBE008312031306107408F0000310700CF10068
:101DCE007108F400061EEC2EED2EF22E74088038EB
:101DDE00F0007008F40006140130F2070318F30A3D
:101DEE000030F3077308803AFF0080307F02031D36
:101DFE00022F08307202031C052F062FDF2E8316CA
:101E0E0003130612831203130610740808007008D9
:101E1E0071040319132F142F432FF501F50A222FE6
:101E2E0001300310F00DF10DFF3E031D182F013090
:101E3E00F4007408F507F11F252F262F172F7108B0
:101E4E007302031D2C2F70087202031C2F2F302FCC
:101E5E00362F7008F2027108031CF303F3020130EF
:101E6E000310F10CF00CFF3E031D372F0130F5026D
:101E7E00031D422F432F262F7308F1007208F00026
:101E8E000800F5010830F4007408F6000310F50C94
:101E9E0083120313091083160313091000000000A8
:101EAE000000000000000000831603130914000058
:101EBE000000000000000000003083120313091818
:101ECE000130A900290803196D2F6E2F6F2FF517FA
:101EDE000730F4007408F00002300A128A155625F5
:101EEE000A128A150130F6027608031D7F2F802F05
:101EFE004D2F75080800F501F50AB62F831203134E
:101F0E0009108316031309104630F4007408F0000C
:101F1E0002300A128A1556250A128A1583160313E1
:101F2E0009140830F4007408F00002300A128A1501
:101F3E0056250A128A1583120313091CA72FA82FE0
:101F4E00AB2FF501F50AAC2FF5013C30F400740807
:101F5E00F00002300A128A1556250A128A157508E3
:101F6E00031DBA2FBB2F852F0800FB01FC0176083D
:101F7E0077040319C32FC42FFB2FFD01FD0AD22FA7
:101F8E0001300310F60DF70DFF3E031DC82F013073
:101F9E00FA007A08FD07F71FD52FD62FC72F01306D
:101FAE000310FB0DFC0DFF3E031DD72F77087902A2
:101FBE00031DE32F76087802031CE62FE72FEE2F82
:101FCE007608F8027708031CF903F9027B14013036
:101FDE000310F70CF60CFF3E031DEF2F0130FD0230
:101FEE00031DFA2FFB2FD62F7C08F7007B08F60077
:021FFE000800D9
:02400E00323F3F
:00000001FF
