:020000040000FA
:100000000A128A11E62F8316031385018312031344
:1000100005100A128A1573210A128A11831203131A
:100020000514051530300A128A15CF210A128A11DB
:1000300001300A128A15CF210A128A1106300A12DB
:100040008A15CF210A128A110C300A128A15CF2183
:100050000A128A110800F601F11F2F2830283728CC
:10006000F009F109F00A0319F10AF601F60AF31F83
:100070003A283B284428F209F309F20A0319F30A43
:100080000130F4007408F606F701F80170087104F5
:1000900003194B284C288328F501F50A5A2801300A
:1000A0000310F00DF10DFF3E031D50280130F40048
:1000B0007408F507F11F5D285E284F2801300310F2
:1000C000F70DF80DFF3E031D5F2871087302031D35
:1000D0006B2870087202031C6E286F28762870083F
:1000E000F2027108031CF303F302771401300310CA
:1000F000F10CF00CFF3E031D77280130F502031DC3
:10010000822883285E2876080319872888288D2866
:10011000F709F809F70A0319F80A7808F1007708CF
:10012000F0000800831203130710871407158715C2
:10013000071A9B289C285B2A01300A128A15CF21B6
:100140000A128A1180300A128A15CF210A128A11E6
:1001500044300A128A15B6210A128A1161300A1235
:100160008A15B6210A128A1174300A128A15B6212C
:100170000A128A1165300A128A15B6210A128A11EA
:100180005F300A128A15B6210A128A1153300A12F8
:100190008A15B6210A128A1165300A128A15B6210B
:1001A0000A128A1174300A128A15B6210A128A11AB
:1001B00074300A128A15B6210A128A1169300A129D
:1001C0008A15B6210A128A116E300A128A15B621D2
:1001D0000A128A1167300A128A15B6210A128A1188
:1001E00073300A128A15B6210A128A118312031378
:1001F0000714871007158715871BFF28002910296A
:1002000078303806031D0529062910290130FB0026
:100210007B08B9070A128A155D210A128A1126295C
:10022000871B132914291B2979303806031D192926
:100230001A291B290A29871B1E291F2926297A30DA
:100240003806031D2429252926290A2988300A125F
:100250008A15CF210A128A118312031307108714FB
:1002600007158715071B35293629422901300A123F
:100270008A15CF210A128A110A128A1561220A12DE
:100280008A115B2A07108714071587152808F800BC
:100290002708F7000330F9000030FA000A128A1527
:1002A000FF200A128A11780883120313A800770826
:1002B000A700071A5C295D29A62927082804031D21
:1002C00062296329A62990300A128A15CF210A12C1
:1002D0008A1144300A128A15B6210A128A11613035
:1002E0000A128A15B6210A128A1179300A128A1561
:1002F000B6210A128A113A300A128A15B6210A1258
:100300008A1120300A128A15B6210A128A11203069
:100310000A128A15B6210A128A117830FB007B086E
:1003200083120313B80088300A128A15CF210A12EB
:100330008A110A128A155D210A128A11013083126C
:100340000313A7070318A80A0030A807071087148B
:1003500007158715071AAD29AE29F52927032804A3
:10036000031DB329B429F5290130A7070318A80AEA
:100370000030A8070A128A155D210A128A119030EE
:100380000A128A15CF210A128A114D300A128A15D3
:10039000B6210A128A116F300A128A15B6210A1282
:1003A0008A116E300A128A15B6210A128A11743027
:1003B0000A128A15B6210A128A1168300A128A15A1
:1003C000B6210A128A113A300A128A15B6210A1287
:1003D0008A117930FB007B0883120313B800883040
:1003E0000A128A15CF210A128A11831203130710E9
:1003F000871407158715071AFE29FF29492A023095
:1004000027062804031D052A062A492A0A128A15E6
:100410005D210A128A11013083120313A707031802
:10042000A80A0030A80790300A128A15CF210A12B4
:100430008A1159300A128A15B6210A128A116530BA
:100440000A128A15B6210A128A1161300A128A1517
:10045000B6210A128A1172300A128A15B6210A12BE
:100460008A113A300A128A15B6210A128A112030EE
:100470000A128A15B6210A128A117A30FB007B080B
:1004800083120313B80088300A128A15CF210A128A
:100490008A11831203130710871407158715871B0A
:1004A000522A532AA228B901B70101300A128A152B
:1004B000CF210A128A110800831203130714871030
:1004C00007158715071A652A662AF72C01300A12C4
:1004D0008A15CF210A128A1180300A128A15CF217B
:1004E0000A128A1174300A128A15B6210A128A1168
:1004F00068300A128A15B6210A128A1172300A125D
:100500008A15B6210A128A1165300A128A15B62197
:100510000A128A1173300A128A15B6210A128A1138
:1005200068300A128A15B6210A128A116F300A122F
:100530008A15B6210A128A116C300A128A15B62160
:100540000A128A1164300A128A15B6210A128A1117
:1005500090300A128A15CF210A128A1143300A12EA
:100560008A15B6210A128A1175300A128A15B62127
:100570000A128A1172300A128A15B6210A128A11D9
:1005800072300A128A15B6210A128A1165300A12CF
:100590008A15B6210A128A116E300A128A15B621FE
:1005A0000A128A1174300A128A15B6210A128A11A7
:1005B0003A300A128A15B6210A128A1183120313DD
:1005C0003508303E0A128A15B6210A128A118312A2
:1005D00003133408303E0A128A15B6210A128A1112
:1005E00088300A128A15CF210A128A1153300A1252
:1005F0008A15B6210A128A1165300A128A15B621A7
:100600000A128A1174300A128A15B6210A128A1146
:100610005F300A128A15B6210A128A1174300A1242
:100620008A15B6210A128A1168300A128A15B62173
:100630000A128A1172300A128A15B6210A128A1118
:1006400065300A128A15B6210A128A1173300A120D
:100650008A15B6210A128A1168300A128A15B62143
:100660000A128A116F300A128A15B6210A128A11EB
:100670006C300A128A15B6210A128A1164300A12E5
:100680008A15B6210A128A113A300A128A15B62141
:100690000A128A1198300A128A15CF210A128A1179
:1006A000831203130714871007158715AF01B001D4
:1006B000AD01AE01AB01AC01A901AA01AB01AC01D6
:1006C0000714871007158715871B672B682BCB2B03
:1006D00098300A128A15CF210A128A11013083122A
:1006E0000313AB070318AC0A0030AC072908C90094
:1006F000CA014908A9004A08AA002C08F8002B08DA
:10070000F7000A30F9000030FA000A128A15FF20BB
:100710000A128A11770883120313C900CA01490813
:10072000AB004A08AC002908303E0A128A15B621EF
:100730000A128A11831203132B08303E0A128A15FB
:10074000B6210A128A11831203132A08C500290848
:10075000C4002C08C7002B08C6003930C90049085E
:10076000C8000A128A15B9220A128A1183120313C9
:10077000CA00CB014A08A9004B08AA002C08B00007
:100780002B08AF002A08AE002908AD000A128A150E
:100790005D210A128A1183120313071087140715AB
:1007A0008715071BD42BD52B252C2908C9004908F0
:1007B000B5002B08C9004908B4003408C90049082D
:1007C000F00035080A128A15E8210A128A11013050
:1007D0000A128A15CF210A128A1153300A128A1579
:1007E000B6210A128A1141300A128A15B6210A125C
:1007F0008A1156300A128A15B6210A128A1145301A
:100800000A128A15B6210A128A1144300A128A1570
:10081000B6210A128A1183120313CC01CD010130D3
:1008200083120313CC070318CD0A0030CD074D08FF
:10083000803AFF00F5307F02031D202C30304C023F
:10084000031C232C242C0F2CF72C071487140711BE
:100850008715871B2C2C2D2CA32C98300A128A1557
:10086000CF210A128A11013083120313AF02003024
:10087000031CB003B0022D08C900CA014908AD002D
:100880004A08AE003008F8002F08F7000A30F900D7
:100890000030FA000A128A15FF200A128A1177081E
:1008A00083120313C900CA014908AF004A08B00007
:1008B0002D08303E0A128A15B6210A128A118312B7
:1008C00003132F08303E0A128A15B6210A128A1124
:1008D000831203132E08C5002D08C4003008C7007A
:1008E0002F08C6003030C9004908C8000A128A150E
:1008F0008D220A128A1183120313CA00CB014A08FF
:10090000AD004B08AE002F08303EC9003008031878
:10091000013E003ECA00303049064A04031D912CB6
:10092000922C962C0A30AF000030B0003008AC009A
:100930002F08AB002E08AA002D08A9000A128A155C
:100940005D210A128A1183120313071087140715F9
:100950008715071BAC2CAD2CE92C2D08C9004908C4
:10096000B5002F08C9004908B4003408C900490877
:10097000F00035080A128A15E8210A128A1101309E
:100980000A128A15CF210A128A1153300A128A15C7
:10099000B6210A128A1141300A128A15B6210A12AA
:1009A0008A1156300A128A15B6210A128A11453068
:1009B0000A128A15B6210A128A1144300A128A15BF
:1009C000B6210A128A110A128A155D210A128A11A9
:1009D000F72C0710871407158715871BF02CF12CAF
:1009E000602B01300A128A15CF210A128A110800E1
:1009F000831203130714871407118715071A012D93
:100A0000022DE52F01300A128A15CF210A128A1110
:100A100080300A128A15CF210A128A1154300A1224
:100A20008A15B6210A128A1169300A128A15B6216E
:100A30000A128A116D300A128A15B6210A128A1119
:100A400065300A128A15B6210A128A115F300A121D
:100A50008A15B6210A128A1153300A128A15B62154
:100A60000A128A1165300A128A15B6210A128A11F1
:100A700074300A128A15B6210A128A1174300A12C9
:100A80008A15B6210A128A1169300A128A15B6210E
:100A90000A128A116E300A128A15B6210A128A11B8
:100AA00067300A128A15B6210A128A1173300A12A7
:100AB0008A15B6210A128A118312031307148710AC
:100AC00007158715871B652D662DC82D78303806CC
:100AD000031D6B2D6C2DC82D0130C9004908B907C5
:100AE0000130AB070318AC0A0030AC072C08F80043
:100AF0002B08F7000A30F9000030FA000A128A15B4
:100B0000FF200A128A11780883120313AC007708B9
:100B1000AB002A08C5002908C4002C08C7002B0810
:100B2000C6003930C9004908C8000A128A15B9221E
:100B30000A128A1183120313CA00CB014A08A900C2
:100B40004B08AA005430C9004908F00039080A12BD
:100B50008A1523210A128A1183120313CA004A0834
:100B6000B900023029062A04031DB72DB82DC32D64
:100B700004302B062C04031DBE2DBF2DC32DAB014D
:100B8000AC01A901AA010A128A155D210A128A1173
:100B900083120313871BCD2DCE2D212E79303806DD
:100BA000031DD32DD42D212E0130C9004908B707CC
:100BB0000130AF070318B00A0030B0073008F80062
:100BC0002F08F7000A30F9000030FA000A128A15DF
:100BD000FF200A128A11780883120313B0007708E5
:100BE000AF002E08C5002D08C4003008C7002F082C
:100BF000C6003930C9004908C8000A128A15B9224E
:100C00000A128A1183120313CA00CB014A08AD00ED
:100C10004B08AE005A303706031D0F2E102E112E32
:100C2000B70106302D062E04031D172E182E1C2E7C
:100C3000AD01AE01AF01B0010A128A155D210A12A1
:100C40008A1188300A128A15CF210A128A1183125A
:100C500003133908C9004908D0003708C9004908FA
:100C6000CF001130C9004908F0003930CA004A08E5
:100C7000F10039080A128A159F210A128A1183127B
:100C80000313CB004B08B9002130C9004908F0001C
:100C90004A30CA004A08F10039080A128A159F2111
:100CA0000A128A1183120313CB004B08B9001130CA
:100CB000C9004908F0003930CA004A08F100370875
:100CC0000A128A159F210A128A1183120313CB007C
:100CD0004B08B7002130C9004908F0004A30CA006B
:100CE0004A08F10037080A128A159F210A128A1150
:100CF00083120313CB004B08B7003130C9004908F9
:100D0000F0005930CA004A08F10037080A128A1563
:100D10009F210A128A1183120313CB004B08B700DC
:100D20004130C9004908F0006A30CA004A08F100A1
:100D300037080A128A159F210A128A118312031397
:100D4000CB004B08B7005130C9004908F0007A3099
:100D5000CA004A08F10037080A128A159F210A12B0
:100D60008A1183120313CB004B08B70007108714B6
:100D700007158715071BBD2EBE2ED62E01300A1271
:100D80008A15CF210A128A1183120313B901B70100
:100D9000AB01AC01A901AA01AD01AE01AF01B001E7
:100DA0000A128A1561220A128A11E52F0714871484
:100DB000071187152808F8002708F7000230F90006
:100DC0000030FA000A128A15FF200A128A117808E8
:100DD00083120313A8007708A700071AF02EF12E3C
:100DE0002E2F27082804031DF62EF72E2E2F9030C5
:100DF0000A128A15CF210A128A1148300A128A155E
:100E0000B6210A128A116F300A128A15B6210A1207
:100E10008A1175300A128A15B6210A128A117230A7
:100E20000A128A15B6210A128A113A300A128A1554
:100E3000B6210A128A11783083120313C9004908B7
:100E4000B8000A128A155D210A128A110130831234
:100E50000313A7070318A80A0030A807071487146C
:100E600007118715071A352F362F712F27032804EE
:100E7000031D3B2F3C2F712F0130A7070318A80A31
:100E80000030A8070A128A155D210A128A119030D3
:100E90000A128A15CF210A128A114D300A128A15B8
:100EA000B6210A128A1169300A128A15B6210A126D
:100EB0008A116E300A128A15B6210A128A1173300D
:100EC0000A128A15B6210A128A113A300A128A15B4
:100ED000B6210A128A11793083120313C900490816
:100EE000B80088300A128A15CF210A128A1183129B
:100EF0000313071487140711871588300A128A15FF
:100F0000CF210A128A1154300A128A15B6210A1208
:100F10008A1169300A128A15B6210A128A116D30B7
:100F20000A128A15B6210A128A1165300A128A1528
:100F3000B6210A128A113A300A128A15B6210A120B
:100F40008A11831203132908303E0A128A15B6212A
:100F50000A128A11831203132B08303E0A128A15D3
:100F6000B6210A128A113A300A128A15B6210A12DB
:100F70008A11831203132D08303E0A128A15B621F6
:100F80000A128A11831203132F08303E0A128A159F
:100F9000B6210A128A11831203130710871407154A
:100FA0008715871BD42FD52F082DB901B701AB01A9
:100FB000AC01A901AA01AD01AE01AF01B001013040
:100FC0000A128A15CF210A128A110800831356309B
:100FD000FD000830FE00E030FF004E3084000A12B1
:100FE0008A1539210A128A112030840044300A12ED
:100FF0008A15D8200A128A1183010A128A150D2E29
:1011A2008316031389018312031389010800640063
:1011B2008001840A0406031900340406D928003485
:1011C20000344034243411340634093400340730F6
:1011D200831603139F000514880181018901080009
:1011E2000630831603139F00F03087008312031327
:1011F200B901B801B701A701A80108007A08F100F6
:101202007908F0007808F3007708F2000A128A15CC
:1012120075240A128A157108F8007008F700080090
:10122200F2007008F1007108F3000130F302031DAF
:101232001B291C2916290130F202031D212922290A
:1012420012290800F3007308303EF1000030031841
:101252000130F200700871067204031D312932292F
:101262003329F301730808007E088A007F08820090
:101272000A128A1535210A128A158000840A040886
:101282007D0603190034FF0A0319FE0A3929831265
:1012920003130610861286168E300A128A150B2246
:1012A2000A128A1500300A128A150B220A128A15AE
:1012B2008312031386120800F001F1010130F007D6
:1012C2000318F10A0030F1077108803AFF00A730D5
:1012D2007F02031D6E2910307002031C71297229CE
:1012E2005F290800F001F1010130F0070318F10A4B
:1012F2000030F1077108803AFF0080307F02031D41
:10130200842905307002031C872988297529080061
:10131200F001F1010130F0070318F10A0030F10782
:101322007108803AFF0080307F02031D9A29323013
:101332007002031C9D299E298B290800F400740861
:10134200303EF200003003180130F30071087206DB
:101352007304031DAD29AE29B4297008F200720886
:10136200F4000130F40274080800F200831203133F
:101372008516051285110A128A1573210A128A1519
:10138200831203138515720888000A128A157321C5
:101392000A128A158312031385110800F2008312C0
:1013A20003138512051285110A128A1573210A1276
:1013B2008A15831203138515720888000A128A158A
:1013C20073210A128A158312031385110800F30090
:1013D200831203133F08303EF1000030031801303E
:1013E200F200730871067204031DF829F929092A0B
:1013F2003E08303EF100003003180130F200700860
:1014020071067204031D062A072A092A89140A2A68
:1014120089100800F400F201F3018312031306128B
:101422000610741C152A162A172A06167408F000CC
:101432000310700CF1007108F40006140130F20779
:101442000318F30A0030F3077308803AFF00803074
:101452007F02031D2E2A08307202031C312A322A0F
:101462000E2A8312031306100800831203133F0887
:10147200303E0A128A15B6210A128A158312031304
:101482003E08303E0A128A15B6210A128A152E30FB
:101492000A128A15B6210A128A15831203133D080D
:1014A200303E0A128A15B6210A128A1583120313D4
:1014B2003C08303E0A128A15B6210A128A15080023
:1014C200831203138616BE300A128A150B220A12E1
:1014D2008A15F501F60175084E3E84008313000853
:1014E2000A128A150B220A128A150130F50703180F
:1014F200F60A0030F6077608803AFF0080307F0255
:10150200031D852A08307502031C882A892A6C2A41
:101512008312031386120800831203134608303E17
:10152200FB0047080318013E003EFC0048087B060A
:101532007C04031D9D2A9E2AB72AFF30C407031884
:10154200C50AFF30C5074508F8004408F7000A300D
:10155200F9000030FA000A128A15FF200A128A15D1
:10156200780883120313C5007708C40044080800F2
:10157200831203134608303EFB0047080318013E5E
:10158200003EFC0048087B067C04031DC92ACA2AC7
:10159200E32A0130C4070318C50A0030C50745080D
:1015A200F8004408F7000A30F9000030FA000A1285
:1015B2008A15FF200A128A15780883120313C500C0
:1015C2007708C40044080800831203138616BF304C
:1015D2000A128A150B220A128A15F601F7010A125B
:1015E2008A1513230A128A15F5007608203E840014
:1015F2007508831380000130F6070318F70A0030DC
:10160200F7077708803AFF0080307F02031D0B2B1B
:1016120007307602031C0E2B0F2BF02A83120313C2
:1016220086120800F401831603130616F201F30171
:101632008312031306107408F0000310700CF100FB
:101642007108F400061E262B272B2C2B74088038D9
:10165200F0007008F40006140130F2070318F30AD0
:101662000030F3077308803AFF0080307F02031DC9
:101672003C2B08307202031C3F2B402B192B831684
:10168200031306128312031306107408080070086D
:10169200710403194D2B4E2B7D2BF501F50A5C2BA2
:1016A20001300310F00DF10DFF3E031D522B0130EE
:1016B200F4007408F507F11F5F2B602B512B7108A2
:1016C2007302031D662B70087202031C692B6A2BBE
:1016D200702B7008F2027108031CF303F30201304D
:1016E2000310F10CF00CFF3E031D712B0130F502CB
:1016F200031D7C2B7D2B602B7308F1007208F00018
:101702000800F5010830F4007408F6000310F50C27
:10171200831203130910831603130910000000003B
:1017220000000000000000008316031309140000EB
:1017320000000000000000000030831203130918AB
:101742000130B30033080319A72BA82BA92BF517D7
:101752000730F4007408F00002300A128A151121D1
:101762000A128A150130F6027608031DB92BBA2B2C
:10177200872B75080800F501F50AF02B8312031375
:1017820009108316031309104630F4007408F000A0
:1017920002300A128A1511210A128A1583160313BE
:1017A20009140830F4007408F00002300A128A1595
:1017B20011210A128A1583120313091CE12BE22B51
:1017C200E52BF501F50AE62BF5013C30F40074082F
:1017D200F00002300A128A1511210A128A157508C0
:1017E200031DF42BF52BBF2B0800F7000830F40083
:1017F2007408F80077080139F4007408F6008312BF
:1018020003130910831603130910000000000000DF
:10181200000000007603031D0F2C102C132C8316DE
:10182200031309140730F4007408F00002300A129E
:101832008A1511210A128A1583160313091400004E
:1018420000007708F4000310740CF5007508F70027
:101852000130F8027808031D2F2C302CFB2B0800D6
:10186200FB01FC01760877040319382C392C702C03
:10187200FD01FD0A472C01300310F60DF70DFF3E66
:10188200031D3D2C0130FA007A08FD07F71F4A2C90
:101892004B2C3C2C01300310FB0DFC0DFF3E031DB5
:1018A2004C2C77087902031D582C76087802031C09
:1018B2005B2C5C2C632C7608F8027708031CF90376
:1018C200F9027B1401300310F70CF60CFF3E031DE6
:1018D200642C0130FD02031D6F2C702C4B2C7C08F4
:1018E200F7007B08F6000800F601F31F792C7A2C2A
:1018F200812CF209F309F20A0319F30AF601F60A36
:10190200F11F842C852C8A2CF009F109F00A0319A5
:10191200F10A7008710403198F2C902CBF2CF50169
:10192200F50A9E2C01300310F00DF10DFF3E031D50
:10193200942C0130F4007408F507F11FA12CA22C9D
:10194200932C71087302031DA82C70087202031CE9
:10195200AB2CAC2CB22C7008F2027108031CF303FE
:10196200F30201300310F10CF00CFF3E031DB32C07
:101972000130F502031DBE2CBF2CA22C76080319E0
:10198200C32CC42CC92CF209F309F20A0319F30A75
:101992007308F1007208F00008008312031386181E
:1019A200D32CD42CDC2C2308F3007308A0002408C9
:1019B200F3007308A1002308F039F300F40173085F
:1019C200F5007408F600750E0F39F500760EF03941
:1019D200F504760E0F39F600F030F61D0030F604ED
:1019E2007508303E0A128A15B6210A128A15831228
:1019F200031323080F39F300F4017308F500740888
:101A0200F6007508303E0A128A15B6210A128A15A6
:101A12002F300A128A15B6210A128A15831203136D
:101A22002408F039F300F4017308F5007408F60095
:101A3200750E0F39F500760EF039F504760E0F3972
:101A4200F600F030F61D0030F6047508303E0A123A
:101A52008A15B6210A128A158312031324080F3934
:101A6200F300F4017308F5007408F6007508303EBF
:101A72000A128A15B6210A128A152F300A128A15FD
:101A8200B6210A128A15831203132608F039F300CD
:101A9200F4017308F5007408F6007508303E0A1266
:101AA2008A15B6210A128A158312031326080F39E2
:101AB200F300F4017308F5007408F6007508303E6F
:101AC2000A128A15B6210A128A1508008312031314
:101AD20086186C2D6D2D752D2308F3007308A00058
:101AE2002408F3007308A1002208F039F300F4017E
:101AF2007308F5007408F600750E0F39F500760EBE
:101B0200F039F504760E0F39F600F030F61D00308C
:101B1200F6047508303E0A128A15B6210A128A1591
:101B22008312031322080F39F300F4017308F5003E
:101B32007408F6007508303E0A128A15B6210A1298
:101B42008A153A300A128A15B6210A128A158312A8
:101B520003132108F039F300F4017308F500740847
:101B6200F600750E0F39F500760EF039F504760E93
:101B72000F39F600F030F61D0030F6047508303EDD
:101B82000A128A15B6210A128A1583120313210832
:101B92000F39F300F4017308F5007408F6007508B4
:101BA200303E0A128A15B6210A128A153A300A12F2
:101BB2008A15B6210A128A15831203132008F039F6
:101BC200F300F4017308F5007408F600750E0F397E
:101BD200F500760EF039F504760E0F39F600F03086
:101BE200F61D0030F6047508303E0A128A15B62139
:101BF2000A128A158312031320080F39F300F40125
:101C02007308F5007408F6007508303E0A128A154A
:101C1200B6210A128A1508000230831603138600C1
:101C22000A128A15D1200A128A150A128A1561220D
:101C32000A128A150A128A1548210A128A150A12EC
:101C42008A15E8200A128A150A128A1103200A123A
:101C52008A150A128A15D1200A128A150A128A15C1
:101C6200F1200A128A150A128A15D2260A128A1538
:101C72000A128A15E5220A128A1580300A128A157A
:101C8200CF210A128A1554300A128A15B6210A1275
:101C92008A1565300A128A15B6210A128A156D3024
:101CA2000A128A15B6210A128A1570300A128A158A
:101CB200B6210A128A153A300A128A15B6210A1278
:101CC2008A150A128A1536220A128A1590300A12C9
:101CD2008A15CF210A128A1544300A128A15B621B2
:101CE2000A128A1561300A128A15B6210A128A1559
:101CF20074300A128A15B6210A128A1565300A1240
:101D02008A15B6210A128A153A300A128A15B621A4
:101D12000A128A1520300A128A15B6210A128A1569
:101D22000A128A15CE240A128A1588300A128A15D6
:101D3200CF210A128A1554300A128A15B6210A12C4
:101D42008A1569300A128A15B6210A128A156D306F
:101D52000A128A15B6210A128A1565300A128A15E4
:101D6200B6210A128A153A300A128A15B6210A12C7
:101D72008A150A128A1567250A128A150A128A1109
:101D82005C220A128A150A128A1192200A128A15F4
:101D92000A128A11F8240A128A15342E0A128A119A
:101DA20000288316031309140A128A15BC230A1287
:101DB2008A15CC300A128A15F6230A128A150A12DB
:101DC2008A1589210A128A1544300A128A15F623C5
:101DD2000A128A150A128A15BC230A128A15CC30F5
:101DE2000A128A15F6230A128A15BE300A128A15B9
:101DF200F6230A128A150A128A1582230A128A15F2
:101E020083120313C4004408C3000A128A158223F2
:101E12000A128A1583120313C4004408C2008316EF
:101E220003130914831203134208C400043003107D
:101E3200C40DFF3E031D182F3F304405C500430863
:101E4200C60004300310C60CFF3E031D232F4608B4
:101E52004504C7004708C1004308C400033003100B
:101E6200C40DFF3E031D302F0310440DC50045086D
:101E7200C0000A30F0000030F1004108C400C50182
:101E82004408F2004508F3000A128A1575240A1262
:101E92008A15700883120313C6004608BE000A3072
:101EA200F0000030F1004108C400C5014408F2000E
:101EB2004508F3000A128A112B200A128A157008AB
:101EC20083120313C6004608BF00B101B201C01F4E
:101ED2006B2F6C2F742F3108883EB1003208031823
:101EE200013E133EB200401F772F782F802F31081A
:101EF200C43EB10032080318013E093EB200C01EC2
:101F0200832F842F8C2F3108E23EB1003208031850
:101F1200013E043EB200401E8F2F902F982F3108B1
:101F2200713EB10032080318013E023EB200E830B1
:101F3200F6000330F7003208F9003108F8000A12FF
:101F42008A1531240A128A15760883120313C400F3
:101F52004408BD006430F6000030F7003208F30098
:101F62003108F200E830F0000330F1000A128A155D
:101F720048230A128A157108F9007008F8000A123B
:101F82008A1531240A128A15760883120313C400B3
:101F92004408BC000A30F6000030F7003208F300B3
:101FA2003108F2006430F0000030F1000A128A15A4
:101FB20048230A128A157108F9007008F8000A12FB
:101FC2008A1531240A128A15760883120313C40073
:101FD2004408BB000A30F0000030F1003208F30080
:101FE2003108F2000A128A1548230A128A1570086B
:0E1FF20083120313C4004408BA000000080064
:02400E00323F3F
:00000001FF
