:020000040000FA
:060000000A128A11E02F34
:10000C00F200831203138512051285110A168A1148
:10001C0049240A128A118312031385157208880069
:10002C000A168A11492483120313851108007408D7
:10003C00803A803C031D242873085902031C6D2848
:10004C007608803A803C031D2F2875088312031311
:10005C005802031C6D28013083120313BA070318CE
:10006C00BB0A0030BB073030F7007708CF003130C7
:10007C00F7007708CE0057300A168A1185240A1229
:10008C008A1141300A168A1185240A128A115230BB
:10009C000A168A1185240A128A114D300A168A1101
:1000AC0085240A128A1100303B02653003193A028A
:1000BC00031C6D282D30F7007708CE000230360671
:1000CC003704031D6D287730F7007708D1008312B1
:1000DC000313510808000714871407118715071A12
:1000EC00080001300A128A1106200A128A11803087
:1000FC000A128A1106200A128A1154300A168A1121
:10010C0085240A128A1169300A168A1185240A126A
:10011C008A116D300A168A1185240A128A116530EB
:10012C000A168A1185240A128A115F300A168A115E
:10013C0085240A128A1153300A168A1185240A1250
:10014C008A1165300A168A1185240A128A117430B4
:10015C000A168A1185240A128A1174300A168A1119
:10016C0085240A128A1169300A168A1185240A120A
:10017C008A116E300A168A1185240A128A11673088
:10018C000A168A1185240A128A1173300A168A11EA
:10019C0085240A128A110714871007158715871BE7
:1001AC00482978304706031D482924032504031DDC
:1001BC00E3280130E3006308C80724082504031D65
:1001CC00EB280130A4000030A5000130AE07031865
:1001DC00AF0A0030AF072F08F8002E08F7000A30DE
:1001EC00F9000030FA000A168A1114240A128A1136
:1001FC007808AF007708AE0022032304031D1F29E3
:10020C002D08DF002C08DE002F08E1002E08E0008E
:10021C003030E3006308E2000A168A1141250A1205
:10022C008A11E400E5016408AC006508AD00A20188
:10023C00A30109302E062F04031D28290130A2002A
:10024C000030A3005430E3006308F00048080A169D
:10025C008A11F6230A128A11E4006408C8000230DD
:10026C002C062D04031D432904302E062F04031DD8
:10027C004329AE01AF01AC01AD010A168A11352438
:10028C000A128A1183120313871BC6297930470679
:10029C00031DC62924032504031D58290130E3003E
:1002AC006308C60724082504031D60290130A40037
:1002BC000030A5000130B2070318B30A0030B307B1
:1002CC003308F8003208F7000A30F9000030FA0061
:1002DC000A168A1114240A128A117808B3007708B6
:1002EC00B20022032304031D94293108DF003008D7
:1002FC00DE003308E1003208E0003030E300630830
:10030C00E2000A168A1141250A128A11E400E5015D
:10031C006408B0006508B100A201A30109303206DF
:10032C003304031D9D290130A2000030A3003108C5
:10033C00DF003008DE003308E1003208E00039301D
:10034C00E3006308E2000A168A1141250A128A1199
:10035C00E400E5016408B0006508B1005A304606B7
:10036C000319C601063030063104031DC129B00142
:10037C00B101B201B3010A168A1135240A128A118D
:10038C0088300A128A1106200A128A1124082504C0
:10039C00031DD8294008E30063088316AF008312BD
:1003AC003F08E32924032504031DE7294808E3003B
:1003BC0063088316AF0083124608E30063088316B4
:1003CC00AE0011308312E3006308F0003930E40012
:1003DC006408F1000430F2000030F30048080A12FF
:1003EC008A15BB220A128A11E5006508C800213063
:1003FC00E3006308F0004A30E4006408F1000430C4
:10040C00F2000030F30048080A128A15BB220A12C7
:10041C008A11E5006508C8001130E3006308F0009C
:10042C003930E4006408F1000530F2000030F300CC
:10043C0046080A128A15BB220A128A11E5006508C1
:10044C00C6002130E3006308F0004A30E400640881
:10045C00F1000530F2000030F30046080A128A154C
:10046C00BB220A128A11E5006508C6003130E30090
:10047C006308F0005930E4006408F1000530F20024
:10048C000030F30046080A128A15BB220A128A11A0
:10049C00E5006508C6004130E3006308F0006A30EF
:1004AC00E4006408F1000530F2000030F300460867
:1004BC000A128A15BB220A128A11E5006508C600C9
:1004CC005130E3006308F0007A30E4006408F10076
:1004DC000530F2000030F30046080A128A15BB22E0
:1004EC000A128A11E5006508C60007108714071563
:1004FC008715071B952A01300A128A1106200A1249
:10050C008A11C801C601AE01AF01AC01AD01B00149
:10051C00B101B201B3010A168A118925080007142A
:10052C008714071187152B08F8002A08F7000230EA
:10053C00F9000030FA000A168A1114240A128A11E2
:10054C007808AB007708AA00071AE52A2A082B04BA
:10055C00031DE52A90300A128A1106200A128A110C
:10056C0048300A168A1185240A128A116F300A162D
:10057C008A1185240A128A1175300A168A1185246B
:10058C000A128A1172300A168A1185240A128A11EB
:10059C003A300A168A1185240A128A117830E3003F
:1005AC006308C7000A168A1135240A128A11013011
:1005BC0083120313AA070318AB0A0030AB07071406
:1005CC00871407118715071A222B2A032B04031DE6
:1005DC00222B0130AA070318AB0A0030AB070A160E
:1005EC008A1135240A128A1190300A128A110620B7
:1005FC000A128A114D300A168A1185240A128A11A0
:10060C0069300A168A1185240A128A116E300A166C
:10061C008A1185240A128A1173300A168A118524CC
:10062C000A128A113A300A168A1185240A128A1182
:10063C007930E3006308C70088300A128A1106205B
:10064C000A128A11071487140711871588300A12A9
:10065C008A1106200A128A1154300A168A1185242E
:10066C000A128A1169300A168A1185240A128A1113
:10067C006D300A168A1185240A128A1165300A1601
:10068C008A1185240A128A113A300A168A11852495
:10069C000A128A112C08303E0A168A1185240A1275
:1006AC008A112E08303E0A168A1185240A128A11E4
:1006BC003A300A168A1185240A128A113008303E03
:1006CC000A168A1185240A128A113208303E0A163B
:1006DC008A1185240A128A110710871407158715A9
:1006EC00871B7D28C801C601AE01AF01AC01AD016D
:1006FC00B001B101B201B30101300A128A11062016
:10070C000800831203130710871407158715071A9F
:10071C00080001300A128A1106200A128A11803050
:10072C000A128A1106200A128A1144300A168A11FA
:10073C0085240A128A1161300A168A1185240A123C
:10074C008A1174300A168A1185240A128A116530AE
:10075C000A168A1185240A128A115F300A168A1128
:10076C0085240A128A1153300A168A1185240A121A
:10077C008A1165300A168A1185240A128A1174307E
:10078C000A168A1185240A128A1174300A168A11E3
:10079C0085240A128A1169300A168A1185240A12D4
:1007AC008A116E300A168A1185240A128A11673052
:1007BC000A168A1185240A128A1173300A168A11B4
:1007CC0085240A128A110714871007158715871BB1
:1007DC005F2C78304706031D5F2C24032504031D72
:1007EC00FB2B0130E3006308C80724082504031D14
:1007FC00032C0130A4000030A5000130AE07031813
:10080C00AF0A0030AF072F08F8002E08F7000A30A7
:10081C00F9000030FA000A168A1114240A128A11FF
:10082C007808AF007708AE0022032304031D372C91
:10083C002D08DF002C08DE002F08E1002E08E00058
:10084C003030E3006308E2000A168A1141250A12CF
:10085C008A11E400E5016408AC006508AD00A20152
:10086C00A30109302E062F04031D402C0130A200D9
:10087C000030A3004330E3006308F00048080A1678
:10088C008A11F6230A128A11E4006408C8002C03AA
:10089C002D04031D5A2C03302E062F04031D5A2C35
:1008AC00AE01AF01AC01AD010A168A1135240A1252
:1008BC008A1183120313871BE52C79304706031D1D
:1008CC00E52C24032504031D6F2C0130E300630881
:1008DC00C50724082504031D772C0130A400003023
:1008EC00A5000130A8070318A90A0030A907290898
:1008FC00F8002808F7000A30F9000030FA000A1650
:10090C008A1114240A128A117808A9007708A80001
:10091C002908F8002808F7000830F9000030FA0020
:10092C000A168A1114240A128A117808A100770871
:10093C00A00022032304031DBC2C2708DF0026087B
:10094C00DE002908E1002808E0003030E3006308ED
:10095C00E2000A168A1141250A128A11E400E50107
:10096C006408A6006508A700A201A30109302806A7
:10097C002904031DC52C0130A2000030A3006330F4
:10098C00E3006308F00045080A168A11F6230A12E0
:10099C008A11E4006408C500033026062704031DF1
:1009AC00E02C023028062904031DE02CA601A70127
:1009BC00A801A9010A168A1135240A128A11831278
:1009CC000313871B4C2D7A304706031D4C2D240333
:1009DC002504031DF52C0130E3006308C607240829
:1009EC002504031DFD2C0130A4000030A5000130AE
:1009FC00B2070318B30A0030B3073308F800320803
:100A0C00F7000A30F9000030FA000A168A11142493
:100A1C000A128A117808B3007708B2002203230463
:100A2C00031D312D3108DF003008DE003308E100F2
:100A3C003208E0003030E3006308E2000A168A1145
:100A4C0041250A128A11E400E5016408B00065082A
:100A5C00B100A201A301093032063304031D3A2D63
:100A6C000130A2000030A3005A3046060319C6011B
:100A7C00063030063104031D472DB001B101B2011F
:100A8C00B3010A168A1135240A128A111130831205
:100A9C000313E3006308F0003930E4006408F1004C
:100AAC000130F2000030F30048080A128A15BB220C
:100ABC000A128A11E5006508C8001130E3006308CA
:100ACC00F0003930E4006408F1000230F20000302C
:100ADC00F30045080A128A15BB220A128A11E50096
:100AEC006508C5002130E3006308F0004A30E400DB
:100AFC006408F1000230F2000030F30045080A12DD
:100B0C008A15BB220A128A11E5006508C50011304E
:100B1C00E3006308F0003930E4006408F1000230AF
:100B2C00F2000030F30045080A128A15BB220A12A3
:100B3C008A11E5006508C5002130E3006308F00068
:100B4C004A30E4006408F1000230F2000030F30097
:100B5C0045080A128A15BB220A128A11E50065089B
:100B6C00C5003130E3006308F0005930E40064083C
:100B7C00F1000230F2000030F30045080A128A1529
:100B8C00BB220A128A11E5006508C5001130E3008A
:100B9C006308F0003930E4006408F1000330F2001F
:100BAC000030F30046080A128A15BB220A128A1179
:100BBC00E5006508C6002130E3006308F0004A3008
:100BCC00E4006408F1000330F2000030F300460842
:100BDC000A128A15BB220A128A11E5006508C600A2
:100BEC001130E3006308F0003930E4006408F100D0
:100BFC000330F2000030F30046080A128A15BB22BB
:100C0C000A128A11E5006508C6002130E30063086A
:100C1C00F0004A30E4006408F1000330F2000030C8
:100C2C00F30046080A128A15BB220A128A11E50043
:100C3C006508C6003130E3006308F0005930E40069
:100C4C006408F1000330F2000030F30046080A1289
:100C5C008A15BB220A128A11E5006508C6004130CC
:100C6C00E3006308F0006A30E4006408F10003302C
:100C7C00F2000030F30046080A128A15BB220A1251
:100C8C008A11E5006508C6005130E3006308F000E6
:100C9C007A30E4006408F1000330F2000030F30015
:100CAC0046080A128A15BB220A128A11E500650849
:100CBC00C60024082504031D712E4308E3006308B5
:100CCC008316B10083124108E30063088316B30056
:100CDC0083124208822E24032504031D862E480805
:100CEC00E30063088316B10083124608E30063082F
:100CFC008316B30083124508E30063088316B00023
:100D0C0088300A128A1106200A128A1107108714D9
:100D1C0007158715071BAB2EC801C601C501A60117
:100D2C00A701A801A901AE01AF01AC01AD01B00151
:100D3C00B101B201B30101300A128A1106200A1264
:100D4C008A110A168A1189250800071087140715BD
:100D5C0087152B08F8002A08F7000330F90000303B
:100D6C00FA000A168A1114240A128A117808AB00A8
:100D7C007708AA00071A012F2A082B04031D012F3C
:100D8C0090300A128A1106200A128A1144300A166F
:100D9C008A1185240A128A1161300A168A11852457
:100DAC000A128A1179300A168A1185240A128A11BC
:100DBC003A300A168A1185240A128A1120300A1632
:100DCC008A1185240A128A1120300A168A11852468
:100DDC000A128A117930E3006308C7000A168A11D7
:100DEC0035240A128A11013083120313AA0703183F
:100DFC00AB0A0030AB070710871407158715071AC5
:100E0C00442F2A032B04031D442F0130AA07031877
:100E1C00AB0A0030AB070A168A1135240A128A1164
:100E2C0090300A128A1106200A128A114D300A16C5
:100E3C008A1185240A128A116F300A168A118524A8
:100E4C000A128A116E300A168A1185240A128A1126
:100E5C0074300A168A1185240A128A1168300A160F
:100E6C008A1185240A128A113A300A168A118524AD
:100E7C000A128A117830E3006308C7000710871440
:100E8C0007158715071A8A2F02302A062B04031D13
:100E9C008A2F0A168A1135240A128A1101308312FC
:100EAC000313AA070318AB0A0030AB0790300A12E1
:100EBC008A1106200A128A1159300A168A118524C1
:100ECC000A128A1165300A168A1185240A128A11AF
:100EDC0061300A168A1185240A128A1172300A1698
:100EEC008A1185240A128A113A300A168A1185242D
:100EFC000A128A1120300A168A1185240A128A11C4
:100F0C007A30E3006308C70088300A128A11062081
:100F1C000A128A112608303E0A168A1185240A12F2
:100F2C008A112808303E0A168A1185240A128A1161
:100F3C002F300A168A1185240A128A112C08303E89
:100F4C000A168A1185240A128A112E08303E0A16B6
:100F5C008A1185240A128A112F300A168A118524C7
:100F6C000A128A113008303E0A168A1185240A1298
:100F7C008A113208303E0A168A1185240A128A1107
:100F8C000710871407158715871B952BC801C601F9
:100F9C00C501AE01AF01AC01AD01B001B101B201AF
:100FAC00B301A601A701A801A90101300A128A11F7
:100FBC00062008008313B530FD001330FE00E0302E
:100FCC00FF00AD3084000A168A1128240A128A11F7
:100FDC00A0308400AD300A168A11D8230A128A1167
:100FEC00203084005E300A168A11D82383010A123D
:040FFC008A15122C14
:10100200F400F201F301831203130612061074189E
:1010120006167408F0000310700CF1007108F40059
:1010220006140130F2070318F30A0030F3077308BD
:10103200803AFF0080307F02031D212808307202AF
:10104200031C04288312031306100800F601F31F81
:101052003128F209F309F20A0319F30AF601F60A32
:10106200F11F3828F009F109F00A0319F10A700892
:10107200710403196528F501F50AF11B4C280130AA
:101082000310F00DF10DFF3E031D41280130F40065
:101092007408F5073E2871087302031D5228700870
:1010A2007202031C5A287008F2027108031CF3032F
:1010B200F30201300310F10CF00CFF3E031D5B281C
:1010C2000130F502031D4C28760803196D28F20938
:1010D200F309F20A0319F30A7308F1007208F00027
:1010E200080086187D2883162308F3007308A000E1
:1010F2002408F3007308A10083162308F039F300D3
:10110200F4017308F5007408F600750E0F39F50046
:10111200760EF039F504760E0F39F600F030F61D32
:101122000030F6047508303E0A168A1185240A1228
:101132008A15831623080F39F300F4017308F500AA
:101142007408F6007508303E0A168A1185240A12C0
:101152008A152F300A168A1185240A128A158316D7
:101162002408F039F300F4017308F5007408F6005E
:10117200750E0F39F500760EF039F504760E0F393B
:10118200F600F030F61D0030F6047508303E0A16FF
:101192008A1185240A128A15831624080F39F3004E
:1011A200F4017308F5007408F6007508303E0A165B
:1011B2008A1185240A128A152F300A168A1185246B
:1011C2000A128A1583162608F039F300F40173080F
:1011D200F5007408F600750E0F39F500760EF03939
:1011E200F504760E0F39F600F030F61D0030F604E5
:1011F2007508303E0A168A1185240A128A1583164A
:1012020026080F39F300F4017308F5007408F6009C
:101212007508303E0A168A118524080086181A2994
:1012220083162308F3007308A0002408F300730850
:10123200A10083162208F039F300F4017308F500C7
:101242007408F600750E0F39F500760EF039F504C4
:10125200760E0F39F600F030F61D0030F6047508F0
:10126200303E0A168A1185240A128A157508F3007F
:101272007308C900831622080F39F300F4017308BA
:10128200F5007408F6007508303E0A168A118524A6
:101292000A128A153A300A168A1185240A128A1508
:1012A2007508F3007308CA0083162108F039F300A9
:1012B200F4017308F5007408F600750E0F39F50095
:1012C200760EF039F504760E0F39F600F030F61D81
:1012D2000030F6047508303E0A168A1185240A1277
:1012E2008A15831621080F39F300F4017308F500FB
:1012F2007408F6007508303E0A168A1185240A120F
:101302008A153A300A168A1185240A128A1583161A
:101312002008F039F300F4017308F5007408F600B0
:10132200750E0F39F500760EF039F504760E0F3989
:10133200F600F030F61D0030F6047508303E0A164D
:101342008A1185240A128A15831620080F39F300A0
:10135200F4017308F5007408F6007508303E0A16A9
:101362008A1185240800831609140A168A119F26F9
:101372000A128A15CC300A168A11D3260A128A1545
:101382000A168A115D240A128A1544300A168A1135
:10139200D3260A128A150A168A119F260A128A155C
:1013A200CC300A168A11D3260A128A15BE300A16C2
:1013B2008A11D3260A128A150A168A116B260A1274
:1013C2008A1583120313DE005E08DD000A168A11F5
:1013D2006B260A128A1583120313DE005E08DC00F4
:1013E2008316091483125C08DE0004300310DE0D3C
:1013F200FF3E031DF7293F305E05DF005D08E00078
:1014020004300310E00CFF3E031D022A60085F0453
:10141200E1006108DB005D08DE0003300310DE0D31
:10142200FF3E031D0F2A03105E0DDF005F08DA0086
:101432000A30DE005E08F0005B080A168A11FB24FF
:101442000A128A15DF005F08D8000A30DE005E0843
:10145200F0005B080A168A11DA240A128A15DF00E4
:101462005F08D900BC01BD01DA1F3F2A3C08883E53
:10147200BC003D080318013E133EBD005A1F492A15
:101482003C08C43EBC003D080318013E093EBD00B5
:10149200DA1E532A3C08E23EBC003D080318013E16
:1014A200043EBD005A1E5D2A3C08713EBC003D0848
:1014B2000318013E023EBD00E830F6000330F7009B
:1014C2003D08F9003C08F8000A168A1109270A1299
:1014D2008A157608DE005E08D7006430F600003018
:1014E200F7003D08F3003C08F200E830F00003305A
:1014F200F1000A168A1139260A128A157108F900B2
:101502007008F8000A168A1109270A128A15760845
:10151200DE005E08D6000A30F6000030F7003D0813
:10152200F3003C08F2006430F0000030F1000A16CB
:101532008A1139260A128A157108F9007008F80012
:101542000A168A1109270A128A157608DE005E0831
:10155200D5000A30F0000030F1003D08F3003C08ED
:10156200F2000A168A1139267008DE005E08D400DD
:1015720000000800F6007608303EF4000030031840
:101582000130F500710874067504031D102C7008F3
:10159200F4007408F600A401A50139307106031D98
:1015A200DA2A72037304031DDA2A0930F40074087C
:1015B200C3004A307106031DE62A72037304031D39
:1015C200E62A1930F4007408C30059307106031D6D
:1015D200F22A72037304031DF22A2930F4007408FC
:1015E200C3006A307106031DFE2A72037304031DD1
:1015F200FE2A3930F4007408C3007A307106031DE4
:101602000A2B72037304031D0A2B4930F400740879
:10161200C30039307106031D172B023072067304A2
:10162200031D172B0930F4007408C2004A307106FA
:10163200031D242B023072067304031D242B193060
:10164200F4007408C20059307106031D312B0230B8
:1016520072067304031D312B2930F4007408C20092
:101662006A307106031D3E2B023072067304031D9D
:101672003E2B3930F4007408C2007A307106031D23
:101682004B2B023072067304031D4B2B4930F400BE
:101692007408C20039307106031D582B03307206DC
:1016A2007304031D582B0930F4007408C1004A303A
:1016B2007106031D652B033072067304031D652B2F
:1016C2001930F4007408C10059307106031D722BE1
:1016D200033072067304031D722B2930F400740860
:1016E200C1006A307106031D7F2B0330720673043A
:1016F200031D7F2B3930F4007408C1007A30710663
:10170200031D8C2B033072067304031D8C2B49308E
:10171200F4007408C10039307106031D992B04309E
:1017220072067304031D992B0930F4007408C0007B
:101732004A307106031DA62B043072067304031D82
:10174200A62B1930F4007408C00059307106031D2D
:10175200B32B043072067304031DB32B2930F4003B
:101762007408C0006A307106031DC02B0430720673
:101772007304031DC02B3930F4007408C0007A30A2
:101782007106031DCD2B043072067304031DCD2B8D
:101792004930F4007408C00039307106031DDA2B99
:1017A200053072067304031DDA2B0930F400740845
:1017B200BF004A307106031DE72B05307206730421
:1017C200031DE72B1930F4007408BF00593071066D
:1017D200031DF42B053072067304031DF42B29300C
:1017E200F4007408BF006A307106031D012C053035
:1017F20072067304031D012C3930F4007408BF0013
:101802007A307106031D0E2C053072067304031D17
:101812000E2C4930F4007408BF000130F60276083D
:1018220008000230831686000A168A11CB230A1298
:101832008A150A168A1189250A128A150A168A1128
:1018420005240A128A150A168A11D0230A128A1549
:101852000A168A111E250A128A150A168A11CB2324
:101862000A128A150A168A1171240A128A1502307E
:10187200E8006808CD000430E8006808CC000A12CD
:101882008A15B4210A128A150A168A11B1250A127A
:101892008A1580300A128A1106200A128A155430DB
:1018A2000A168A1185240A128A1565300A168A11C7
:1018B20085240A128A156D300A168A1185240A12A5
:1018C2008A1570300A168A1185240A128A153A304E
:1018D2000A168A1185240A128A150A168A11B9244F
:1018E2000A128A1590300A128A1106200A128A15E3
:1018F20044300A168A1185240A128A1561300A16A2
:101902008A1185240A128A1574300A168A118524CE
:101912000A128A1565300A168A1185240A128A1556
:101922003A300A168A1185240A128A1520300A16BC
:101932008A1185240A128A150A128A1572200A123D
:101942008A1588300A128A1106200A128A15543022
:101952000A168A1185240A128A1569300A168A1112
:1019620085240A128A156D300A168A1185240A12F4
:101972008A1565300A168A1185240A128A153A30A8
:101982000A168A1185240A128A150A128A150F214B
:101992000A128A150A128A1592250A128A150A1241
:1019A2008A1187230A128A150A128A1171200A12D1
:1019B2008A1598300A128A1106200A128A154908D5
:1019C200303EE800003003180130E900303068068C
:1019D2006904031D242D4A08303EE8000030031834
:1019E2000130E900303068066904031D242D4D08DA
:1019F200E800E9016808F3006908F4004C08EA000D
:101A0200EB016A08F5006B08F6000A168A114527F1
:101A12000A128A15EC006C08CB004D08E800E901B7
:101A22006808F3006908F4004C08EA00EB016A0850
:101A3200F5006B08F6000A128A111D200A128A1597
:101A4200EC006C08CB000A168A11DD250A128A15F1
:101A5200E8006808CB004B080A168A119C240A1277
:101A62008A1520300A168A1185240A128A154830EE
:101A72000A168A1185240A128A153A300A168A1120
:101A820085240A128A154F080A168A1185240A1219
:101A92008A1543300A168A1185240A128A153A30A9
:101AA2000A168A1185240A128A154E080A168A1104
:101AB20085240A128A15ED01EE0120300A168A11D8
:101AC20085240A128A150130ED070318EE0A003048
:101AD200EE076E08803AFF0080307F02031D732DEF
:101AE20003306D02031C5E2D831203132908F800D4
:101AF2002808F7000830F9000030FA000A168A11A7
:101B020014240A128A157808A1007708A000210877
:101B1200F4002008F3000A168A1187270A128A1590
:101B2200402C0714871007158715071A0800013083
:101B32000A128A1106200A128A1580300A128A11A4
:101B420006200A128A1574300A168A1185240A128E
:101B52008A1568300A168A1185240A128A1572308B
:101B62000A168A1185240A128A1565300A168A1104
:101B720085240A128A1573300A168A1185240A12DC
:101B82008A1568300A168A1185240A128A156F305E
:101B92000A168A1185240A128A156C300A168A11CD
:101BA20085240A128A1564300A168A1185240A12BB
:101BB2008A1590300A128A1106200A128A154330B9
:101BC2000A168A1185240A128A1575300A168A1194
:101BD20085240A128A1572300A168A1185240A127D
:101BE2008A1572300A168A1185240A128A156530FE
:101BF2000A168A1185240A128A156E300A168A116B
:101C020085240A128A1574300A168A1185240A124A
:101C12008A153A300A168A1185240A128A154D0845
:101C2200303E0A168A1185240A128A154C08303E63
:101C32000A168A1185240A128A1588300A128A1114
:101C420006200A128A1553300A168A1185240A12AE
:101C52008A1565300A168A1185240A128A1574308B
:101C62000A168A1185240A128A155F300A168A1109
:101C720085240A128A1574300A168A1185240A12DA
:101C82008A1568300A168A1185240A128A1572305A
:101C92000A168A1185240A128A1565300A168A11D3
:101CA20085240A128A1573300A168A1185240A12AB
:101CB2008A1568300A168A1185240A128A156F302D
:101CC2000A168A1185240A128A156C300A168A119C
:101CD20085240A128A1564300A168A1185240A128A
:101CE2008A153A300A168A1185240A128A15983002
:101CF2000A128A1106200A128A150714871007157C
:101D02008715B201B301B001B101AE01AF01AC015F
:101D1200AD01AE01AF010714871007158715871BA8
:101D2200EB2E98300A128A1106200A128A15013007
:101D3200AE070318AF0A0030AF072C08E300E40136
:101D42006308AC006408AD002F08F8002E08F70005
:101D52000A30F9000030FA000A168A1114240A1215
:101D62008A157708E300E4016308AE006408AF0057
:101D72002C08303E0A168A1185240A128A152E086A
:101D8200303E0A168A1185240A128A152D08DF00B0
:101D92002C08DE002F08E1002E08E0003930E300B5
:101DA2006308E2000A168A1141250A128A15E40024
:101DB200E5016408AC006508AD002F08B3002E08E9
:101DC200B2002D08B1002C08B0000A168A11352481
:101DD2000A128A1583120313071087140715871531
:101DE200071B3D2F2C08E3006308CD002E08E300FB
:101DF2006308CC00AE01AF01AC01AD01B001B1018D
:101E0200B201B30101300A128A1106200A128A15A0
:101E120053300A168A1185240A128A1541300A168D
:101E22008A1185240A128A1556300A168A118524C7
:101E32000A128A1545300A168A1185240A128A1551
:101E420044300A168A1185240A128A15E601E7012E
:101E5200013083120313E6070318E70A0030E7078D
:101E62006708803AFF00F5307F02031D3A2F3030B9
:101E7200660203180800292F071487140711871513
:101E8200871BAD2F98300A128A1106200A128A1572
:101E92000130B2020030031CB303B3023008E30086
:101EA200E4016308B0006408B1003308F8003208A6
:101EB200F7000A30F9000030FA000A168A111424D9
:101EC2000A128A157708E300E4016308B200640885
:101ED200B3003008303E0A168A1185240A128A1588
:101EE2003208303E0A168A1185240A128A153108F0
:101EF200DF003008DE003308E1003208E000303055
:101F0200E3006308E2000A168A1165250A128A159F
:101F1200E400E5016408B0006508B1003208303E13
:101F2200E30033080318013E003EE400303063064C
:101F32006404031DA02F0A30B2000030B30033083E
:101F4200AF003208AE003108AD003008AC000A160E
:101F52008A1135240A128A15831203130710871473
:101F620007158715071BED2F3008E3006308CD0026
:101F72003208E3006308CC00AE01AF01AC01AD0151
:101F8200B001B101B201B30101300A128A11062077
:101F92000A128A1553300A168A1185240A128A15E2
:101FA20041300A168A1185240A128A1556300A16F9
:101FB2008A1185240A128A1545300A168A11852447
:101FC2000A128A1544300A168A1185240A128A15C1
:101FD2000A168A1135240800071087140715871579
:101FE200871B8C2EAE01AF01AC01AD01B001B10176
:0E1FF200B201B30101300A128A110620080064
:1027960083168901831289010800073083169F007A
:1027A6000514880181018901080064008001840AFA
:1027B6000406031900340406D92B0034023400340D
:1027C60012341234063419340034F2007008F10061
:1027D6007108F3000130F302031DED2B0130F20204
:1027E60003190800E92BF3007308303EF1000030AE
:1027F60003180130F2007008710672040319F30120
:10280600730808000610861286168E300A128A157C
:1028160001200A168A1100300A128A150120861232
:1028260008007A08F1007908F0007808F3007708C4
:10283600F2000A128A1527207108F8007008F700BE
:1028460008007E088A007F08820024240A168A115E
:102856008000840A04087D0603190034FF0A031960
:10286600FE0A282CF001F1010130F0070318F10AE5
:102876000030F1077108803AFF00A7307F02031D80
:10288600462C1030700203180800372CF001F101B5
:102896000130F0070318F10A0030F1077108803A99
:1028A600FF0080307F02031D5A2C0530700203188A
:1028B60008004B2CF001F1010130F0070318F10A72
:1028C6000030F1077108803AFF0080307F02031D57
:1028D6006E2C32307002031808005F2C0630831607
:1028E6009F00F03087008312C801C701C601AA0104
:1028F600AB01A801A9010130A4000030A500A20186
:10290600A3010800F2008312031385160512851130
:102916000A168A1149240A168A1183120313851589
:10292600720888000A168A11492483120313851136
:102936000800F20077307206031DB52C09150A1639
:102946008A1135240A168A118312031309110A16ED
:102956008A1135240A168A118312031309150A16D9
:102966008A11352483120313091108005908303ED1
:102976000A168A1185240A168A115808303E0A1644
:102986008A1185240A168A112E300A168A11852480
:102996000A168A115708303E0A168A1185240A1625
:1029A6008A115608303E0A168A1185240800F2005C
:1029B600F40170080319F92CF301F30AF01BEA2C51
:1029C6000310F00D0130F1007108F307E12C03103C
:1029D600F40D70087202031CF42C7008F2027414D1
:1029E6000310F00C0130F302031DEA2C74080800F2
:1029F600F4000830F1007108F500F6017408F100E2
:102A060007300310F10CFF3E031D042D7608F2007B
:102A160072077104F3007308F6000310F40D7008D2
:102A26007602031C182D7008F6020130F502031D0C
:102A3600012D760808008501831205100A168A11F1
:102A460049240A168A11831203130514051530301A
:102A56000A128A1106200A168A1101300A128A11F0
:102A660006200A168A1106300A128A1106200A164C
:102A76008A110C300A128A11062008006008303EBE
:102A8600FB0061080318013E003EFC0062087B065D
:102A96007C04031D632D0130DE070318DF0A0030B6
:102AA600DF075F08F8005E08F7000A30F90000301B
:102AB600FA000A168A1114247808DF007708DE0067
:102AC6005E0808006008303EFB0061080318013EFE
:102AD600003EFC0062087B067C04031D872DFF3048
:102AE600DE070318DF0AFF30DF075F08F8005E081D
:102AF600F7000A30F9000030FA000A168A11142489
:102B06007808DF007708DE005E0808008616BE300B
:102B16000A128A1501200A168A11F501F6017508AE
:102B2600AD3E8400831300080A128A1501200A1696
:102B36008A110130F5070318F60A0030F607760801
:102B4600803AFF0080307F02031DAB2D08307502EE
:102B5600031C922D8312031386120800831203139B
:102B66008616BF300A128A1501200A168A11F60146
:102B7600F7010A168A1109260A168A11F50076083F
:102B8600A03E84007508831380000130F607031801
:102B9600F70A0030F7077708803AFF0080307F0297
:102BA600031DD72D07307602031CBC2D8312031399
:102BB600861208000714871407158711071A072EAF
:102BC600B601B7017830F3007308D100BA01BB0132
:102BD60052300A168A1185240A168A1145300A16B9
:102BE6008A1185240A168A1153300A168A118524F9
:102BF6000A168A1145300A168A1185240A168A1180
:102C060054300A168A11852451080800F4018316E7
:102C160003130616F201F301831203130610740858
:102C2600F0000310700CF1007108F400061E202E4F
:102C360074088038F0007008F40006140130F207BA
:102C46000318F30A0030F3077308803AFF00803058
:102C56007F02031D302E08307202031C0F2E8316CE
:102C66000313061283120610740808007008710414
:102C76000319662EF501F50AF11B4D2E01300310DE
:102C8600F00DF10DFF3E031D422E0130F4007408D5
:102C9600F5073F2E71087302031D532E700872024A
:102CA600031C5B2E7008F2027108031CF303F30287
:102CB60001300310F10CF00CFF3E031D5C2E0130B9
:102CC600F502031D4D2E7308F1007208F00008008E
:102CD600F5010830F4007408F6000310F50C8312B1
:102CE60003130910831609100000000000000000FD
:102CF6000000000083160313091400000000000002
:102D06000000000000308312031309180130BE00D2
:102D16003E08031DF5170730F4007408F000023072
:102D26000A168A11E8230A168A110130F602760875
:102D3600031D702E75080800F501F50A75080319BC
:102D46000800831203130910831609104630F40095
:102D56007408F00002300A168A11E8230A168A114E
:102D66008316031309140830F4007408F0000230C7
:102D76000A168A11E8230A168A1183120313091CFC
:102D8600C72EF501F50AC82EF5013C30F40074088B
:102D9600F00002300A168A11E8230A168A11A12EBB
:102DA600F7000830F4007408F80077080139F400D9
:102DB6007408F60083120313091083160910000025
:102DC60000000000000000007603031DED2E8316B0
:102DD600031309140730F4007408F00002300A16D1
:102DE6008A11E8230A168A118316031309140000B0
:102DF60000007708F4000310740CF5007508F7005E
:102E06000130F802780803190800D82EFB01FC01EE
:102E1600760877040319402FFD01FD0AF71B1F2FC3
:102E260001300310F60DF70DFF3E031D142F013080
:102E3600FA007A08FD07112F01300310FB0DFC0D77
:102E4600FF3E031D202F77087902031D2C2F7608DD
:102E56007802031C352F7608F8027708031CF9035D
:102E6600F9027B1401300310F70CF60CFF3E031D2C
:102E7600362F0130FD02031D1F2F7C08F7007B084B
:102E8600F60008007408803AF70080307702031DC8
:102E96004E2F59087302031C832F7608803A803C14
:102EA600031D592F75088312031358020318832F25
:102EB600023083120313B6000030B7007830F700F3
:102EC6007708D1003030F7007708CF003030F700B0
:102ED6007708CE004F300A168A1185240A168A1101
:102EE6004B300A168A1185240A168A1120300A16D2
:102EF6008A1185240A168A1120300A168A11852419
:102F060083120313510808007303740403198F2FE7
:102F160073087404031D9B2F4D300A168A118524ED
:102F26000A168A116F300A168A1185240A168A1122
:102F3600023073067404031DAC2F54300A168A112E
:102F460085240A168A1175300A168A1185240A16EE
:102F56008A11033073067404031DBD2F57300A16F9
:102F66008A1185240A168A1165300A168A11852463
:102F76000A168A11043073067404031DCE2F5430CA
:102F86000A168A1185240A168A1168300A168A11C9
:102F960085240A168A11053073067404031DDF2F73
:102FA60046300A168A1185240A168A1172300A16C4
:102FB6008A1185240A168A11063073067404031DC5
:102FC600F02F53300A168A1185240A168A116130A9
:102FD6000A168A1185240A168A11073073067404A4
:102FE600031D080053300A168A1185240A168A1111
:0A2FF60075300A168A1185240800C0
:02400E00323F3F
:00000001FF
