:020000040000FA
:060000000A128A11E62F2E
:10000A000630831603139F00F03087008312031310
:10001A00B801B701A701A8010800FB01FC01760895
:10002A007704031919281A285128FD01FD0A2828DE
:10003A0001300310F60DF70DFF3E031D1E28013097
:10004A00FA007A08FD07F71F2B282C281D280130F3
:10005A000310FB0DFC0DFF3E031D2D2877087902C6
:10006A00031D392876087802031C3C283D284428B9
:10007A007608F8027708031CF903F9027B140130A9
:10008A000310F70CF60CFF3E031D45280130FD0254
:10009A00031D502851282C287C08F7007B08F600FD
:1000AA00080002308316031386000A128A15822179
:1000BA000A128A110A128A1503230A128A110A12CB
:1000CA008A15D9210A128A110A128A1599210A1245
:1000DA008A110A128A1585220A128A110A128A15A7
:1000EA0082210A128A110A128A1105200A128A1119
:1000FA000A128A15D2260A128A110A128A15872327
:10010A000A128A1180300A128A1549220A128A11A1
:10011A0054300A128A1530220A128A1165300A12DC
:10012A008A1530220A128A116D300A128A15302273
:10013A000A128A1170300A128A1530220A128A119A
:10014A003A300A128A1530220A128A110A128A15BC
:10015A00D8220A128A1190300A128A1549220A12E2
:10016A008A1144300A128A1530220A128A11613021
:10017A000A128A1530220A128A1174300A128A1552
:10018A0030220A128A1165300A128A1530220A129E
:10019A008A113A300A128A1530220A128A1120303C
:1001AA000A128A1530220A128A110A128A1593250E
:1001BA000A128A1188300A128A1549220A128A11E9
:1001CA0054300A128A1530220A128A1169300A1228
:1001DA008A1530220A128A116D300A128A153022C3
:1001EA000A128A1165300A128A1530220A128A11F5
:1001FA003A300A128A1530220A128A110A128A150C
:10020A002C260A128A110A128A114A250A128A11FE
:10021A000A128A111B210A128A110A128A1115233B
:10022A000A128A117D280A128A11002883120313DE
:10023A000710871407158715071A24292529142B4F
:10024A0001300A128A1549220A128A1180300A12CA
:10025A008A1549220A128A1144300A128A15302252
:10026A000A128A1161300A128A1530220A128A1178
:10027A0074300A128A1530220A128A1165300A125B
:10028A008A1530220A128A115F300A128A15302220
:10029A000A128A1153300A128A1530220A128A1156
:1002AA0065300A128A1530220A128A1174300A122B
:1002BA008A1530220A128A1174300A128A153022DB
:1002CA000A128A1169300A128A1530220A128A1110
:1002DA006E300A128A1530220A128A1167300A12FF
:1002EA008A1530220A128A1173300A128A153022AC
:1002FA000A128A1183120313071487100715871528
:10030A00871B88298929992978303706031D8E2960
:10031A008F2999290130FB007B08B8070A128A1530
:10032A00EE210A128A11AF29871B9C299D29A4292B
:10033A0079303706031DA229A329A4299329871BEB
:10034A00A729A829AF297A303706031DAD29AE2976
:10035A00AF29932988300A128A1549220A128A116A
:10036A00831203133808FB007B08CF003808303E9D
:10037A000A128A1530220A128A11831203133808C4
:10038A00303EFB00003003180130FC0039307B0698
:10039A007C04031DD129D229D8291130FB007B08FE
:1003AA00B8000130B8023808303EFB0000300318AC
:1003BA000130FC004A307B067C04031DE529E6294E
:1003CA00EC292130FB007B08B8000130B80238085C
:1003DA00303EFB00003003180130FC0054307B062D
:1003EA007C04031DF929FA29FB29B801071087148F
:1003FA0007158715071B022A032A0F2A01300A123A
:10040A008A1549220A128A110A128A1503230A1224
:10041A008A11142B07108714071587152808F80066
:10042A002708F7000330F9000030FA000A128A158B
:10043A00A2210A128A11780883120313A8007708E6
:10044A00A700071A292A2A2A672A27082804031D27
:10045A002F2A302A672A90300A128A1549220A124C
:10046A008A1144300A128A1530220A128A1161301E
:10047A000A128A1530220A128A1179300A128A154A
:10048A0030220A128A113A300A128A1530220A12C6
:10049A008A117830FB007B0883120313B700883077
:1004AA000A128A1549220A128A110A128A15EE219B
:1004BA000A128A11013083120313A7070318A80A24
:1004CA000030A8070710871407158715071A6E2A20
:1004DA006F2AB62A27032804031D742A752AB62A06
:1004EA000130A7070318A80A0030A8070A128A15BC
:1004FA00EE210A128A1190300A128A1549220A122A
:10050A008A114D300A128A1530220A128A116F3066
:10051A000A128A1530220A128A116E300A128A15B4
:10052A0030220A128A1174300A128A1530220A12EB
:10053A008A1168300A128A1530220A128A113A3050
:10054A000A128A1530220A128A117930FB007B08B6
:10055A0083120313B70088300A128A1549220A1235
:10056A008A11831203130710871407158715071AB0
:10057A00BF2AC02A042B023027062804031DC62AD4
:10058A00C72A042B0A128A15EE210A128A1101308F
:10059A0083120313A7070318A80A0030A80790308C
:1005AA000A128A1549220A128A1159300A128A1520
:1005BA0030220A128A1165300A128A1530220A126A
:1005CA008A1161300A128A1530220A128A1172308F
:1005DA000A128A1530220A128A113A300A128A1528
:1005EA0030220A128A117A30FB007B088312031325
:1005FA00B70088300A128A1549220A128A11831210
:10060A0003130710871407158715871B0D2B0E2B4D
:10061A002B2901300A128A1549220A128A11080066
:10062A00831203130714871407118715071A1E2B41
:10063A001F2B492D01300A128A1549220A128A11E2
:10064A0080300A128A1549220A128A1154300A1273
:10065A008A1530220A128A1169300A128A15302242
:10066A000A128A116D300A128A1530220A128A1168
:10067A0065300A128A1530220A128A115F300A126C
:10068A008A1530220A128A1153300A128A15302228
:10069A000A128A1165300A128A1530220A128A1140
:1006AA0074300A128A1530220A128A1174300A1218
:1006BA008A1530220A128A1169300A128A153022E2
:1006CA000A128A116E300A128A1530220A128A1107
:1006DA0067300A128A1530220A128A1173300A12F6
:1006EA008A1530220A128A118312031307148710FB
:1006FA0007158715871B822B832BC52B7830370666
:10070A00031D882B892BC52B0130C8004808B80760
:10071A000130AB070318AC0A0030AC072C08F8000C
:10072A002B08F7000A30F9000030FA000A128A157D
:10073A00A2210A128A11780883120313AC007708DF
:10074A00AB002A08C4002908C3002C08C6002B08DD
:10075A00C5003930C8004808C7000A128A155B2349
:10076A000A128A1183120313C900CA014908A9008F
:10077A004A08AA000A128A15EE210A128A11022CC4
:10078A00871BC82BC92B022C79303706031DCE2BA9
:10079A00CF2B022C0130AF070318B00A0030B00784
:1007AA003008F8002F08F7000A30F9000030FA0084
:1007BA000A128A15A2210A128A11780883120313CF
:1007CA00B0007708AF002E08C4002D08C3002C081B
:1007DA00C6002B08C5003930C8004808C7000A12ED
:1007EA008A155B230A128A1183120313C900CA01EC
:1007FA004908AD004A08AE00BF2B88300A128A1594
:10080A0049220A128A11831203133808C8004808B9
:10081A00CE003808303E0A128A1530220A128A118E
:10082A00831203133808303EC80000300318013021
:10083A00C900393048064904031D242C252C2B2CC9
:10084A001130C8004808B8000130B8023808303EF4
:10085A00C800003003180130C9004A30480649046C
:10086A00031D382C392C3F2C2130C8004808B80009
:10087A000130B8023808303EC80000300318013091
:10088A00C900593048064904031D4C2C4D2C532CE1
:10089A003130C8004808B8000130B8023808303E84
:1008AA00C800003003180130C9006A3048064904FC
:1008BA00031D602C612C672C4130C8004808B80021
:1008CA000130B8023808303EC80000300318013041
:1008DA00C9007A3048064904031D742C752C7B2CF8
:1008EA005130C8004808B8000130B80259303806FB
:1008FA00031D802C812C822CB80107108714071540
:10090A008715071B892C8A2C962C01300A128A1506
:10091A0049220A128A110A128A1503230A128A1113
:10092A00492D07148714071187152808F800270886
:10093A00F7000230F9000030FA000A128A15A221E3
:10094A000A128A11780883120313A8007708A700ED
:10095A00071AB02CB12CF42C27082804031DB62C36
:10096A00B72CF42C90300A128A1549220A128A11DD
:10097A0083120313AB01AC01A901AA0148300A1280
:10098A008A1530220A128A116F300A128A15302209
:10099A000A128A1175300A128A1530220A128A112D
:1009AA0072300A128A1530220A128A113A300A1251
:1009BA008A1530220A128A11783083120313C8006A
:1009CA004808B7000A128A15EE210A128A11013064
:1009DA0083120313A7070318A80A0030A8070714ED
:1009EA00871407118715071AFB2CFC2C372D2703B0
:1009FA002804031D012D022D372D0130A7070318E6
:100A0A00A80A0030A8070A128A15EE210A128A11CA
:100A1A0090300A128A1549220A128A114D300A1296
:100A2A008A1530220A128A1169300A128A1530226E
:100A3A000A128A116E300A128A1530220A128A1193
:100A4A0073300A128A1530220A128A113A300A12AF
:100A5A008A1530220A128A11793083120313C800C8
:100A6A004808B70007148714071187150710871459
:100A7A0007158715871B422D432D252B01300A1296
:100A8A008A1549220A128A110800831203130714CD
:100A9A00871007158715071A532D542DE52F013096
:100AAA000A128A1549220A128A1180300A128A15F4
:100ABA0049220A128A1174300A128A1530220A123D
:100ACA008A1168300A128A1530220A128A11723083
:100ADA000A128A1530220A128A1165300A128A15F8
:100AEA0030220A128A1173300A128A1530220A1227
:100AFA008A1168300A128A1530220A128A116F3056
:100B0A000A128A1530220A128A116C300A128A15C0
:100B1A0030220A128A1164300A128A1530220A1205
:100B2A008A1190300A128A1549220A128A11433010
:100B3A000A128A1530220A128A1175300A128A1587
:100B4A0030220A128A1172300A128A1530220A12C7
:100B5A008A1172300A128A1530220A128A116530F5
:100B6A000A128A1530220A128A116E300A128A155E
:100B7A0030220A128A1174300A128A1530220A1295
:100B8A008A113A300A128A1530220A128A118312FD
:100B9A0003133508303E0A128A1530220A128A11C6
:100BAA00831203133408303E0A128A1530220A12BD
:100BBA008A1188300A128A1549220A128A11533078
:100BCA000A128A1530220A128A1165300A128A1507
:100BDA0030220A128A1174300A128A1530220A1235
:100BEA008A115F300A128A1530220A128A11743069
:100BFA000A128A1530220A128A1168300A128A15D4
:100C0A0030220A128A1172300A128A1530220A1206
:100C1A008A1165300A128A1530220A128A11733033
:100C2A000A128A1530220A128A1168300A128A15A3
:100C3A0030220A128A116F300A128A1530220A12D9
:100C4A008A116C300A128A1530220A128A1164300B
:100C5A000A128A1530220A128A113A300A128A15A1
:100C6A0030220A128A1198300A128A1549220A1267
:100C7A008A11831203130714871007158715AF010A
:100C8A00B001AD01AE01AB01AC01A901AA01AB01F2
:100C9A00AC010714871007158715871B552E562E8A
:100CAA00B92E98300A128A1549220A128A1101307D
:100CBA0083120313AB070318AC0A0030AC072908E8
:100CCA00C800C9014808A9004908AA002C08F80068
:100CDA002B08F7000A30F9000030FA000A128A15C8
:100CEA00A2210A128A11770883120313C800C901C4
:100CFA004808AB004908AC002908303E0A128A1598
:100D0A0030220A128A11831203132B08303E0A1268
:100D1A008A1530220A128A11831203132A08C40080
:100D2A002908C3002C08C6002B08C5003930C800A2
:100D3A004808C7000A128A155B230A128A1183120D
:100D4A000313C900CA014908A9004A08AA002C08C5
:100D5A00B0002B08AF002A08AE002908AD000A121D
:100D6A008A15EE210A128A118312031307108714B7
:100D7A0007158715071BC22EC32E132F2908C80073
:100D8A004808B5002B08C8004808B4003408C80051
:100D9A004808F00035080A128A1562220A128A11D6
:100DAA0001300A128A1549220A128A1153300A128C
:100DBA008A1530220A128A1141300A128A15302203
:100DCA000A128A1156300A128A1530220A128A1118
:100DDA0045300A128A1530220A128A1144300A1240
:100DEA008A1530220A128A1183120313CB01CC010D
:100DFA00013083120313CB070318CC0A0030CC0747
:100E0A004C08803AFF00F5307F02031D0E2F303068
:100E1A004B02031C112F122FFD2EE52F07148714E6
:100E2A0007118715871B1A2F1B2F912F98300A122B
:100E3A008A1549220A128A11013083120313AF025A
:100E4A000030031CB003B0022D08C800C9014808CD
:100E5A00AD004908AE003008F8002F08F7000A3044
:100E6A00F9000030FA000A128A15A2210A128A1120
:100E7A00770883120313C800C9014808AF0049085C
:100E8A00B0002D08303E0A128A1530220A128A1141
:100E9A00831203132F08303E0A128A1530220A12CF
:100EAA008A11831203132E08C4002D08C3003008C8
:100EBA00C6002F08C5003030C8004808C7000A120B
:100ECA008A152F230A128A1183120313C900CA0131
:100EDA004908AD004A08AE002F08303EC800300865
:100EEA000318013E003EC900303048064904031D7C
:100EFA007F2F802F842F0A30AF000030B0003008D7
:100F0A00AC002F08AB002E08AA002D08A9000A126F
:100F1A008A15EE210A128A11831203130710871405
:100F2A0007158715071B9A2F9B2FD72F2D08C80047
:100F3A004808B5002F08C8004808B4003408C8009B
:100F4A004808F00035080A128A1562220A128A1124
:100F5A0001300A128A1549220A128A1153300A12DA
:100F6A008A1530220A128A1141300A128A15302251
:100F7A000A128A1156300A128A1530220A128A1166
:100F8A0045300A128A1530220A128A1144300A128E
:100F9A008A1530220A128A110A128A15EE210A12B9
:100FAA008A11E52F0710871407158715871BDE2F6F
:100FBA00DF2F4E2E01300A128A1549220A128A118F
:100FCA00080083135530FD000930FE009130FF0000
:100FDA004D3084000A128A15CA210A128A11203059
:100FEA00840043300A128A1589210A128A11830160
:060FFA000A128A115628BC
:1013040083160313890183120313890108006400FF
:101314008001840A04060319003404068A2900346F
:101324000034403424341134063409340034073092
:10133400831603139F0005148801810189010800A5
:101344007A08F1007908F0007808F3007708F200D1
:101354000A128A15D3240A128A157108F800700833
:10136400F7000800F2007008F1007108F300013082
:10137400F302031DBE29BF29B9290130F202031D5E
:10138400C429C529B52908007E088A007F0882007F
:101394000A128A15C6210A128A158000840A0408D2
:1013A4007D0603190034FF0A0319FE0ACA298312B1
:1013B40003130610861286168E300A128A15AD2281
:1013C4000A128A1500300A128A15AD220A128A15E9
:1013D4008312031386120800F001F1010130F007B3
:1013E4000318F10A0030F1077108803AFF00A730B2
:1013F4007F02031DFF2910307002031C022A032AF6
:10140400F0290800F001F1010130F0070318F10A96
:101414000030F1077108803AFF0080307F02031D1D
:10142400152A05307002031C182A192A062A0800F6
:10143400F001F1010130F0070318F10A0030F1075F
:101444007108803AFF0080307F02031D2B2A32305E
:101454007002031C2E2A2F2A1C2A0800F200831271
:1014640003138516051285110A128A1504220A121D
:101474008A15831203138515720888000A128A15C7
:1014840004220A128A158312031385110800F2003C
:10149400831203138512051285110A128A15042278
:1014A4000A128A15831203138515720888000A121A
:1014B4008A1504220A128A1583120313851108005F
:1014C400F300831203133E08303EF100003003188A
:1014D4000130F200730871067204031D722A732A24
:1014E400832A3D08303EF100003003180130F20039
:1014F400700871067204031D802A812A832A8914C4
:10150400842A8910080083160313850183120313A8
:1015140005100A128A1504220A128A15831203136B
:101524000514051530300A128A1549220A128A1543
:1015340001300A128A1549220A128A1506300A1243
:101544008A1549220A128A150C300A128A15492270
:101554000A128A150800F400F201F301831203133E
:1015640006120610741CB72AB82AB92A061674087B
:10157400F0000310700CF1007108F400061401303F
:10158400F2070318F30A0030F3077308803AFF00E8
:1015940080307F02031DD02A08307202031CD32A34
:1015A400D42AB02A831203130610080083120313EB
:1015B4003E08303E0A128A1530220A128A15831216
:1015C40003133D08303E0A128A1530220A128A1586
:1015D4002E300A128A1530220A128A158312031336
:1015E4003C08303E0A128A1530220A128A158312E8
:1015F40003133B08303E0A128A1530220A128A1558
:101604000800831203138616BE300A128A15AD220F
:101614000A128A15F501F60175084D3E84008313FC
:1016240000080A128A15AD220A128A150130F5073C
:101634000318F60A0030F6077608803AFF00803077
:101644007F02031D272B08307502031C2A2B2B2B2A
:101654000E2B83120313861208008312031345080A
:10166400303EFB0046080318013E003EFC004708DC
:101674007B067C04031D3F2B402B592BFF30C307F3
:101684000318C40AFF30C4074408F8004308F700ED
:101694000A30F9000030FA000A128A15A2210A124F
:1016A4008A15780883120313C4007708C30043081B
:1016B4000800831203134508303EFB004608031854
:1016C400013E003EFC0047087B067C04031D6B2B97
:1016D4006C2B852B0130C3070318C40A0030C407E0
:1016E4004408F8004308F7000A30F9000030FA0013
:1016F4000A128A15A2210A128A1578088312031382
:10170400C4007708C3004308080083120313861635
:10171400BF300A128A15AD220A128A15F601F701A2
:101724000A128A15B5230A128A15F5007608203E96
:1017340084007508831380000130F6070318F70A44
:101744000030F7077708803AFF0080307F02031DDE
:10175400AD2B07307602031CB02BB12B922B8312D6
:10176400031386120800F401831603130616F2010C
:10177400F3018312031306107408F0000310700CB5
:10178400F1007108F400061EC82BC92BCE2B740877
:101794008038F0007008F40006140130F2070318D2
:1017A400F30A0030F3077308803AFF0080307F02A9
:1017B400031DDE2B08307202031CE12BE22BBB2B32
:1017C4008316031306128312031306107408080009
:1017D400700871040319EF2BF02B1F2CF501F50A87
:1017E400FE2B01300310F00DF10DFF3E031DF42B11
:1017F4000130F4007408F507F11F012C022CF32BBF
:1018040071087302031D082C70087202031C0B2C50
:101814000C2C122C7008F2027108031CF303F3025F
:1018240001300310F10CF00CFF3E031D132C0130AA
:10183400F502031D1E2C1F2C022C7308F1007208E4
:10184400F0000800F5010830F4007408F6000310F5
:10185400F50C8312031309108316031309100000F7
:1018640000000000000000000000831603130914A8
:101874000000000000000000000000308312031389
:1018840009180130B30033080319492C4A2C4B2C96
:10189400F5170730F4007408F00002300A128A15B4
:1018A400B4210A128A150130F6027608031D5B2C56
:1018B4005C2C292C75080800F501F50A922C83127A
:1018C400031309108316031309104630F400740837
:1018D400F00002300A128A15B4210A128A158316FE
:1018E400031309140830F4007408F00002300A12DB
:1018F4008A15B4210A128A1583120313091C832C36
:10190400842C872CF501F50A882CF5013C30F40071
:101914007408F00002300A128A15B4210A128A15DA
:101924007508031D962C972C612C0800F7000830CD
:10193400F4007408F80077080139F4007408F6001C
:101944008312031309108316031309100000000007
:101954000000000000007603031DB12CB22CB52C4E
:101964008316031309140730F4007408F0000230DE
:101974000A128A15B4210A128A158316031309144C
:10198400000000007708F4000310740CF5007508DB
:10199400F7000130F8027808031DD12CD22C9D2CBD
:1019A4000800F601F31FD72CD82CDF2CF209F30919
:1019B400F20A0319F30AF601F60AF11FE22CE32CEA
:1019C400E82CF009F109F00A0319F10A700871040E
:1019D4000319ED2CEE2C1D2DF501F50AFC2C01301C
:1019E4000310F00DF10DFF3E031DF22C0130F40045
:1019F4007408F507F11FFF2C002DF12C71087302F8
:101A0400031D062D70087202031C092D0A2D102DCA
:101A14007008F2027108031CF303F302013003108F
:101A2400F10CF00CFF3E031D112D0130F502031DD6
:101A34001C2D1D2D002D76080319212D222D272D57
:101A4400F209F309F20A0319F30A7308F1007208A0
:101A5400F0000800F601F11F302D312D382DF0096A
:101A6400F109F00A0319F10AF601F60AF31F3B2DF6
:101A74003C2D452DF209F309F20A0319F30A01304A
:101A8400F4007408F606F701F801700871040319EC
:101A94004C2D4D2D842DF501F50A5B2D01300310DD
:101AA400F00DF10DFF3E031D512D0130F4007408BB
:101AB400F507F11F5E2D5F2D502D01300310F70D3A
:101AC400F80DFF3E031D602D71087302031D6C2D7C
:101AD40070087202031C6F2D702D772D7008F202AE
:101AE4007108031CF303F302771401300310F10CA3
:101AF400F00CFF3E031D782D0130F502031D832DEC
:101B0400842D5F2D76080319882D892D8E2DF709D4
:101B1400F809F70A0319F80A7808F1007708F000C1
:101B24000800831203138618982D992DA12D2308DC
:101B3400F3007308A0002408F3007308A10023082D
:101B4400F039F300F4017308F5007408F600750E1B
:101B54000F39F500760EF039F504760E0F39F600DC
:101B6400F030F61D0030F6047508303E0A128A156E
:101B740030220A128A158312031323080F39F30043
:101B8400F4017308F5007408F6007508303E0A1273
:101B94008A1530220A128A152F300A128A15302229
:101BA4000A128A15831203132408F039F300F4018E
:101BB4007308F5007408F600750E0F39F500760EFB
:101BC400F039F504760E0F39F600F030F61D0030CA
:101BD400F6047508303E0A128A1530220A128A1554
:101BE4008312031324080F39F300F4017308F5007A
:101BF4007408F6007508303E0A128A1530220A125B
:101C04008A152F300A128A1530220A128A15831275
:101C140003132608F039F300F4017308F50074087F
:101C2400F6007508303E0A128A1530220A128A1507
:101C34008312031326080F39F300F4017308F50027
:101C44007408F6007508303E0A128A1530220A120A
:101C54008A150800831203138618312E322E3A2E69
:101C64002308F3007308A0002408F3007308A100FC
:101C74002208F039F300F4017308F5007408F60043
:101C8400750E0F39F500760EF039F504760E0F391E
:101C9400F600F030F61D0030F6047508303E0A12E6
:101CA4008A1530220A128A158312031322080F3967
:101CB400F300F4017308F5007408F6007508303E6B
:101CC4000A128A1530220A128A153A300A128A1523
:101CD40030220A128A15831203132108F039F30003
:101CE400F4017308F5007408F600750E0F39F50059
:101CF400760EF039F504760E0F39F600F030F61D45
:101D04000030F6047508303E0A128A1530220A1291
:101D14008A158312031321080F39F300F4017308A1
:101D2400F5007408F6007508303E0A128A15302250
:101D34000A128A153A300A128A1530220A128A15B2
:101D4400831203132008F039F300F4017308F5003B
:101D54007408F600750E0F39F500760EF039F504A7
:101D6400760E0F39F600F030F61D0030F6047508D3
:101D7400303E0A128A1530220A128A15831203137E
:101D840020080F39F300F4017308F5007408F60015
:101D94007508303E0A128A1530220A128A15080084
:101DA4008316031309140A128A155E240A128A156B
:101DB400CC300A128A1598240A128A150A128A1536
:101DC4001A220A128A1544300A128A1598240A1211
:101DD4008A150A128A155E240A128A15CC300A1250
:101DE4008A1598240A128A15BE300A128A15982474
:101DF4000A128A150A128A1524240A128A158312D1
:101E04000313C3004308C2000A128A1524240A12C9
:101E14008A1583120313C3004308C10083160313F6
:101E24000914831203134108C30004300310C30DC3
:101E3400FF3E031D182F3F304305C4004208C50070
:101E440004300310C50CFF3E031D232F4508440432
:101E5400C6004608C0004208C30003300310C30D87
:101E6400FF3E031D302F0310430DC4004408BF0080
:101E74000A30F0000030F1004008C300C4014308F8
:101E8400F2004408F3000A128A15D3240A128A15B0
:101E9400700883120313C5004508BD000A30F00022
:101EA4000030F1004008C300C4014308F2004408B4
:101EB400F3000A128A152C250A128A157008831257
:101EC4000313C5004508BE00B101B201BF1F6B2F4B
:101ED4006C2F742F3108883EB10032080318013E7C
:101EE400133EB2003F1F772F782F802F3108C43E56
:101EF400B10032080318013E093EB200BF1E832F11
:101F0400842F8C2F3108E23EB10032080318013EC1
:101F1400043EB2003F1E8F2F902F982F3108713E40
:101F2400B10032080318013E023EB200E830F60068
:101F34000330F7003208F9003108F8000A128A1158
:101F440012200A128A15760883120313C300430869
:101F5400BC006430F6000030F7003208F3003108AA
:101F6400F200E830F0000330F1000A128A15EA2387
:101F74000A128A157108F9007008F8000A128A1109
:101F840012200A128A15760883120313C300430829
:101F9400BB000A30F6000030F7003208F3003108C5
:101FA400F2006430F0000030F1000A128A15EA23CE
:101FB4000A128A157108F9007008F8000A128A11C9
:101FC40012200A128A15760883120313C3004308E9
:101FD400BA000A30F0000030F1003208F300310892
:101FE400F2000A128A15EA230A128A15700883126B
:0C1FF4000313C3004308B90000000800FC
:02400E00323F3F
:00000001FF
