:020000040000FA
:100000000A128A11E82FF4007408303EF200003022
:1000100003180130F300710872067304031D4028B1
:100020007008F2007208F400B301B40139307106AF
:10003000031D1E280930F2007208D2004A307106F2
:10004000031D26281930F2007208D20059307106BB
:10005000031D2E282930F2007208D2006A30710682
:10006000031D36283930F2007208D2007A3071064A
:10007000031D3E284930F2007208D2000130F4021C
:10008000740808007303740403194A28730874047D
:10009000031D5C284D300A168A11BB260A128A11EC
:1000A0006F300A168A11BB260A128A116E300A16A0
:1000B0008A11BB260A128A11023073067404031DCA
:1000C000732854300A168A11BB260A128A11753019
:1000D0000A168A11BB260A128A1165300A168A117D
:1000E000BB260A128A11033073067404031D8A2882
:1000F00057300A168A11BB260A128A1165300A1671
:100100008A11BB260A128A1164300A168A11BB268C
:100110000A128A11043073067404031DA128543096
:100120000A168A11BB260A128A1168300A168A1129
:10013000BB260A128A1175300A168A11BB260A12CA
:100140008A11053073067404031DB82846300A1658
:100150008A11BB260A128A1172300A168A11BB262E
:100160000A128A1169300A168A11BB260A128A11EC
:10017000063073067404031DCF2853300A168A1103
:10018000BB260A128A1161300A168A11BB260A128E
:100190008A1174300A168A11BB260A128A11073096
:1001A00073067404031D080053300A168A11BB2617
:1001B0000A128A1175300A168A11BB260A128A1190
:1001C0006E300A168A11BB2608000714871407111F
:1001D0008715071A080001300A168A11D2260A125A
:1001E0008A1180300A168A11D2260A128A115430D6
:1001F0000A168A11BB260A128A1169300A168A1158
:10020000BB260A128A116D300A168A11BB260A1201
:100210008A1165300A168A11BB260A128A115F30CC
:100220000A168A11BB260A128A1153300A168A113D
:10023000BB260A128A1165300A168A11BB260A12D9
:100240008A1174300A168A11BB260A128A11743078
:100250000A168A11BB260A128A1169300A168A11F7
:10026000BB260A128A116E300A168A11BB260A12A0
:100270008A1167300A168A11BB260A128A11733056
:100280000A168A11BB260A128A110714871007154D
:100290008715871BBC2978305606031DBC293303FC
:1002A0003404031D57290130E7006708D7073308D6
:1002B0003404031D5F290130B3000030B400013065
:1002C000BF070318C00A0030C0074008F8003F0805
:1002D000F7000A30F9000030FA000A168A114826A1
:1002E0000A128A117808C0007708BF002F03300473
:1002F000031D93293E08E3003D08E2004008E500A5
:100300003F08E4003030E7006708E6000A168A116B
:100310008E270A128A11E800E9016808BD00690801
:10032000BE00AF01B00109303F064004031D9C2907
:100330000130AF000030B0005430E7006708F00033
:1003400057080A168A112A260A128A11E800680834
:10035000D70002303D063E04031DB72904303F0696
:100360004004031DB729BF01C001BD01BE010A162B
:100370008A1169260A128A1183120313871B3A2AEB
:1003800079305606031D3A2A33033404031DCC2961
:100390000130E7006708D50733083404031DD4296A
:1003A0000130B3000030B4000130C3070318C40AA1
:1003B0000030C4074408F8004308F7000A30F90089
:1003C0000030FA000A168A1148260A128A117808A3
:1003D000C4007708C3002F033004031D082A420815
:1003E000E3004108E2004408E5004308E40030303F
:1003F000E7006708E6000A168A118E270A128A119A
:10040000E800E9016808C1006908C200AF01B00155
:10041000093043064404031D112A0130AF000030A7
:10042000B0004208E3004108E2004408E500430848
:10043000E4003930E7006708E6000A168A118E27C3
:100440000A128A11E800E9016808C1006908C200BF
:100450005A3055060319D501063041064204031DE2
:10046000352AC101C201C301C4010A168A116926D5
:100470000A128A1188300A168A11D2260A128A11A3
:100480005708E70067088316A20083125508E700A3
:1004900067088316A10011308312E7006708F00097
:1004A0003930E8006808F10057080A128A11032061
:1004B0000A128A11E9006908D7002130E7006708AD
:1004C000F0004A30E8006808F10057080A128A1163
:1004D00003200A128A11E9006908D7001130E700E9
:1004E0006708F0003930E8006808F10055080A1282
:1004F0008A1103200A128A11E9006908D500213007
:10050000E7006708F0004A30E8006808F100550885
:100510000A128A1103200A128A11E9006908D5001B
:100520003130E7006708F0005930E8006808F10052
:1005300055080A128A1103200A128A11E900690873
:10054000D5004130E7006708F0006A30E80068082D
:10055000F10055080A128A1103200A128A11E900D3
:100560006908D5005130E7006708F0007A30E800EC
:100570006808F10055080A128A1103200A128A112C
:10058000E9006908D5000710871407158715071BB0
:10059000DD2A01300A168A11D2260A128A11D701E1
:1005A000D501BF01C001BD01BE01C101C201C3012E
:1005B000C4010A168A11D8270800071487140711E6
:1005C00087153C08F8003B08F7000230F9000030BE
:1005D000FA000A168A1148260A128A117808BC0005
:1005E0007708BB00071A2D2B3B083C04031D2D2B5D
:1005F00090300A168A11D2260A128A1148300A1639
:100600008A11BB260A128A116F300A168A11BB267C
:100610000A128A1175300A168A11BB260A128A112B
:1006200072300A168A11BB260A128A113A300A164B
:100630008A11BB260A128A117830E7006708D600B3
:100640000A168A1169260A128A11013083120313CD
:10065000BB070318BC0A0030BC0707148714071136
:100660008715071A6A2B3B033C04031D6A2B0130D4
:10067000BB070318BC0A0030BC070A168A1169269A
:100680000A128A1190300A168A11D2260A128A1189
:100690004D300A168A11BB260A128A1169300A16D1
:1006A0008A11BB260A128A116E300A168A11BB26DD
:1006B0000A128A1173300A168A11BB260A128A118D
:1006C0003A300A168A11BB260A128A117930E700DD
:1006D0006708D60088300A168A11D2260A128A11B3
:1006E000071487140711871588300A168A11D22635
:1006F0000A128A1154300A168A11BB260A128A116C
:1007000069300A168A11BB260A128A116D300A1640
:100710008A11BB260A128A1165300A168A11BB2675
:100720000A128A113A300A168A11BB260A128A1155
:100730003D08303E0A168A11BB260A128A113F086C
:10074000303E0A168A11BB260A128A113A300A165E
:100750008A11BB260A128A114108303E0A168A11F4
:10076000BB260A128A114308303E0A168A11BB269C
:100770000A128A110710871407158715871BF1289D
:10078000D701D501BF01C001BD01BE01C101C20138
:10079000C301C40101300A168A11D226080083124F
:1007A00003130710871407158715071A080001306F
:1007B0000A168A11D2260A128A1180300A168A1164
:1007C000D2260A128A1144300A168A11BB260A124E
:1007D0008A1161300A168A11BB260A128A117430F6
:1007E0000A168A11BB260A128A1165300A168A1166
:1007F000BB260A128A115F300A168A11BB260A121A
:100800008A1153300A168A11BB260A128A116530E2
:100810000A168A11BB260A128A1174300A168A1126
:10082000BB260A128A1174300A168A11BB260A12D4
:100830008A1169300A168A11BB260A128A116E3093
:100840000A168A11BB260A128A1167300A168A1103
:10085000BB260A128A1173300A168A11BB260A12A5
:100860008A110714871007158715871BA72C783066
:100870005606031DA72C33033404031D432C0130FB
:10088000E7006708D70733083404031D4B2C0130F9
:10089000B3000030B4000130BF070318C00A0030B5
:1008A000C0074008F8003F08F7000A30F9000030A0
:1008B000FA000A168A1148260A128A117808C0001E
:1008C0007708BF002F033004031D7F2C3E08E30090
:1008D0003D08E2004008E5003F08E4003030E70052
:1008E0006708E6000A168A118E270A128A11E800A4
:1008F000E9016808BD006908BE00AF01B001093018
:100900003F064004031D882C0130AF000030B000CA
:100910004330E7006708F00057080A168A112A26B4
:100920000A128A11E8006808D7003D033E04031D3F
:10093000A22C03303F064004031DA22CBF01C001BE
:10094000BD01BE010A168A1169260A128A11831294
:100950000313871B2D2D79305606031D2D2D3303D0
:100960003404031DB72C0130E7006708D4073308AF
:100970003404031DBF2C0130B3000030B40001303B
:10098000B9070318BA0A0030BA073A08F80039085C
:10099000F7000A30F9000030FA000A168A114826DA
:1009A0000A128A117808BA007708B9003A08F800E4
:1009B0003908F7000830F9000030FA000A168A11E9
:1009C00048260A128A117808A8007708A7002F0382
:1009D0003004031D042D3808E3003708E2003A080C
:1009E000E5003908E4003030E7006708E6000A1641
:1009F0008A118E270A128A11E800E9016808B700F7
:100A00006908B800AF01B001093039063A04031D86
:100A10000D2D0130AF000030B0006330E7006708F3
:100A2000F00054080A168A112A260A128A11E800D0
:100A30006808D400033037063804031D282D02301F
:100A400039063A04031D282DB701B801B901BA01CE
:100A50000A168A1169260A128A1183120313871B48
:100A6000942D7A305606031D942D33033404031D50
:100A70003D2D0130E7006708D50733083404031D16
:100A8000452D0130B3000030B4000130C307031816
:100A9000C40A0030C4074408F8004308F7000A30CD
:100AA000F9000030FA000A168A1148260A128A1143
:100AB0007808C4007708C3002F033004031D792D84
:100AC0004208E3004108E2004408E5004308E4006E
:100AD0003030E7006708E6000A168A118E270A12EE
:100AE0008A11E800E9016808C1006908C200AF0185
:100AF000B001093043064404031D822D0130AF00CC
:100B00000030B0005A3055060319D50106304106B1
:100B10004204031D8F2DC101C201C301C4010A1685
:100B20008A1169260A128A11113083120313E70011
:100B30006708F0003930E8006808F10057080A1229
:100B40008A1103200A128A11E9006908D7001130BE
:100B5000E7006708F0003930E8006808F100540841
:100B60000A128A1103200A128A11E9006908D400C6
:100B70002130E7006708F0004A30E8006808F1001B
:100B800054080A128A1103200A128A11E90069081E
:100B9000D4001130E7006708F0003930E800680839
:100BA000F10054080A128A1103200A128A11E9007E
:100BB0006908D4002130E7006708F0004A30E800F7
:100BC0006808F10054080A128A1103200A128A11D7
:100BD000E9006908D4003130E7006708F0005930B7
:100BE000E8006808F10054080A128A1103200A126A
:100BF0008A11E9006908D4001130E7006708F000A5
:100C00003930E8006808F10055080A128A110320FB
:100C10000A128A11E9006908D5002130E700670847
:100C2000F0004A30E8006808F10055080A128A11FD
:100C300003200A128A11E9006908D5001130E70083
:100C40006708F0003930E8006808F10055080A121A
:100C50008A1103200A128A11E9006908D50021309F
:100C6000E7006708F0004A30E8006808F10055081E
:100C70000A128A1103200A128A11E9006908D500B4
:100C80003130E7006708F0005930E8006808F100EB
:100C900055080A128A1103200A128A11E90069080C
:100CA000D5004130E7006708F0006A30E8006808C6
:100CB000F10055080A128A1103200A128A11E9006C
:100CC0006908D5005130E7006708F0007A30E80085
:100CD0006808F10055080A128A1103200A128A11C5
:100CE000E9006908D50033083404031D792E520841
:100CF0007E2E33033404031D822E5708E700670855
:100D00008316A40083125508E70067088316A6001F
:100D100083125408E70067088316A30088300A1678
:100D20008A11D2260A128A1107108714071587150F
:100D3000071BB32ED701D501D401B701B801B90102
:100D4000BA01BF01C001BD01BE01C101C201C301A1
:100D5000C40101300A168A11D2260A128A110A1613
:100D60008A11D827080007108714071587153C0833
:100D7000F8003B08F7000330F9000030FA000A16CB
:100D80008A1148260A128A117808BC007708BB002D
:100D9000071A092F3B083C04031D092F90300A163F
:100DA0008A11D2260A128A1144300A168A11BB26E9
:100DB0000A128A1161300A168A11BB260A128A1198
:100DC00079300A168A11BB260A128A113A300A169D
:100DD0008A11BB260A128A1120300A168A11BB26F4
:100DE0000A128A1120300A168A11BB260A128A11A9
:100DF0007930E7006708D6000A168A1169260A12B8
:100E00008A11013083120313BB070318BC0A003098
:100E1000BC070710871407158715071A4C2F3B03CB
:100E20003C04031D4C2F0130BB070318BC0A0030E3
:100E3000BC070A168A1169260A128A1190300A160E
:100E40008A11D2260A128A114D300A168A11BB263F
:100E50000A128A116F300A168A11BB260A128A11E9
:100E60006E300A168A11BB260A128A1174300A16CD
:100E70008A11BB260A128A1168300A168A11BB260B
:100E80000A128A113A300A168A11BB260A128A11EE
:100E90007830E7006708D600071087140715871514
:100EA000071A922F02303B063C04031D922F0A16AC
:100EB0008A1169260A128A11013083120313BB07B3
:100EC0000318BC0A0030BC0790300A168A11D226DB
:100ED0000A128A1159300A168A11BB260A128A117F
:100EE00065300A168A11BB260A128A1161300A1669
:100EF0008A11BB260A128A1172300A168A11BB2681
:100F00000A128A113A300A168A11BB260A128A116D
:100F100020300A168A11BB260A128A117A30E7009D
:100F20006708D60088300A168A11D2260A128A115A
:100F30003708303E0A168A11BB260A128A11390870
:100F4000303E0A168A11BB260A128A112F300A1661
:100F50008A11BB260A128A113D08303E0A168A11F0
:100F6000BB260A128A113F08303E0A168A11BB2698
:100F70000A128A112F300A168A11BB260A128A1108
:100F80004108303E0A168A11BB260A128A1143080C
:100F9000303E0A168A11BB260A128A1107108714DE
:100FA00007158715871BDD2BD701D501D401BF019C
:100FB000C001BD01BE01C101C201C301C401B7012D
:100FC000B801B901BA0101300A168A11D226080007
:100FD0008313A830FD001630FE000730FF00A0305C
:100FE00084000A168A115C260A128A1120308400B5
:100FF00062300A168A11FF2583010A128A15872C8E
:101002006408303EFB0065080318013E003EFC0008
:1010120066087B067C04031D2328FF30E2070318C1
:10102200E30AFF30E3076308F8006208F7000A30BA
:10103200F9000030FA000A168A1148267808E300FF
:101042007708E20062080800831203138616BF3095
:101052000A168A11B2270A128A15F601F7010A1234
:101062008A1551200A128A15F5007608203E84005E
:101072007508831380000130F6070318F70A003061
:10108200F7077708803AFF0080307F02031D4B2864
:1010920007307602031C30288312031386120800DD
:1010A200F401831603130616F201F30183120313EC
:1010B20006107408F0000310700CF1007108F400BF
:1010C200061E682874088038F0007008F4000614C0
:1010D2000130F2070318F30A0030F3077308803A6D
:1010E200FF0080307F02031D782808307202031C43
:1010F2005728831603130612831206107408080079
:10110200700871040319AE28F501F50AF11B952840
:1011120001300310F00DF10DFF3E031D8A2801304E
:10112200F4007408F507872871087302031D9B28D1
:1011320070087202031CA3287008F2027108031CD3
:10114200F303F30201300310F10CF00CFF3E031D18
:10115200A4280130F502031D95287308F1007208D6
:10116200F0000800F5010830F4007408F6000310DE
:10117200F50C8312031309108316091000000000F6
:101182000000000000000000831603130914000091
:101192000000000000000000003083120313091851
:1011A2000130C7004708031DF5170730F400740823
:1011B200F00002300A168A111C260A128A15013022
:1011C200F6027608031DB82875080800F501F50A2D
:1011D20075080319080083120313091083160910F6
:1011E2004630F4007408F00002300A168A111C26F8
:1011F2000A128A158316031309140830F4007408BE
:10120200F00002300A168A111C260A128A1583126D
:101212000313091C0F29F501F50A1029F5013C30C9
:10122200F4007408F00002300A168A111C260A1211
:101232008A15E928F7000830F4007408F8007708E6
:101242000139F4007408F60083120313091083169F
:101252000910000000000000000000007603031DDA
:1012620035298316031309140730F4007408F000BB
:1012720002300A168A111C260A128A1583160313D3
:101282000914000000007708F4000310740CF50044
:101292007508F7000130F8027808031908002029C0
:1012A2005D08F700F80174087806031D5A297308CF
:1012B2007706031D08007608803AF700803077022F
:1012C200031D65295C0875020318080002308312A9
:1012D20003132D062E04031D08007730F70077084C
:1012E200CB0057300A168A11BB260A128A154130E2
:1012F2000A168A11BB260A128A1552300A168A1158
:10130200BB260A128A154D300A168A11BB2608001E
:10131200FB01FC01760877040319C029FD01FD0ACF
:10132200F71B9F2901300310F60DF70DFF3E031D39
:1013320094290130FA007A08FD079129013003103F
:10134200FB0DFC0DFF3E031DA02977087902031D4A
:10135200AC2976087802031CB5297608F8027708CA
:10136200031CF903F9027B1401300310F70CF60C8D
:10137200FF3E031DB6290130FD02031D9F297C0893
:10138200F7007B08F60008005D08F700F801740812
:101392007806031DCE2973087706031DDB2976081C
:1013A200803AF70080307702031DD9295C08750264
:1013B2000318E829831203135C08F700F801760882
:1013C2007806031DE62975087706031D080002301A
:1013D20083120313AD000030AE007830F7007708B7
:1013E200CB004F300A168A11BB260A128A154B30DF
:1013F2000A168A11BB260A128A1520300A168A1189
:10140200BB260A128A1520300A168A11BB2608004A
:10141200F601F31F132AF209F309F20A0319F30A78
:10142200F601F60AF11F1A2AF009F109F00A031966
:10143200F10A700871040319472AF501F50AF11B34
:101442002E2A01300310F00DF10DFF3E031D232A59
:101452000130F4007408F507202A71087302031D95
:10146200342A70087202031C3C2A7008F2027108C6
:10147200031CF303F30201300310F10CF00CFF3EE6
:10148200031D3D2A0130F502031D2E2A7608031999
:101492004F2AF209F309F20A0319F30A7308F10059
:1014A2007208F000080086185E2A2308F300730809
:1014B200A0002408F3007308A1002208F039F30009
:1014C200F4017308F5007408F600750E0F39F50083
:1014D200760EF039F504760E0F39F600F030F61D6F
:1014E2000030F6047508303E0A168A11BB260A122D
:1014F2008A1522080F39F300F4017308F500740805
:10150200F6007508303E0A168A11BB260A128A15A1
:101512003A300A168A11BB260A128A152108F039B6
:10152200F300F4017308F5007408F600750E0F3924
:10153200F500760EF039F504760E0F39F600F0302C
:10154200F61D0030F6047508303E0A168A11BB26D5
:101552000A128A1521080F39F300F4017308F50005
:101562007408F6007508303E0A168A11BB260A1264
:101572008A153A300A168A11BB260A128A152008E1
:10158200F039F300F4017308F5007408F600750EE3
:101592000F39F500760EF039F504760E0F39F600A4
:1015A200F030F61D0030F6047508303E0A168A1136
:1015B200BB260A128A1520080F39F300F4017308BA
:1015C200F5007408F6007508303E0A168A11BB262B
:1015D20008008618F42A2308F3007308A0002408E0
:1015E200F3007308A1002308F039F300F401730833
:1015F200F5007408F600750E0F39F500760EF03915
:10160200F504760E0F39F600F030F61D0030F604C0
:101612007508303E0A168A11BB260A128A1523085B
:101622000F39F300F4017308F5007408F600750829
:10163200303E0A168A11BB260A128A152F300A1664
:101642008A11BB260A128A152408F039F300F40124
:101652007308F5007408F600750E0F39F500760E62
:10166200F039F504760E0F39F600F030F61D003031
:10167200F6047508303E0A168A11BB260A128A152C
:1016820024080F39F300F4017308F5007408F6001A
:101692007508303E0A168A11BB260A128A152F30A7
:1016A2000A168A11BB260A128A152608F039F30097
:1016B200F4017308F5007408F600750E0F39F50091
:1016C200760EF039F504760E0F39F600F030F61D7D
:1016D2000030F6047508303E0A168A11BB260A123B
:1016E2008A1526080F39F300F4017308F50074080F
:1016F200F6007508303E0A168A11BB2608008316CA
:1017020009140A128A15E7200A128A15CC300A1225
:101712008A151B210A128A150A168A1191260A12A3
:101722008A1544300A128A151B210A128A150A12D6
:101732008A15E7200A128A15CC300A128A151B2153
:101742000A128A15BE300A128A151B210A128A153C
:101752000A128A15B3200A128A1583120313E200B1
:101762006208E1000A128A15B3200A128A1583124E
:101772000313E2006208E000831609148312600872
:10178200E20004300310E20DFF3E031DC32B3F3085
:101792006205E3006108E40004300310E40CFF3E3C
:1017A200031DCE2B64086304E5006508DF006108B1
:1017B200E20003300310E20DFF3E031DDB2B03109A
:1017C200620DE3006308DE000A30E2006208F00006
:1017D2005F080A168A1148270A128A15E30063086D
:1017E200DC000A30E2006208F0005F080A168A1183
:1017F20027270A128A15E3006308DD00C501C60126
:10180200DE1F0B2C4508883EC50046080318013E22
:10181200133EC6005E1F152C4508C43EC50046088F
:101822000318013E093EC600DE1E1F2C4508E23E9B
:10183200C50046080318013E043EC6005E1E292C60
:101842004508713EC50046080318013E023EC60027
:10185200E830F6000330F7004608F9004508F800C2
:101862000A128A1589210A128A157608E20062088C
:10187200DB006430F6000030F7004608F30045084C
:10188200F200E830F0000330F1000A128A158120DC
:101892000A128A157108F9007008F8000A128A15EE
:1018A20089210A128A157608E2006208DA000A30F3
:1018B200F6000030F7004608F3004508F2006430F5
:1018C200F0000030F1000A128A1581200A128A15EE
:1018D2007108F9007008F8000A128A1589210A12A3
:1018E2008A157608E2006208D9000A30F00000305A
:1018F200F1004608F3004508F2000A128A15812019
:101902007008E2006208D800000008000230831666
:1019120086000A168A11F2250A128A150A168A11F7
:10192200D8270A128A150A168A1139260A128A1526
:101932000A168A11F7250A128A150A168A116B27C6
:101942000A128A150A168A11F2250A128A150A162D
:101952008A11A5260A128A150A128A1580230A12EA
:101962008A150A128A1525200A128A1580300A164B
:101972008A11D2260A128A1554300A168A11BB26F7
:101982000A128A1565300A168A11BB260A128A15AE
:101992006D300A168A11BB260A128A1570300A1691
:1019A2008A11BB260A128A153A300A168A11BB26F8
:1019B2000A128A150A168A1106270A128A15903007
:1019C2000A168A11D2260A128A1544300A168A1178
:1019D200BB260A128A1561300A168A11BB260A1220
:1019E2008A1574300A168A11BB260A128A156530C6
:1019F2000A168A11BB260A128A153A300A168A1169
:101A0200BB260A128A1520300A168A11BB260A1230
:101A12008A150A128A15EA220A128A1588300A16CB
:101A22008A11D2260A128A1554300A168A11BB2646
:101A32000A128A1569300A168A11BB260A128A15F9
:101A42006D300A168A11BB260A128A1565300A16EB
:101A52008A11BB260A128A153A300A168A11BB2647
:101A62000A128A150A128A1554220A128A150A12B1
:101A72008A15AA250A128A150A128A11CF230A1276
:101A82008A150A128A11E5200A128A1598300A1656
:101A92008A11D2260A128A150230F3000030F400AD
:101AA2000430F5000030F6000A128A15C5210A1228
:101AB2008A150230F3000030F4000430F5000030E3
:101AC200F6000A128A1551210A128A15831203138B
:101AD2004B080A168A11E9260A128A150A168A1171
:101AE2000F260A128A15EC01ED0120300A168A111E
:101AF200BB260A128A150130EC070318ED0A0030E2
:101B0200ED076D08803AFF0080307F02031D8B2DA8
:101B120007306C02031C762D831203133A08F80077
:101B22003908F7000830F9000030FA000A168A1165
:101B320048260A128A157808A8007708A7002808FC
:101B4200F4002708F3000A128A1142200A128A15A9
:101B5200AD2C0714871007158715071A08000130E6
:101B62000A168A11D2260A128A1580300A168A119A
:101B7200D2260A128A1574300A168A11BB260A1254
:101B82008A1568300A168A11BB260A128A15723023
:101B92000A168A11BB260A128A1565300A168A119C
:101BA200BB260A128A1573300A168A11BB260A123C
:101BB2008A1568300A168A11BB260A128A156F30F6
:101BC2000A168A11BB260A128A156C300A168A1165
:101BD200BB260A128A1564300A168A11BB260A121B
:101BE2008A1590300A168A11D2260A128A154330B3
:101BF2000A168A11BB260A128A1575300A168A112C
:101C0200BB260A128A1572300A168A11BB260A12DC
:101C12008A1572300A168A11BB260A128A15653095
:101C22000A168A11BB260A128A156E300A168A1102
:101C3200BB260A128A1574300A168A11BB260A12AA
:101C42008A153A300A168A11BB260A128A154908E1
:101C5200303E0A168A11BB260A128A154808303EFF
:101C62000A168A11BB260A128A1588300A168A11A8
:101C7200D2260A128A1553300A168A11BB260A1274
:101C82008A1565300A168A11BB260A128A15743023
:101C92000A168A11BB260A128A155F300A168A11A1
:101CA200BB260A128A1574300A168A11BB260A123A
:101CB2008A1568300A168A11BB260A128A157230F2
:101CC2000A168A11BB260A128A1565300A168A116B
:101CD200BB260A128A1573300A168A11BB260A120B
:101CE2008A1568300A168A11BB260A128A156F30C5
:101CF2000A168A11BB260A128A156C300A168A1134
:101D0200BB260A128A1564300A168A11BB260A12E9
:101D12008A153A300A168A11BB260A128A15983099
:101D22000A168A11D2260A128A1507148710071575
:101D32008715C301C401C101C201BF01C001BD01B8
:101D4200BE01BF01C0010714871007158715871B45
:101D5200032F98300A168A11D2260A128A150130E8
:101D6200BF070318C00A0030C0073D08E700E801BA
:101D72006708BD006808BE004008F8003F08F70089
:101D82000A30F9000030FA000A168A1148260A12AF
:101D92008A157708E700E8016708BF006808C000F5
:101DA2003D08303E0A168A11BB260A128A153F08E0
:101DB200303E0A168A11BB260A128A153E08E30033
:101DC2003D08E2004008E5003F08E4003930E70042
:101DD2006708E6000A168A118E270A128A15E80099
:101DE200E9016808BD006908BE004008C4003F0858
:101DF200C3003E08C2003D08C1000A168A116926C6
:101E02000A128A1583120313071087140715871500
:101E1200071B4D2F3D08E7006708C9003F08E70090
:101E22006708C80001300A168A11D2260A128A15DA
:101E320053300A168A11BB260A128A1541300A1635
:101E42008A11BB260A128A1556300A168A11BB2637
:101E52000A128A1545300A168A11BB260A128A15F9
:101E620044300A168A11BB260A128A15EA01EB01CE
:101E7200013083120313EA070318EB0A0030EB0761
:101E82006B08803AFF00F5307F02031D4A2F303085
:101E92006A0203180800392F0714871407118715DF
:101EA200871BBD2F98300A168A11D2260A128A156C
:101EB2000130C3020030031CC403C4024108E7001E
:101EC200E8016708C1006808C2004408F800430836
:101ED200F7000A30F9000030FA000A168A11482683
:101EE2000A128A157708E700E8016708C300680844
:101EF200C4004108303E0A168A11BB260A128A150E
:101F02004308303E0A168A11BB260A128A15420875
:101F1200E3004108E2004408E5004308E4003030F1
:101F2200E7006708E6000A128A1501200A128A15DC
:101F3200E800E9016808C1006908C2004308303EB0
:101F4200E70044080318013E003EE800303067060F
:101F52006804031DB02F0A30C3000030C4004408D7
:101F6200C0004308BF004208BE004108BD000A1677
:101F72008A1169260A128A1583120313071087141D
:101F820007158715071BF52F4108E7006708C900E9
:101F92004308E7006708C80001300A168A11D226F2
:101FA2000A128A1553300A168A11BB260A128A159A
:101FB20041300A168A11BB260A128A1556300A16B1
:101FC2008A11BB260A128A1545300A168A11BB26C7
:101FD2000A128A1544300A168A11BB260A128A1579
:101FE2000A168A1169260800071087140715871533
:0E1FF200871BA42E01300A168A11D226080081
:102BE40083168901831289010800073083169F0028
:102BF4000514880181018901080064008001840AA8
:102C04000406031900340406002E00340034403452
:102C14001234123406341934003407148714071597
:102C24008711071A0800AD01AE017830F000700872
:102C3400CB000800F2007008F1007108F3000130C5
:102C4400F302031D212E0130F202031908001D2E88
:102C5400F3007308303EF100003003180130F20035
:102C64007008710672040319F30173080800061052
:102C7400861286168E300A168A11B2270A168A110F
:102C840000300A168A11B227861208007A08F10069
:102C94007908F0007808F3007708F2000A128A1520
:102CA40009227108F8007008F70008007E088A00FD
:102CB4007F08820058260A168A118000840A0408B4
:102CC4007D0603190034FF0A0319FE0A5C2EF00185
:102CD400F1010130F0070318F10A0030F10771081F
:102CE400803AFF00A7307F02031D7A2E1030700255
:102CF400031808006B2EF001F1010130F0070318EE
:102D0400F10A0030F1077108803AFF0080307F0239
:102D1400031D8E2E05307002031808007F2EF0016B
:102D2400F1010130F0070318F10A0030F1077108CE
:102D3400803AFF0080307F02031DA22E32307002E1
:102D440003180800932E063083169F00F030870086
:102D54008312D701D601D501BB01BC010C30B900E7
:102D64000030BA000130B3000030B400AF01B0014C
:102D74000800F200831203138516051285110A1642
:102D84008A117D260A168A11831203138515720887
:102D940088000A168A117D26831203138511080000
:102DA400F200831203138512051285110A168A1183
:102DB4007D260A168A11831203138515720888006A
:102DC4000A168A117D268312031385110800F20066
:102DD40077307206031D022F09150A168A11692617
:102DE4000A168A118312031309110A168A11692615
:102DF4000A168A118312031309150A168A11692601
:102E040083120313091108005D08303E0A168A1163
:102E1400BB260A168A115C08303E0A168A11BB26A4
:102E24000A168A112E300A168A11BB260A168A112E
:102E34005B08303E0A168A11BB260A168A115A0804
:102E4400303E0A168A11BB260800F200F40170080D
:102E54000319462FF301F30AF01B372F0310F00D6B
:102E64000130F1007108F3072E2F0310F40D7008E0
:102E74007202031C412F7008F20274140310F00C48
:102E84000130F302031D372F74080800F4000830E2
:102E9400F1007108F500F6017408F1000730031021
:102EA400F10CFF3E031D512F7608F20072077104E6
:102EB400F3007308F6000310F40D70087602031C87
:102EC400652F7008F6020130F502031D4E2F7608B7
:102ED40008008501831205100A168A117D260A1638
:102EE4008A11831203130514051530300A168A114A
:102EF400D2260A168A1101300A168A11D2260A1617
:102F04008A1106300A168A11D2260A168A110C3042
:102F14000A168A11D22608006408303EFB006508B0
:102F24000318013E003EFC0066087B067C04031D7A
:102F3400B02F0130E2070318E30A0030E307630807
:102F4400F8006208F7000A30F9000030FA000A16A7
:102F54008A1148267808E3007708E200620808002E
:102F6400F400F201F301831203130612061074181D
:102F740006167408F0000310700CF1007108F400D8
:102F840006140130F2070318F30A0030F30773083C
:102F9400803AFF0080307F02031DD22F0830720276
:102FA400031CB52F83120313061008008616BE30C7
:102FB4000A168A11B2270A168A11F501F601750854
:102FC400A03E8400831300080A168A11B2270A1649
:102FD4008A110130F5070318F60A0030F60776085F
:102FE400803AFF0080307F02031DFA2F08307502FB
:0C2FF400031CE12F831203138612080057
:02400E00323F3F
:00000001FF
