:020000040000FA
:060000000A128A11E02F34
:10000A0000341834003412341234063419340034EB
:10001A00730374040319152873087404031D212833
:10002A004D300A168A1170220A128A116F300A1686
:10003A008A1170220A128A11023073067404031D8F
:10004A00322854300A168A1170220A128A1175301F
:10005A000A168A1170220A128A110330730674046E
:10006A00031D432857300A168A1170220A128A1170
:10007A0065300A168A1170220A128A110430730630
:10008A007404031D542854300A168A1170220A1265
:10009A008A1168300A168A1170220A128A110530EA
:1000AA0073067404031D652846300A168A117022E5
:1000BA000A128A1172300A168A1170220A128A11D9
:1000CA00063073067404031D762853300A168A1103
:1000DA0070220A128A1161300A168A1170220A12D3
:1000EA008A11073073067404031D080053300A1678
:1000FA008A1170220A128A1175300A168A11702220
:10010A0008000714871407118715071A0800013019
:10011A000A168A1187220A128A1180300A168A114F
:10012A0087220A128A1154300A168A1170220A1278
:10013A008A1169300A168A1170220A128A116D30E0
:10014A000A168A1170220A128A1165300A168A1151
:10015A0070220A128A115F300A168A1170220A1254
:10016A008A1153300A168A1170220A128A116530CE
:10017A000A168A1170220A128A1174300A168A1112
:10018A0070220A128A1174300A168A1170220A120F
:10019A008A1169300A168A1170220A128A116E307F
:1001AA000A168A1170220A128A1167300A168A11EF
:1001BA0070220A128A1173300A168A1170220A12E0
:1001CA008A110714871007158715871B5D29783050
:1001DA004906031D5D292A032B04031DF828013053
:1001EA00E5006508CA072A082B04031D0029013007
:1001FA00AA000030AB000130B4070318B50A00307A
:10020A00B5073508F8003408F7000A30F90000305D
:10021A00FA000A168A11FF210A128A117808B50013
:10022A007708B40028032904031D34293308E100A0
:10023A003208E0003508E3003408E2003030E50017
:10024A006508E4000A168A1143230A128A11E60095
:10025A00E7016608B2006708B300A801A9010930DE
:10026A0034063504031D3D290130A8000030A900D9
:10027A005430E5006508F0004A080A168A11E1219F
:10028A000A128A11E6006608CA00023032063304EE
:10029A00031D5829043034063504031D5829B401B6
:1002AA00B501B201B3010A168A1134220A128A115F
:1002BA0083120313871BC42979304906031DC429F5
:1002CA002A032B04031D6D290130E5006508C807C0
:1002DA002A082B04031D75290130AA000030AB003F
:1002EA000130B8070318B90A0030B9073908F8000D
:1002FA003808F7000A30F9000030FA000A168A11A5
:10030A00FF210A128A117808B9007708B800280371
:10031A002904031DA9293708E1003608E000390835
:10032A00E3003808E2003030E5006508E4000A1608
:10033A008A1143230A128A11E600E7016608B60009
:10034A006708B700A801A901093038063904031D56
:10035A00B2290130A8000030A9005A304806031912
:10036A00C801063036063704031DBF29B601B70196
:10037A00B801B9010A168A1134220A128A11883080
:10038A000A168A1187220A128A112A082B04031DC7
:10039A00D6294208E50065088316BD008312410884
:1003AA00E1292A032B04031DE5294A08E50065080B
:1003BA008316BD0083124808E50065088316BC0051
:1003CA0011308312E5006508F0003930E60066084E
:1003DA00F1000430F2000030F3004A080A128A15CC
:1003EA00E9200A128A11E7006708CA002130E500ED
:1003FA006508F0004A30E6006608F1000430F200B1
:10040A000030F3004A080A128A15E9200A128A11F2
:10041A00E7006708CA001130E5006508F0003930C6
:10042A00E6006608F1000530F2000030F3004808E3
:10043A000A128A15E9200A128A11E7006708C80019
:10044A002130E5006508F0004A30E6006608F10050
:10045A000530F2000030F30048080A128A15E92034
:10046A000A128A11E7006708C8003130E5006508FA
:10047A00F0005930E6006608F1000530F20000305D
:10048A00F30048080A128A15E9200A128A11E700BD
:10049A006708C8004130E5006508F0006A30E600E8
:1004AA006608F1000530F2000030F30048080A122D
:1004BA008A15E9200A128A11E7006708C800513034
:1004CA00E5006508F0007A30E6006608F1000530BC
:1004DA00F2000030F30048080A128A15E9200A12CD
:1004EA008A11E7006708C8000710871407158715DF
:1004FA00071B932A01300A168A1187220A128A11C7
:10050A000A168A118D23CA01C801B401B501B201C4
:10051A00B301B601B701B801B9010800071487147D
:10052A00071187153108F8003008F7000230F90082
:10053A000030FA000A168A11FF210A128A11780875
:10054A00B1007708B000071AE32A30083104031D06
:10055A00E32A90300A168A1187220A128A11483031
:10056A000A168A1170220A128A116F300A168A1123
:10057A0070220A128A1175300A168A1170220A121A
:10058A008A1172300A168A1170220A128A113A30B6
:10059A000A168A1170220A128A117830E500650853
:1005AA00C9000A168A1134220A128A1101308312EA
:1005BA000313B0070318B10A0030B10707148714F0
:1005CA0007118715071A202B30033104031D202B2E
:1005DA000130B0070318B10A0030B1070A168A11B0
:1005EA0034220A128A1190300A168A1187220A12B4
:1005FA008A114D300A168A1170220A128A1169303C
:10060A000A168A1170220A128A116E300A168A1183
:10061A0070220A128A1173300A168A1170220A127B
:10062A008A113A300A168A1170220A128A1179300E
:10063A00E5006508C90088300A168A1187220A125D
:10064A008A11071487140711871588300A168A1128
:10065A0087220A128A1154300A168A1170220A1243
:10066A008A1169300A168A1170220A128A116D30AB
:10067A000A168A1170220A128A1165300A168A111C
:10068A0070220A128A113A300A168A1170220A1244
:10069A008A113208303E0A168A1170220A128A1109
:1006AA003408303E0A168A1170220A128A113A3028
:1006BA000A168A1170220A128A113608303E0A1660
:1006CA008A1170220A128A113808303E0A168A11D3
:1006DA0070220A128A110710871407158715871BBB
:1006EA009228CA01C801B401B501B201B301B60129
:1006FA00B701B801B90101300A168A118722080028
:10070A00831203130710871407158715071A0800A1
:10071A0001300A168A1187220A128A1180300A16B3
:10072A008A1187220A128A1144300A168A11702203
:10073A000A128A1161300A168A1170220A128A1163
:10074A0074300A168A1170220A128A1165300A1642
:10075A008A1170220A128A115F300A168A117022CF
:10076A000A128A1153300A168A1170220A128A1141
:10077A0065300A168A1170220A128A1174300A1612
:10078A008A1170220A128A1174300A168A1170228A
:10079A000A128A1169300A168A1170220A128A11FB
:1007AA006E300A168A1170220A128A1167300A16E6
:1007BA008A1170220A128A1173300A168A1170225B
:1007CA000A128A110714871007158715871B5D2CD3
:1007DA0078304906031D5D2C2A032B04031DF92BCF
:1007EA000130E5006508CA072A082B04031D012CFD
:1007FA000130AA000030AB000130B4070318B50A73
:10080A000030B5073508F8003408F7000A30F90057
:10081A000030FA000A168A11FF210A128A11780892
:10082A00B5007708B40028032904031D352C3308C2
:10083A00E1003208E0003508E3003408E200303015
:10084A00E5006508E4000A168A1143230A128A1190
:10085A00E600E7016608B2006708B300A801A9012B
:10086A00093034063504031D3E2C0130A80000303F
:10087A00A9004330E5006508F0004A080A168A1103
:10088A00E1210A128A11E6006608CA00320333041B
:10089A00031D582C033034063504031D582CB401AB
:1008AA00B501B201B3010A168A1134220A128A1159
:1008BA0083120313871BE52C79304906031DE52CA7
:1008CA002A032B04031D6D2C0130E5006508C707B8
:1008DA002A082B04031D752C0130AA000030AB0036
:1008EA000130AE070318AF0A0030AF072F08F8002F
:1008FA002E08F7000A30F9000030FA000A168A11A9
:10090A00FF210A128A117808AF007708AE002F0873
:10091A00F8002E08F7000830F9000030FA000A162D
:10092A008A11FF210A128A1178088316A80077080B
:10093A00A700831228032904031DBC2C2D08E100FB
:10094A002C08E0002F08E3002E08E2003030E50012
:10095A006508E4000A168A1143230A128A11E6007E
:10096A00E7016608AC006708AD00A801A9010930D3
:10097A002E062F04031DC52C0130A8000030A90043
:10098A006330E5006508F00047080A168A11E1217C
:10099A000A128A11E6006608C70003302C062D04E5
:1009AA00031DE02C02302E062F04031DE02CAC019F
:1009BA00AD01AE01AF010A168A1134220A128A1158
:1009CA0083120313871B4C2D7A304906031D4C2DC5
:1009DA002A032B04031DF52C0130E5006508C8071E
:1009EA002A082B04031DFD2C0130AA000030AB009D
:1009FA000130B8070318B90A0030B9073908F800F6
:100A0A003808F7000A30F9000030FA000A168A118D
:100A1A00FF210A128A117808B9007708B80028035A
:100A2A002904031D312D3708E1003608E000390892
:100A3A00E3003808E2003030E5006508E4000A16F1
:100A4A008A1143230A128A11E600E7016608B600F2
:100A5A006708B700A801A901093038063904031D3F
:100A6A003A2D0130A8000030A9005A30480603196F
:100A7A00C801063036063704031D472DB601B701F3
:100A8A00B801B9010A168A1134220A128A111130E0
:100A9A0083120313E5006508F0003930E6006608A2
:100AAA00F1000130F2000030F3004A080A128A15F8
:100ABA00E9200A128A11E7006708CA001130E50026
:100ACA006508F0003930E6006608F1000230F200ED
:100ADA000030F30047080A128A15E9200A128A111F
:100AEA00E7006708C7002130E5006508F0004A30D2
:100AFA00E6006608F1000230F2000030F300470811
:100B0A000A128A15E9200A128A11E7006708C70043
:100B1A001130E5006508F0003930E6006608F1009A
:100B2A000230F2000030F30047080A128A15E92061
:100B3A000A128A11E7006708C7002130E500650834
:100B4A00F0004A30E6006608F1000230F200003098
:100B5A00F30047080A128A15E9200A128A11E700E7
:100B6A006708C7003130E5006508F0005930E60033
:100B7A006608F1000230F2000030F30047080A125A
:100B8A008A15E9200A128A11E7006708C70011309E
:100B9A00E5006508F0003930E6006608F100033028
:100BAA00F2000030F30048080A128A15E9200A12F6
:100BBA008A11E7006708C8002130E5006508F000DF
:100BCA004A30E6006608F1000330F2000030F30014
:100BDA0048080A128A15E9200A128A11E7006708EA
:100BEA00C8001130E5006508F0003930E6006608F3
:100BFA00F1000330F2000030F30048080A128A15A7
:100C0A00E9200A128A11E7006708C8002130E500C6
:100C1A006508F0004A30E6006608F1000330F20089
:100C2A000030F30048080A128A15E9200A128A11CC
:100C3A00E7006708C8003130E5006508F000593060
:100C4A00E6006608F1000330F2000030F3004808BD
:100C5A000A128A15E9200A128A11E7006708C800F1
:100C6A004130E5006508F0006A30E6006608F100E8
:100C7A000330F2000030F30048080A128A15E9200E
:100C8A000A128A11E7006708C8005130E5006508B2
:100C9A00F0007A30E6006608F1000330F200003016
:100CAA00F30048080A128A15E9200A128A11E70095
:100CBA006708C8002A082B04031D712E4508E500A1
:100CCA0065088316BF0083124308E500650883168A
:100CDA00C10083124408822E2A032B04031D862E88
:100CEA004A08E50065088316BF0083124808E50034
:100CFA0065088316C10083124708E5006508831654
:100D0A00BE0088300A168A1187220A128A11071031
:100D1A00871407158715071BAB2E0A168A118D2310
:100D2A000A128A11CA01C801C701AC01AD01AE019C
:100D3A00AF01B401B501B201B301B601B701B801FF
:100D4A00B90101300A168A11872208000710871490
:100D5A00071587153108F8003008F7000330F90045
:100D6A000030FA000A168A11FF210A128A1178083D
:100D7A00B1007708B000071A012F30083104031DAB
:100D8A00012F90300A168A1187220A128A114430DA
:100D9A000A168A1170220A128A1161300A168A11F9
:100DAA0070220A128A1179300A168A1170220A12DE
:100DBA008A113A300A168A1170220A128A112030D0
:100DCA000A168A1170220A128A1120300A168A110A
:100DDA0070220A128A117930E5006508C9000A16DC
:100DEA008A1134220A128A11013083120313B007BE
:100DFA000318B10A0030B1070710871407158715C1
:100E0A00071A442F30033104031D442F0130B00761
:100E1A000318B10A0030B1070A168A1134220A12DD
:100E2A008A1190300A168A1187220A128A114D30C5
:100E3A000A168A1170220A128A116F300A168A114A
:100E4A0070220A128A116E300A168A1170220A1248
:100E5A008A1174300A168A1170220A128A116830AD
:100E6A000A168A1170220A128A113A300A168A114F
:100E7A0070220A128A117830E5006508C900071045
:100E8A00871407158715071A8A2F0230300631048E
:100E9A00031D8A2F0A168A1134220A128A11013076
:100EAA0083120313B0070318B10A0030B107903058
:100EBA000A168A1187220A128A1159300A168A11C9
:100ECA0070220A128A1165300A168A1170220A12D1
:100EDA008A1161300A168A1170220A128A11723036
:100EEA000A168A1170220A128A113A300A168A11CF
:100EFA0070220A128A1120300A168A1170220A12E6
:100F0A008A117A30E5006508C90088300A168A1104
:100F1A0087220A128A112C08303E0A168A11702278
:100F2A000A128A112E08303E0A168A1170220A12F3
:100F3A008A112F300A168A1170220A128A1132086F
:100F4A00303E0A168A1170220A128A113408303E7B
:100F5A000A168A1170220A128A112F300A168A1169
:100F6A0070220A128A113608303E0A168A11702235
:100F7A000A128A113808303E0A168A1170220A1299
:100F8A008A110710871407158715871B932BCA0127
:100F9A00C801C701B401B501B201B301B601B70175
:100FAA00B801B901AC01AD01AE01AF0101300A16B9
:100FBA008A11872208008313C330FD000030FE0027
:100FCA000530FF00BB3084000A168A1113220A1268
:100FDA008A11A0308400BB300A128A1500200A1236
:100FEA008A112030840060300A128A150020830199
:100FFA000A128A15402A64008001840A0406031929
:10100A00003404060128FB01FC0176087704031961
:10101A003F28FD01FD0AF71B1E2801300310F60DBB
:10102A00F70DFF3E031D13280130FA007A08FD0769
:10103A00102801300310FB0DFC0DFF3E031D1F2875
:10104A0077087902031D2B2876087802031C3428B6
:10105A007608F8027708031CF903F9027B140130B9
:10106A000310F70CF60CFF3E031D35280130FD0274
:10107A00031D1E287C08F7007B08F6000800861866
:10108A004F2883162308F3007308A0002408F300EE
:10109A007308A10083162208F039F300F4017308DB
:1010AA00F5007408F600750E0F39F500760EF03962
:1010BA00F504760E0F39F600F030F61D0030F6040E
:1010CA007508303E0A168A1170220A128A157508A6
:1010DA00F3007308CB00831622080F39F300F401DA
:1010EA007308F5007408F6007508303E0A168A116E
:1010FA0070220A128A153A300A168A1170220A12C6
:10110A008A157508F3007308CC0083162108F03994
:10111A00F300F4017308F5007408F600750E0F3930
:10112A00F500760EF039F504760E0F39F600F03038
:10113A00F61D0030F6047508303E0A168A11702230
:10114A000A128A15831621080F39F300F40173086D
:10115A00F5007408F6007508303E0A168A117022E6
:10116A000A128A153A300A168A1170220A128A1548
:10117A0083162008F039F300F4017308F5007408A7
:10118A00F600750E0F39F500760EF039F504760E75
:10119A000F39F600F030F61D0030F6047508303EBF
:1011AA000A168A1170220A128A15831620080F3924
:1011BA00F300F4017308F5007408F6007508303E70
:1011CA000A168A1170220800F6007608303EF400EA
:1011DA00003003180130F500710874067504031D08
:1011EA003E2A7008F4007408F600AA01AB013930EF
:1011FA007106031D082972037304031D08290930A7
:10120A00F4007408C5004A307106031D14297203DC
:10121A007304031D14291930F4007408C5005930E9
:10122A007106031D202972037304031D2029293026
:10123A00F4007408C5006A307106031D2C29720374
:10124A007304031D2C293930F4007408C5007A3060
:10125A007106031D382972037304031D38294930A6
:10126A00F4007408C50039307106031D452902309F
:10127A0072067304031D45290930F4007408C4007A
:10128A004A307106031D5229023072067304031D87
:10129A0052291930F4007408C40059307106031D2C
:1012AA005F29023072067304031D5F292930F40096
:1012BA007408C4006A307106031D6C290230720674
:1012CA007304031D6C293930F4007408C4007A30A1
:1012DA007106031D7929023072067304031D7929E8
:1012EA004930F4007408C40039307106031D862998
:1012FA00033072067304031D86290930F40074084A
:10130A00C3004A307106031D932903307206730421
:10131A00031D93291930F4007408C300593071066B
:10132A00031DA029033072067304031DA029293066
:10133A00F4007408C3006A307106031DAD29033036
:10134A0072067304031DAD293930F4007408C30012
:10135A007A307106031DBA29033072067304031D1D
:10136A00BA294930F4007408C30039307106031DE4
:10137A00C729043072067304031DC7290930F40013
:10138A007408C2004A307106031DD429043072065B
:10139A007304031DD4291930F4007408C2005930AB
:1013AA007106031DE129043072067304031DE12945
:1013BA002930F4007408C2006A307106031DEE2950
:1013CA00043072067304031DEE293930F4007408E0
:1013DA00C2007A307106031DFB29043072067304B9
:1013EA00031DFB294930F4007408C2003930710624
:1013FA00031D082A053072067304031D082A0930E2
:10140A00F4007408C1004A307106031D152A05301C
:10141A0072067304031D152A1930F4007408C100FA
:10142A0059307106031D222A053072067304031D02
:10143A00222A2930F4007408C1006A307106031D9B
:10144A002F2A053072067304031D2F2A3930F4003F
:10145A007408C1007A307106031D3C2A05307206F1
:10146A007304031D3C2A4930F4007408C10001309A
:10147A00F602760808000230831686000A168A11D8
:10148A00C6210A128A150A168A118D230A128A158A
:10149A000A168A11F0210A128A150A168A11CB2114
:1014AA000A128A150A168A1120230A128A150A169E
:1014BA008A11C6210A128A150A168A115C220A1290
:1014CA008A150330E8006808CF000430E80068088D
:1014DA00CE000430BC000030BD000230BA0000303B
:1014EA00BB0001308316B3000030B4000930B100EC
:1014FA000030B2000A168A11F9260A128A150A164B
:10150A008A11B5230A128A1580300A168A1187228F
:10151A000A128A1554300A168A1170220A128A157A
:10152A0065300A168A1170220A128A156D300A1657
:10153A008A1170220A128A1570300A168A117022CC
:10154A000A128A153A300A168A1170220A128A1564
:10155A000A168A11BB220A128A1590300A168A11B3
:10156A0087220A128A1544300A168A1170220A1230
:10157A008A1561300A168A1170220A128A15743085
:10158A000A168A1170220A128A1565300A168A11F9
:10159A0070220A128A153A300A168A1170220A1221
:1015AA008A1520300A168A1170220A128A150A161A
:1015BA008A115C260A128A1588300A168A1187222D
:1015CA000A128A1554300A168A1170220A128A15CA
:1015DA0069300A168A1170220A128A156D300A16A3
:1015EA008A1170220A128A1565300A168A11702227
:1015FA000A128A153A300A168A1170220A128A15B4
:10160A000A128A1544200A128A150A128A152E24E9
:10161A000A128A150A128A1185230A128A150A12CF
:10162A008A1186200A128A1598300A168A11872288
:10163A000A128A154B08303EE800003003180130C0
:10164A00E900003069020230031968020318782B96
:10165A004C08303EE800003003180130E900003041
:10166A0069020830031968020318782B4F08E8004A
:10167A00E9016808F3006908F4004E08EA00EB0182
:10168A006A08F5006B08F6000A168A1110250A1274
:10169A008A15EC006C08CD004F08E800E9016808DB
:1016AA00F3006908F4004E08EA00EB016A08F50045
:1016BA006B08F6000A168A11A5250A128A15EC008B
:1016CA006C08CD0083163408F4003308F30032089E
:1016DA00F6003108F5000A168A11FE250A128A1543
:1016EA00E8006808CD004B08303EE80000300318D7
:1016FA000130E900680869040319BF2B4C08303E21
:10170A00E800003003180130E900003069020830AF
:10171A0003196802031CBF2B3B08F4003A08F300C4
:10172A003D08F6003C08F5000A168A1110250A122F
:10173A008A15E8006808CD003B08F4003A08F3006F
:10174A003D08F6003C08F5000A168A11A5250A127A
:10175A008A15E8006808CD000030F300F400003074
:10176A00F500F6000A168A11FE250A128A15E80003
:10177A006808CD000A168A11E1230A128A15E800C0
:10178A006808CD004D080A168A119E220A128A1587
:10179A0020300A168A1170220A128A1548300A164F
:1017AA008A1170220A128A153A300A168A11702290
:1017BA000A128A1551080A168A1170220A128A1503
:1017CA0043300A168A1170220A128A153A300A160A
:1017DA008A1170220A128A1550080A168A11702272
:1017EA000A128A15ED01EE0120300A168A117022BA
:1017FA000A128A150130ED070318EE0A0030EE07C7
:10180A006E08803AFF0080307F02031D0E2C0330E1
:10181A006D02031CF92B831203132F08F8002E08FC
:10182A00F7000830F9000030FA000A168A11FF2181
:10183A000A128A1578088316A8007708A7002808CC
:10184A00F4002708F3000A128A110D200A128A15D9
:10185A007F2A0714871007158715071A0800013011
:10186A000A168A1187220A128A1580300A168A11E4
:10187A0087220A128A1554300A168A1170220A120D
:10188A008A1568300A168A1170220A128A1572306D
:10189A000A168A1170220A128A1565300A168A11E6
:1018AA0070220A128A1573300A168A1170220A12D5
:1018BA008A1568300A168A1170220A128A156F3040
:1018CA000A168A1170220A128A156C300A168A11AF
:1018DA0070220A128A1564300A168A1170220A12B4
:1018EA008A1573300A168A1170220A128A153A303A
:1018FA000A168A1170220A128A1507148710071508
:10190A008715871BCE2C78304906031DCE2C013053
:10191A00B4070318B50A0030B5073508F8003408CB
:10192A00F7000A30F9000030FA000A168A11FF217E
:10193A000A128A157808B5007708B4002803290422
:10194A00031DC02C3308E1003208E0003508E3002B
:10195A003408E2003030E5006508E4000A168A110E
:10196A0043230A128A15E600E7016608B2006708EF
:10197A00B300A801A901093034063504031DC92C96
:10198A000130A8000030A9000A168A1134220A126E
:10199A008A15831203130714871007158715871BE7
:1019AA001C2D79304906031D1C2D0130B807031878
:1019BA00B90A0030B9073908F8003808F7000A30C0
:1019CA00F9000030FA000A168A11FF210A128A1554
:1019DA007808B9007708B80028032904031D0E2DDA
:1019EA003708E1003608E0003908E3003808E20069
:1019FA003030E5006508E4000A168A1143230A120A
:101A0A008A15E600E7016608B6006708B700A8016C
:101A1A00A901093038063904031D172D0130A80021
:101A2A000030A9000A168A1134220A128A15831272
:101A3A0003130714871007158715871B6A2D7A3039
:101A4A004906031D6A2D0130A4070318A50A0030B0
:101A5A00A5072508F8002408F7000A30F900003025
:101A6A00FA000A168A11FF210A128A157808A500B7
:101A7A007708A40028032904031D5C2D2708E10028
:101A8A002608E0002508E3002408E2003030E500DB
:101A9A006508E4000A168A1143230A128A15E60029
:101AAA00E7016608A6006708A700A801A90109308E
:101ABA0024062504031D652D0130A8000030A90065
:101ACA000A168A1134220A128A158312031307147A
:101ADA00871007158715871BB82D61304906031D26
:101AEA00B82D0130A0070318A10A0030A107210868
:101AFA00F8002008F7000A30F9000030FA000A1648
:101B0A008A11FF210A128A157808A1007708A00015
:101B1A0028032904031DAA2D2308E1002208E00056
:101B2A002108E3002008E2003030E5006508E400FF
:101B3A000A168A1143230A128A15E600E701660883
:101B4A00A2006708A300A801A90109302006210400
:101B5A00031DB32D0130A8000030A9000A168A110E
:101B6A0034220A128A1583120313071487100715E1
:101B7A0087153108F8003008F7000430F900003002
:101B8A00FA000A168A11FF210A128A157808B1008A
:101B9A007708B000071A202E30083104031D202EC2
:101BAA000130B0070318B10A0030B10790300A16A5
:101BBA008A1187220A128A1544300A168A1170225B
:101BCA000A128A1561300A168A1170220A128A15B7
:101BDA0079300A168A1170220A128A1528300A16D2
:101BEA008A1170220A128A1555300A168A11702231
:101BFA000A128A1529300A168A1170220A128A15BF
:101C0A003A300A168A1170220A128A1520300A16E8
:101C1A008A1170220A128A1520300A168A11702235
:101C2A000A128A157830E5006508C9000A168A1171
:101C3A0034220A128A158312031307148710071510
:101C4A008715071A772E30033104031D772E90303B
:101C5A000A168A1187220A128A154E300A168A1122
:101C6A0070220A128A1569300A168A1170220A121B
:101C7A008A1567300A168A1170220A128A15683084
:101C8A000A168A1170220A128A1574300A168A11E3
:101C9A0070220A128A1528300A168A1170220A122C
:101CAA008A1555300A168A1170220A128A152930A5
:101CBA000A168A1170220A128A153A300A168A11ED
:101CCA0070220A128A157930E5006508C9000130C8
:101CDA00B0070318B10A0030B1070A168A11342274
:101CEA000A128A158312031307148710071587151A
:101CFA00071ACF2E023030063104031DCF2E903042
:101D0A000A168A1187220A128A154E300A168A1171
:101D1A0070220A128A1569300A168A1170220A126A
:101D2A008A1567300A168A1170220A128A156830D3
:101D3A000A168A1170220A128A1574300A168A1132
:101D4A0070220A128A1528300A168A1170220A127B
:101D5A008A154C300A168A1170220A128A152930FD
:101D6A000A168A1170220A128A153A300A168A113C
:101D7A0070220A128A157A30E5006508C900013016
:101D8A00B0070318B10A0030B1070A168A113422C3
:101D9A000A128A1583120313071A232F03303006F7
:101DAA003104031D232F0130B0070318B10A003094
:101DBA00B10790300A168A1187220A128A1544300E
:101DCA000A168A1170220A128A1561300A168A11B5
:101DDA0070220A128A1579300A168A1170220A129A
:101DEA008A1528300A168A1170220A128A154C306E
:101DFA000A168A1170220A128A1529300A168A11BD
:101E0A0070220A128A153A300A168A1170220A12A8
:101E1A008A1520300A168A1170220A128A15203071
:101E2A000A168A1170220A128A156130E5006508BD
:101E3A00C9000A168A1134220A128A1588300A162B
:101E4A008A1187220A128A1554300A168A117022B8
:101E5A000A128A1531300A168A1170220A128A1554
:101E6A003A300A168A1170220A128A153208303E4E
:101E7A000A168A1170220A128A153408303E0A1686
:101E8A008A1170220A128A1554300A168A1170228F
:101E9A000A128A1532300A168A1170220A128A1513
:101EAA003A300A168A1170220A128A153608303E0A
:101EBA000A168A1170220A128A153808303E0A1642
:101ECA008A1170220A128A1554300A168A1170224F
:101EDA000A128A1533300A168A1170220A128A15D2
:101EEA003A300A168A1170220A128A152608303EDA
:101EFA000A168A1170220A128A152408303E0A1616
:101F0A008A1170220A128A1598300A168A118722B3
:101F1A000A128A1554300A168A1170220A128A1570
:101F2A0034300A168A1170220A128A153A300A16B1
:101F3A008A1170220A128A152208303E0A168A115C
:101F4A0070220A128A152008303E0A168A11702257
:101F5A000A128A150710871407158715071BED2F14
:101F6A003608E5006508CF003808E5006508CE00A8
:101F7A00B601B701B801B901B401B501B801B90197
:101F8A0001300A168A1187220A128A1553300A1654
:101F9A008A1170220A128A1541300A168A11702291
:101FAA000A128A1556300A168A1170220A128A15DE
:101FBA0045300A168A1170220A128A1544300A1606
:101FCA008A1170220A128A150A168A113422080006
:101FDA000710871407158715871B3A2C01300A1634
:101FEA008A118722B601B701B801B901B401B50156
:061FFA00B801B901080066
:10238C0083168901831289010800073083169F0088
:10239C0005148801810189010800F2007008F10020
:1023AC007108F3000130F302031DD8290130F20249
:1023BC0003190800D429F3007308303EF1000030F3
:1023CC0003180130F2007008710672040319F3014E
:1023DC00730808000610861286168E300A168A11AB
:1023EC0067230A168A1100300A168A11672386128F
:1023FC0008007A08F1007908F0007808F3007708F3
:10240C00F2000A168A115A257108F8007008F700B4
:10241C0008007E088A007F0882000F220A168A11A3
:10242C008000840A04087D0603190034FF0A03198E
:10243C00FE0A132AF001F1010130F0070318F10A2A
:10244C000030F1077108803AFF0080307F02031DD5
:10245C00312A0530700203180800222AF001F1011C
:10246C000130F0070318F10A0030F1077108803AC7
:10247C00FF00A7307F02031D452A1030700203189D
:10248C000800362AF001F1010130F0070318F10AB7
:10249C000030F1077108803AFF0080307F02031D85
:1024AC00592A32307002031808004A2A0630831663
:1024BC009F00F03087008312CA01C901C801B00126
:1024CC00B101AE01AF010130AA000030AB00A80190
:1024DC00A9010800F2008312031385160512851159
:1024EC000A168A1120220A168A11831203138515E3
:1024FC00720888000A168A11202283120313851190
:10250C000800F200831203138512051285110A16B6
:10251C008A1120220A168A11831203138515720858
:10252C0088000A168A1120228312031385110800D1
:10253C00F20077307206031DB72A09150A168A11A4
:10254C0034220A168A118312031309110A168A11EE
:10255C0034220A168A118312031309150A168A11DA
:10256C00342283120313091108005B08303E0A164B
:10257C008A1170220A168A115A08303E0A168A11DC
:10258C0070220A168A112E300A168A1170220A1627
:10259C008A115908303E0A168A1170220A168A11BD
:1025AC005808303E0A168A1170220800F200F40115
:1025BC0070080319FB2AF301F30AF01BEC2A031031
:1025CC00F00D0130F1007108F307E32A0310F40D4C
:1025DC0070087202031CF62A7008F20274140310BD
:1025EC00F00C0130F302031DEC2A74080800F4000F
:1025FC000830F1007108F500F6017408F10007309D
:10260C000310F10CFF3E031D062B7608F200720737
:10261C007104F3007308F6000310F40D70087602D1
:10262C00031C1A2B7008F6020130F502031D032B54
:10263C00760808008501831205100A168A112022DB
:10264C000A168A11831203130514051530300A1665
:10265C008A1187220A168A1101300A168A118722DA
:10266C000A168A1106300A168A1187220A168A114E
:10267C000C300A168A11872208006208303EFB00D3
:10268C0063080318013E003EFC0064087B067C04D2
:10269C00031D652B0130E0070318E10A0030E10748
:1026AC006108F8006008F7000A30F9000030FA0001
:1026BC000A168A11FF217808E1007708E00060080B
:1026CC000800F400F201F301831203130612061042
:1026DC00741806167408F0000310700CF1007108E1
:1026EC00F40006140130F2070318F30A0030F30764
:1026FC007308803AFF0080307F02031D872B08305F
:10270C007202031C6A2B8312031306100800861630
:10271C00BE300A168A1167230A168A11F501F601D2
:10272C007508BB3E8400831300080A168A116723C0
:10273C000A168A110130F5070318F60A0030F6075D
:10274C007608803AFF0080307F02031DAF2B0830E3
:10275C007502031C962B8312031386120800831236
:10276C0003138616BF300A168A1167230A168A11BC
:10277C00F601F7010A168A1110240A168A11F500BF
:10278C007608A03E84007508831380000130F6079C
:10279C000318F70A0030F7077708803AFF008030FB
:1027AC007F02031DDB2B07307602031CC02B831228
:1027BC000313861208000714871407158711071ACC
:1027CC000E2C8316B501B6017830F3007308831212
:1027DC00D3008316B901BA0152300A168A1170223D
:1027EC000A168A1145300A168A1170220A168A11A5
:1027FC0053300A168A1170220A168A1145300A16AD
:10280C008A1170220A168A1154300A168A11702203
:10281C0053080800F401831603130616F201F301A2
:10282C008312031306107408F0000310700CF100EF
:10283C007108F400061E272C74088038F00070080C
:10284C00F40006140130F2070318F30A0030F30702
:10285C007308803AFF0080307F02031D372C08304C
:10286C007202031C162C8316031306128312061015
:10287C00740808007008710403196D2CF501F50A31
:10288C00F11B542C01300310F00DF10DFF3E031D14
:10289C00492C0130F4007408F507462C71087302BA
:1028AC00031D5A2C70087202031C622C7008F20271
:1028BC007108031CF303F30201300310F10CF00C4C
:1028CC00FF3E031D632C0130F502031D542C7308CD
:1028DC00F1007208F0000800F5010830F4007408EB
:1028EC00F6000310F50C831203130910831609105C
:1028FC00000000000000000000000000831603131D
:10290C0009140000000000000000000000308312D9
:10291C00031309180130C0004008031DF5170730D8
:10292C00F4007408F00002300A168A11D3210A163A
:10293C008A110130F6027608031D772C7508080001
:10294C00F501F50A75080319080083120313091021
:10295C00831609104630F4007408F00002300A1691
:10296C008A11D3210A168A1183160313091408300D
:10297C00F4007408F00002300A168A11D3210A16EA
:10298C008A1183120313091CCE2CF501F50ACF2CE6
:10299C00F5013C30F4007408F00002300A168A117C
:1029AC00D3210A168A11A82CF7000830F4007408F9
:1029BC00F80077080139F4007408F6008312031349
:1029CC000910831609100000000000000000000030
:1029DC007603031DF42C8316031309140730F4003B
:1029EC007408F00002300A168A11D3210A168A11D3
:1029FC00831603130914000000007708F400031079
:102A0C00740CF5007508F7000130F802780803190A
:102A1C000800DF2C7408803AF70080307702031D21
:102A2C00192D5B087302031C562D7608803AF700AB
:102A3C0080307702031D262D831203135A0875026A
:102A4C00031C562D023083160313B5000030B6005C
:102A5C007830F70077088312D3003030F70077080E
:102A6C00D1003030F7007708D0008316B901BA01D5
:102A7C00B701B8014F300A168A1170220A168A1152
:102A8C004B300A168A1170220A168A1120300A1647
:102A9C008A1170220A168A1120300A168A117022A5
:102AAC008312031353080800F601F31F642DF20977
:102ABC00F309F20A0319F30AF601F60AF11F6B2D5A
:102ACC00F009F109F00A0319F10A700871040319ED
:102ADC00982DF501F50AF11B7F2D01300310F00D37
:102AEC00F10DFF3E031D742D0130F4007408F50741
:102AFC00712D71087302031D852D70087202031C61
:102B0C008D2D7008F2027108031CF303F3020130DF
:102B1C000310F10CF00CFF3E031D8E2D0130F5025D
:102B2C00031D7F2D76080319A02DF209F309F20A73
:102B3C000319F30A7308F1007208F0000800740816
:102B4C00803A803C031DAC2D73085B02031CFA2DEC
:102B5C007608803A803C031DB72D75088312031349
:102B6C005A02031CFA2D013083160313B9070318FC
:102B7C00BA0A0030BA073030F70077088312D10058
:102B8C003130F7007708D00057300A168A117022BE
:102B9C000A168A1141300A168A1170220A168A11F5
:102BAC0052300A168A1170220A168A114D300A16F2
:102BBC008A1170220A168A11033083163A02E93000
:102BCC0003193902031CFA2D2D30F70077088312F4
:102BDC00D0000230831635063604031DFA2D7730EB
:102BEC00F70077088312D3008312031353080800ED
:102BFC007408803AF70080307702031D082E831288
:102C0C005B087302031C582E7608803AF70080305C
:102C1C007702031D152E831203135A08750203182D
:102C2C00222E7608803A803C031D202E75088312D4
:102C3C0003135A02031C582E013083160313B707D3
:102C4C000318B80A0030B8073130F7007708831240
:102C5C00D1003030F7007708D00043300A168A11C3
:102C6C0070220A168A114F300A168A1170220A161F
:102C7C008A114C300A168A1170220A168A114430B5
:102C8C000A168A1170220A168A110330831638022A
:102C9C00E93003193702031C582E2D30F700770842
:102CAC008312D10083120313530808008618672E71
:102CBC0083162308F3007308A0002408F30073089C
:102CCC00A10083162308F039F300F4017308F50012
:102CDC007408F600750E0F39F500760EF039F50410
:102CEC00760E0F39F600F030F61D0030F60475083C
:102CFC00303E0A168A1170220A168A11831623088E
:102D0C000F39F300F4017308F5007408F600750828
:102D1C00303E0A168A1170220A168A112F300A16B2
:102D2C008A1170220A168A1183162408F039F300CE
:102D3C00F4017308F5007408F600750E0F39F500F0
:102D4C00760EF039F504760E0F39F600F030F61DDC
:102D5C000030F6047508303E0A168A1170220A16E5
:102D6C008A11831624080F39F300F4017308F50057
:102D7C007408F6007508303E0A168A1170220A167D
:102D8C008A112F300A168A1170220A168A1183169C
:102D9C002608F039F300F4017308F5007408F60006
:102DAC00750E0F39F500760EF039F504760E0F39E5
:102DBC00F600F030F61D0030F6047508303E0A16A9
:102DCC008A1170220A168A11831626080F39F3000D
:102DDC00F4017308F5007408F6007508303E0A1605
:102DEC008A1170220800831609140A168A11A62467
:102DFC000A168A11CC300A168A11DA240A168A119C
:102E0C000A168A1148220A168A1144300A168A11A7
:102E1C00DA240A168A110A168A11A6240A168A11AD
:102E2C00CC300A168A11DA240A168A11BE300A1618
:102E3C008A11DA240A168A110A168A1172240A16C1
:102E4C008A1183120313E0006008DF000A168A114E
:102E5C0072240A168A1183120313E0006008DE0044
:102E6C008316091483125E08E00004300310E00D91
:102E7C00FF3E031D3C2F3F306005E1005F08E20080
:102E8C0004300310E20CFF3E031D472F620861045F
:102E9C00E3006308DD005F08E00003300310E00D81
:102EAC00FF3E031D542F0310600DE1006108DC0090
:102EBC000A30E0006008F0005D080A168A11FD2255
:102ECC000A168A11E1006108DA000A30E000600895
:102EDC00F0005D080A168A11DC220A168A11E1003C
:102EEC006108DB00BE01BF01DC1F842F3E08883E59
:102EFC00BE003F080318013E133EBF005C1F8E2F1F
:102F0C003E08C43EBE003F080318013E093EBF0008
:102F1C00DC1E982F3E08E23EBE003F080318013E1F
:102F2C00043EBF005C1EA22F3E08713EBE003F084F
:102F3C000318013E023EBF00E830F6000330F700F4
:102F4C003F08F9003E08F8000A128A1508200A16F4
:102F5C008A117608E0006008D9006430F600003071
:102F6C00F7003F08F3003E08F200E830F0000330B1
:102F7C00F1000A168A1140240A168A117108F90008
:102F8C007008F8000A128A1508200A168A117608A9
:102F9C00E0006008D8000A30F6000030F7003F0867
:102FAC00F3003E08F2006430F0000030F1000A1625
:102FBC008A1140240A168A117108F9007008F80069
:102FCC000A128A1508200A168A117608E000600891
:102FDC00D7000A30F0000030F1003F08F3003E0843
:102FEC00F2000A168A1140247008E0006008D6002E
:042FFC0000000800C9
:02400E00323F3F
:00000001FF
