:020000040000FA
:100000000A128A11E02F8501831205100A168A113F
:100010006D240A128A11831203130514051530305A
:100020000A168A11C0240A128A1101300A168A118E
:10003000C0240A128A1106300A168A11C0240A1234
:100040008A110C300A168A11C0240800F601F31F29
:100050003028F209F309F20A0319F30AF601F60A45
:10006000F11F3728F009F109F00A0319F10A7008A5
:10007000710403196428F501F50AF11B4B280130BE
:100080000310F00DF10DFF3E031D40280130F40078
:100090007408F5073D2871087302031D5128700884
:1000A0007202031C59287008F2027108031CF30342
:1000B000F30201300310F10CF00CFF3E031D5A282F
:1000C0000130F502031D4B28760803196C28F2094C
:1000D000F309F20A0319F30A7308F1007208F00039
:1000E00008000714871407118715071A0800013044
:1000F0000A168A11C0240A128A1180300A168A113F
:10010000C0240A128A1154300A168A11A9240A122C
:100110008A1169300A168A11A9240A128A116D30CF
:100120000A168A11A9240A128A1165300A168A1140
:10013000A9240A128A115F300A168A11A9240A1208
:100140008A1153300A168A11A9240A128A116530BD
:100150000A168A11A9240A128A1174300A168A1101
:10016000A9240A128A1174300A168A11A9240A12C3
:100170008A1169300A168A11A9240A128A116E306E
:100180000A168A11A9240A128A1167300A168A11DE
:10019000A9240A128A1173300A168A11A9240A1294
:1001A0008A110714871007158715871B482978308F
:1001B0004806031D48292B032C04031DE3280130A6
:1001C000E4006408C9072B082C04031DEB28013048
:1001D000AB000030AC000130B5070318B60A0030A0
:1001E000B6073608F8003508F7000A30F900003085
:1001F000FA000A168A1138240A128A117808B60001
:100200007708B50029032A04031D1F293408E000DC
:100210003308DF003608E2003508E1003030E40042
:100220006408E3000A168A1159250A128A11E500AA
:10023000E6016508B3006608B400A901AA01093007
:1002400035063604031D28290130A9000030AA0014
:100250005430E4006408F00049080A168A111A2490
:100260000A128A11E5006508C90002303306340419
:10027000031D4329043035063604031D4329B50107
:10028000B601B301B4010A168A1159240A128A115F
:1002900083120313871BC62979304806031DC6291C
:1002A0002B032C04031D58290130E4006408C70700
:1002B0002B082C04031D60290130AB000030AC007A
:1002C0000130B9070318BA0A0030BA073A08F80033
:1002D0003908F7000A30F9000030FA000A168A11CE
:1002E00038240A128A117808BA007708B90029035D
:1002F0002A04031D94293808E0003708DF003A0873
:10030000E2003908E1003030E4006408E3000A1636
:100310008A1159250A128A11E500E6016508B7001D
:100320006608B800A901AA01093039063A04031D7C
:100330009D290130A9000030AA003808E0003708E4
:10034000DF003A08E2003908E1003930E4006408CF
:10035000E3000A168A1159250A128A11E500E601FE
:100360006508B7006608B8005A3047060319C70188
:10037000063037063804031DC129B701B801B90199
:10038000BA010A168A1159240A128A1188300A16EB
:100390008A11C0240A128A112B082C04031DD829A3
:1003A0004108E40064088316AA0083124008E32988
:1003B0002B032C04031DE7294908E4006408831675
:1003C000AA0083124708E40064088316A9001130CC
:1003D0008312E4006408F0003930E5006508F1009C
:1003E0000430F2000030F30049080A128A15BB22DB
:1003F0000A128A11E6006608C9002130E400640888
:10040000F0004A30E5006508F1000430F2000030E9
:10041000F30049080A128A15BB220A128A11E60063
:100420006608C9001130E4006408F0003930E500C6
:100430006508F1000530F2000030F30047080A12A9
:100440008A15BB220A128A11E6006608C70021300D
:10045000E4006408F0004A30E5006508F10005306A
:10046000F2000030F30047080A128A15BB220A1274
:100470008A11E6006608C7003130E4006408F00025
:100480005930E5006508F1000530F2000030F30056
:1004900047080A128A15BB220A128A11E60066086A
:1004A000C7004130E4006408F0006A30E5006508E8
:1004B000F1000530F2000030F30047080A128A15F7
:1004C000BB220A128A11E6006608C7005130E40018
:1004D0006408F0007A30E5006508F1000530F200AC
:1004E0000030F30047080A128A15BB220A128A114B
:1004F000E6006608C7000710871407158715071B55
:10050000952A01300A168A11C0240A128A11C901DB
:10051000C701B501B601B301B401B701B801B90112
:10052000BA010A168A11C725080007148714071193
:1005300087153208F8003108F7000230F900003062
:10054000FA000A168A1138240A128A117808B200B1
:100550007708B100071AE52A31083204031DE52A9D
:1005600090300A168A11C0240A128A1148300A16DD
:100570008A11A9240A128A116F300A168A11A92435
:100580000A128A1175300A168A11A9240A128A11D0
:1005900072300A168A11A9240A128A113A300A16F0
:1005A0008A11A9240A128A117830E4006408C8006C
:1005B0000A168A1159240A128A1101308312031370
:1005C000B1070318B20A0030B207071487140711E5
:1005D0008715071A222B31033204031D222B013009
:1005E000B1070318B20A0030B2070A168A1159245B
:1005F0000A128A1190300A168A11C0240A128A112E
:100600004D300A168A11A9240A128A1169300A1675
:100610008A11A9240A128A116E300A168A11A92495
:100620000A128A1173300A168A11A9240A128A1131
:100630003A300A168A11A9240A128A117930E40084
:100640006408C80088300A168A11C0240A128A1168
:10065000071487140711871588300A168A11C024D9
:100660000A128A1154300A168A11A9240A128A1110
:1006700069300A168A11A9240A128A116D300A16E5
:100680008A11A9240A128A1165300A168A11A9242E
:100690000A128A113A300A168A11A9240A128A11FA
:1006A0003308303E0A168A11A9240A128A11350825
:1006B000303E0A168A11A9240A128A113A300A1603
:1006C0008A11A9240A128A113708303E0A168A11A3
:1006D000A9240A128A113908303E0A168A11A9245F
:1006E0000A128A110710871407158715871B7D28A2
:1006F000C901C701B501B601B301B401B701B80121
:10070000B901BA0101300A168A11C0240800831207
:1007100003130710871407158715071A08000130FF
:100720000A168A11C0240A128A1180300A168A1108
:10073000C0240A128A1144300A168A11A9240A1206
:100740008A1161300A168A11A9240A128A1174309A
:100750000A168A11A9240A128A1165300A168A110A
:10076000A9240A128A115F300A168A11A9240A12D2
:100770008A1153300A168A11A9240A128A11653087
:100780000A168A11A9240A128A1174300A168A11CB
:10079000A9240A128A1174300A168A11A9240A128D
:1007A0008A1169300A168A11A9240A128A116E3038
:1007B0000A168A11A9240A128A1167300A168A11A8
:1007C000A9240A128A1173300A168A11A9240A125E
:1007D0008A110714871007158715871B5F2C78303F
:1007E0004806031D5F2C2B032C04031DFB2B01303B
:1007F000E4006408C9072B082C04031D032C0130F6
:10080000AB000030AC000130B5070318B60A003069
:10081000B6073608F8003508F7000A30F90000304E
:10082000FA000A168A1138240A128A117808B600CA
:100830007708B50029032A04031D372C3408E0008B
:100840003308DF003608E2003508E1003030E4000C
:100850006408E3000A168A1159250A128A11E50074
:10086000E6016508B3006608B400A901AA010930D1
:1008700035063604031D402C0130A9000030AA00C3
:100880004330E4006408F00049080A168A111A246B
:100890000A128A11E5006508C90033033404031DF8
:1008A0005A2C033035063604031D5A2CB501B60107
:1008B000B301B4010A168A1159240A128A1183124B
:1008C0000313871BE52C79304806031DE52C2B0309
:1008D0002C04031D6F2C0130E4006408C6072B08AC
:1008E0002C04031D772C0130AB000030AC0001302C
:1008F000AF070318B00A0030B0073008F8002F081F
:10090000F7000A30F9000030FA000A168A1138247C
:100910000A128A117808B0007708AF003008F80092
:100920002F08F7000830F9000030FA000A168A1183
:1009300038240A128A117808A8007708A70029032A
:100940002A04031DBC2C2E08E0002D08DF0030080F
:10095000E2002F08E1003030E4006408E3000A16EA
:100960008A1159250A128A11E500E6016508AD00D1
:100970006608AE00A901AA0109302F063004031D44
:10098000C52C0130A9000030AA006330E4006408DF
:10099000F00046080A168A111A240A128A11E50084
:1009A0006508C60003302D062E04031DE02C02301E
:1009B0002F063004031DE02CAD01AE01AF01B001E4
:1009C0000A168A1159240A128A1183120313871BEB
:1009D0004C2D7A304806031D4C2D2B032C04031D8F
:1009E000F52C0130E4006408C7072B082C04031D14
:1009F000FD2C0130AB000030AC000130B90703180A
:100A0000BA0A0030BA073A08F8003908F7000A3085
:100A1000F9000030FA000A168A1138240A128A11E5
:100A20007808BA007708B90029032A04031D312D7C
:100A30003808E0003708DF003A08E2003908E10032
:100A40003030E4006408E3000A168A1159250A12BE
:100A50008A11E500E6016508B7006608B800A9013B
:100A6000AA01093039063A04031D3A2D0130A900C4
:100A70000030AA005A3047060319C701063037066E
:100A80003804031D472DB701B801B901BA010A1690
:100A90008A1159240A128A11113083120313E400B7
:100AA0006408F0003930E5006508F1000130F2001B
:100AB0000030F30049080A128A15BB220A128A1173
:100AC000E6006608C9001130E4006408F00039301F
:100AD000E5006508F1000230F2000030F30046083E
:100AE0000A128A15BB220A128A11E6006608C6009D
:100AF0002130E4006408F0004A30E5006508F100A8
:100B00000230F2000030F30046080A128A15BB22B8
:100B10000A128A11E6006608C6001130E400640873
:100B2000F0003930E5006508F1000230F2000030D5
:100B3000F30046080A128A15BB220A128A11E6003F
:100B40006608C6002130E4006408F0004A30E50081
:100B50006508F1000230F2000030F30046080A1286
:100B60008A15BB220A128A11E6006608C6003130D7
:100B7000E4006408F0005930E5006508F100023037
:100B8000F2000030F30046080A128A15BB220A124E
:100B90008A11E6006608C6001130E4006408F0001F
:100BA0003930E5006508F1000330F2000030F30051
:100BB00047080A128A15BB220A128A11E600660843
:100BC000C7002130E4006408F0004A30E500650801
:100BD000F1000330F2000030F30047080A128A15D2
:100BE000BB220A128A11E6006608C7001130E40031
:100BF0006408F0003930E5006508F1000330F200C8
:100C00000030F30047080A128A15BB220A128A1123
:100C1000E6006608C7002130E4006408F0004A30AE
:100C2000E5006508F1000330F2000030F3004708EA
:100C30000A128A15BB220A128A11E6006608C7004A
:100C40003130E4006408F0005930E5006508F10037
:100C50000330F2000030F30047080A128A15BB2265
:100C60000A128A11E6006608C7004130E4006408F1
:100C7000F0006A30E5006508F1000330F200003052
:100C8000F30047080A128A15BB220A128A11E600ED
:100C90006608C7005130E4006408F0007A30E500CF
:100CA0006508F1000330F2000030F30047080A1233
:100CB0008A15BB220A128A11E6006608C7002B08B3
:100CC0002C04031D712E4408E40064088316AC0054
:100CD00083124208E40064088316AE0083124308BE
:100CE000822E2B032C04031D862E4908E400640881
:100CF0008316AC0083124708E40064088316AE0034
:100D000083124608E40064088316AB0088300A1694
:100D10008A11C0240A128A11071087140715871533
:100D2000071BAB2EC901C701C601AD01AE01AF0162
:100D3000B001B501B601B301B401B701B801B90101
:100D4000BA0101300A168A11C0240A128A110A1641
:100D50008A11C72508000710871407158715320860
:100D6000F8003108F7000330F9000030FA000A16E5
:100D70008A1138240A128A117808B2007708B10063
:100D8000071A012F31083204031D012F90300A1673
:100D90008A11C0240A128A1144300A168A11A92421
:100DA0000A128A1161300A168A11A9240A128A11BC
:100DB00079300A168A11A9240A128A113A300A16C1
:100DC0008A11A9240A128A1120300A168A11A9242C
:100DD0000A128A1120300A168A11A9240A128A11CD
:100DE0007930E4006408C8000A168A1159240A12EE
:100DF0008A11013083120313B1070318B20A0030BD
:100E0000B2070710871407158715071A442F3103F7
:100E10003204031D442F0130B1070318B20A003019
:100E2000B2070A168A1159240A128A1190300A163A
:100E30008A11C0240A128A114D300A168A11A92477
:100E40000A128A116F300A168A11A9240A128A110D
:100E50006E300A168A11A9240A128A1174300A16F1
:100E60008A11A9240A128A1168300A168A11A92443
:100E70000A128A113A300A168A11A9240A128A1112
:100E80007830E4006408C800071087140715871538
:100E9000071A8A2F023031063204031D8A2F0A16E0
:100EA0008A1159240A128A11013083120313B107DF
:100EB0000318B20A0030B20790300A168A11C02413
:100EC0000A128A1159300A168A11A9240A128A11A3
:100ED00065300A168A11A9240A128A1161300A168D
:100EE0008A11A9240A128A1172300A168A11A924B9
:100EF0000A128A113A300A168A11A9240A128A1192
:100F000020300A168A11A9240A128A117A30E400C4
:100F10006408C80088300A168A11C0240A128A118F
:100F20002D08303E0A168A11A9240A128A112F08A8
:100F3000303E0A168A11A9240A128A112F300A1685
:100F40008A11A9240A128A113308303E0A168A111E
:100F5000A9240A128A113508303E0A168A11A924DA
:100F60000A128A112F300A168A11A9240A128A112C
:100F70003708303E0A168A11A9240A128A11390844
:100F8000303E0A168A11A9240A128A110710871402
:100F900007158715871B952BC901C701C601B50128
:100FA000B601B301B401B701B801B901BA01AD018D
:100FB000AE01AF01B00101300A168A11C024080049
:100FC0008313B030FD001430FE000430FF00A83061
:100FD00084000A168A114C240A128A11A030840057
:100FE000A8300A168A11FC230A128A1120308400C4
:100FF0005F300A168A11FC2383010A128A15122C0B
:101004008316890183128901080073037404031988
:101014000F2873087404031D1B284D300A168A1107
:10102400A9240A128A156F300A168A11A9240A12F1
:101034008A15023073067404031D2C2854300A16D2
:101044008A11A9240A128A1575300A168A11A9244C
:101054000A128A15033073067404031D3D285730A1
:101064000A168A11A9240A128A1565300A168A11E9
:10107400A9240A128A15043073067404031D4E2829
:1010840054300A168A11A9240A128A1568300A16DD
:101094008A11A9240A128A15053073067404031DE3
:1010A4005F2846300A168A11A9240A128A1572305A
:1010B4000A168A11A9240A128A15063073067404C2
:1010C400031D702853300A168A11A9240A128A159E
:1010D40061300A168A11A9240A128A150730730688
:1010E4007404031D080053300A168A11A9240A1235
:1010F4008A1575300A168A11A924080086188A28C8
:101104002308F3007308A0002408F3007308A10067
:101114002308F039F300F4017308F5007408F600AD
:10112400750E0F39F500760EF039F504760E0F3989
:10113400F600F030F61D0030F6047508303E0A164D
:101144008A11A9240A128A1523080F39F300F4011D
:101154007308F5007408F6007508303E0A168A1103
:10116400A9240A128A152F300A168A11A9240A12F0
:101174008A152408F039F300F4017308F5007408A3
:10118400F600750E0F39F500760EF039F504760E7B
:101194000F39F600F030F61D0030F6047508303EC5
:1011A4000A168A11A9240A128A1524080F39F30091
:1011B400F4017308F5007408F6007508303E0A1649
:1011C4008A11A9240A128A152F300A168A11A92411
:1011D4000A128A152608F039F300F4017308F500A1
:1011E4007408F600750E0F39F500760EF039F50423
:1011F400760E0F39F600F030F61D0030F60475084F
:10120400303E0A168A11A9240A128A1526080F39B3
:10121400F300F4017308F5007408F6007508303E15
:101224000A168A11A9240800861820292308F30025
:101234007308A0002408F3007308A1002208F03901
:10124400F300F4017308F5007408F600750E0F3905
:10125400F500760EF039F504760E0F39F600F0300D
:10126400F61D0030F6047508303E0A168A11A924CA
:101274000A128A157508F3007308CA0022080F3988
:10128400F300F4017308F5007408F6007508303EA5
:101294000A168A11A9240A128A153A300A168A11E2
:1012A400A9240A128A157508F3007308CB002108D3
:1012B400F039F300F4017308F5007408F600750EB4
:1012C4000F39F500760EF039F504760E0F39F60075
:1012D400F030F61D0030F6047508303E0A168A1107
:1012E400A9240A128A1521080F39F300F40173089E
:1012F400F5007408F6007508303E0A168A11A92410
:101304000A128A153A300A168A11A9240A128A1571
:101314002008F039F300F4017308F5007408F600AE
:10132400750E0F39F500760EF039F504760E0F3987
:10133400F600F030F61D0030F6047508303E0A164B
:101344008A11A9240A128A1520080F39F300F4011E
:101354007308F5007408F6007508303E0A168A1101
:10136400A9240800831609140A168A11DB260A1216
:101374008A15CC300A168A110F270A128A150A1602
:101384008A1181240A128A1544300A168A110F27F9
:101394000A128A150A168A11DB260A128A15CC301B
:1013A4000A168A110F270A128A15BE300A168A11E4
:1013B4000F270A128A150A168A11A7260A128A15F5
:1013C40083120313DF005F08DE000A168A11A726C2
:1013D4000A128A1583120313DF005F08DD008316E7
:1013E400091483125D08DF0004300310DF0DFF3E93
:1013F400031DF7293F305F05E0005E08E10004307B
:101404000310E10CFF3E031D022A61086004E200A0
:101414006208DC005E08DF0003300310DF0DFF3ECE
:10142400031D0F2A03105F0DE0006008DB000A3083
:10143400DF005F08F0005C080A168A1136250A12DC
:101444008A15E0006008D9000A30DF005F08F00068
:101454005C080A168A1115250A128A15E00060082C
:10146400DA00BD01BE01DB1F3F2A3D08883EBD00F6
:101474003E080318013E133EBE005B1F492A3D0887
:10148400C43EBD003E080318013E093EBE00DB1EFB
:10149400532A3D08E23EBD003E080318013E043EC7
:1014A400BE005B1E5D2A3D08713EBD003E08031868
:1014B400013E023EBE00E830F6000330F7003E086D
:1014C400F9003D08F8000A168A1145270A128A1500
:1014D4007608DF005F08D8006430F6000030F700BB
:1014E4003E08F3003D08F200E830F0000330F1005C
:1014F4000A168A1175260A128A157108F9007008ED
:10150400F8000A168A1145270A128A157608DF00A0
:101514005F08D7000A30F6000030F7003E08F300F9
:101524003D08F2006430F0000030F1000A168A1120
:1015340075260A128A157108F9007008F8000A164F
:101544008A1145270A128A157608DF005F08D6003B
:101554000A30F0000030F1003E08F3003D08F200CC
:101564000A168A1175267008DF005F08D50000008E
:101574000800F6007608303EF4000030031801300D
:10158400F500710874067504031D102C7008F4002E
:101594007408F600AB01AC0139307106031DDA2A78
:1015A40072037304031DDA2A0930F4007408C400BA
:1015B4004A307106031DE62A72037304031DE62AEA
:1015C4001930F4007408C40059307106031DF22A5E
:1015D40072037304031DF22A2930F4007408C40052
:1015E4006A307106031DFE2A72037304031DFE2A6A
:1015F4003930F4007408C4007A307106031D0A2BD4
:1016040072037304031D0A2B4930F4007408C400E8
:1016140039307106031D172B023072067304031D43
:10162400172B0930F4007408C3004A307106031DF7
:10163400242B023072067304031D242B1930F4008A
:101644007408C30059307106031D312B0230720631
:101654007304031D312B2930F4007408C3006A306D
:101664007106031D3E2B023072067304031D3E2BCC
:101674003930F4007408C3007A307106031D4B2B13
:10168400023072067304031D4B2B4930F4007408B6
:10169400C30039307106031D582B033072067304DE
:1016A400031D582B0930F4007408C2004A30710637
:1016B400031D652B033072067304031D652B19305B
:1016C400F4007408C20059307106031D722B0330F4
:1016D40072067304031D722B2930F4007408C200CF
:1016E4006A307106031D7F2B033072067304031DD9
:1016F4007F2B3930F4007408C2007A307106031D60
:101704008C2B033072067304031D8C2B4930F400B8
:101714007408C20039307106031D992B0430720617
:101724007304031D992B0930F4007408C1004A3076
:101734007106031DA62B043072067304031DA62B29
:101744001930F4007408C10059307106031DB32B1D
:10175400043072067304031DB32B2930F40074089B
:10176400C1006A307106031DC02B04307206730475
:10177400031DC02B3930F4007408C1007A3071069F
:10178400031DCD2B043072067304031DCD2B493089
:10179400F4007408C10039307106031DDA2B0530DA
:1017A40072067304031DDA2B0930F4007408C000B8
:1017B4004A307106031DE72B053072067304031DBE
:1017C400E72B1930F4007408C00059307106031D6A
:1017D400F42B053072067304031DF42B2930F40036
:1017E4007408C0006A307106031D012C05307206AE
:1017F4007304031D012C3930F4007408C0007A30DE
:101804007106031D0E2C053072067304031D0E2C85
:101814004930F4007408C0000130F602760808006C
:101824000230831686000A128A1502200A128A15CB
:101834000A168A11C7250A128A150A168A1129243A
:101844000A128A150A168A11F4230A128A150A1230
:101854008A1103200A128A150A128A1502200A1212
:101864008A150A168A1195240A128A150230E9008B
:101874006908CE000430E9006908CD000A128A150F
:10188400B4210A128A150A168A1119260A128A150F
:1018940080300A168A11C0240A128A1554300A1696
:1018A4008A11A9240A128A1565300A168A11A924F4
:1018B4000A128A156D300A168A11A9240A128A1589
:1018C40070300A168A11A9240A128A153A300A16A7
:1018D4008A11A9240A128A150A168A11F4240A12F2
:1018E4008A1590300A168A11C0240A128A154430C7
:1018F4000A168A11A9240A128A1561300A168A1155
:10190400A9240A128A1574300A168A11A9240A1203
:101914008A1565300A168A11A9240A128A153A30E2
:101924000A168A11A9240A128A1520300A168A1165
:10193400A9240A128A150A128A1580200A128A1505
:1019440088300A168A11C0240A128A1554300A16DD
:101954008A11A9240A128A1569300A168A11A9243F
:101964000A128A156D300A168A11A9240A128A15D8
:1019740065300A168A11A9240A128A153A300A1601
:101984008A11A9240A128A150A128A1516210A1222
:101994008A150A128A1592250A128A150A128A11C0
:1019A40087230A128A150A128A1171200A128A15CB
:1019B40098300A168A11C0240A128A154A08303E41
:1019C400E900003003180130EA00303069066A0487
:1019D400031D242D4B08303EE9000030031801306C
:1019E400EA00303069066A04031D242D4E08E9001C
:1019F400EA016908F3006A08F4004D08EB00EC0101
:101A04006B08F5006C08F6000A168A11BE270A1244
:101A14008A15ED006D08CC004E08E900EA0169085A
:101A2400F3006A08F4004D08EB00EC016B08F500C4
:101A34006C08F6000A168A1181270A128A15ED002D
:101A44006D08CC000A168A11EF250A128A15E900DE
:101A54006908CC004C080A168A11D7240A128A1580
:101A640020300A168A11A9240A128A1548300A1647
:101A74008A11A9240A128A153A300A168A11A9244D
:101A84000A128A1550080A168A11A9240A128A15FC
:101A940043300A168A11A9240A128A153A300A1602
:101AA4008A11A9240A128A154F080A168A11A92430
:101AB4000A128A15EE01EF0120300A168A11A924B0
:101AC4000A128A150130EE070318EF0A0030EF07F7
:101AD4006F08803AFF0080307F02031D732D0330AE
:101AE4006E02031C5E2D831203133008F8002F08C6
:101AF400F7000830F9000030FA000A168A11382479
:101B04000A128A157808A8007708A7002808F400A4
:101B14002708F3000A128A1507200A128A15402C96
:101B24000714871007158715071A080001300A16CD
:101B34008A11C0240A128A1580300A168A11C02418
:101B44000A128A1574300A168A11A9240A128A15EF
:101B540068300A168A11A9240A128A1572300A16E4
:101B64008A11A9240A128A1565300A168A11A92431
:101B74000A128A1573300A168A11A9240A128A15C0
:101B840068300A168A11A9240A128A156F300A16B7
:101B94008A11A9240A128A156C300A168A11A924FA
:101BA4000A128A1564300A168A11A9240A128A159F
:101BB40090300A168A11C0240A128A1543300A1674
:101BC4008A11A9240A128A1575300A168A11A924C1
:101BD4000A128A1572300A168A11A9240A128A1561
:101BE40072300A168A11A9240A128A1565300A1657
:101BF4008A11A9240A128A156E300A168A11A92498
:101C04000A128A1574300A168A11A9240A128A152E
:101C14003A300A168A11A9240A128A154E08303E4F
:101C24000A168A11A9240A128A154D08303E0A168A
:101C34008A11A9240A128A1588300A168A11C02426
:101C44000A128A1553300A168A11A9240A128A150F
:101C540065300A168A11A9240A128A1574300A16E4
:101C64008A11A9240A128A155F300A168A11A92436
:101C74000A128A1574300A168A11A9240A128A15BE
:101C840068300A168A11A9240A128A1572300A16B3
:101C94008A11A9240A128A1565300A168A11A92400
:101CA4000A128A1573300A168A11A9240A128A158F
:101CB40068300A168A11A9240A128A156F300A1686
:101CC4008A11A9240A128A156C300A168A11A924C9
:101CD4000A128A1564300A168A11A9240A128A156E
:101CE4003A300A168A11A9240A128A1598300A165B
:101CF4008A11C0240A128A1507148710071587153C
:101D0400B901BA01B701B801B501B601B301B40113
:101D1400B501B6010714871007158715871BEB2E2D
:101D240098300A168A11C0240A128A150130B507A0
:101D34000318B60A0030B6073308E400E501640866
:101D4400B3006508B4003608F8003508F7000A3017
:101D5400F9000030FA000A168A1138240A128A158A
:101D64007708E400E5016408B5006508B6003308A7
:101D7400303E0A168A11A9240A128A153508303E03
:101D84000A168A11A9240A128A153408E0003308B5
:101D9400DF003608E2003508E1003930E400640869
:101DA400E3000A168A1159250A128A15E500E6018C
:101DB4006508B3006608B4003608BA003508B900EF
:101DC4003408B8003308B7000A168A1159240A12D5
:101DD4008A15831203130710871407158715071B29
:101DE4003D2F3308E4006408CE003508E40064089D
:101DF400CD00B501B601B301B401B701B801B90111
:101E0400BA0101300A168A11C0240A128A15533005
:101E14000A168A11A9240A128A1541300A168A114F
:101E2400A9240A128A1556300A168A11A9240A12FC
:101E34008A1545300A168A11A9240A128A154430D3
:101E44000A168A11A9240A128A15E701E801013049
:101E540083120313E7070318E80A0030E807680849
:101E6400803AFF00F5307F02031D3A2F30306702BD
:101E740003180800292F0714871407118715871BD7
:101E8400AD2F98300A168A11C0240A128A1501301F
:101E9400B9020030031CBA03BA023708E400E501B2
:101EA4006408B7006508B8003A08F8003908F70074
:101EB4000A30F9000030FA000A168A1138240A128E
:101EC4008A157708E400E5016408B9006508BA00DA
:101ED4003708303E0A168A11A9240A128A153908CD
:101EE400303E0A168A11A9240A128A153808E0001D
:101EF4003708DF003A08E2003908E1003030E40036
:101F04006408E3000A168A117D250A128A15E50081
:101F1400E6016508B7006608B8003908303EE400F9
:101F24003A080318013E003EE500303064066504BB
:101F3400031DA02F0A30B9000030BA003A08B600D9
:101F44003908B5003808B4003708B3000A168A11F6
:101F540059240A128A1583120313071087140715CC
:101F64008715071BED2F3708E4006408CE003908F5
:101F7400E4006408CD00B501B601B301B401B701B2
:101F8400B801B901BA0101300A168A11C0240A1233
:101F94008A1553300A168A11A9240A128A15413067
:101FA4000A168A11A9240A128A1556300A168A11A9
:101FB400A9240A128A1545300A168A11A9240A127C
:101FC4008A1544300A168A11A9240A128A150A1697
:101FD4008A11592408000710871407158715871BD1
:101FE4008C2EB501B601B301B401B701B801B90132
:0C1FF400BA0101300A168A11C02408004E
:1027E800073083169F0005148801810189010800BC
:1027F80064008001840A0406031900340406FD2BD2
:1028080000340234003412341234063419340034DB
:10281800F2007008F1007108F3000130F302031DA3
:10282800112C0130F202031908000D2CF300730873
:10283800303EF100003003180130F20070087106D4
:1028480072040319F301730808000610861286162D
:102858008E300A168A11A1250A168A1100300A1626
:102868008A11A125861208007A08F1007908F0007B
:102878007808F3007708F2000A128A1126207108F6
:10288800F8007008F70008007E088A007F088200B8
:1028980048240A168A118000840A04087D06031950
:1028A8000034FF0A0319FE0A4C2CF001F101013033
:1028B800F0070318F10A0030F1077108803AFF00A9
:1028C800A7307F02031D6A2C10307002031808001D
:1028D8005B2CF001F1010130F0070318F10A003018
:1028E800F1077108803AFF0080307F02031D7E2CBB
:1028F80005307002031808006F2CF001F101013057
:10290800F0070318F10A0030F1077108803AFF0058
:1029180080307F02031D922C3230700203180800A9
:10292800832C063083169F00F03087008312C9017C
:10293800C801C701B101B201AF01B0010130AB005C
:102948000030AC00A901AA010800F20083120313A9
:102958008516051285110A168A116D240A168A1120
:10296800831203138515720888000A168A116D24CC
:102978008312031385110800F200831203138512D2
:10298800051285110A168A116D240A168A118312F6
:1029980003138515720888000A168A116D2483129C
:1029A800031385110800F20077307206031DF02C1E
:1029B80009150A168A1159240A168A118312031353
:1029C80009110A168A1159240A168A118312031347
:1029D80009150A168A1159248312031309110800CC
:1029E8005A08303E0A168A11A9240A168A1159086B
:1029F800303E0A168A11A9240A168A112E300A16A0
:102A08008A11A9240A168A115808303E0A168A1112
:102A1800A9240A168A115708303E0A168A11A924D1
:102A28000800F200F40170080319342DF301F30AC9
:102A3800F01B252D0310F00D0130F1007108F3078C
:102A48001C2D0310F40D70087202031C2F2D700842
:102A5800F20274140310F00C0130F302031D252D4B
:102A680074080800F4000830F1007108F500F60158
:102A78007408F10007300310F10CFF3E031D3F2DD1
:102A88007608F20072077104F3007308F600031069
:102A9800F40D70087602031C532D7008F6020130FD
:102AA800F502031D3C2D760808006108303EFB0046
:102AB80062080318013E003EFC0063087B067C04A4
:102AC800031D7B2D0130DF070318E00A0030E00703
:102AD8006008F8005F08F7000A30F9000030FA00D3
:102AE8000A168A1138247808E0007708DF005F08A2
:102AF80008006108303EFB0062080318013E003EF2
:102B0800FC0063087B067C04031D9F2DFF30DF0754
:102B18000318E00AFF30E0076008F8005F08F700D4
:102B28000A30F9000030FA000A168A1138247808A9
:102B3800E0007708DF005F080800F400F201F30105
:102B48008312031306120610741806167408F00090
:102B58000310700CF1007108F40006140130F2073C
:102B68000318F30A0030F3077308803AFF00803037
:102B78007F02031DC12D08307202031CA42D83128D
:102B88000313061008008616BE300A168A11A125FE
:102B98000A168A11F501F6017508A83E8400831308
:102BA80000080A168A11A1250A168A110130F507AC
:102BB8000318F60A0030F6077608803AFF008030DE
:102BC8007F02031DE92D08307502031CD02D8312E6
:102BD8000313861208000714871407158711071AAC
:102BE800172EBB01BC017830F3007308D2005230B5
:102BF8000A168A11A9240A168A1145300A168A115A
:102C0800A9240A168A1153300A168A11A9240A1609
:102C18008A1145300A168A11A9240A168A115430D5
:102C28000A168A11A924520808008312031386166B
:102C3800BF300A168A11A1250A168A11F601F70172
:102C48000A168A1145260A168A11F5007608203ECA
:102C580084007508831380000130F6070318F70A0B
:102C68000030F7077708803AFF0080307F02031DA5
:102C78003F2E07307602031C242E8312031386127C
:102C88000800F401831603130616F201F3018312F8
:102C9800031306107408F0000310700CF10071089B
:102CA800F400061E5C2E74088038F0007008F400EA
:102CB80006140130F2070318F30A0030F30773080B
:102CC800803AFF0080307F02031D6C2E08307202AC
:102CD800031C4B2E83160313061283120610740866
:102CE8000800700871040319A22EF501F50AF11BFA
:102CF800892E01300310F00DF10DFF3E031D7E2ECD
:102D08000130F4007408F5077B2E71087302031D67
:102D18008F2E70087202031C972E7008F202710839
:102D2800031CF303F30201300310F10CF00CFF3E17
:102D3800031D982E0130F502031D892E7308F1003A
:102D48007208F0000800F5010830F4007408F60075
:102D58000310F50C831203130910831609100000E1
:102D6800000000000000000000008316031309148F
:102D78000000000000000000000000308312031370
:102D880009180130BF003F08031DF5170730F4008C
:102D98007408F00002300A168A110C240A168A11E7
:102DA8000130F6027608031DAC2E75080800F501FF
:102DB800F50A75080319080083120313091083160E
:102DC80009104630F4007408F00002300A168A111F
:102DD8000C240A168A118316031309140830F40008
:102DE8007408F00002300A168A110C240A168A1197
:102DF80083120313091C032FF501F50A042FF501AB
:102E08003C30F4007408F00002300A168A110C24D1
:102E18000A168A11DD2EF7000830F4007408F8004D
:102E280077080139F4007408F600831203130910B7
:102E3800831609100000000000000000000076035F
:102E4800031D292F8316031309140730F40074088F
:102E5800F00002300A168A110C240A168A11831609
:102E680003130914000000007708F4000310740C21
:102E7800F5007508F7000130F80278080319080012
:102E8800142FFB01FC017608770403197C2FFD0140
:102E9800FD0AF71B5B2F01300310F60DF70DFF3EFF
:102EA800031D502F0130FA007A08FD074D2F01301D
:102EB8000310FB0DFC0DFF3E031D5C2F7708790204
:102EC800031D682F76087802031C712F7608F80214
:102ED8007708031CF903F9027B1401300310F70C7F
:102EE800F60CFF3E031D722F0130FD02031D5B2F00
:102EF8007C08F7007B08F60008007408803A803CDC
:102F0800031D882F73085A02031CBA2F7608803ACB
:102F1800803C031D932F7508831203135902031C69
:102F2800BA2F0230831203133B063C04031DBA2F49
:102F38003030F7007708D0003130F7007708CF003D
:102F480057300A168A11A9240A168A1141300A161E
:102F58008A11A9240A168A1152300A168A11A9243C
:102F68000A168A114D300A168A11A92483120313EE
:102F7800520808007408803AF70080307702031D71
:102F8800C72F5A087302031CFC2F7608803A803C2E
:102F9800031DD22F75088312031359020318FC2F3F
:102FA800023083120313BB000030BC007830F700F6
:102FB8007708D2003030F7007708D0003030F700BB
:102FC8007708CF004F300A168A11A9240A168A11E9
:102FD8004B300A168A11A9240A168A1120300A16BB
:102FE8008A11A9240A168A1120300A168A11A924DE
:082FF8008312031352080800C4
:02400E00323F3F
:00000001FF
