:020000040000FA
:060000000A128A11E02F34
:10000C00F20077307206031D1F2809150A168A1193
:10001C00A5230A128A118312031309110A168A11D5
:10002C00A5230A128A118312031309150A168A11C1
:10003C00A52383120313091108007408803AF700F2
:10004C0080307702031D2C285B087302031C6D287B
:10005C007608803AF70080307702031D3928831226
:10006C0003135A087502031846287608803A803C18
:10007C00031D44287508831203135A02031C6D28B0
:10008C00013083160313B1070318B20A0030B2070C
:10009C003130F70077088312D1003030F700770841
:1000AC00D00043300A168A11E1230A128A114F300C
:1000BC000A168A11E1230A128A114C300A168A1187
:1000CC00E1230A128A1144300A168A11E1238312A1
:1000DC000313530808000714871407118715071A10
:1000EC00080001300A128A1501200A128A11803088
:1000FC000A128A1501200A128A1154300A168A1122
:10010C00E1230A128A1169300A168A11E1230A12B4
:10011C008A116D300A168A11E1230A128A11653090
:10012C000A168A11E1230A128A115F300A168A1103
:10013C00E1230A128A1153300A168A11E1230A129A
:10014C008A1165300A168A11E1230A128A11743059
:10015C000A168A11E1230A128A1174300A168A11BE
:10016C00E1230A128A1169300A168A11E1230A1254
:10017C008A116E300A168A11E1230A128A1167302D
:10018C000A168A11E1230A128A1173300A168A118F
:10019C00E1230A128A110714871007158715871B8C
:1001AC00482978304906031D482924032504031DDA
:1001BC00E3280130E5006508CA0724082504031D5F
:1001CC00EB280130A4000030A5000130AE07031865
:1001DC00AF0A0030AF072F08F8002E08F7000A30DE
:1001EC00F9000030FA000A168A1170230A128A11DB
:1001FC007808AF007708AE0022032304031D1F29E3
:10020C002D08E1002C08E0002F08E3002E08E20086
:10021C003030E5006508E4000A168A1180240A12C1
:10022C008A11E600E7016608AC006708AD00A20180
:10023C00A30109302E062F04031D28290130A2002A
:10024C000030A3005430E5006508F0004A080A1697
:10025C008A1152230A128A11E6006608CA0002307B
:10026C002C062D04031D432904302E062F04031DD8
:10027C004329AE01AF01AC01AD010A168A11A523C9
:10028C000A128A1183120313871BC6297930490677
:10029C00031DC62924032504031D58290130E5003C
:1002AC006508C80724082504031D60290130A40033
:1002BC000030A5000130B2070318B30A0030B307B1
:1002CC003308F8003208F7000A30F9000030FA0061
:1002DC000A168A1170230A128A117808B30077085B
:1002EC00B20022032304031D94293108E1003008D5
:1002FC00E0003308E3003208E2003030E500650826
:10030C00E4000A168A1180240A128A11E600E70119
:10031C006608B0006708B100A201A30109303206DB
:10032C003304031D9D290130A2000030A3003108C5
:10033C00E1003008E0003308E3003208E200393015
:10034C00E5006508E4000A168A1180240A128A1155
:10035C00E600E7016608B0006708B1005A304806AD
:10036C000319C801063030063104031DC129B00140
:10037C00B101B201B3010A168A11A5230A128A111E
:10038C0088300A128A1501200A128A1124082504C1
:10039C00031DD8294208E50065088316B5008312B1
:1003AC004108E32924032504031DE7294A08E50035
:1003BC0065088316B50083124808E50065088316A6
:1003CC00B40011308312E5006508F0003930E60006
:1003DC006608F1000430F2000030F3004A080A12FB
:1003EC008A153D220A128A11E7006708CA002130DB
:1003FC00E5006508F0004A30E6006608F1000430BC
:10040C00F2000030F3004A080A128A153D220A1243
:10041C008A11E7006708CA001130E5006508F00092
:10042C003930E6006608F1000530F2000030F300C8
:10043C0048080A128A153D220A128A11E700670839
:10044C00C8002130E5006508F0004A30E600660877
:10045C00F1000530F2000030F30048080A128A154A
:10046C003D220A128A11E7006708C8003130E50006
:10047C006508F0005930E6006608F1000530F2001E
:10048C000030F30048080A128A153D220A128A111C
:10049C00E7006708C8004130E5006508F0006A30E5
:1004AC00E6006608F1000530F2000030F300480861
:1004BC000A128A153D220A128A11E7006708C80041
:1004CC005130E5006508F0007A30E6006608F1006E
:1004DC000530F2000030F30048080A128A153D225C
:1004EC000A128A11E7006708C8000710871407155D
:1004FC008715071B952A01300A128A1501200A124A
:10050C008A11CA01C801AE01AF01AC01AD01B00145
:10051C00B101B201B3010A168A11CA2408000714EA
:10052C008714071187152B08F8002A08F7000230EA
:10053C00F9000030FA000A168A1170230A128A1187
:10054C007808AB007708AA00071AE52A2A082B04BA
:10055C00031DE52A90300A128A1501200A128A110D
:10056C0048300A168A11E1230A128A116F300A16D2
:10057C008A11E1230A128A1175300A168A11E123B5
:10058C000A128A1172300A168A11E1230A128A1190
:10059C003A300A168A11E1230A128A117830E500E2
:1005AC006508C9000A168A11A5230A128A1101309E
:1005BC0083120313AA070318AB0A0030AB07071406
:1005CC00871407118715071A222B2A032B04031DE6
:1005DC00222B0130AA070318AB0A0030AB070A160E
:1005EC008A11A5230A128A1190300A128A15012049
:1005FC000A128A114D300A168A11E1230A128A1145
:10060C0069300A168A11E1230A128A116E300A1611
:10061C008A11E1230A128A1173300A168A11E12316
:10062C000A128A113A300A168A11E1230A128A1127
:10063C007930E5006508C90088300A128A15012056
:10064C000A128A11071487140711871588300A12A9
:10065C008A1501200A128A1154300A168A11E123D4
:10066C000A128A1169300A168A11E1230A128A11B8
:10067C006D300A168A11E1230A128A1165300A16A6
:10068C008A11E1230A128A113A300A168A11E123DF
:10069C000A128A112C08303E0A168A11E1230A121A
:1006AC008A112E08303E0A168A11E1230A128A1189
:1006BC003A300A168A11E1230A128A113008303EA8
:1006CC000A168A11E1230A128A113208303E0A16E0
:1006DC008A11E1230A128A1107108714071587154E
:1006EC00871B7D28CA01C801AE01AF01AC01AD0169
:1006FC00B001B101B201B30101300A128A15012017
:10070C000800831203130710871407158715071A9F
:10071C00080001300A128A1501200A128A11803051
:10072C000A128A1501200A128A1144300A168A11FB
:10073C00E1230A128A1161300A168A11E1230A1286
:10074C008A1174300A168A11E1230A128A11653053
:10075C000A168A11E1230A128A115F300A168A11CD
:10076C00E1230A128A1153300A168A11E1230A1264
:10077C008A1165300A168A11E1230A128A11743023
:10078C000A168A11E1230A128A1174300A168A1188
:10079C00E1230A128A1169300A168A11E1230A121E
:1007AC008A116E300A168A11E1230A128A116730F7
:1007BC000A168A11E1230A128A1173300A168A1159
:1007CC00E1230A128A110714871007158715871B56
:1007DC005F2C78304906031D5F2C24032504031D70
:1007EC00FB2B0130E5006508CA0724082504031D0E
:1007FC00032C0130A4000030A5000130AE07031813
:10080C00AF0A0030AF072F08F8002E08F7000A30A7
:10081C00F9000030FA000A168A1170230A128A11A4
:10082C007808AF007708AE0022032304031D372C91
:10083C002D08E1002C08E0002F08E3002E08E20050
:10084C003030E5006508E4000A168A1180240A128B
:10085C008A11E600E7016608AC006708AD00A2014A
:10086C00A30109302E062F04031D402C0130A200D9
:10087C000030A3004330E5006508F0004A080A1672
:10088C008A1152230A128A11E6006608CA002C0348
:10089C002D04031D5A2C03302E062F04031D5A2C35
:1008AC00AE01AF01AC01AD010A168A11A5230A12E3
:1008BC008A1183120313871BE52C79304906031D1B
:1008CC00E52C24032504031D6F2C0130E50065087D
:1008DC00C70724082504031D772C0130A400003021
:1008EC00A5000130A8070318A90A0030A907290898
:1008FC00F8002808F7000A30F9000030FA000A1650
:10090C008A1170230A128A117808A9007708A800A6
:10091C002908F8002808F7000830F9000030FA0020
:10092C000A168A1170230A128A117808A100770816
:10093C00A00022032304031DBC2C2708E100260879
:10094C00E0002908E3002808E2003030E5006508E3
:10095C00E4000A168A1180240A128A11E600E701C3
:10096C006608A6006708A700A201A30109302806A3
:10097C002904031DC52C0130A2000030A3006330F4
:10098C00E5006508F00047080A168A1152230A127E
:10099C008A11E6006608C700033026062704031DEB
:1009AC00E02C023028062904031DE02CA601A70127
:1009BC00A801A9010A168A11A5230A128A11831209
:1009CC000313871B4C2D7A304906031D4C2D240331
:1009DC002504031DF52C0130E5006508C807240823
:1009EC002504031DFD2C0130A4000030A5000130AE
:1009FC00B2070318B30A0030B3073308F800320803
:100A0C00F7000A30F9000030FA000A168A11702338
:100A1C000A128A117808B3007708B2002203230463
:100A2C00031D312D3108E1003008E0003308E300EC
:100A3C003208E2003030E5006508E4000A168A113D
:100A4C0080240A128A11E600E7016608B0006708E4
:100A5C00B100A201A301093032063304031D3A2D63
:100A6C000130A2000030A3005A3048060319C80117
:100A7C00063030063104031D472DB001B101B2011F
:100A8C00B3010A168A11A5230A128A111130831296
:100A9C000313E5006508F0003930E6006608F10044
:100AAC000130F2000030F3004A080A128A153D2288
:100ABC000A128A11E7006708CA001130E5006508C0
:100ACC00F0003930E6006608F1000230F200003028
:100ADC00F30047080A128A153D220A128A11E70010
:100AEC006708C7002130E5006508F0004A30E600D1
:100AFC006608F1000230F2000030F30047080A12D9
:100B0C008A153D220A128A11E7006708C7001130C6
:100B1C00E5006508F0003930E6006608F1000230A7
:100B2C00F2000030F30047080A128A153D220A121F
:100B3C008A11E7006708C7002130E5006508F0005E
:100B4C004A30E6006608F1000230F2000030F30093
:100B5C0047080A128A153D220A128A11E700670813
:100B6C00C7003130E5006508F0005930E600660832
:100B7C00F1000230F2000030F30047080A128A1527
:100B8C003D220A128A11E7006708C7001130E50000
:100B9C006508F0003930E6006608F1000330F20019
:100BAC000030F30048080A128A153D220A128A11F5
:100BBC00E7006708C8002130E5006508F0004A30FE
:100BCC00E6006608F1000330F2000030F30048083C
:100BDC000A128A153D220A128A11E7006708C8001A
:100BEC001130E5006508F0003930E6006608F100C8
:100BFC000330F2000030F30048080A128A153D2237
:100C0C000A128A11E7006708C8002130E500650860
:100C1C00F0004A30E6006608F1000330F2000030C4
:100C2C00F30048080A128A153D220A128A11E700BD
:100C3C006708C8003130E5006508F0005930E6005F
:100C4C006608F1000330F2000030F30048080A1285
:100C5C008A153D220A128A11E7006708C800413044
:100C6C00E5006508F0006A30E6006608F100033024
:100C7C00F2000030F30048080A128A153D220A12CD
:100C8C008A11E7006708C8005130E5006508F000DC
:100C9C007A30E6006608F1000330F2000030F30011
:100CAC0048080A128A153D220A128A11E7006708C1
:100CBC00C80024082504031D712E4508E5006508AD
:100CCC008316B70083124308E50065088316B90044
:100CDC0083124408822E24032504031D862E4A0801
:100CEC00E50065088316B70083124808E50065081F
:100CFC008316B90083124708E50065088316B60011
:100D0C0088300A128A1501200A128A1107108714DA
:100D1C0007158715071BAB2ECA01C801C701A60111
:100D2C00A701A801A901AE01AF01AC01AD01B00151
:100D3C00B101B201B30101300A128A1501200A1265
:100D4C008A110A168A11CA2408000710871407157D
:100D5C0087152B08F8002A08F7000330F90000303B
:100D6C00FA000A168A1170230A128A117808AB004D
:100D7C007708AA00071A012F2A082B04031D012F3C
:100D8C0090300A128A1501200A128A1144300A1670
:100D9C008A11E1230A128A1161300A168A11E123A1
:100DAC000A128A1179300A168A11E1230A128A1161
:100DBC003A300A168A11E1230A128A1120300A16D7
:100DCC008A11E1230A128A1120300A168A11E123B2
:100DDC000A128A117930E5006508C9000A168A11D1
:100DEC00A5230A128A11013083120313AA070318D0
:100DFC00AB0A0030AB070710871407158715071AC5
:100E0C00442F2A032B04031D442F0130AA07031877
:100E1C00AB0A0030AB070A168A11A5230A128A11F5
:100E2C0090300A128A1501200A128A114D300A16C6
:100E3C008A11E1230A128A116F300A168A11E123F2
:100E4C000A128A116E300A168A11E1230A128A11CB
:100E5C0074300A168A11E1230A128A1168300A16B4
:100E6C008A11E1230A128A113A300A168A11E123F7
:100E7C000A128A117830E5006508C900071087143A
:100E8C0007158715071A8A2F02302A062B04031D13
:100E9C008A2F0A168A11A5230A128A11013083128D
:100EAC000313AA070318AB0A0030AB0790300A12E1
:100EBC008A1501200A128A1159300A168A11E12367
:100ECC000A128A1165300A168A11E1230A128A1154
:100EDC0061300A168A11E1230A128A1172300A163D
:100EEC008A11E1230A128A113A300A168A11E12377
:100EFC000A128A1120300A168A11E1230A128A1169
:100F0C007A30E5006508C90088300A128A1501207C
:100F1C000A128A112608303E0A168A11E1230A1297
:100F2C008A112808303E0A168A11E1230A128A1106
:100F3C002F300A168A11E1230A128A112C08303E2E
:100F4C000A168A11E1230A128A112E08303E0A165B
:100F5C008A11E1230A128A112F300A168A11E12311
:100F6C000A128A113008303E0A168A11E1230A123D
:100F7C008A113208303E0A168A11E1230A128A11AC
:100F8C000710871407158715871B952BCA01C801F5
:100F9C00C701AE01AF01AC01AD01B001B101B201AD
:100FAC00B301A601A701A801A90101300A128A15F3
:100FBC00012008008313BB30FD001330FE003C30D1
:100FCC00FF00B33084000A168A1184230A128A1196
:100FDC00A0308400B3300A168A1134230A128A1105
:100FEC002030840060300A168A11342383010A12DF
:040FFC008A15942B93
:10100200F200831203138512051285110A168A1142
:1010120091230A128A158312031385157208880018
:101022000A168A1191238312031385110800730390
:1010320074040319202873087404031D2C284D30EE
:101042000A168A11E1230A128A156F300A168A11CA
:10105200E1230A128A15023073067404031D3D2827
:1010620054300A168A11E1230A128A1575300A16BB
:101072008A11E1230A128A15033073067404031DD0
:101082004E2857300A168A11E1230A128A15653052
:101092000A168A11E1230A128A15043073067404AF
:1010A200031D5F2854300A168A11E1230A128A1599
:1010B20068300A168A11E1230A128A15053073066E
:1010C2007404031D702846300A168A11E1230A129D
:1010D2008A1572300A168A11E1230A128A1506301D
:1010E20073067404031D812853300A168A11E12302
:1010F2000A128A1561300A168A11E1230A128A1528
:10110200073073067404031D080053300A168A114F
:10111200E1230A128A1575300A168A11E1230800A2
:1011220086189C2883162308F3007308A00024085D
:10113200F3007308A10083162208F039F300F401CA
:101142007308F5007408F600750E0F39F500760E77
:10115200F039F504760E0F39F600F030F61D003046
:10116200F6047508303E0A168A11E1230A128A151E
:101172007508F3007308CB00831622080F39F300B9
:10118200F4017308F5007408F6007508303E0A167B
:101192008A11E1230A128A153A300A168A11E123CA
:1011A2000A128A157508F3007308CC008316210809
:1011B200F039F300F4017308F5007408F600750EB7
:1011C2000F39F500760EF039F504760E0F39F60078
:1011D200F030F61D0030F6047508303E0A168A110A
:1011E200E1230A128A15831621080F39F300F4014C
:1011F2007308F5007408F6007508303E0A168A1165
:10120200E1230A128A153A300A168A11E1230A12D8
:101212008A1583162008F039F300F4017308F500EB
:101222007408F600750E0F39F500760EF039F504E4
:10123200760E0F39F600F030F61D0030F604750810
:10124200303E0A168A11E1230A128A1583162008F3
:101252000F39F300F4017308F5007408F6007508FD
:10126200303E0A168A11E1230800831609140A1671
:101272008A11E2250A128A15CC300A168A1116261C
:101282000A128A150A168A11B9230A128A154430DB
:101292000A168A1116260A128A150A168A11E225D8
:1012A2000A128A15CC300A168A1116260A128A15D3
:1012B200BE300A168A1116260A128A150A168A11D1
:1012C200AE250A128A1583120313E0006008DF00BC
:1012D2000A168A11AE250A128A1583120313E00038
:1012E2006008DE008316091483125E08E0000430F1
:1012F2000310E00DFF3E031D79293F306005E10038
:101302005F08E20004300310E20CFF3E031D842953
:1013120062086104E3006308DD005F08E000033057
:101322000310E00DFF3E031D91290310600DE10043
:101332006108DC000A30E0006008F0005D080A166F
:101342008A113A240A128A15E1006108DA000A3089
:10135200E0006008F0005D080A168A1119240A12DA
:101362008A15E1006108DB00BE01BF01DC1FC12953
:101372003E08883EBE003F080318013E133EBF00F0
:101382005C1FCB293E08C43EBE003F080318013E45
:10139200093EBF00DC1ED5293E08E23EBE003F08E2
:1013A2000318013E043EBF005C1EDF293E08713E69
:1013B200BE003F080318013E023EBF00E830F600BF
:1013C2000330F7003F08F9003E08F8000A168A11B8
:1013D2004C260A128A157608E0006008D9006430AB
:1013E200F6000030F7003F08F3003E08F200E83054
:1013F200F0000330F1000A168A117C250A128A15C0
:101402007108F9007008F8000A168A114C260A12AF
:101412008A157608E0006008D8000A30F60000302D
:10142200F7003F08F3003E08F2006430F00000309D
:10143200F1000A168A117C250A128A157108F90030
:101442007008F8000A168A114C260A128A157608C4
:10145200E0006008D7000A30F0000030F1003F08D9
:10146200F3003E08F2000A168A117C257008E0009B
:101472006008D60000000800F6007608303EF4004E
:10148200003003180130F500710874067504031D5D
:10149200922B7008F4007408F600A401A5013930FB
:1014A2007106031D5C2A72037304031D5C2A093052
:1014B200F4007408C5004A307106031D682A7203DD
:1014C2007304031D682A1930F4007408C5005930EA
:1014D2007106031D742A72037304031D742A2930D2
:1014E200F4007408C5006A307106031D802A720375
:1014F2007304031D802A3930F4007408C5007A3061
:101502007106031D8C2A72037304031D8C2A493051
:10151200F4007408C50039307106031D992A02309F
:1015220072067304031D992A0930F4007408C4007A
:101532004A307106031DA62A023072067304031D87
:10154200A62A1930F4007408C40059307106031D2C
:10155200B32A023072067304031DB32A2930F40041
:101562007408C4006A307106031DC02A0230720674
:101572007304031DC02A3930F4007408C4007A30A1
:101582007106031DCD2A023072067304031DCD2A93
:101592004930F4007408C40039307106031DDA2A98
:1015A200033072067304031DDA2A0930F40074084A
:1015B200C3004A307106031DE72A03307206730422
:1015C200031DE72A1930F4007408C300593071066C
:1015D200031DF42A033072067304031DF42A293012
:1015E200F4007408C3006A307106031D012B033036
:1015F20072067304031D012B3930F4007408C30012
:101602007A307106031D0E2B033072067304031D1C
:101612000E2B4930F4007408C30039307106031DE3
:101622001B2B043072067304031D1B2B0930F400BC
:101632007408C2004A307106031D282B043072065A
:101642007304031D282B1930F4007408C2005930AA
:101652007106031D352B043072067304031D352BEE
:101662002930F4007408C2006A307106031D422B4F
:10167200043072067304031D422B3930F4007408DF
:10168200C2007A307106031D4F2B043072067304B8
:10169200031D4F2B4930F4007408C2003930710623
:1016A200031D5C2B053072067304031D5C2B09308D
:1016B200F4007408C1004A307106031D692B05301D
:1016C20072067304031D692B1930F4007408C100FB
:1016D20059307106031D762B053072067304031D03
:1016E200762B2930F4007408C1006A307106031D9C
:1016F200832B053072067304031D832B3930F400EB
:101702007408C1007A307106031D902B05307206F1
:101712007304031D902B4930F4007408C10001309A
:10172200F602760808000230831686000A168A112D
:1017320027230A128A150A168A11CA240A128A153E
:101742000A168A1161230A128A150A168A112C2393
:101752000A128A150A168A115D240A128A150A16B5
:101762008A1127230A128A150A168A11CD230A1210
:101772008A150330E8006808CF000430E8006808E2
:10178200CE000430BA000030BB000230B800003096
:10179200B9000130B6000030B7000930B4000030A3
:1017A200B5000A128A1536210A128A150A168A11FA
:1017B200F2240A128A1580300A128A1501200A12AE
:1017C2008A1554300A168A11E1230A128A156530E5
:1017D2000A168A11E1230A128A156D300A168A1135
:1017E200E1230A128A1570300A168A11E1230A12BD
:1017F2008A153A300A168A11E1230A128A150A1644
:101802008A11F8230A128A1590300A128A150120C9
:101812000A128A1544300A168A11E1230A128A151D
:1018220061300A168A11E1230A128A1574300A16E7
:101832008A11E1230A128A1565300A168A11E123F8
:101842000A128A153A300A168A11E1230A128A15F7
:1018520020300A168A11E1230A128A150A168A1101
:1018620063270A128A1588300A128A1501200A1281
:101872008A1554300A168A11E1230A128A15693030
:101882000A168A11E1230A128A156D300A168A1184
:10189200E1230A128A1565300A168A11E1230A1217
:1018A2008A153A300A168A11E1230A128A150A1297
:1018B2008A1591200A128A150A128A157F250A12A0
:1018C2008A150A128A1187230A128A150A128A11A4
:1018D20071200A128A1598300A128A1501200A12FA
:1018E2008A154B08303EE800003003180130E90049
:1018F200003069020230031968020318CA2C4C082E
:10190200303EE800003003180130E900003069027F
:101912000830031968020318CA2C4F08E800E901CD
:101922006808F3006908F4004E08EA00EB016A084F
:10193200F5006B08F6000A168A1188260A128A1523
:10194200EC006C08CD004F08E800E9016808F300DC
:101952006908F4004E08EA00EB016A08F5006B081A
:10196200F6000A168A1118270A128A15EC006C086A
:10197200CD003708F4003608F3003508F6003408C5
:10198200F5000A128A1123200A128A15E800680853
:10199200CD004B08303EE800003003180130E9006A
:1019A200680869040319112D4C08303EE800003024
:1019B20003180130E9000030690208300319680297
:1019C200031C112D3908F4003808F3003B08F60017
:1019D2003A08F5000A168A1188260A128A15E800C2
:1019E2006808CD003908F4003808F3003B08F60017
:1019F2003A08F5000A168A1118270A128A15E80011
:101A02006808CD000030F300F4000030F500F60065
:101A12000A128A1123200A128A15E8006808CD00EA
:101A22000A168A111E250A128A15E8006808CD00D6
:101A32004D080A128A1106200A128A1520300A1647
:101A42008A11E1230A128A1548300A168A11E12303
:101A52000A128A153A300A168A11E1230A128A15E5
:101A620051080A168A11E1230A128A1543300A160E
:101A72008A11E1230A128A153A300A168A11E123E1
:101A82000A128A1550080A168A11E1230A128A15C7
:101A9200ED01EE0120300A168A11E1230A128A159D
:101AA2000130ED070318EE0A0030EE076E08803AA7
:101AB200FF0080307F02031D602D03306D02031C86
:101AC2004B2D831203132908F8002808F700083069
:101AD200F9000030FA000A168A1170230A128A15D8
:101AE2007808A1007708A0002108F4002008F3007C
:101AF2000A128A1518200A128A15D22B0714871087
:101B020007158715071A080001300A128A150120E5
:101B12000A128A1580300A128A1501200A128A15C1
:101B220020300A168A11E1230A128A1520300A1679
:101B32008A11E1230A128A1520300A168A11E1233A
:101B42000A128A1520300A168A11E1230A128A150E
:101B520020300A168A11E1230A128A1520300A1649
:101B62008A11E1230A128A1520300A168A11E1230A
:101B72000A128A1520300A168A11E1230A128A15DE
:101B820020300A168A11E1230A128A1590300A12AD
:101B92008A1501200A128A1543300A168A11E12396
:101BA2000A128A1575300A168A11E1230A128A1559
:101BB20072300A168A11E1230A128A1572300A1645
:101BC2008A11E1230A128A1565300A168A11E12365
:101BD2000A128A156E300A168A11E1230A128A1530
:101BE20074300A168A11E1230A128A153A300A164B
:101BF2008A11E1230A128A154F08303E0A168A1109
:101C0200E1230A128A154E08303E0A168A11E12390
:101C12000A128A150714871007158715071A592EF5
:101C220078304906031D592E0130E5006508CA07C0
:101C32000130AE070318AF0A0030AF072F08F800D3
:101C42002E08F7000A30F9000030FA000A168A114D
:101C520070230A128A157808AF007708AE002D08A3
:101C6200E1002C08E0002F08E3002E08E2003930E2
:101C7200E5006508E4000A168A1180240A128A1512
:101C8200E600E7016608AC006708AD005430E500E5
:101C92006508F0004A080A168A1152230A128A15A8
:101CA200E6006608CA000A168A11A5230A128A15D6
:101CB20083120313071A9C2E79304906031D9C2EAA
:101CC2000130E5006508C8070130B2070318B30AFE
:101CD2000030B3073308F8003208F7000A30F90081
:101CE2000030FA000A168A1170230A128A1578083F
:101CF200B3007708B2003108E1003008E000330891
:101D0200E3003208E2003930E5006508E4000A1613
:101D12008A1180240A128A15E600E7016608B000DB
:101D22006708B1005A3048060319C8010A168A1119
:101D3200A5230A128A1583120313071487100715A5
:101D420087152B08F8002A08F7000230F900003046
:101D5200FA000A168A1170230A128A157808AB0053
:101D62007708AA00071A282F2A082B04031D282FF8
:101D72000130AA070318AB0A0030AB0788300A12F9
:101D82008A1501200A128A1544300A168A11E123A3
:101D92000A128A1561300A168A11E1230A128A157B
:101DA20079300A168A11E1230A128A155F300A165F
:101DB2008A11E1230A128A1574300A168A11E12364
:101DC2000A128A1568300A168A11E1230A128A1544
:101DD20072300A168A11E1230A128A1565300A1630
:101DE2008A11E1230A128A1573300A168A11E12335
:101DF2000A128A1568300A168A11E1230A128A1514
:101E02006F300A168A11E1230A128A156C300A16FB
:101E12008A11E1230A128A1564300A168A11E12313
:101E22000A128A153A300A168A11E1230A128A1511
:101E320020300A168A11E1230A128A157830E50049
:101E42006508C9000A168A11A5230A128A15831287
:101E520003130714871007158715071AA32F2A03E0
:101E62002B04031DA32F88300A128A1501200A129F
:101E72008A154E300A168A11E1230A128A15693030
:101E82000A168A11E1230A128A1567300A168A1184
:101E9200E1230A128A1568300A168A11E1230A120E
:101EA2008A1574300A168A11E1230A128A155F30E4
:101EB2000A168A11E1230A128A1568300A168A1153
:101EC200E1230A128A1572300A168A11E1230A12D4
:101ED2008A1565300A168A11E1230A128A157330AF
:101EE2000A168A11E1230A128A1568300A168A1123
:101EF200E1230A128A156F300A168A11E1230A12A7
:101F02008A156C300A168A11E1230A128A15643086
:101F12000A168A11E1230A128A153A300A168A1120
:101F2200E1230A128A157930E5006508C9000130FB
:101F3200AA070318AB0A0030AB070A168A11A523B9
:101F42000A128A1583120313B201B301B001B1015F
:101F5200AE01AF01AC01AD01AE01AF0107108714B4
:101F620007158715071BED2F3008E5006508CF0020
:101F72003208E5006508CE00B001B101B201B3013B
:101F8200AE01AF01B201B30101300A128A1501207C
:101F92000A128A1553300A168A11E1230A128A1587
:101FA20041300A168A11E1230A128A1556300A169E
:101FB2008A11E1230A128A1545300A168A11E12391
:101FC2000A128A1544300A168A11E1230A128A1566
:101FD2000A168A11A523080007108714071587150A
:101FE200871B8B2D01300A128A150120B001B10125
:0E1FF200B201B301AE01AF01B201B3010800AC
:10264E0083168901831289010800073083169F00C3
:10265E000514880181018901080064008001840A43
:10266E000406031900340406352B003418340034E4
:10267E0012341234063419340034F2007008F100AA
:10268E007108F3000130F302031D492B0130F202F1
:10269E0003190800452BF3007308303EF10000309B
:1026AE0003180130F2007008710672040319F30169
:1026BE00730808000610861286168E300A168A11C6
:1026CE00A4240A168A1100300A168A11A42486122E
:1026DE0008007A08F1007908F0007808F30077080E
:1026EE00F2000A168A11CD267108F8007008F7005C
:1026FE0008007E088A007F08820080230A168A114D
:10270E008000840A04087D0603190034FF0A0319A9
:10271E00FE0A842BF001F1010130F0070318F10AD3
:10272E000030F1077108803AFF0080307F02031DF0
:10273E00A22B0530700203180800932BF001F10153
:10274E000130F0070318F10A0030F1077108803AE2
:10275E00FF00A7307F02031DB62B10307002031846
:10276E000800A72BF001F1010130F0070318F10A60
:10277E000030F1077108803AFF0080307F02031DA0
:10278E00CA2B3230700203180800BB2B063083169A
:10279E009F00F03087008312CA01C901C801AA0147
:1027AE00AB01A801A9010130A4000030A500A201CF
:1027BE00A3010800F200831203138516051285117A
:1027CE000A168A1191230A168A118312031385158C
:1027DE00720888000A168A11912383120313851139
:1027EE0008005B08303E0A168A11E1230A168A1188
:1027FE005A08303E0A168A11E1230A168A112E3023
:10280E000A168A11E1230A168A115908303E0A1651
:10281E008A11E1230A168A115808303E0A168A11C7
:10282E00E1230800F200F40170080319382CF301BB
:10283E00F30AF01B292C0310F00D0130F100710882
:10284E00F307202C0310F40D70087202031C332CB6
:10285E007008F20274140310F00C0130F302031D21
:10286E00292C74080800F4000830F1007108F500F6
:10287E00F6017408F10007300310F10CFF3E031D42
:10288E00432C7608F20072077104F3007308F60009
:10289E000310F40D70087602031C572C7008F60214
:1028AE000130F502031D402C7608080085018312C5
:1028BE0005100A168A1191230A168A118312031320
:1028CE000514051530300A128A1501200A168A11D0
:1028DE0001300A128A1501200A168A1106300A12D0
:1028EE008A1501200A168A110C300A128A15012047
:1028FE0008006208303EFB0063080318013E003EEC
:10290E00FC0064087B067C04031DA22C0130E0074A
:10291E000318E10A0030E1076108F8006008F700CB
:10292E000A30F9000030FA000A168A11702378086E
:10293E00E1007708E00060080800F400F201F301FE
:10294E008312031306120610741806167408F0008C
:10295E000310700CF1007108F40006140130F20738
:10296E000318F30A0030F3077308803AFF00803033
:10297E007F02031DC42C08307202031CA72C831285
:10298E000313061008008616BE300A168A11A424F8
:10299E000A168A11F501F6017508B33E84008313F9
:1029AE0000080A168A11A4240A168A110130F507A6
:1029BE000318F60A0030F6077608803AFF008030DA
:1029CE007F02031DEC2C08307502031CD32C8312DE
:1029DE00031386120800831203138616BF300A16DD
:1029EE008A11A4240A168A11F601F7010A168A1111
:1029FE004C250A168A11F5007608A03E840075084B
:102A0E00831380000130F6070318F70A0030F7072A
:102A1E007708803AFF0080307F02031D182D0730A3
:102A2E007602031CFD2C8312031386120800071472
:102A3E00871407158711071A4A2D8316AF01B001A7
:102A4E007830F30073088312D300BC01BD015230FD
:102A5E000A168A11E1230A168A1145300A168A11BE
:102A6E00E1230A168A1153300A168A11E1230A1637
:102A7E008A1145300A168A11E1230A168A1154303A
:102A8E000A168A11E12353080800F4018316031372
:102A9E000616F201F3018312031306107408F000F8
:102AAE000310700CF1007108F400061E632D7408FB
:102ABE008038F0007008F40006140130F207031895
:102ACE00F30A0030F3077308803AFF0080307F026C
:102ADE00031D732D08307202031C522D831603132F
:102AEE000612831206107408080070087104031988
:102AFE00A92DF501F50AF11B902D01300310F00DF3
:102B0E00F10DFF3E031D852D0130F4007408F5070D
:102B1E00822D71087302031D962D70087202031C1C
:102B2E009E2D7008F2027108031CF303F3020130AC
:102B3E000310F10CF00CFF3E031D9F2D0130F5022A
:102B4E00031D902D7308F1007208F0000800F501C6
:102B5E000830F4007408F6000310F50C831203130A
:102B6E00091083160910000000000000000000008C
:102B7E00000083160313091400000000000000007B
:102B8E00000000308312031309180130C000400802
:102B9E00031DF5170730F4007408F00002300A1612
:102BAE008A1144230A168A110130F6027608031D93
:102BBE00B32D75080800F501F50A7508031908000C
:102BCE00831203130910831609104630F40074089B
:102BDE00F00002300A168A1144230A168A1183164F
:102BEE00031309140830F4007408F00002300A16BA
:102BFE008A1144230A168A1183120313091C0A2E02
:102C0E00F501F50A0B2EF5013C30F4007408F000C6
:102C1E0002300A168A1144230A168A11E42DF7008F
:102C2E000830F4007408F80077080139F4007408CD
:102C3E00F60083120313091083160910000000001A
:102C4E000000000000007603031D302E83160313D0
:102C5E0009140730F4007408F00002300A168A11C5
:102C6E0044230A168A118316031309140000000068
:102C7E007708F4000310740CF5007508F7000130A6
:102C8E00F8027808031908001B2EFB01FC017608D8
:102C9E0077040319832EFD01FD0AF71B622E013006
:102CAE000310F60DF70DFF3E031D572E0130FA00EF
:102CBE007A08FD07542E01300310FB0DFC0DFF3E6C
:102CCE00031D632E77087902031D6F2E7608780296
:102CDE00031C782E7608F8027708031CF903F90214
:102CEE007B1401300310F70CF60CFF3E031D792EFA
:102CFE000130FD02031D622E7C08F7007B08F600F2
:102D0E0008007408803AF70080307702031D912E78
:102D1E005B087302031CC92E7608803AF7008030D8
:102D2E007702031D9E2E831203135A087502031C8D
:102D3E00C92E023083160313AF000030B000783076
:102D4E00F70077088312D3003030F7007708D100F0
:102D5E003030F7007708D0004F300A168A11E12381
:102D6E000A168A114B300A168A11E1230A168A11A5
:102D7E0020300A168A11E1230A168A1120300A160B
:102D8E008A11E1238312031353080800F601F31F7F
:102D9E00D72EF209F309F20A0319F30AF601F60A1D
:102DAE00F11FDE2EF009F109F00A0319F10A70087D
:102DBE00710403190B2FF501F50AF11BF22E0130E8
:102DCE000310F00DF10DFF3E031DE72E0130F40050
:102DDE007408F507E42E71087302031DF82E7008AF
:102DEE007202031C002F7008F2027108031CF30319
:102DFE00F30201300310F10CF00CFF3E031D012F06
:102E0E000130F502031DF22E76080319132FF20975
:102E1E00F309F20A0319F30A7308F1007208F000BD
:102E2E0008007408803A803C031D1F2F73085B0254
:102E3E00031C5F2F7608803A803C031D2A2F7508ED
:102E4E00831203135A02031C5F2F013083120313E4
:102E5E00BC070318BD0A0030BD073030F7007708F5
:102E6E00D1003130F7007708D00057300A168A119A
:102E7E00E1230A168A1141300A168A11E1230A1635
:102E8E008A1152300A168A11E1230A168A114D3020
:102E9E000A168A11E1230A168A1127303D021130D3
:102EAE0003193C02031C5F2F2D30F7007708D0006A
:102EBE00831203135308080086186E2F83162308F7
:102ECE00F3007308A0002408F3007308A100831612
:102EDE002308F039F300F4017308F5007408F600C6
:102EEE00750E0F39F500760EF039F504760E0F39A2
:102EFE00F600F030F61D0030F6047508303E0A1666
:102F0E008A11E1230A168A11831623080F39F3005A
:102F1E00F4017308F5007408F6007508303E0A16C1
:102F2E008A11E1230A168A112F300A168A11E1231B
:102F3E000A168A1183162408F039F300F401730877
:102F4E00F5007408F600750E0F39F500760EF0399F
:102F5E00F504760E0F39F600F030F61D0030F6044B
:102F6E007508303E0A168A11E1230A168A11831655
:102F7E0024080F39F300F4017308F5007408F60005
:102F8E007508303E0A168A11E1230A168A112F306F
:102F9E000A168A11E1230A168A1183162608F039B9
:102FAE00F300F4017308F5007408F600750E0F397E
:102FBE00F500760EF039F504760E0F39F600F03086
:102FCE00F61D0030F6047508303E0A168A11E1230C
:102FDE000A168A11831626080F39F300F4017308B6
:102FEE00F5007408F6007508303E0A168A11E123C2
:022FFE000800C9
:02400E00323F3F
:00000001FF
