:020000040000FA
:060000000A128A11E82F2C
:10000C008616BE300A168A113A260A128A11F50192
:10001C00F6017508A03E8400831300080A168A11A5
:10002C003A260A128A110130F5070318F60A003035
:10003C00F6077608803AFF0080307F02031D2828DF
:10004C0008307502031C0F28831203138612080054
:10005C00F601F31F3828F209F309F20A0319F30A1F
:10006C00F601F60AF11F3F28F009F109F00A03190D
:10007C00F10A7008710403196C28F501F50AF11BDB
:10008C00532801300310F00DF10DFF3E031D4828DD
:10009C000130F4007408F507452871087302031D3C
:1000AC00592870087202031C61287008F20271084A
:1000BC00031CF303F30201300310F10CF00CFF3EB0
:1000CC00031D62280130F502031D5328760803191D
:1000DC007428F209F309F20A0319F30A7308F10000
:1000EC007208F00008000714871407118715071A07
:1000FC00080001300A168A1136250A128A1180303E
:10010C000A168A1136250A128A1154300A168A11D7
:10011C001F250A128A1169300A168A111F250A1224
:10012C008A116D300A168A111F250A128A11653040
:10013C000A168A111F250A128A115F300A168A11B3
:10014C001F250A128A1153300A168A111F250A120A
:10015C008A1165300A168A111F250A128A11743009
:10016C000A168A111F250A128A1174300A168A116E
:10017C001F250A128A1169300A168A111F250A12C4
:10018C008A116E300A168A111F250A128A116730DD
:10019C000A168A111F250A128A1173300A168A113F
:1001AC001F250A128A110714871007158715871B3C
:1001BC00502978305606031D502933033404031D8F
:1001CC00EB280130E7006708D70733083404031D18
:1001DC00F3280130B3000030B4000130BF0703181E
:1001EC00C00A0030C0074008F8003F08F7000A308A
:1001FC00F9000030FA000A168A11C2240A128A1178
:10020C007808C0007708BF002F033004031D27298E
:10021C003E08E3003D08E2004008E5003F08E4002A
:10022C003030E7006708E6000A168A11F2250A1238
:10023C008A11E800E9016808BD006908BE00AF0139
:10024C00B00109303F064004031D30290130AF00D6
:10025C000030B0005430E7006708F00057080A1669
:10026C008A11A4240A128A11E8006808D700023007
:10027C003D063E04031D4B2904303F064004031D7C
:10028C004B29BF01C001BD01BE010A168A11E3242E
:10029C000A128A1183120313871BCE297930560652
:1002AC00031DCE2933033404031D60290130E700FC
:1002BC006708D50733083404031D68290130B300DF
:1002CC000030B4000130C3070318C40A0030C4075F
:1002DC004408F8004308F7000A30F9000030FA002F
:1002EC000A168A11C2240A128A117808C4007708E7
:1002FC00C3002F033004031D9C294208E30041086E
:10030C00E2004408E5004308E4003030E7006708E9
:10031C00E6000A168A11F2250A128A11E800E90190
:10032C006808C1006908C200AF01B001093043067A
:10033C004404031DA5290130AF000030B000420871
:10034C00E3004108E2004408E5004308E4003930CA
:10035C00E7006708E6000A168A11F2250A128A11CC
:10036C00E800E9016808C1006908C2005A30550666
:10037C000319D501063041064204031DC929C101E8
:10038C00C201C301C4010A168A11E3240A128A119C
:10039C0088300A168A1136250A128A113308340459
:1003AC00031DE0294F08E70067088316A20083129B
:1003BC004E08EB2933033404031DEF295708E700DB
:1003CC0067088316A20083125508E7006708831696
:1003DC00A10011308312E7006708F0003930E80003
:1003EC006808F1000430F2000030F30057080A12DC
:1003FC008A1553240A128A11E9006908D7002130A2
:10040C00E7006708F0004A30E8006808F1000430A3
:10041C00F2000030F30057080A128A1553240A120E
:10042C008A11E9006908D7001130E7006708F0006D
:10043C003930E8006808F1000530F2000030F300B4
:10044C0055080A128A1553240A128A11E900690800
:10045C00D5002130E7006708F0004A30E800680852
:10046C00F1000530F2000030F30055080A128A152D
:10047C0053240A128A11E9006908D5003130E700CB
:10048C006708F0005930E8006808F1000530F20008
:10049C000030F30055080A128A1553240A128A11E7
:1004AC00E9006908D5004130E7006708F0006A30C0
:1004BC00E8006808F1000530F2000030F300550840
:1004CC000A128A1553240A128A11E9006908D50008
:1004DC005130E7006708F0007A30E8006808F10056
:1004EC000530F2000030F30055080A128A15532427
:1004FC000A128A11E9006908D5000710871407153C
:10050C008715071B9D2A01300A168A1136250A12F7
:10051C008A11D701D501BF01C001BD01BE01C101C6
:10052C00C201C301C4010A128A1106200800071473
:10053C008714071187153C08F8003B08F7000230B8
:10054C00F9000030FA000A168A11C2240A128A1124
:10055C007808BC007708BB00071AED2A3B083C045E
:10056C00031DED2A90300A168A1136250A128A11BB
:10057C0048300A168A111F250A128A116F300A1682
:10058C008A111F250A128A1175300A168A111F2525
:10059C000A128A1172300A168A111F250A128A1140
:1005AC003A300A168A111F250A128A117830E70090
:1005BC006708D6000A168A11E3240A128A11013040
:1005CC0083120313BB070318BC0A0030BC070714C3
:1005DC00871407118715071A2A2B3B033C04031DAC
:1005EC002A2B0130BB070318BC0A0030BC070A16C3
:1005FC008A11E3240A128A1190300A168A113625C0
:10060C000A128A114D300A168A111F250A128A11F4
:10061C0069300A168A111F250A128A116E300A16C1
:10062C008A111F250A128A1173300A168A111F2586
:10063C000A128A113A300A168A111F250A128A11D7
:10064C007930E7006708D60088300A168A113625FB
:10065C000A128A11071487140711871588300A1695
:10066C008A1136250A128A1154300A168A111F254E
:10067C000A128A1169300A168A111F250A128A1168
:10068C006D300A168A111F250A128A1165300A1656
:10069C008A111F250A128A113A300A168A111F254F
:1006AC000A128A113D08303E0A168A111F250A12B9
:1006BC008A113F08303E0A168A111F250A128A1128
:1006CC003A300A168A111F250A128A114108303E47
:1006DC000A168A111F250A128A114308303E0A167F
:1006EC008A111F250A128A110710871407158715FE
:1006FC00871B8528D701D501BF01C001BD01BE01F3
:10070C00C101C201C301C40101300A168A11362588
:10071C000800831203130710871407158715071A8F
:10072C00080001300A168A1136250A128A11803007
:10073C000A168A1136250A128A1144300A168A11B1
:10074C001F250A128A1161300A168A111F250A12F6
:10075C008A1174300A168A111F250A128A11653003
:10076C000A168A111F250A128A115F300A168A117D
:10077C001F250A128A1153300A168A111F250A12D4
:10078C008A1165300A168A111F250A128A117430D3
:10079C000A168A111F250A128A1174300A168A1138
:1007AC001F250A128A1169300A168A111F250A128E
:1007BC008A116E300A168A111F250A128A116730A7
:1007CC000A168A111F250A128A1173300A168A1109
:1007DC001F250A128A110714871007158715871B06
:1007EC00672C78305606031D672C33033404031D25
:1007FC00032C0130E7006708D70733083404031DC6
:10080C000B2C0130B3000030B4000130BF070318CB
:10081C00C00A0030C0074008F8003F08F7000A3053
:10082C00F9000030FA000A168A11C2240A128A1141
:10083C007808C0007708BF002F033004031D3F2C3D
:10084C003E08E3003D08E2004008E5003F08E400F4
:10085C003030E7006708E6000A168A11F2250A1202
:10086C008A11E800E9016808BD006908BE00AF0103
:10087C00B00109303F064004031D482C0130AF0085
:10088C000030B0004330E7006708F00057080A1644
:10089C008A11A4240A128A11E8006808D7003D03C3
:1008AC003E04031D622C03303F064004031D622CE2
:1008BC00BF01C001BD01BE010A168A11E3240A1250
:1008CC008A1183120313871BED2C79305606031DF6
:1008DC00ED2C33033404031D772C0130E70067083B
:1008EC00D40733083404031D7F2C0130B3000030CF
:1008FC00B4000130B9070318BA0A0030BA073A0835
:10090C00F8003908F7000A30F9000030FA000A162E
:10091C008A11C2240A128A117808BA007708B90021
:10092C003A08F8003908F7000830F9000030FA00EE
:10093C000A168A11C2240A128A117808A8007708AC
:10094C00A7002F033004031DC42C3808E30037081C
:10095C00E2003A08E5003908E4003030E7006708A7
:10096C00E6000A168A11F2250A128A11E800E9013A
:10097C006808B7006908B800AF01B0010930390642
:10098C003A04031DCD2C0130AF000030B0006330B1
:10099C00E7006708F00054080A168A11A4240A120A
:1009AC008A11E8006808D400033037063804031DA8
:1009BC00E82C023039063A04031DE82CB701B801C3
:1009CC00B901BA010A168A11E3240A128A11831298
:1009DC000313871B542D7A305606031D542D3303F5
:1009EC003404031DFD2C0130E7006708D5073308DC
:1009FC003404031D052D0130B3000030B400013068
:100A0C00C3070318C40A0030C4074408F80043089D
:100A1C00F7000A30F9000030FA000A168A11C224D5
:100A2C000A128A117808C4007708C3002F03300417
:100A3C00031D392D4208E3004108E2004408E5009B
:100A4C004308E4003030E7006708E6000A168A1114
:100A5C00F2250A128A11E800E9016808C100690848
:100A6C00C200AF01B001093043064404031D422DFE
:100A7C000130AF000030B0005A3055060319D501D3
:100A8C00063041064204031D4F2DC101C201C301B2
:100A9C00C4010A168A11E3240A128A111130831236
:100AAC000313E7006708F0003930E8006808F1002C
:100ABC000130F2000030F30057080A128A15532453
:100ACC000A128A11E9006908D7001130E70067089B
:100ADC00F0003930E8006808F1000230F200003014
:100AEC00F30054080A128A1553240A128A11E900D9
:100AFC006908D4002130E7006708F0004A30E800AC
:100B0C006808F1000230F2000030F30054080A12B9
:100B1C008A1553240A128A11E9006908D40011308D
:100B2C00E7006708F0003930E8006808F10002308F
:100B3C00F2000030F30054080A128A1553240A12EA
:100B4C008A11E9006908D4002130E7006708F00039
:100B5C004A30E8006808F1000230F2000030F3007F
:100B6C0054080A128A1553240A128A11E9006908DA
:100B7C00D4003130E7006708F0005930E80068080D
:100B8C00F1000230F2000030F30054080A128A150A
:100B9C0053240A128A11E9006908D4001130E700C5
:100BAC006708F0003930E8006808F1000330F20003
:100BBC000030F30055080A128A1553240A128A11C0
:100BCC00E9006908D5002130E7006708F0004A30D9
:100BDC00E8006808F1000330F2000030F30055081B
:100BEC000A128A1553240A128A11E9006908D500E1
:100BFC001130E7006708F0003930E8006808F100B0
:100C0C000330F2000030F30055080A128A15532401
:100C1C000A128A11E9006908D5002130E70067083B
:100C2C00F0004A30E8006808F1000330F2000030B0
:100C3C00F30055080A128A1553240A128A11E90086
:100C4C006908D5003130E7006708F0005930E8003A
:100C5C006808F1000330F2000030F30055080A1266
:100C6C008A1553240A128A11E9006908D50041300B
:100C7C00E7006708F0006A30E8006808F10003300C
:100C8C00F2000030F30055080A128A1553240A1298
:100C9C008A11E9006908D5005130E7006708F000B7
:100CAC007A30E8006808F1000330F2000030F300FD
:100CBC0055080A128A1553240A128A11E900690888
:100CCC00D50033083404031D792E5208E700670859
:100CDC008316A40083125008E70067088316A60049
:100CEC00831251088A2E33033404031D8E2E5708A9
:100CFC00E70067088316A40083125508E70067080D
:100D0C008316A60083125408E70067088316A30015
:100D1C0088300A168A1136250A128A110710871490
:100D2C0007158715071BB32ED701D501D401B701C1
:100D3C00B801B901BA01BF01C001BD01BE01C101B9
:100D4C00C201C301C40101300A168A1136250A12E8
:100D5C008A110A128A110620080007108714071539
:100D6C0087153C08F8003B08F7000330F900003009
:100D7C00FA000A168A11C2240A128A117808BC00D9
:100D8C007708BB00071A092F3B083C04031D092FE9
:100D9C0090300A168A1136250A128A1144300A1626
:100DAC008A111F250A128A1161300A168A111F2511
:100DBC000A128A1179300A168A111F250A128A1111
:100DCC003A300A168A111F250A128A1120300A1687
:100DDC008A111F250A128A1120300A168A111F2522
:100DEC000A128A117930E7006708D6000A168A11B0
:100DFC00E3240A128A11013083120313BB07031870
:100E0C00BC0A0030BC070710871407158715071A92
:100E1C004C2F3B033C04031D4C2F0130BB07031824
:100E2C00BC0A0030BC070A168A11E3240A128A1184
:100E3C0090300A168A1136250A128A114D300A167C
:100E4C008A111F250A128A116F300A168A111F2562
:100E5C000A128A116E300A168A111F250A128A117B
:100E6C0074300A168A111F250A128A1168300A1664
:100E7C008A111F250A128A113A300A168A111F2567
:100E8C000A128A117830E7006708D6000710871419
:100E9C0007158715071A922F02303B063C04031DD9
:100EAC00922F0A168A11E3240A128A110130831236
:100EBC000313BB070318BC0A0030BC0790300A169A
:100ECC008A1136250A128A1159300A168A111F25E1
:100EDC000A128A1165300A168A111F250A128A1104
:100EEC0061300A168A111F250A128A1172300A16ED
:100EFC008A111F250A128A113A300A168A111F25E7
:100F0C000A128A1120300A168A111F250A128A1118
:100F1C007A30E7006708D60088300A168A11362521
:100F2C000A128A113708303E0A168A111F250A1236
:100F3C008A113908303E0A168A111F250A128A11A5
:100F4C002F300A168A111F250A128A113D08303ECD
:100F5C000A168A111F250A128A113F08303E0A16FA
:100F6C008A111F250A128A112F300A168A111F2581
:100F7C000A128A114108303E0A168A111F250A12DC
:100F8C008A114308303E0A168A111F250A128A114B
:100F9C000710871407158715871B9D2BD701D501C3
:100FAC00D401BF01C001BD01BE01C101C201C30119
:100FBC00C401B701B801B901BA0101300A168A118E
:100FCC00362508008313A830FD001430FE00813054
:100FDC00FF00A03084000A168A11D6240A128A1146
:100FEC002030840062300A168A11792483010A1297
:100FFC008A15302B063083169F00F0308700831241
:10100C00D701D601D501BB01BC010C30B9000030B1
:10101C00BA000130B3000030B400AF01B0010800D9
:10102C005D08F700F80174087806031D1F28730883
:10103C007706031D2C287608803AF700803077025B
:10104C00031D2A285C087502031839288312031320
:10105C005C08F700F80176087806031D3728750838
:10106C007706031D0800023083120313AD00003015
:10107C00AE007830F7007708CB004F300A168A1193
:10108C001F250A128A154B300A168A111F250A12BF
:10109C008A1520300A168A111F250A128A1520304B
:1010AC000A168A111F250800861864282308F300E5
:1010BC007308A0002408F3007308A1002208F0397B
:1010CC00F300F4017308F5007408F600750E0F397F
:1010DC00F500760EF039F504760E0F39F600F03087
:1010EC00F61D0030F6047508303E0A168A111F25CD
:1010FC000A128A1522080F39F300F4017308F5005F
:10110C007408F6007508303E0A168A111F250A125B
:10111C008A153A300A168A111F250A128A152108D7
:10112C00F039F300F4017308F5007408F600750E3D
:10113C000F39F500760EF039F504760E0F39F600FE
:10114C00F030F61D0030F6047508303E0A168A1190
:10115C001F250A128A1521080F39F300F4017308B0
:10116C00F5007408F6007508303E0A168A111F2522
:10117C000A128A153A300A168A111F250A128A1584
:10118C002008F039F300F4017308F5007408F60038
:10119C00750E0F39F500760EF039F504760E0F3911
:1011AC00F600F030F61D0030F6047508303E0A16D5
:1011BC008A111F250A128A1520080F39F300F40131
:1011CC007308F5007408F6007508303E0A168A118B
:1011DC001F2508008618FA282308F3007308A000BE
:1011EC002408F3007308A1002308F039F300F4017C
:1011FC007308F5007408F600750E0F39F500760EBD
:10120C00F039F504760E0F39F600F030F61D00308B
:10121C00F6047508303E0A168A111F250A128A1523
:10122C0023080F39F300F4017308F5007408F60075
:10123C007508303E0A168A111F250A128A152F309E
:10124C000A168A111F250A128A152408F039F30090
:10125C00F4017308F5007408F600750E0F39F500EB
:10126C00760EF039F504760E0F39F600F030F61DD7
:10127C000030F6047508303E0A168A111F250A1232
:10128C008A1524080F39F300F4017308F50074086B
:10129C00F6007508303E0A168A111F250A128A15A7
:1012AC002F300A168A111F250A128A152608F039C2
:1012BC00F300F4017308F5007408F600750E0F398D
:1012CC00F500760EF039F504760E0F39F600F03095
:1012DC00F61D0030F6047508303E0A168A111F25DB
:1012EC000A128A1526080F39F300F4017308F50069
:1012FC007408F6007508303E0A168A111F2508007E
:10130C007303740403198E2973087404031DA02934
:10131C004D300A168A111F250A128A156F300A16CB
:10132C008A111F250A128A156E300A168A111F257A
:10133C000A128A15023073067404031DB72954303F
:10134C000A168A111F250A128A1575300A168A1177
:10135C001F250A128A1565300A168A111F250A12D2
:10136C008A15033073067404031DCE2957300A16F0
:10137C008A111F250A128A1565300A168A111F2533
:10138C000A128A1564300A168A111F250A128A1548
:10139C00043073067404031DE52954300A168A11AF
:1013AC001F250A128A1568300A168A111F250A127F
:1013BC008A1575300A168A111F250A128A150530EE
:1013CC0073067404031DFC2946300A168A111F2566
:1013DC000A128A1572300A168A111F250A128A15EA
:1013EC0069300A168A111F250A128A1506307306EF
:1013FC007404031D132A53300A168A111F250A126E
:10140C008A1561300A168A111F250A128A15743042
:10141C000A168A111F250A128A15073073067404DE
:10142C00031D080053300A168A111F250A128A154B
:10143C0075300A168A111F250A128A156E300A1683
:10144C008A111F250800831609140A168A112227EF
:10145C000A128A15CC300A168A1156270A128A15D6
:10146C000A168A110B250A128A1544300A168A119B
:10147C0056270A128A150A168A1122270A128A1569
:10148C00CC300A168A1156270A128A15BE300A1653
:10149C008A1156270A128A150A168A11EE260A1282
:1014AC008A1583120313E2006208E1000A168A11FE
:1014BC00EE260A128A1583120313E2006208E0007A
:1014CC008316091483126008E20004300310E20D45
:1014DC00FF3E031D6C2A3F306205E3006108E40007
:1014EC0004300310E40CFF3E031D772A64086304E8
:1014FC00E5006508DF006108E20003300310E20D2F
:10150C00FF3E031D842A0310620DE3006308DE0016
:10151C000A30E2006208F0005F080A168A11AC2556
:10152C000A128A15E3006308DC000A30E200620844
:10153C00F0005F080A168A118B250A128A15E3003F
:10154C006308DD00C501C601DE1FB42A4508883ECC
:10155C00C50046080318013E133EC6005E1FBE2A96
:10156C004508C43EC50046080318013E093EC600A6
:10157C00DE1EC82A4508E23EC50046080318013E97
:10158C00043EC6005E1ED22A4508713EC5004608C0
:10159C000318013E023EC600E830F6000330F700A7
:1015AC004608F9004508F8000A168A11C4270A12E1
:1015BC008A157608E2006208DB006430F600003021
:1015CC00F7004608F3004508F200E830F00003305D
:1015DC00F1000A168A11BC260A128A157108F90044
:1015EC007008F8000A168A11C4270A128A157608A0
:1015FC00E2006208DA000A30F6000030F700460814
:10160C00F3004508F2006430F0000030F1000A16D7
:10161C008A11BC260A128A157108F9007008F800A4
:10162C000A168A11C4270A128A157608E200620883
:10163C00D9000A30F0000030F1004608F3004508EC
:10164C00F2000A168A11BC267008E2006208D80063
:10165C00000008000230831686000A168A116C24DA
:10166C000A128A150A128A1106200A128A150A16FB
:10167C008A11B3240A128A150A168A1171240A12C5
:10168C008A150A168A11CF250A128A150A168A118A
:10169C006C240A128A150A128A1500200A128A155D
:1016AC000A128A1529220A128A150A168A1160262C
:1016BC000A128A1580300A168A1136250A128A15E2
:1016CC0054300A168A111F250A128A1565300A161B
:1016DC008A111F250A128A156D300A168A111F25C8
:1016EC000A128A1570300A168A111F250A128A15D9
:1016FC003A300A168A111F250A128A150A168A11FF
:10170C006A250A128A1590300A168A1136250A1291
:10171C008A1544300A168A111F250A128A1561305F
:10172C000A168A111F250A128A1574300A168A1194
:10173C001F250A128A1565300A168A111F250A12EE
:10174C008A153A300A168A111F250A128A1520307A
:10175C000A168A111F250A128A150A128A15F020F8
:10176C000A128A1588300A168A1136250A128A1529
:10177C0054300A168A111F250A128A1569300A1666
:10178C008A111F250A128A156D300A168A111F2517
:10179C000A128A1565300A168A111F250A128A1533
:1017AC003A300A168A111F250A128A150A128A154E
:1017BC005A200A128A150A128A15AA250A128A15A3
:1017CC000A128A118F230A128A150A128A11792099
:1017DC000A128A1598300A168A1136250A128A15A9
:1017EC000230F3000030F4000430F5000030F60055
:1017FC000A128A1516200A128A150230F3000030DC
:10180C00F4000430F5000030F6000A168A118C271B
:10181C000A128A15831203134B080A168A114D25D6
:10182C000A128A150A168A1189240A128A15EC01E1
:10183C00ED0120300A168A111F250A128A15013073
:10184C00EC070318ED0A0030ED076D08803AFF0035
:10185C0080307F02031D342C07306C02031C1F2CBC
:10186C00831203133A08F8003908F7000830F9001E
:10187C000030FA000A168A11C2240A128A15780856
:10188C00A8007708A7002808F4002708F3000A121C
:10189C008A1586210A128A15562BF6007608303ED8
:1018AC00F400003003180130F5007108740675045B
:1018BC00031DA82D7008F4007408F600B301B401E0
:1018CC0039307106031D722C72037304031D722CC4
:1018DC000930F4007408D2004A307106031D7E2CC6
:1018EC0072037304031D7E2C1930F4007408D200AB
:1018FC0059307106031D8A2C72037304031D8A2C44
:10190C002930F4007408D2006A307106031D962C3D
:10191C0072037304031D962C3930F4007408D20042
:10192C007A307106031DA22C72037304031DA22CC2
:10193C004930F4007408D20039307106031DAF2C05
:10194C00023072067304031DAF2C0930F4007408C6
:10195C00D1004A307106031DBC2C02307206730490
:10196C00031DBC2C1930F4007408D10059307106D9
:10197C00031DC92C023072067304031DC92C2930B7
:10198C00F4007408D1006A307106031DD62C0230A5
:10199C0072067304031DD62C3930F4007408D10080
:1019AC007A307106031DE32C023072067304031D9A
:1019BC00E32C4930F4007408D10039307106031D52
:1019CC00F02C033072067304031DF02C0930F40064
:1019DC007408D0004A307106031DFD2C03307206CA
:1019EC007304031DFD2C1930F4007408D000593019
:1019FC007106031D0A2D033072067304031D0A2D94
:101A0C002930F4007408D0006A307106031D172DBC
:101A1C00033072067304031D172D3930F40074085B
:101A2C00D0007A307106031D242D03307206730426
:101A3C00031D242D4930F4007408D0003930710690
:101A4C00031D312D043072067304031D312D093032
:101A5C00F4007408CF004A307106031D3E2D04308B
:101A6C0072067304031D3E2D1930F4007408CF0068
:101A7C0059307106031D4B2D043072067304031D7F
:101A8C004B2D2930F4007408CF006A307106031D09
:101A9C00582D043072067304031D582D3930F40090
:101AAC007408CF007A307106031D652D0430720660
:101ABC007304031D652D4930F4007408CF003930D0
:101ACC007106031D722D053072067304031D722DF1
:101ADC000930F4007408CE004A307106031D7F2DC6
:101AEC00053072067304031D7F2D1930F400740841
:101AFC00CE0059307106031D8C2D0530720673040F
:101B0C00031D8C2D2930F4007408CE006A30710648
:101B1C00031D992D053072067304031D992D393060
:101B2C00F4007408CE007A307106031DA62D053022
:101B3C0072067304031DA62D4930F4007408CE0000
:101B4C000130F60276080800071487100715871570
:101B5C00071A080001300A168A1136250A128A154E
:101B6C0080300A168A1136250A128A1574300A1624
:101B7C008A111F250A128A1568300A168A111F2528
:101B8C000A128A1572300A168A111F250A128A1532
:101B9C0065300A168A111F250A128A1573300A1627
:101BAC008A111F250A128A1568300A168A111F25F8
:101BBC000A128A156F300A168A111F250A128A1505
:101BCC006C300A168A111F250A128A1564300A16FF
:101BDC008A111F250A128A1590300A168A11362589
:101BEC000A128A1543300A168A111F250A128A1501
:101BFC0075300A168A111F250A128A1572300A16B8
:101C0C008A111F250A128A1572300A168A111F258D
:101C1C000A128A1565300A168A111F250A128A15AE
:101C2C006E300A168A111F250A128A1574300A168C
:101C3C008A111F250A128A153A300A168A111F2595
:101C4C000A128A154908303E0A168A111F250A12F3
:101C5C008A154808303E0A168A111F250A128A1561
:101C6C0088300A168A1136250A128A1553300A163C
:101C7C008A111F250A128A1565300A168A111F252A
:101C8C000A128A1574300A168A111F250A128A152F
:101C9C005F300A168A111F250A128A1574300A162B
:101CAC008A111F250A128A1568300A168A111F25F7
:101CBC000A128A1572300A168A111F250A128A1501
:101CCC0065300A168A111F250A128A1573300A16F6
:101CDC008A111F250A128A1568300A168A111F25C7
:101CEC000A128A156F300A168A111F250A128A15D4
:101CFC006C300A168A111F250A128A1564300A16CE
:101D0C008A111F250A128A153A300A168A111F25C4
:101D1C000A128A1598300A168A1136250A128A1563
:101D2C000714871007158715C301C401C101C2012F
:101D3C00BF01C001BD01BE01BF01C0010714871066
:101D4C0007158715871B032F98300A168A1136251D
:101D5C000A128A150130BF070318C00A0030C007E9
:101D6C003D08E700E8016708BD006808BE004008B0
:101D7C00F8003F08F7000A30F9000030FA000A16A4
:101D8C008A11C2240A128A157708E700E80167084D
:101D9C00BF006808C0003D08303E0A168A111F2596
:101DAC000A128A153F08303E0A168A111F250A129C
:101DBC008A153E08E3003D08E2004008E5003F08B4
:101DCC00E4003930E7006708E6000A168A11F225AC
:101DDC000A128A15E800E9016808BD006908BE000E
:101DEC004008C4003F08C3003E08C2003D08C100C3
:101DFC000A168A11E3240A128A1583120313071098
:101E0C00871407158715071B4D2F3D08E70067083A
:101E1C00C9003F08E7006708C80001300A168A119C
:101E2C0036250A128A1553300A168A111F250A12F2
:101E3C008A1541300A168A111F250A128A15563046
:101E4C000A168A111F250A128A1545300A168A119C
:101E5C001F250A128A1544300A168A111F250A12E8
:101E6C008A15EA01EB01013083120313EA07031808
:101E7C00EB0A0030EB076B08803AFF00F5307F026D
:101E8C00031D4A2F30306A0203180800392F07143B
:101E9C00871407118715871BBD2F98300A168A11D6
:101EAC0036250A128A150130C3020030031CC40304
:101EBC00C4024108E700E8016708C1006808C200D5
:101ECC004408F8004308F7000A30F9000030FA0023
:101EDC000A168A11C2240A128A157708E700E8014B
:101EEC006708C3006808C4004108303E0A168A110E
:101EFC001F250A128A154308303E0A168A111F251F
:101F0C000A128A154208E3004108E2004408E50081
:101F1C004308E4003030E7006708E6000A168A112F
:101F2C0016260A128A15E800E9016808C10069083A
:101F3C00C2004308303EE70044080318013E003E4F
:101F4C00E800303067066804031DB02F0A30C30068
:101F5C000030C4004408C0004308BF004208BE0063
:101F6C004108BD000A168A11E3240A128A1583124D
:101F7C0003130710871407158715071BF52F410846
:101F8C00E7006708C9004308E7006708C80001308C
:101F9C000A168A1136250A128A1553300A168A1126
:101FAC001F250A128A1541300A168A111F250A129A
:101FBC008A1556300A168A111F250A128A154530C1
:101FCC000A168A111F250A128A1544300A168A111C
:101FDC001F250A128A150A168A11E3240800071015
:101FEC00871407158715871BA42E01300A168A1132
:041FFC00362508007E
:1028D80083168901831289010800073083169F0037
:1028E8000514880181018901080064008001840AB7
:1028F80004060319003404067A2C003400344034EA
:1029080012341234063419340034071487140715A6
:102918008711071A0800AD01AE017830F000700881
:10292800CB000800F2007008F1007108F3000130D4
:10293800F302031D9B2C0130F20203190800972CA7
:10294800F3007308303EF100003003180130F20044
:102958007008710672040319F30173080800061061
:10296800861286168E300A168A113A260A168A1197
:1029780000300A168A113A26861208007A08F100F1
:102988007908F0007808F3007708F2000A128A1133
:102998002E207108F8007008F70008007E088A00E9
:1029A8007F088200D2240A168A118000840A04084B
:1029B8007D0603190034FF0A0319FE0AD62CF0011C
:1029C800F1010130F0070318F10A0030F10771082E
:1029D800803AFF00A7307F02031DF42C10307002EC
:1029E80003180800E52CF001F1010130F007031885
:1029F800F10A0030F1077108803AFF0080307F0249
:102A0800031D082D0530700203180800F92CF00189
:102A1800F1010130F0070318F10A0030F1077108DD
:102A2800803AFF0080307F02031D1C2D3230700277
:102A3800031808000D2DF2008312031385160512E2
:102A480085110A168A11F7240A168A1183120313AC
:102A58008515720888000A168A11F7248312031351
:102A680085110800F20083120313851205128511DF
:102A78000A168A11F7240A168A1183120313851578
:102A8800720888000A168A11F72483120313851125
:102A98000800F20077307206031D662D09150A1624
:102AA8008A11E3240A168A118312031309110A16DC
:102AB8008A11E3240A168A118312031309150A16C8
:102AC8008A11E32483120313091108005D08303EBC
:102AD8000A168A111F250A168A115C08303E0A1642
:102AE8008A111F250A168A112E300A168A111F25E7
:102AF8000A168A115B08303E0A168A111F250A1623
:102B08008A115A08303E0A168A111F250800F20059
:102B1800F40170080319AA2DF301F30AF01B9B2D89
:102B28000310F00D0130F1007108F307922D031026
:102B3800F40D70087202031CA52D7008F2027414BB
:102B48000310F00C0130F302031D9B2D74080800DC
:102B5800F4000830F1007108F500F6017408F1007E
:102B680007300310F10CFF3E031DB52D7608F20067
:102B780072077104F3007308F6000310F40D70086F
:102B88007602031CC92D7008F6020130F502031DF8
:102B9800B22D760808008501831205100A168A11DD
:102BA800F7240A168A118312031305140515303009
:102BB8000A168A1136250A168A1101300A168A1150
:102BC80036250A168A1106300A168A1136250A167B
:102BD8008A110C300A168A11362508006408303E1E
:102BE800FB0065080318013E003EFC0066087B06F2
:102BF8007C04031D142E0130E2070318E30A003099
:102C0800E3076308F8006208F7000A30F9000030AB
:102C1800FA000A168A11C2247808E3007708E2004D
:102C2800620808006408303EFB0065080318013E8E
:102C3800003EFC0066087B067C04031D382EFF302E
:102C4800E2070318E30AFF30E3076308F8006208A5
:102C5800F7000A30F9000030FA000A168A11C22477
:102C68007808E3007708E20062080800F400F2013F
:102C7800F30183120313061206107418061674085B
:102C8800F0000310700CF1007108F4000614013014
:102C9800F2070318F30A0030F3077308803AFF00BD
:102CA80080307F02031D5A2E08307202031C3D2E0D
:102CB8008312031306100800831203138616BF300D
:102CC8000A168A113A260A168A11F601F7010A1617
:102CD8008A118C260A168A11F5007608203E84008F
:102CE8007508831380000130F6070318F70A0030CF
:102CF800F7077708803AFF0080307F02031D862E91
:102D080007307602031C6B2E831203138612080009
:102D1800F401831603130616F201F3018312031359
:102D280006107408F0000310700CF1007108F4002C
:102D3800061EA32E74088038F0007008F4000614EC
:102D48000130F2070318F30A0030F3077308803ADA
:102D5800FF0080307F02031DB32E08307202031C6F
:102D6800922E8316031306128312061074080800A5
:102D7800700871040319E92EF501F50AF11BD02E2C
:102D880001300310F00DF10DFF3E031DC52E01307B
:102D9800F4007408F507C22E71087302031DD62EBD
:102DA80070087202031CDE2E7008F2027108031C00
:102DB800F303F30201300310F10CF00CFF3E031D86
:102DC800DF2E0130F502031DD02E7308F1007208C2
:102DD800F0000800F5010830F4007408F60003104C
:102DE800F50C831203130910831609100000000064
:102DF80000000000000000008316031309140000FF
:102E080000000000000000000030831203130918BE
:102E18000130C7004708031DF5170730F400740890
:102E2800F00002300A168A1196240A168A11013017
:102E3800F6027608031DF32E75080800F501F50A59
:102E48007508031908008312031309108316091063
:102E58004630F4007408F00002300A168A119624ED
:102E68000A168A118316031309140830F40074082B
:102E7800F00002300A168A1196240A168A11831263
:102E88000313091C4A2FF501F50A4B2FF5013C30B5
:102E9800F4007408F00002300A168A1196240A1603
:102EA8008A11242FF7000830F4007408F800770816
:102EB8000139F4007408F60083120313091083160D
:102EC8000910000000000000000000007603031D48
:102ED800702F8316031309140730F4007408F000E8
:102EE80002300A168A1196240A168A1183160313C9
:102EF8000914000000007708F4000310740CF500B2
:102F08007508F7000130F8027808031908005B2FEC
:102F18005D08F700F80174087806031D952F7308FB
:102F28007706031D08007608803AF700803077029C
:102F3800031DA02F5C0875020318080002308312D5
:102F480003132D062E04031D08007730F7007708B9
:102F5800CB0057300A168A111F250A168A114130EC
:102F68000A168A111F250A168A1152300A168A1162
:102F78001F250A168A114D300A168A111F250800C6
:102F8800FB01FC01760877040319FB2FFD01FD0AFC
:102F9800F71BDA2F01300310F60DF70DFF3E031D66
:102FA800CF2F0130FA007A08FD07CC2F013003102B
:102FB800FB0DFC0DFF3E031DDB2F77087902031D77
:102FC800E72F76087802031CF02F7608F8027708B6
:102FD800031CF903F9027B1401300310F70CF60CFB
:102FE800FF3E031DF12F0130FD02031DDA2F7C087F
:082FF800F7007B08F600080059
:02400E00323F3F
:00000001FF
