:020000040000FA
:060000000A128A11E02F34
:10000A0000341834003412341234063419340034EB
:10001A00730374040319152873087404031D212833
:10002A004D300A168A1128220A128A116F300A16CE
:10003A008A1128220A128A11023073067404031DD7
:10004A00322854300A168A1128220A128A11753067
:10005A000A168A1128220A128A11033073067404B6
:10006A00031D432857300A168A1128220A128A11B8
:10007A0065300A168A1128220A128A110430730678
:10008A007404031D542854300A168A1128220A12AD
:10009A008A1168300A168A1128220A128A11053032
:1000AA0073067404031D652846300A168A1128222D
:1000BA000A128A1172300A168A1128220A128A1121
:1000CA00063073067404031D762853300A168A1103
:1000DA0028220A128A1161300A168A1128220A1263
:1000EA008A11073073067404031D080053300A1678
:1000FA008A1128220A128A1175300A168A112822B0
:10010A0008000714871407118715071A0800013019
:10011A000A168A113F220A128A1180300A168A1197
:10012A003F220A128A1154300A168A1128220A1208
:10013A008A1169300A168A1128220A128A116D3028
:10014A000A168A1128220A128A1165300A168A1199
:10015A0028220A128A115F300A168A1128220A12E4
:10016A008A1153300A168A1128220A128A11653016
:10017A000A168A1128220A128A1174300A168A115A
:10018A0028220A128A1174300A168A1128220A129F
:10019A008A1169300A168A1128220A128A116E30C7
:1001AA000A168A1128220A128A1167300A168A1137
:1001BA0028220A128A1173300A168A1128220A1270
:1001CA008A110714871007158715871B5D29783050
:1001DA004906031D5D2926032704031DF82801305B
:1001EA00E5006508CA0726082704031D002901300F
:1001FA00A6000030A7000130B0070318B10A00308A
:10020A00B1073108F8003008F7000A30F900003069
:10021A00FA000A168A11B7210A128A117808B1005F
:10022A007708B00024032504031D34292F08E100B0
:10023A002E08E0003108E3003008E2003030E50023
:10024A006508E4000A168A11FB220A128A11E600DE
:10025A00E7016608AE006708AF00A401A5010930EE
:10026A0030063104031D3D290130A4000030A500E9
:10027A005430E5006508F0004A080A168A119921E7
:10028A000A128A11E6006608CA0002302E062F04F6
:10029A00031D5829043030063104031D5829B001C2
:1002AA00B101AE01AF010A168A11EC210A128A11B4
:1002BA0083120313871BC42979304906031DC429F5
:1002CA0026032704031D6D290130E5006508C807C8
:1002DA0026082704031D75290130A6000030A7004F
:1002EA000130B4070318B50A0030B5073508F8001D
:1002FA003408F7000A30F9000030FA000A168A11A9
:10030A00B7210A128A117808B5007708B4002403C5
:10031A002504031DA9293308E1003208E000350845
:10032A00E3003408E2003030E5006508E4000A160C
:10033A008A11FB220A128A11E600E7016608B20056
:10034A006708B300A401A501093034063504031D6A
:10035A00B2290130A4000030A5005A30480603191A
:10036A00C801063032063304031DBF29B201B301A6
:10037A00B401B5010A168A11EC210A128A118830D1
:10038A000A168A113F220A128A1126082704031D17
:10039A00D6294208E50065088316BD008312410884
:1003AA00E12926032704031DE5294A08E500650813
:1003BA008316BD0083124808E50065088316BC0051
:1003CA0011308312E5006508F0003930E60066084E
:1003DA00F1000430F2000030F3004A080A128A15CC
:1003EA00A0200A128A11E7006708CA002130E50036
:1003FA006508F0004A30E6006608F1000430F200B1
:10040A000030F3004A080A128A15A0200A128A113B
:10041A00E7006708CA001130E5006508F0003930C6
:10042A00E6006608F1000530F2000030F3004808E3
:10043A000A128A15A0200A128A11E7006708C80062
:10044A002130E5006508F0004A30E6006608F10050
:10045A000530F2000030F30048080A128A15A0207D
:10046A000A128A11E7006708C8003130E5006508FA
:10047A00F0005930E6006608F1000530F20000305D
:10048A00F30048080A128A15A0200A128A11E70006
:10049A006708C8004130E5006508F0006A30E600E8
:1004AA006608F1000530F2000030F30048080A122D
:1004BA008A15A0200A128A11E7006708C80051307D
:1004CA00E5006508F0007A30E6006608F1000530BC
:1004DA00F2000030F30048080A128A15A0200A1216
:1004EA008A11E7006708C8000710871407158715DF
:1004FA00071B932A01300A168A113F220A128A110F
:10050A000A168A114523CA01C801B001B101AE0118
:10051A00AF01B201B301B401B50108000714871491
:10052A00071187152D08F8002C08F7000230F9008A
:10053A000030FA000A168A11B7210A128A117808BD
:10054A00AD007708AC00071AE32A2C082D04031D16
:10055A00E32A90300A168A113F220A128A11483079
:10056A000A168A1128220A128A116F300A168A116B
:10057A0028220A128A1175300A168A1128220A12AA
:10058A008A1172300A168A1128220A128A113A30FE
:10059A000A168A1128220A128A117830E50065089B
:1005AA00C9000A168A11EC210A128A110130831233
:1005BA000313AC070318AD0A0030AD0707148714FC
:1005CA0007118715071A202B2C032D04031D202B36
:1005DA000130AC070318AD0A0030AD070A168A11BC
:1005EA00EC210A128A1190300A168A113F220A1245
:1005FA008A114D300A168A1128220A128A11693084
:10060A000A168A1128220A128A116E300A168A11CB
:10061A0028220A128A1173300A168A1128220A120B
:10062A008A113A300A168A1128220A128A11793056
:10063A00E5006508C90088300A168A113F220A12A5
:10064A008A11071487140711871588300A168A1128
:10065A003F220A128A1154300A168A1128220A12D3
:10066A008A1169300A168A1128220A128A116D30F3
:10067A000A168A1128220A128A1165300A168A1164
:10068A0028220A128A113A300A168A1128220A12D4
:10069A008A112E08303E0A168A1128220A128A1155
:1006AA003008303E0A168A1128220A128A113A3074
:1006BA000A168A1128220A128A113208303E0A16AC
:1006CA008A1128220A128A113408303E0A168A111F
:1006DA0028220A128A110710871407158715871B03
:1006EA009228CA01C801B001B101AE01AF01B2013D
:1006FA00B301B401B50101300A168A113F2208007C
:10070A00831203130710871407158715071A0800A1
:10071A0001300A168A113F220A128A1180300A16FB
:10072A008A113F220A128A1144300A168A11282293
:10073A000A128A1161300A168A1128220A128A11AB
:10074A0074300A168A1128220A128A1165300A168A
:10075A008A1128220A128A115F300A168A1128225F
:10076A000A128A1153300A168A1128220A128A1189
:10077A0065300A168A1128220A128A1174300A165A
:10078A008A1128220A128A1174300A168A1128221A
:10079A000A128A1169300A168A1128220A128A1143
:1007AA006E300A168A1128220A128A1167300A162E
:1007BA008A1128220A128A1173300A168A112822EB
:1007CA000A128A110714871007158715871B5D2CD3
:1007DA0078304906031D5D2C26032704031DF92BD7
:1007EA000130E5006508CA0726082704031D012C05
:1007FA000130A6000030A7000130B0070318B10A83
:10080A000030B1073108F8003008F7000A30F90063
:10081A000030FA000A168A11B7210A128A117808DA
:10082A00B1007708B00024032504031D352C2F08D6
:10083A00E1002E08E0003108E3003008E200303021
:10084A00E5006508E4000A168A11FB220A128A11D9
:10085A00E600E7016608AE006708AF00A401A5013B
:10086A00093030063104031D3E2C0130A40000304B
:10087A00A5004330E5006508F0004A080A168A1107
:10088A0099210A128A11E6006608CA002E032F046B
:10089A00031D582C033030063104031D582CB001B7
:1008AA00B101AE01AF010A168A11EC210A128A11AE
:1008BA0083120313871BE52C79304906031DE52CA7
:1008CA0026032704031D6D2C0130E5006508C707C0
:1008DA0026082704031D752C0130A6000030A70046
:1008EA000130AA070318AB0A0030AB072B08F8003F
:1008FA002A08F7000A30F9000030FA000A168A11AD
:10090A00B7210A128A117808AB007708AA002B08C7
:10091A00F8002A08F7000830F9000030FA000A1631
:10092A008A11B7210A128A1178088316A800770853
:10093A00A700831224032504031DBC2C2908E10007
:10094A002808E0002B08E3002A08E2003030E5001E
:10095A006508E4000A168A11FB220A128A11E600C7
:10096A00E7016608A8006708A900A401A5010930E3
:10097A002A062B04031DC52C0130A4000030A50053
:10098A006330E5006508F00047080A168A119921C4
:10099A000A128A11E6006608C700033028062904ED
:1009AA00031DE02C02302A062B04031DE02CA801AB
:1009BA00A901AA01AB010A168A11EC210A128A11AD
:1009CA0083120313871B4C2D7A304906031D4C2DC5
:1009DA0026032704031DF52C0130E5006508C80726
:1009EA0026082704031DFD2C0130A6000030A700AD
:1009FA000130B4070318B50A0030B5073508F80006
:100A0A003408F7000A30F9000030FA000A168A1191
:100A1A00B7210A128A117808B5007708B4002403AE
:100A2A002504031D312D3308E1003208E0003508A2
:100A3A00E3003408E2003030E5006508E4000A16F5
:100A4A008A11FB220A128A11E600E7016608B2003F
:100A5A006708B300A401A501093034063504031D53
:100A6A003A2D0130A4000030A5005A304806031977
:100A7A00C801063032063304031D472DB201B30103
:100A8A00B401B5010A168A11EC210A128A11113031
:100A9A0083120313E5006508F0003930E6006608A2
:100AAA00F1000130F2000030F3004A080A128A15F8
:100ABA00A0200A128A11E7006708CA001130E5006F
:100ACA006508F0003930E6006608F1000230F200ED
:100ADA000030F30047080A128A15A0200A128A1168
:100AEA00E7006708C7002130E5006508F0004A30D2
:100AFA00E6006608F1000230F2000030F300470811
:100B0A000A128A15A0200A128A11E7006708C7008C
:100B1A001130E5006508F0003930E6006608F1009A
:100B2A000230F2000030F30047080A128A15A020AA
:100B3A000A128A11E7006708C7002130E500650834
:100B4A00F0004A30E6006608F1000230F200003098
:100B5A00F30047080A128A15A0200A128A11E70030
:100B6A006708C7003130E5006508F0005930E60033
:100B7A006608F1000230F2000030F30047080A125A
:100B8A008A15A0200A128A11E7006708C7001130E7
:100B9A00E5006508F0003930E6006608F100033028
:100BAA00F2000030F30048080A128A15A0200A123F
:100BBA008A11E7006708C8002130E5006508F000DF
:100BCA004A30E6006608F1000330F2000030F30014
:100BDA0048080A128A15A0200A128A11E700670833
:100BEA00C8001130E5006508F0003930E6006608F3
:100BFA00F1000330F2000030F30048080A128A15A7
:100C0A00A0200A128A11E7006708C8002130E5000F
:100C1A006508F0004A30E6006608F1000330F20089
:100C2A000030F30048080A128A15A0200A128A1115
:100C3A00E7006708C8003130E5006508F000593060
:100C4A00E6006608F1000330F2000030F3004808BD
:100C5A000A128A15A0200A128A11E7006708C8003A
:100C6A004130E5006508F0006A30E6006608F100E8
:100C7A000330F2000030F30048080A128A15A02057
:100C8A000A128A11E7006708C8005130E5006508B2
:100C9A00F0007A30E6006608F1000330F200003016
:100CAA00F30048080A128A15A0200A128A11E700DE
:100CBA006708C80026082704031D712E4508E500A9
:100CCA0065088316BF0083124308E500650883168A
:100CDA00C10083124408822E26032704031D862E90
:100CEA004A08E50065088316BF0083124808E50034
:100CFA0065088316C10083124708E5006508831654
:100D0A00BE0088300A168A113F220A128A11071079
:100D1A00871407158715071BAB2E0A168A11452358
:100D2A000A128A11CA01C801C701A801A901AA01A8
:100D3A00AB01B001B101AE01AF01B201B301B4011F
:100D4A00B50101300A168A113F22080007108714DC
:100D5A00071587152D08F8002C08F7000330F9004D
:100D6A000030FA000A168A11B7210A128A11780885
:100D7A00AD007708AC00071A012F2C082D04031DBB
:100D8A00012F90300A168A113F220A128A11443022
:100D9A000A168A1128220A128A1161300A168A1141
:100DAA0028220A128A1179300A168A1128220A126E
:100DBA008A113A300A168A1128220A128A11203018
:100DCA000A168A1128220A128A1120300A168A1152
:100DDA0028220A128A117930E5006508C9000A1624
:100DEA008A11EC210A128A11013083120313AC070B
:100DFA000318AD0A0030AD070710871407158715C9
:100E0A00071A442F2C032D04031D442F0130AC076D
:100E1A000318AD0A0030AD070A168A11EC210A122E
:100E2A008A1190300A168A113F220A128A114D300D
:100E3A000A168A1128220A128A116F300A168A1192
:100E4A0028220A128A116E300A168A1128220A12D8
:100E5A008A1174300A168A1128220A128A116830F5
:100E6A000A168A1128220A128A113A300A168A1197
:100E7A0028220A128A117830E5006508C90007108D
:100E8A00871407158715071A8A2F02302C062D0496
:100E9A00031D8A2F0A168A11EC210A128A110130BF
:100EAA0083120313AC070318AD0A0030AD07903064
:100EBA000A168A113F220A128A1159300A168A1111
:100ECA0028220A128A1165300A168A1128220A1261
:100EDA008A1161300A168A1128220A128A1172307E
:100EEA000A168A1128220A128A113A300A168A1117
:100EFA0028220A128A1120300A168A1128220A1276
:100F0A008A117A30E5006508C90088300A168A1104
:100F1A003F220A128A112808303E0A168A1128220C
:100F2A000A128A112A08303E0A168A1128220A123F
:100F3A008A112F300A168A1128220A128A112E08BB
:100F4A00303E0A168A1128220A128A113008303EC7
:100F5A000A168A1128220A128A112F300A168A11B1
:100F6A0028220A128A113208303E0A168A112822C9
:100F7A000A128A113408303E0A168A1128220A12E5
:100F8A008A110710871407158715871B932BCA0127
:100F9A00C801C701B001B101AE01AF01B201B3018D
:100FAA00B401B501A801A901AA01AB0101300A16D1
:100FBA008A113F2208008313C330FD000030FE006F
:100FCA000530FF00BB3084000A168A11CB210A12B1
:100FDA008A11A0308400BB300A168A1183210A12B2
:100FEA008A112030840060300A168A118321830115
:060FFA000A128A15F72916
:1010060086180E2883162308F3007308A000240808
:10101600F3007308A10083162308F039F300F401E6
:101026007308F5007408F600750E0F39F500760E94
:10103600F039F504760E0F39F600F030F61D003063
:10104600F6047508303E0A168A1128220A128A15F5
:10105600831623080F39F300F4017308F5007408AA
:10106600F6007508303E0A168A1128220A128A15D9
:101076002F300A168A1128220A128A158316240886
:10108600F039F300F4017308F5007408F600750EE4
:101096000F39F500760EF039F504760E0F39F600A5
:1010A600F030F61D0030F6047508303E0A168A1137
:1010B60028220A128A15831624080F39F300F40130
:1010C6007308F5007408F6007508303E0A168A1192
:1010D60028220A128A152F300A168A1128220A1285
:1010E6008A1583162608F039F300F4017308F50013
:1010F6007408F600750E0F39F500760EF039F50412
:10110600760E0F39F600F030F61D0030F60475083D
:10111600303E0A168A1128220A128A1583162608D4
:101126000F39F300F4017308F5007408F60075082A
:10113600303E0A168A1128220800F6007608303E4C
:10114600F400003003180130F500710874067504C8
:10115600031DF5297008F4007408F600A601A7011E
:1011660039307106031DBF2872037304031DBF289F
:101176000930F4007408C5004A307106031DCB28F7
:1011860072037304031DCB281930F4007408C500DC
:1011960059307106031DD72872037304031DD7281F
:1011A6002930F4007408C5006A307106031DE3286F
:1011B60072037304031DE3283930F4007408C50074
:1011C6007A307106031DEF2872037304031DEF289E
:1011D6004930F4007408C50039307106031DFC2837
:1011E600023072067304031DFC280930F4007408EB
:1011F600C4004A307106031D0929023072067304C1
:10120600031D09291930F4007408C4005930710609
:10121600031D1629023072067304031D1629293090
:10122600F4007408C4006A307106031D23290230D5
:1012360072067304031D23293930F4007408C400B0
:101246007A307106031D3029023072067304031DBD
:1012560030294930F4007408C40039307106031D82
:101266003D29033072067304031D3D290930F4003D
:101276007408C3004A307106031D4A2903307206FA
:101286007304031D4A291930F4007408C300593049
:101296007106031D5729033072067304031D57296F
:1012A6002930F4007408C3006A307106031D6429EE
:1012B600033072067304031D64293930F400740880
:1012C600C3007A307106031D712903307206730458
:1012D600031D71294930F4007408C30039307106C2
:1012E600031D7E29043072067304031D7E2909300E
:1012F600F4007408C2004A307106031D8B290430BD
:1013060072067304031D8B291930F4007408C20099
:1013160059307106031D9829043072067304031DA3
:1013260098292930F4007408C2006A307106031D3A
:10133600A529043072067304031DA5293930F4006B
:101346007408C2007A307106031DB2290430720691
:101356007304031DB2294930F4007408C200393001
:101366007106031DBF29053072067304031DBF29CC
:101376000930F4007408C1004A307106031DCC29F7
:10138600053072067304031DCC291930F400740865
:10139600C10059307106031DD92905307206730440
:1013A600031DD9292930F4007408C1006A3071067A
:1013B600031DE629053072067304031DE62939303C
:1013C600F4007408C1007A307106031DF329053054
:1013D60072067304031DF3294930F4007408C10032
:1013E6000130F602760808000230831686000A16D7
:1013F6008A1176210A128A150A168A1145230A12BB
:101406008A150A168A11A8210A128A150A168A113D
:101416007B210A128A150A168A11D8220A128A15FF
:101426000A168A1176210A128A150A168A111422B8
:101436000A128A150330E8006808CF000430E80075
:101446006808CE000430BA000030BB000230B80095
:101456000030B9000130B6000030B70009308316FD
:10146600B5000030B6000A168A11F9260A128A1546
:101476000A168A116D230A128A1580300A168A11F5
:101486003F220A128A1554300A168A1128220A1295
:101496008A1565300A168A1128220A128A156D30B5
:1014A6000A168A1128220A128A1570300A168A111B
:1014B60028220A128A153A300A168A1128220A1296
:1014C6008A150A168A1173220A128A1590300A168C
:1014D6008A113F220A128A1544300A168A112822D6
:1014E6000A128A1561300A168A1128220A128A15EA
:1014F60074300A168A1128220A128A1565300A16CD
:101506008A1128220A128A153A300A168A112822C6
:101516000A128A1520300A168A1128220A128A15FA
:101526000A128A1503200A128A1588300A168A11A9
:101536003F220A128A1554300A168A1128220A12E4
:101546008A1569300A168A1128220A128A156D3000
:101556000A168A1128220A128A1565300A168A1175
:1015660028220A128A153A300A168A1128220A12E5
:101576008A150A168A1154260A128A150A128A151B
:10158600E5230A128A150A128A1185230A128A1578
:101596000A128A1186200A128A1598300A168A11AA
:1015A6003F220A128A154B08303EE8000030031825
:1015B6000130E9000030690202300319680203189D
:1015C6002F2B4C08303EE800003003180130E900AC
:1015D6000030690208300319680203182F2B4F08E0
:1015E600E800E9016808F3006908F4004E08EA001B
:1015F600EB016A08F5006B08F6000A168A11022547
:101606000A128A15EC006C08CD004F08E800E901C3
:101616006808F3006908F4004E08EA00EB016A085E
:10162600F5006B08F6000A168A1196250A128A1525
:10163600EC006C08CD003708F4003608F30083167A
:101646003608F6003508F5000A168A11ED250A1245
:101656008A15E8006808CD004B08303EE8000030E7
:1016660003180130E900680869040319762B4C0851
:10167600303EE800003003180130E900003069020E
:10168600083003196802031C762B3908F400380861
:10169600F3003B08F6003A08F5000A168A110225FF
:1016A6000A128A15E8006808CD003908F4003808DF
:1016B600F3003B08F6003A08F5000A168A1196254B
:1016C6000A128A15E8006808CD000030F300F4001D
:1016D6000030F500F6000A168A11ED250A128A1561
:1016E600E8006808CD000A168A1199230A128A159D
:1016F600E8006808CD004D080A168A1156220A121B
:101706008A1520300A168A1128220A128A154830AC
:101716000A168A1128220A128A153A300A168A11DE
:1017260028220A128A1551080A168A1128220A1234
:101736008A1543300A168A1128220A128A153A3067
:101746000A168A1128220A128A1550080A168A11C0
:1017560028220A128A15ED01EE0120300A168A1196
:1017660028220A128A150130ED070318EE0A003006
:10177600EE076E08803AFF0080307F02031DC52BFE
:1017860003306D02031CB02B831203132B08F800E1
:101796002A08F7000830F9000030FA000A168A1104
:1017A600B7210A128A1578088316A8007708A700B9
:1017B6002808F4002708F3000A128A110D200A12DD
:1017C6008A15362A0714871007158715071A080081
:1017D60001300A168A113F220A128A1580300A162B
:1017E6008A113F220A128A1554300A168A112822B3
:1017F6000A128A1568300A168A1128220A128A15D0
:1018060072300A168A1128220A128A1565300A16BB
:101816008A1128220A128A1573300A168A1128227A
:101826000A128A1568300A168A1128220A128A159F
:101836006F300A168A1128220A128A156C300A1687
:101846008A1128220A128A1564300A168A11282259
:101856000A128A1573300A168A1128220A128A1564
:101866003A300A168A1128220A128A150714871096
:1018760007158715871B852C78304906031D852C8F
:101886000130B0070318B10A0030B1073108F8007B
:101896003008F7000A30F9000030FA000A168A11FB
:1018A600B7210A128A157808B1007708B000240318
:1018B6002504031D772C2F08E1002E08E0003108CF
:1018C600E3003008E2003030E5006508E4000A165F
:1018D6008A11FB220A128A15E600E7016608AE00A5
:1018E6006708AF00A401A501093030063104031DC5
:1018F600802C0130A4000030A5000A168A11EC21C4
:101906000A128A1583120313071487100715871501
:10191600871BD32C79304906031DD32C0130B4071D
:101926000318B50A0030B5073508F8003408F70083
:101936000A30F9000030FA000A168A11B7210A1295
:101946008A157808B5007708B40024032504031D1A
:10195600C52C3308E1003208E0003508E3003408FE
:10196600E2003030E5006508E4000A168A11FB2221
:101976000A128A15E600E7016608B2006708B30096
:10198600A401A501093034063504031DCE2C01300F
:10199600A4000030A5000A168A11EC210A128A1545
:1019A600831203130714871007158715871B292D24
:1019B6007A304906031D292D0130A2070318A30A10
:1019C6000030A3072308F8002208F7000A30F900C0
:1019D6000030FA000A168A11B7210A128A15780809
:1019E600A3007708A20024032504031D1B2D8316DC
:1019F6002C088312E10083162B088312E0002308CB
:101A0600E3002208E2003030E5006508E4000A162B
:101A16008A11FB220A128A15E600E7016608831678
:101A2600AB00831267088316AC008312A401A501DC
:101A3600093022062304031D242D0130A4000030A2
:101A4600A5000A168A11EC210A128A1583120313BD
:101A56000714871007158715871B7F2D61304906E8
:101A6600031D7F2D0130A0070318A10A0030A1072E
:101A76002108F8002008F7000A30F9000030FA00C3
:101A86000A168A11B7210A128A157808A100770862
:101A9600A00024032504031D712D83162A08831232
:101AA600E100831629088312E0002108E3002008DC
:101AB600E2003030E5006508E4000A168A11FB22D0
:101AC6000A128A15E600E70166088316A900831242
:101AD60067088316AA008312A401A501093020060F
:101AE6002104031D7A2D0130A4000030A5000A163A
:101AF6008A11EC210A128A15831203130714871020
:101B0600071587152D08F8002C08F7000430F90092
:101B16000030FA000A168A11B7210A128A157808C7
:101B2600AD007708AC00071AF52D2C082D04031D0F
:101B3600F52D0130AC070318AD0A0030AD07903023
:101B46000A168A113F220A128A1544300A168A1189
:101B560028220A128A1561300A168A1128220A12C8
:101B66008A1579300A168A1128220A128A1528300F
:101B76000A168A1128220A128A1555300A168A115F
:101B860028220A128A1529300A168A1128220A12D0
:101B96008A153A300A168A1128220A128A15203026
:101BA6000A168A1128220A128A1520300A168A1164
:101BB60028220A128A154F08303E0A168A11282250
:101BC6000A128A154E08303E0A168A1128220A126F
:101BD6008A157830E5006508C9000A168A11EC21D5
:101BE6000A128A158312031307148710071587151F
:101BF600071A5B2E2C032D04031D5B2E90300A164C
:101C06008A113F220A128A154E300A168A11282294
:101C16000A128A1569300A168A1128220A128A15AA
:101C260067300A168A1128220A128A1568300A169F
:101C36008A1128220A128A1574300A168A11282255
:101C46000A128A1528300A168A1128220A128A15BB
:101C560055300A168A1128220A128A1529300A16C0
:101C66008A1128220A128A153A300A168A1128225F
:101C76000A128A153608303E0A168A1128220A12D6
:101C86008A1583163508303E0A168A1128220A124A
:101C96008A157930E5006508C9000130AC070318DC
:101CA600AD0A0030AD070A168A11EC210A128A1510
:101CB600831203130714871007158715071ABF2EFB
:101CC60002302C062D04031DBF2E90300A168A11F1
:101CD6003F220A128A154E300A168A1128220A1243
:101CE6008A1569300A168A1128220A128A1567305F
:101CF6000A168A1128220A128A1568300A168A11CB
:101D060028220A128A1574300A168A1128220A1203
:101D16008A1528300A168A1128220A128A154C308A
:101D26000A168A1128220A128A1529300A168A11D9
:101D360028220A128A153A300A168A1128220A120D
:101D46008A1530300A168A1128220A128A1530306E
:101D56000A168A1128220A128A157A30E5006508C1
:101D6600C9000130AC070318AD0A0030AD070A16EA
:101D76008A11EC210A128A1583120313071A212FDE
:101D860003302C062D04031D212F0130AC07031848
:101D9600AD0A0030AD0790300A168A113F220A12AA
:101DA6008A1544300A168A1128220A128A156130C9
:101DB6000A168A1128220A128A1579300A168A11F9
:101DC60028220A128A1528300A168A1128220A128F
:101DD6008A154C300A168A1128220A128A152930C9
:101DE6000A168A1128220A128A153A300A168A1108
:101DF60028220A128A1520300A168A1128220A1267
:101E06008A1520300A168A1128220A128A154F08C6
:101E1600303E0A168A1128220A128A154E08303ECA
:101E26000A168A1128220A128A156130E500650809
:101E3600C9000A168A11EC210A128A1588300A1678
:101E46008A113F220A128A1554300A168A1128224C
:101E56000A128A1531300A168A1128220A128A15A0
:101E66003A300A168A1128220A128A152E08303E9E
:101E76000A168A1128220A128A153008303E0A16D6
:101E86008A1128220A128A1554300A168A11282223
:101E96000A128A1532300A168A1128220A128A155F
:101EA6003A300A168A1128220A128A153208303E5A
:101EB6000A168A1128220A128A153408303E0A1692
:101EC6008A1128220A128A1554300A168A112822E3
:101ED6000A128A1533300A168A1128220A128A151E
:101EE6003A300A168A1128220A128A1583162B08F6
:101EF600303E0A168A1128220A128A152208303E16
:101F06000A168A1128220A128A1598300A168A1188
:101F16003F220A128A1554300A168A1128220A12FA
:101F26008A1534300A168A1128220A128A153A307E
:101F36000A168A1128220A128A1583162908303EA3
:101F46000A168A1128220A128A152008303E0A1615
:101F56008A1128220A128A15071087140715871571
:101F6600071BED2F3208E5006508CF003408E500B1
:101F76006508CE00B201B301B401B501B001B101EB
:101F8600B401B50101300A168A113F220A128A15D8
:101F960053300A168A1128220A128A1541300A1667
:101FA6008A1128220A128A1556300A168A11282200
:101FB6000A128A1545300A168A1128220A128A152B
:101FC60044300A168A1128220A128A150A168A111C
:101FD600EC2108000710871407158715871BF12BBE
:101FE60001300A168A113F22B201B301B401B501CC
:0A1FF600B001B101B401B50108000B
:1022EC0083168901831289010800073083169F0029
:1022FC000514880181018901080064008001840AA9
:10230C0004060319003404068429F2007008F10055
:10231C007108F3000130F302031D90290130F20221
:10232C00031908008C29F3007308303EF1000030CB
:10233C0003180130F2007008710672040319F301DE
:10234C00730808000610861286168E300A168A113B
:10235C001F230A168A1100300A168A111F238612AF
:10236C0008007A08F1007908F0007808F300770883
:10237C00F2000A168A114B257108F8007008F70054
:10238C0008007E088A007F088200C7210A168A117D
:10239C008000840A04087D0603190034FF0A03191F
:1023AC00FE0ACB29F001F1010130F0070318F10A04
:1023BC000030F1077108803AFF0080307F02031D66
:1023CC00E9290530700203180800DA29F001F1013F
:1023DC000130F0070318F10A0030F1077108803A58
:1023EC00FF00A7307F02031DFD2910307002031877
:1023FC000800EE29F001F1010130F0070318F10A91
:10240C000030F1077108803AFF0080307F02031D15
:10241C00112A3230700203180800022A0630831683
:10242C009F00F03087008312CA01C901C801AC01BA
:10243C00AD01AA01AB010130A6000030A700A40138
:10244C00A5010800F20083120313851605128511ED
:10245C000A168A11D8210A168A11831203138515BC
:10246C00720888000A168A11D82183120313851169
:10247C000800F200831203138512051285110A1647
:10248C008A11D8210A168A11831203138515720832
:10249C0088000A168A11D8218312031385110800AB
:1024AC00F20077307206031D6F2A09150A168A117D
:1024BC00EC210A168A118312031309110A168A11C8
:1024CC00EC210A168A118312031309150A168A11B4
:1024DC00EC2183120313091108005B08303E0A1625
:1024EC008A1128220A168A115A08303E0A168A11B5
:1024FC0028220A168A112E300A168A1128220A1648
:10250C008A115908303E0A168A1128220A168A1195
:10251C005808303E0A168A1128220800F200F401ED
:10252C0070080319B32AF301F30AF01BA42A031051
:10253C00F00D0130F1007108F3079B2A0310F40D24
:10254C0070087202031CAE2A7008F2027414031095
:10255C00F00C0130F302031DA42A74080800F400E7
:10256C000830F1007108F500F6017408F10007302D
:10257C000310F10CFF3E031DBE2A7608F200720711
:10258C007104F3007308F6000310F40D7008760262
:10259C00031CD22A7008F6020130F502031DBB2A77
:1025AC00760808008501831205100A168A11D821B5
:1025BC000A168A11831203130514051530300A16F6
:1025CC008A113F220A168A1101300A168A113F22FB
:1025DC000A168A1106300A168A113F220A168A1127
:1025EC000C300A168A113F2208006208303EFB00AC
:1025FC0063080318013E003EFC0064087B067C0463
:10260C00031D1D2B0130E0070318E10A0030E10720
:10261C006108F8006008F7000A30F9000030FA0091
:10262C000A168A11B7217808E1007708E0006008E3
:10263C000800F400F201F3018312031306120610D2
:10264C00741806167408F0000310700CF100710871
:10265C00F40006140130F2070318F30A0030F307F4
:10266C007308803AFF0080307F02031D3F2B083037
:10267C007202031C222B8312031306100800861609
:10268C00BE300A168A111F230A168A11F501F601AB
:10269C007508BB3E8400831300080A168A111F2399
:1026AC000A168A110130F5070318F60A0030F607EE
:1026BC007608803AFF0080307F02031D672B0830BC
:1026CC007502031C4E2B831203138612080083120F
:1026DC0003138616BF300A168A111F230A168A1195
:1026EC00F601F7010A168A11C6230A168A11F5009B
:1026FC007608A03E84007508831380000130F6072D
:10270C000318F70A0030F7077708803AFF0080308B
:10271C007F02031D932B07307602031C782B831248
:10272C000313861208000714871407158711071A5C
:10273C00C42BBC01BD017830F3007308D3008316A1
:10274C00B901BA0152300A168A1128220A168A11C6
:10275C0045300A168A1128220A168A1153300A1695
:10276C008A1128220A168A1145300A168A11282243
:10277C000A168A1154300A168A11282253080800A6
:10278C00F401831603130616F201F30183120313EB
:10279C0006107408F0000310700CF1007108F400BE
:1027AC00061EDD2B74088038F0007008F400061447
:1027BC000130F2070318F30A0030F3077308803A6C
:1027CC00FF0080307F02031DED2B08307202031CCA
:1027DC00CC2B831603130612831206107408080000
:1027EC00700871040319232CF501F50AF11B0A2C4E
:1027FC0001300310F00DF10DFF3E031DFF2B0130D6
:10280C00F4007408F507FC2B71087302031D102CDF
:10281C0070087202031C182C7008F2027108031C59
:10282C00F303F30201300310F10CF00CFF3E031D17
:10283C00192C0130F502031D0A2C7308F1007208E3
:10284C00F0000800F5010830F4007408F6000310DD
:10285C00F50C8312031309108316091000000000F5
:10286C000000000000000000831603130914000090
:10287C000000000000000000003083120313091850
:10288C000130C0004008031DF5170730F400740830
:10289C00F00002300A168A118B210A168A110130B7
:1028AC00F6027608031D2D2C75080800F501F50AB3
:1028BC0075080319080083120313091083160910F5
:1028CC004630F4007408F00002300A168A118B218D
:1028DC000A168A118316031309140830F4007408BD
:1028EC00F00002300A168A118B210A168A11831203
:1028FC000313091C842CF501F50A852CF5013C30D9
:10290C00F4007408F00002300A168A118B210A16A2
:10291C008A115E2CF7000830F4007408F800770870
:10292C000139F4007408F60083120313091083169E
:10293C000910000000000000000000007603031DD9
:10294C00AA2C8316031309140730F4007408F00042
:10295C0002300A168A118B210A168A118316031368
:10296C000914000000007708F4000310740CF50043
:10297C007508F7000130F802780803190800952C47
:10298C00FB01FC01760877040319FD2CFD01FD0AFF
:10299C00F71BDC2C01300310F60DF70DFF3E031D69
:1029AC00D12C0130FA007A08FD07CE2C013003102F
:1029BC00FB0DFC0DFF3E031DDD2C77087902031D7A
:1029CC00E92C76087802031CF22C7608F8027708BA
:1029DC00031CF903F9027B1401300310F70CF60CFD
:1029EC00FF3E031DF32C0130FD02031DDC2C7C0883
:1029FC00F7007B08F60008007408803AF700803076
:102A0C007702031D0B2D5B087302031C472D760800
:102A1C00803AF70080307702031D182D83120313C0
:102A2C005A087502031C472D023083120313BC0095
:102A3C000030BD007830F7007708D3003030F70055
:102A4C007708D1003030F7007708D0008316B90131
:102A5C00BA01B701B8014F300A168A1128220A169A
:102A6C008A114B300A168A1128220A168A11203034
:102A7C000A168A1128220A168A1120300A168A117F
:102A8C0028228312031353080800F601F31F552D57
:102A9C00F209F309F20A0319F30AF601F60AF11F17
:102AAC005C2DF009F109F00A0319F10A70087104A0
:102ABC000319892DF501F50AF11B702D0130031056
:102ACC00F00DF10DFF3E031D652D0130F40074086F
:102ADC00F507622D71087302031D762D70087202C2
:102AEC00031C7E2D7008F2027108031CF303F30221
:102AFC0001300310F10CF00CFF3E031D7F2D013053
:102B0C00F502031D702D76080319912DF209F309B6
:102B1C00F20A0319F30A7308F1007208F0000800B6
:102B2C007408803A803C031D9D2D73085B02031CC6
:102B3C00E92D7608803A803C031DA82D7508831278
:102B4C0003135A02031CE92D013083160313B90732
:102B5C000318BA0A0030BA073030F700770883122E
:102B6C00D1003130F7007708D00057300A168A119F
:102B7C0028220A168A1141300A168A1128220A16AE
:102B8C008A1152300A168A1128220A168A114D30DF
:102B9C000A168A1128220A168A11003083163A0264
:102BAC00653003193902031CE92D2D30F700770825
:102BBC008312D00002303C063D04031DE92D773012
:102BCC00F7007708D3008312031353080800740826
:102BDC00803AF70080307702031DF72D83125B08D3
:102BEC007302031C502E7608803AF700803077026F
:102BFC00031D042E831203135A0875020318112E99
:102C0C007608803A803C031D0F2E7508831203133F
:102C1C005A02031C502E013083160313B7070318F6
:102C2C00B80A0030B8073130F70077088312D100AA
:102C3C003030F7007708D00043300A168A1128226A
:102C4C000A168A114F300A168A1128220A168A117E
:102C5C004C300A168A1128220A168A1144300A1698
:102C6C008A1128220A168A11033083163802E93099
:102C7C0003193702031C502E2D30F70077088312EE
:102C8C00D10002303C063D04031D502E7730F70076
:102C9C007708D300831203135308080086185F2E9D
:102CAC0083162308F3007308A0002408F3007308AC
:102CBC00A10083162208F039F300F4017308F50023
:102CCC007408F600750E0F39F500760EF039F50420
:102CDC00760E0F39F600F030F61D0030F60475084C
:102CEC00303E0A168A1128220A168A117508F3003A
:102CFC007308CB00831622080F39F300F401730814
:102D0C00F5007408F6007508303E0A168A11282260
:102D1C000A168A113A300A168A1128220A168A11C2
:102D2C007508F3007308CC0083162108F039F30002
:102D3C00F4017308F5007408F600750E0F39F500F0
:102D4C00760EF039F504760E0F39F600F030F61DDC
:102D5C000030F6047508303E0A168A1128220A162D
:102D6C008A11831621080F39F300F4017308F5005A
:102D7C007408F6007508303E0A168A1128220A16C5
:102D8C008A113A300A168A1128220A168A118316D9
:102D9C002008F039F300F4017308F5007408F6000C
:102DAC00750E0F39F500760EF039F504760E0F39E5
:102DBC00F600F030F61D0030F6047508303E0A16A9
:102DCC008A1128220A168A11831620080F39F3005B
:102DDC00F4017308F5007408F6007508303E0A1605
:102DEC008A1128220800831609140A168A115C24F9
:102DFC000A168A11CC300A168A1190240A168A11E6
:102E0C000A168A1100220A168A1144300A168A11EF
:102E1C0090240A168A110A168A115C240A168A1141
:102E2C00CC300A168A1190240A168A11BE300A1662
:102E3C008A1190240A168A110A168A1128240A1655
:102E4C008A1183120313E0006008DF000A168A114E
:102E5C0028240A168A1183120313E0006008DE008E
:102E6C008316091483125E08E00004300310E00D91
:102E7C00FF3E031D3C2F3F306005E1005F08E20080
:102E8C0004300310E20CFF3E031D472F620861045F
:102E9C00E3006308DD005F08E00003300310E00D81
:102EAC00FF3E031D542F0310600DE1006108DC0090
:102EBC000A30E0006008F0005D080A168A11B5229D
:102ECC000A168A11E1006108DA000A30E000600895
:102EDC00F0005D080A168A1194220A168A11E10084
:102EEC006108DB00BE01BF01DC1F842F3E08883E59
:102EFC00BE003F080318013E133EBF005C1F8E2F1F
:102F0C003E08C43EBE003F080318013E093EBF0008
:102F1C00DC1E982F3E08E23EBE003F080318013E1F
:102F2C00043EBF005C1EA22F3E08713EBE003F084F
:102F3C000318013E023EBF00E830F6000330F700F4
:102F4C003F08F9003E08F8000A168A11C6240A1632
:102F5C008A117608E0006008D9006430F600003071
:102F6C00F7003F08F3003E08F200E830F0000330B1
:102F7C00F1000A168A11F6230A168A117108F90053
:102F8C007008F8000A168A11C6240A168A117608E7
:102F9C00E0006008D8000A30F6000030F7003F0867
:102FAC00F3003E08F2006430F0000030F1000A1625
:102FBC008A11F6230A168A117108F9007008F800B4
:102FCC000A168A11C6240A168A117608E0006008CF
:102FDC00D7000A30F0000030F1003F08F3003E0843
:102FEC00F2000A168A11F6237008E0006008D60079
:042FFC0000000800C9
:02400E00323F3F
:00000001FF
