:020000040000FA
:060000000A128A11E02F34
:1000080000341834003412341234063419340034ED
:100018007408803AF70080307702031D15285B08C2
:100028007302031C62287608803AF7008030770252
:10003800031D2228831203135A08750203182F2858
:100048007608803A803C031D2D2875088312031317
:100058005A02031C6228013083120313BA070318DB
:10006800BB0A0030BB073130F7007708D1003030C9
:10007800F7007708D00043300A168A1125230A12A0
:100088008A114F300A168A1125230A128A114C3018
:100098000A168A1125230A128A1144300A168A116F
:1000A80025230A128A1103303B02E93003193A0268
:1000B800031C62282D30F7007708D1008312031340
:1000C800530808000714871007158715071A080032
:1000D80001300A168A113C230A128A1180300A1646
:1000E8008A113C230A128A1120300A168A11252304
:1000F8000A128A1120300A168A1125230A128A1137
:1001080020300A168A1125230A128A1120300A166D
:100118008A1125230A128A1120300A168A112523EA
:100128000A128A1120300A168A1125230A128A1106
:1001380020300A168A1125230A128A1120300A163D
:100148008A1125230A128A1120300A168A112523BA
:100158000A128A1190300A168A113C230A128A114F
:1001680054300A168A1125230A128A1168300A1691
:100178008A1125230A128A1172300A168A11252338
:100188000A128A1165300A168A1125230A128A1161
:1001980073300A168A1125230A128A1168300A1642
:1001A8008A1125230A128A116F300A168A1125230B
:1001B8000A128A116C300A168A1125230A128A112A
:1001C80064300A168A1125230A128A1173300A1616
:1001D8008A1125230A128A113A300A168A11252310
:1001E8000A128A110714871007158715071A442958
:1001F80078304906031D44290130E5006508CA071F
:100208000130AC070318AD0A0030AD072D08F8001F
:100218002C08F7000A30F9000030FA000A168A1193
:10022800C5220A128A117808AD007708AC002B089D
:10023800E1002A08E0002D08E3002C08E20039302C
:10024800E5006508E4000A168A11F8230A128A11E3
:10025800E600E7016608AA006708AB005430E5002D
:100268006508F0004A080A168A11A7220A128A119C
:10027800E6006608CA000A168A11E9220A128A11DB
:1002880083120313071A872979304906031D872922
:100298000130E5006508C8070130B0070318B10A46
:1002A8000030B1073108F8003008F7000A30F900CB
:1002B8000030FA000A168A11C5220A128A11780833
:1002C800B1007708B0002F08E1002E08E0003108DF
:1002D800E3003008E2003930E5006508E4000A165A
:1002E8008A11F8230A128A11E600E7016608AE00AF
:1002F8006708AF005A3048060319C8010A168A1160
:10030800E9220A128A1183120313071487100715AA
:1003180087152908F8002808F7000430F90000308C
:10032800FA000A168A11C5220A128A117808A90049
:100338007708A800071AFD2928082904031DFD29A4
:100348000130A8070318A90A0030A90788300A163F
:100358008A113C230A128A1144300A168A1125236D
:100368000A128A1161300A168A1125230A128A1183
:1003780079300A168A1125230A128A1128300A169A
:100388008A1125230A128A1155300A168A11252343
:100398000A128A1129300A168A1125230A128A118B
:1003A8003A300A168A1125230A128A1120300A16B1
:1003B8008A1125230A128A1120300A168A11252348
:1003C8000A128A114F08303E0A168A1125230A128A
:1003D8008A114E08303E0A168A1125230A128A11FC
:1003E8007830E5006508C9000A168A11E9220A1260
:1003F8008A11831203130714871007158715071A24
:10040800622A28032904031D622A88300A168A11E1
:100418003C230A128A114E300A168A1125230A1221
:100428008A1169300A168A1125230A128A1167303F
:100438000A168A1125230A128A1168300A168A11A7
:1004480025230A128A1174300A168A1125230A12E2
:100458008A1128300A168A1125230A128A11553062
:100468000A168A1125230A128A1129300A168A11B6
:1004780025230A128A113A300A168A1125230A12EC
:100488008A113608303E0A168A1125230A128A1163
:100498003808303E0A168A1125230A128A11793043
:1004A800E5006508C9000130A8070318A90A00304B
:1004B800A9070A168A11E9220A128A11831203135C
:1004C8000714871007158715071AC62A0230280649
:1004D8002904031DC62A88300A168A113C230A12E9
:1004E8008A114E300A168A1125230A128A11693098
:1004F8000A168A1125230A128A1167300A168A11E8
:1005080025230A128A1168300A168A1125230A122D
:100518008A1174300A168A1125230A128A11283082
:100528000A168A1125230A128A114C300A168A11D2
:1005380025230A128A1129300A168A1125230A123C
:100548008A113A300A168A1125230A128A11303084
:100558000A168A1125230A128A1130300A168A11BE
:1005680025230A128A117930E5006508C90001308F
:10057800A8070318A90A0030A9070A168A11E92250
:100588000A128A1183120313071A282B033028062C
:100598002904031D282B0130A8070318A90A0030D5
:1005A800A90788300A168A113C230A128A11443096
:1005B8000A168A1125230A128A1161300A168A112D
:1005C80025230A128A1179300A168A1125230A125C
:1005D8008A1128300A168A1125230A128A114C30EA
:1005E8000A168A1125230A128A1129300A168A1135
:1005F80025230A128A113A300A168A1125230A126B
:100608008A1120300A168A1125230A128A112030ED
:100618000A168A1125230A128A113408303E0A164E
:100628008A1125230A128A113208303E0A168A11C5
:1006380025230A128A117830E5006508C9000A16D0
:100648008A11E9220A128A1183120313B001B10137
:10065800AE01AF01AC01AD01AA01AB01AC01AD0126
:100668000710871407158715071B722B2E08E5003E
:100678006508CF003008E5006508CE00AE01AF017F
:10068800B001B101AC01AD01B001B10101300A16F0
:100698008A113C230A128A1153300A168A1125231B
:1006A8000A128A1141300A168A1125230A128A1160
:1006B80056300A168A1125230A128A1145300A165D
:1006C8008A1125230A128A1144300A168A11252311
:1006D8000A128A110A168A11E922080007108714DB
:1006E80007158715871B722801300A168A113C23C3
:1006F800AE01AF01B001B101AC01AD01B001B10172
:100708000800831203130710871407158715071AA3
:10071800080001300A168A113C230A128A11803017
:100728000A168A113C230A128A1144300A168A11C1
:1007380025230A128A1161300A168A1125230A1202
:100748008A1174300A168A1125230A128A11653013
:100758000A168A1125230A128A115F300A168A118D
:1007680025230A128A1153300A168A1125230A12E0
:100778008A1165300A168A1125230A128A117430E3
:100788000A168A1125230A128A1174300A168A1148
:1007980025230A128A1169300A168A1125230A129A
:1007A8008A116E300A168A1125230A128A116730B7
:1007B8000A168A1125230A128A1173300A168A1119
:1007C80025230A128A110714871007158715871B16
:1007D8005D2C78304906031D5D2C22032304031D7C
:1007E800F92B0130E5006508CA0722082304031D18
:1007F800012C0130A2000030A3000130AC0703181F
:10080800AD0A0030AD072D08F8002C08F7000A30B3
:10081800F9000030FA000A168A11C5220A128A1154
:100828007808AD007708AC0020032104031D352C9F
:100838002B08E1002A08E0002D08E3002C08E2005C
:100848003030E5006508E4000A168A11F8230A1218
:100858008A11E600E7016608AA006708AB00A00154
:10086800A10109302C062D04031D3E2C0130A000E7
:100878000030A1004330E5006508F0004A080A1678
:100888008A11A7220A128A11E6006608CA002A03FA
:100898002B04031D582C03302C062D04031D582C43
:1008A800AC01AD01AA01AB010A168A11E9220A12AC
:1008B8008A1183120313871BE52C79304906031D1F
:1008C800E52C22032304031D6D2C0130E500650887
:1008D800C70722082304031D752C0130A20000302D
:1008E800A3000130A6070318A70A0030A7072708A6
:1008F800F8002608F7000A30F9000030FA000A1656
:100908008A11C5220A128A117808A7007708A6005A
:100918002708F8002608F7000830F9000030FA0028
:100928000A168A11C5220A128A1178088316A800A5
:100938007708A700831220032104031DBC2C250877
:10094800E1002408E0002708E3002608E200303030
:10095800E5006508E4000A168A11F8230A128A11CC
:10096800E600E7016608A4006708A500A001A10148
:10097800093026062704031DC52C0130A0000030CD
:10098800A1006330E5006508F00047080A168A11DF
:10099800A7220A128A11E6006608C7000330240657
:1009A8002504031DE02C023026062704031DE02C35
:1009B800A401A501A601A7010A168A11E9220A12B3
:1009C8008A1183120313871B4C2D7A304906031DA5
:1009D8004C2D22032304031DF52C0130E500650886
:1009E800C80722082304031DFD2C0130A200003093
:1009F800A3000130B0070318B10A0030B10731086D
:100A0800F8003008F7000A30F9000030FA000A163A
:100A18008A11C5220A128A117808B1007708B00035
:100A280020032104031D312D2F08E1002E08E000CA
:100A38003108E3003008E2003030E5006508E400E2
:100A48000A168A11F8230A128A11E600E7016608D5
:100A5800AE006708AF00A001A101093030063104DB
:100A6800031D3A2D0130A0000030A1005A3048067D
:100A78000319C80106302E062F04031D472DAE01A9
:100A8800AF01B001B1010A168A11E9220A128A11CE
:100A9800113083120313E5006508F0003930E600D1
:100AA8006608F1000130F2000030F3004A080A122B
:100AB8008A15BE210A128A11E7006708CA00113098
:100AC800E5006508F0003930E6006608F1000230FC
:100AD800F2000030F30047080A128A15BE210A12F4
:100AE8008A11E7006708C7002130E5006508F000B3
:100AF8004A30E6006608F1000230F2000030F300E8
:100B080047080A128A15BE210A128A11E7006708E7
:100B1800C7001130E5006508F0003930E6006608C6
:100B2800F1000230F2000030F30047080A128A157B
:100B3800BE210A128A11E7006708C7002130E500C4
:100B48006508F0004A30E6006608F1000230F2005D
:100B58000030F30047080A128A15BE210A128A11CA
:100B6800E7006708C7003130E5006508F000593034
:100B7800E6006608F1000230F2000030F300470892
:100B88000A128A15BE210A128A11E7006708C700EF
:100B98001130E5006508F0003930E6006608F1001C
:100BA8000330F2000030F30048080A128A15BE210B
:100BB8000A128A11E7006708C8002130E5006508B5
:100BC800F0004A30E6006608F1000330F200003019
:100BD800F30048080A128A15BE210A128A11E70092
:100BE8006708C8001130E5006508F0003930E600F4
:100BF8006608F1000330F2000030F30048080A12DA
:100C08008A15BE210A128A11E7006708C800213038
:100C1800E5006508F0004A30E6006608F100033098
:100C2800F2000030F30048080A128A15BE210A12A1
:100C38008A11E7006708C8003130E5006508F00050
:100C48005930E6006608F1000330F2000030F30086
:100C580048080A128A15BE210A128A11E700670895
:100C6800C8004130E5006508F0006A30E600660813
:100C7800F1000330F2000030F30048080A128A1528
:100C8800BE210A128A11E7006708C8005130E50042
:100C98006508F0007A30E6006608F1000330F200DB
:100CA8000030F30048080A128A15BE210A128A1178
:100CB800E7006708C80022082304031D712E4508B1
:100CC800E50065088316B70083124308E500650848
:100CD8008316B90083124408822E22032304031DBD
:100CE800862E4A08E50065088316B700831248086F
:100CF800E50065088316B90083124708E500650812
:100D08008316B60088300A168A113C230A128A1103
:100D18000710871407158715071BAB2E0A168A11AB
:100D280042240A128A11CA01C801C701A401A501F7
:100D3800A601A701AC01AD01AA01AB01AE01AF014B
:100D4800B001B10101300A168A113C2308000710CE
:100D58008714071587152908F8002808F7000330B5
:100D6800F9000030FA000A168A11C5220A128A11FF
:100D78007808A9007708A800071A012F280829046D
:100D8800031D012F90300A168A113C230A128A117A
:100D980044300A168A1125230A128A1161300A166C
:100DA8008A1125230A128A1179300A168A112523F5
:100DB8000A128A113A300A168A1125230A128A1150
:100DC80020300A168A1125230A128A1120300A16A1
:100DD8008A1125230A128A117930E5006508C900AD
:100DE8000A168A11E9220A128A11013083120313A2
:100DF800A8070318A90A0030A907071087140715C0
:100E08008715071A442F28032904031D442F01308E
:100E1800A8070318A90A0030A9070A168A11E922A7
:100E28000A128A1190300A168A113C230A128A1172
:100E38004D300A168A1125230A128A116F300A16B4
:100E48008A1125230A128A116E300A168A1125235F
:100E58000A128A1174300A168A1125230A128A1175
:100E680068300A168A1125230A128A113A300A169E
:100E78008A1125230A128A117830E5006508C9000D
:100E88000710871407158715071A8A2F02302806B6
:100E98002904031D8A2F0A168A11E9220A128A11C7
:100EA800013083120313A8070318A90A0030A90701
:100EB80090300A168A113C230A128A1159300A16F0
:100EC8008A1125230A128A1165300A168A112523E8
:100ED8000A128A1161300A168A1125230A128A1108
:100EE80072300A168A1125230A128A113A300A1614
:100EF8008A1125230A128A1120300A168A112523FD
:100F08000A128A117A30E5006508C90088300A1685
:100F18008A113C230A128A112408303E0A168A11C3
:100F280025230A128A112608303E0A168A1125231B
:100F38000A128A112F300A168A1125230A128A11D9
:100F48002A08303E0A168A1125230A128A112C080B
:100F5800303E0A168A1125230A128A112F300A16E2
:100F68008A1125230A128A112E08303E0A168A1180
:100F780025230A128A113008303E0A168A112523C1
:100F88000A128A110710871407158715871B932BD8
:100F9800CA01C801C701AC01AD01AA01AB01AE018C
:100FA800AF01B001B101A401A501A601A70101305B
:100FB8000A168A113C2308008313BB30FD00003059
:100FC800FE000430FF00B33084000A128A150520A1
:100FD8000A128A11A0308400B3300A168A119122AD
:100FE8000A128A112030840060300A168A11912270
:080FF80083010A128A15152B72
:101002007E088A007F08820001200A128A15800069
:10101200840A04087D0603190034FF0A0319FE0A34
:10102200052886181D2883162308F3007308A000DC
:101032002408F3007308A10083162208F039F30094
:10104200F4017308F5007408F600750E0F39F50007
:10105200760EF039F504760E0F39F600F030F61DF3
:101062000030F6047508303E0A168A1125230A124A
:101072008A157508F3007308CB00831622080F390E
:10108200F300F4017308F5007408F6007508303EA9
:101092000A168A1125230A128A153A300A168A116B
:1010A20025230A128A157508F3007308CC008316EB
:1010B2002108F039F300F4017308F5007408F60012
:1010C200750E0F39F500760EF039F504760E0F39EC
:1010D200F600F030F61D0030F6047508303E0A16B0
:1010E2008A1125230A128A15831621080F39F30063
:1010F200F4017308F5007408F6007508303E0A160C
:101102008A1125230A128A153A300A168A112523D2
:101112000A128A1583162008F039F300F4017308C5
:10112200F5007408F600750E0F39F500760EF039E9
:10113200F504760E0F39F600F030F61D0030F60495
:101142007508303E0A168A1125230A128A1583165B
:1011520020080F39F300F4017308F5007408F60053
:101162007508303E0A168A112523080083160914D1
:101172000A168A115A250A128A15CC300A168A11C1
:101182008E250A128A150A168A11FD220A128A155A
:1011920044300A168A118E250A128A150A168A11F5
:1011A2005A250A128A15CC300A168A118E250A127D
:1011B2008A15BE300A168A118E250A128A150A1657
:1011C2008A1126250A128A1583120313E000600889
:1011D200DF000A168A1126250A128A1583120313C2
:1011E200E0006008DE008316091483125E08E00046
:1011F20004300310E00DFF3E031DFA283F30600566
:10120200E1005F08E20004300310E20CFF3E031D20
:10121200052962086104E3006308DD005F08E0005D
:1012220003300310E00DFF3E031D12290310600D71
:10123200E1006108DC000A30E0006008F0005D08AF
:101242000A168A11B2230A128A15E1006108DA002D
:101252000A30E0006008F0005D080A168A11912346
:101262000A128A15E1006108DB00BE01BF01DC1F22
:1012720042293E08883EBE003F080318013E133E45
:10128200BF005C1F4C293E08C43EBE003F08031845
:10129200013E093EBF00DC1E56293E08E23EBE006A
:1012A2003F080318013E043EBF005C1E60293E0851
:1012B200713EBE003F080318013E023EBF00E83007
:1012C200F6000330F7003F08F9003E08F8000A165E
:1012D2008A11C4250A128A157608E0006008D9002E
:1012E2006430F6000030F7003F08F3003E08F200D9
:1012F200E830F0000330F1000A168A11F4240A12D1
:101302008A157108F9007008F8000A168A11C425B6
:101312000A128A157608E0006008D8000A30F60042
:101322000030F7003F08F3003E08F2006430F0009E
:101332000030F1000A168A11F4240A128A15710883
:10134200F9007008F8000A168A11C4250A128A15D3
:101352007608E0006008D7000A30F0000030F100A3
:101362003F08F3003E08F2000A168A11F4247008BE
:10137200E0006008D60000000800F6007608303E63
:10138200F400003003180130F5007108740675048A
:10139200031D132B7008F4007408F600A201A301C8
:1013A20039307106031DDD2972037304031DDD2923
:1013B2000930F4007408C5004A307106031DE9299A
:1013C20072037304031DE9291930F4007408C5007F
:1013D20059307106031DF52972037304031DF529A3
:1013E2002930F4007408C5006A307106031D012A11
:1013F20072037304031D012A3930F4007408C50016
:101402007A307106031D0D2A72037304031D0D2A1F
:101412004930F4007408C50039307106031D1A2AD8
:10142200023072067304031D1A2A0930F40074088C
:10143200C4004A307106031D272A02307206730463
:10144200031D272A1930F4007408C40059307106AC
:10145200031D342A023072067304031D342A293014
:10146200F4007408C4006A307106031D412A023078
:1014720072067304031D412A3930F4007408C40053
:101482007A307106031D4E2A023072067304031D60
:101492004E2A4930F4007408C40039307106031D25
:1014A2005B2A033072067304031D5B2A0930F400C1
:1014B2007408C3004A307106031D682A033072069D
:1014C2007304031D682A1930F4007408C3005930EC
:1014D2007106031D752A033072067304031D752AF3
:1014E2002930F4007408C3006A307106031D822A91
:1014F200033072067304031D822A3930F400740823
:10150200C3007A307106031D8F2A033072067304FA
:10151200031D8F2A4930F4007408C3003930710664
:10152200031D9C2A043072067304031D9C2A093091
:10153200F4007408C2004A307106031DA92A04305F
:1015420072067304031DA92A1930F4007408C2003C
:1015520059307106031DB62A043072067304031D46
:10156200B62A2930F4007408C2006A307106031DDD
:10157200C32A043072067304031DC32A3930F400EF
:101582007408C2007A307106031DD02A0430720634
:101592007304031DD02A4930F4007408C2003930A4
:1015A2007106031DDD2A053072067304031DDD2A50
:1015B2000930F4007408C1004A307106031DEA2A9A
:1015C200053072067304031DEA2A1930F400740808
:1015D200C10059307106031DF72A053072067304E3
:1015E200031DF72A2930F4007408C1006A3071061D
:1015F200031D042B053072067304031D042B3930BE
:10160200F4007408C1007A307106031D112B0530F5
:1016120072067304031D112B4930F4007408C100D3
:101622000130F602760808000230831686000A1698
:101632008A1184220A128A150A168A1142240A126F
:101642008A150A168A11B6220A128A150A168A11F0
:1016520089220A128A150A168A11D5230A128A15B4
:101662000A168A1184220A128A150A168A1111236D
:101672000A128A150330E8006808CF000430E80037
:101682006808CE000430B8000030B9000230B6005D
:101692000030B7000130B4000030B5000930B200AC
:1016A2000030B3000A128A15B7200A128A150A16E8
:1016B2008A116A240A128A1580300A168A113C237A
:1016C2000A128A1554300A168A1125230A128A151B
:1016D20065300A168A1125230A128A156D300A16F8
:1016E2008A1125230A128A1570300A168A112523B7
:1016F2000A128A153A300A168A1125230A128A1505
:101702000A168A1170230A128A1590300A168A1153
:101712003C230A128A1544300A168A1125230A121A
:101722008A1561300A168A1125230A128A15743025
:101732000A168A1125230A128A1565300A168A1199
:1017420025230A128A153A300A168A1125230A120B
:101752008A1520300A168A1125230A128A150A16BA
:101762008A1163270A128A1588300A168A113C23C5
:101772000A128A1554300A168A1125230A128A156A
:1017820069300A168A1125230A128A156D300A1643
:101792008A1125230A128A1565300A168A11252311
:1017A2000A128A153A300A168A1125230A128A1554
:1017B2000A128A1512200A128A150A128A11662042
:1017C2000A128A150A128A1185230A128A150A1226
:1017D2008A1501250A128A1598300A168A113C23A5
:1017E2000A128A154B08303EE80000300318013017
:1017F200E9000030690202300319680203184B2C19
:101802004C08303EE800003003180130E900003097
:10181200690208300319680203184B2C4F08E800CC
:10182200E9016808F3006908F4004E08EA00EB01D8
:101832006A08F5006B08F6000A168A1100260A12D9
:101842008A15EC006C08CD004F08E800E901680831
:10185200F3006908F4004E08EA00EB016A08F5009B
:101862006B08F6000A168A1194260A128A15EC00F1
:101872006C08CD003508F4003408F3003308F60094
:101882003208F5000A128A110C200A128A15E800A1
:101892006808CD004B08303EE800003003180130E4
:1018A200E900680869040319922C4C08303EE800EC
:1018B200003003180130E9000030690208300319D2
:1018C2006802031C922C3708F4003608F30039082A
:1018D200F6003808F5000A168A1100260A128A153F
:1018E200E8006808CD003708F4003608F30039082C
:1018F200F6003808F5000A168A1194260A128A158B
:10190200E8006808CD000030F300F4000030F50074
:10191200F6000A128A110C200A128A15E8006808D9
:10192200CD000A168A1196240A128A15E800680860
:10193200CD004D080A168A1153230A128A15203047
:101942000A168A1125230A128A1548300A168A11A4
:1019520025230A128A153A300A168A1125230A12F9
:101962008A1551080A168A1125230A128A1543304C
:101972000A168A1125230A128A153A300A168A1182
:1019820025230A128A1550080A168A1125230A12DB
:101992008A15ED01EE0120300A168A1125230A125A
:1019A2008A150130ED070318EE0A0030EE076E08C3
:1019B200803AFF0080307F02031DE12C03306D026C
:1019C200031CCC2C831203132708F8002608F70007
:1019D2000830F9000030FA000A168A11C5220A12EC
:1019E2008A1578088316A8007708A7002808F4004B
:1019F2002708F3000A168A11EA260A128A15532BBF
:101A02000714871407118715071A080001300A16F0
:101A12008A113C230A128A1580300A168A113C2345
:101A22000A128A1554300A168A1125230A128A15B7
:101A320069300A168A1125230A128A156D300A1690
:101A42008A1125230A128A1565300A168A1125235E
:101A52000A128A155F300A168A1125230A128A157C
:101A620053300A168A1125230A128A1565300A167E
:101A72008A1125230A128A1574300A168A1125231F
:101A82000A128A1574300A168A1125230A128A1537
:101A920069300A168A1125230A128A156E300A162F
:101AA2008A1125230A128A1567300A168A112523FC
:101AB2000A128A1573300A168A1125230A128A1508
:101AC2000714871007158715871BD82D783049060C
:101AD200031DD82D22032304031D732D0130E500BD
:101AE2006508CA0722082304031D7B2D0130A200CA
:101AF2000030A3000130AC070318AD0A0030AD0777
:101B02002D08F8002C08F7000A30F9000030FA001E
:101B12000A168A11C5220A128A157808AD007708BA
:101B2200AC0020032104031DAF2D2B08E1002A087D
:101B3200E0002D08E3002C08E2003030E5006508E3
:101B4200E4000A168A11F8230A128A15E600E70150
:101B52006608AA006708AB00A001A10109302C06A3
:101B62002D04031DB82D0130A0000030A100543017
:101B7200E5006508F0004A080A168A11A7220A122F
:101B82008A15E6006608CA0002302A062B04031DE5
:101B9200D32D04302C062D04031DD32DAC01AD0131
:101BA200AA01AB010A168A11E9220A128A158312C6
:101BB2000313871B3F2E79304906031D3F2E220354
:101BC2002304031DE82D0130E5006508C80722083B
:101BD2002304031DF02D0130A2000030A3000130C8
:101BE200B0070318B10A0030B1073108F800300815
:101BF200F7000A30F9000030FA000A168A11C522ED
:101C02000A128A157808B1007708B000200321046F
:101C1200031D242E2F08E1002E08E0003108E30006
:101C22003008E2003030E5006508E4000A168A1147
:101C3200F8230A128A15E600E7016608AE00670873
:101C4200AF00A001A101093030063104031D2D2E81
:101C52000130A0000030A1005A3048060319C80123
:101C620006302E062F04031D3A2EAE01AF01B0013D
:101C7200B1010A168A11E9220A128A1588300A1657
:101C82008A113C230A128A1522082304031D512EAD
:101C92004208E50065088316B500831241085C2EF0
:101CA20022032304031D602E4A08E50065088316FB
:101CB200B50083124808E50065088316B4001130A8
:101CC2008312E5006508F0003930E6006608F1008D
:101CD2000430F2000030F3004A080A128A15BE21CD
:101CE2000A128A15E7006708CA002130E500650874
:101CF200F0004A30E6006608F1000430F2000030DD
:101D0200F3004A080A128A15BE210A128A15E70050
:101D12006708CA001130E5006508F0003930E600B6
:101D22006608F1000530F2000030F30048080A129C
:101D32008A15BE210A128A15E7006708C8002130F9
:101D4200E5006508F0004A30E6006608F10005305B
:101D5200F2000030F30048080A128A15BE210A1266
:101D62008A15E7006708C8003130E5006508F00011
:101D72005930E6006608F1000530F2000030F30049
:101D820048080A128A15BE210A128A15E700670856
:101D9200C8004130E5006508F0006A30E6006608D8
:101DA200F1000530F2000030F30048080A128A15EB
:101DB200BE210A128A15E7006708C8005130E50003
:101DC2006508F0007A30E6006608F1000530F2009E
:101DD2000030F30048080A128A15BE210A128A1539
:101DE200E7006708C8000710871407158715071B47
:101DF2000E2F01300A168A113C230A128A150A167E
:101E02008A114224CA01C801AC01AD01AA01AB0189
:101E1200AE01AF01B001B101080007148714071128
:101E220087152908F8002808F7000230F900003069
:101E3200FA000A168A11C5220A128A157808A90020
:101E42007708A800071A5E2F28082904031D5E2FB1
:101E520090300A168A113C230A128A1548300A1653
:101E62008A1125230A128A156F300A168A11252330
:101E72000A128A1575300A168A1125230A128A1542
:101E820072300A168A1125230A128A153A300A1666
:101E92008A1125230A128A157830E5006508C900DF
:101EA2000A168A11E9220A128A15013083120313D3
:101EB200A8070318A90A0030A907071487140711F5
:101EC2008715071A9B2F28032904031D9B2F013016
:101ED200A8070318A90A0030A9070A168A11E922DD
:101EE2000A128A1590300A168A113C230A128A15A0
:101EF2004D300A168A1125230A128A1569300A16EC
:101F02008A1125230A128A156E300A168A11252390
:101F12000A128A1573300A168A1125230A128A15A3
:101F22003A300A168A1125230A128A157930E500F9
:101F32006508C90088300A168A113C230A128A15DC
:101F4200071487140711871588300A168A113C2353
:101F52000A128A1554300A168A1125230A128A1582
:101F620069300A168A1125230A128A156D300A165B
:101F72008A1125230A128A1565300A168A11252329
:101F82000A128A153A300A168A1125230A128A156C
:101F92002A08303E0A168A1125230A128A152C08AD
:101FA200303E0A168A1125230A128A153A300A1679
:101FB2008A1125230A128A152E08303E0A168A1122
:101FC20025230A128A153008303E0A168A11252363
:101FD2000A128A150710871407158715871B0D2DFE
:101FE200CA01C801AC01AD01AA01AB01AE01AF014A
:0E1FF200B001B10101300A168A113C2308002B
:1025080083168901831289010800073083169F000A
:102518000514880181018901080064008001840A8A
:102528000406031900340406922AF2007008F10028
:102538007108F3000130F302031D9E2A0130F202F4
:10254800031908009A2AF3007308303EF10000309E
:1025580003180130F2007008710672040319F301C0
:10256800730808000610861286168E300A168A111D
:102578001C240A168A1100300A168A111C24861295
:1025880008007A08F1007908F0007808F300770865
:10259800F2000A168A1149267108F8007008F70037
:1025A8000800F001F1010130F0070318F10A0030CA
:1025B800F1077108803AFF0080307F02031DE62A88
:1025C8000530700203180800D72AF001F101013024
:1025D800F0070318F10A0030F1077108803AFF008C
:1025E800A7307F02031DFA2A103070020318080072
:1025F800EB2AF001F1010130F0070318F10A00306D
:10260800F1077108803AFF0080307F02031D0E2B0E
:102618003230700203180800FF2A063083169F0024
:10262800F03087008312CA01C901C801A801A901B5
:10263800A601A7010130A2000030A300A001A1015A
:102648000800F200831203138516051285110A1675
:102658008A11D5220A168A11831203138515720866
:1026680088000A168A11D5228312031385110800DF
:10267800F200831203138512051285110A168A11B6
:10268800D5220A168A118312031385157208880049
:102698000A168A11D5228312031385110800F20045
:1026A80077307206031D6C2B09150A168A11E92268
:1026B8000A168A118312031309110A168A11E922CC
:1026C8000A168A118312031309150A168A11E922B8
:1026D80083120313091108005B08303E0A168A1199
:1026E80025230A168A115A08303E0A168A1125230C
:1026F8000A168A112E300A168A1125230A168A11FB
:102708005908303E0A168A1125230A168A115808D4
:10271800303E0A168A1125230800F200F4017008D9
:102728000319B02BF301F30AF01BA12B0310F00DD2
:102738000130F1007108F307982B0310F40D7008AD
:102748007202031CAB2B7008F20274140310F00C15
:102758000130F302031DA12B74080800F4000830AF
:10276800F1007108F500F6017408F1000730031054
:10277800F10CFF3E031DBB2B7608F20072077104B3
:10278800F3007308F6000310F40D70087602031CBA
:10279800CF2B7008F6020130F502031DB82B76081E
:1027A80008008501831205100A168A11D5220A1617
:1027B8008A11831203130514051530300A168A117D
:1027C8003C230A168A1101300A168A113C230A167C
:1027D8008A1106300A168A113C230A168A110C300F
:1027E8000A168A113C2308006208303EFB00630881
:1027F8000318013E003EFC0064087B067C04031DB0
:102808001A2C0130E0070318E10A0030E1076108DB
:10281800F8006008F7000A30F9000030FA000A16DC
:102828008A11C5227808E1007708E00060080800EE
:10283800F400F201F3018312031306120610741850
:1028480006167408F0000310700CF1007108F4000B
:1028580006140130F2070318F30A0030F30773086F
:10286800803AFF0080307F02031D3C2C0830720242
:10287800031C1F2C83120313061008008616BE3093
:102888000A168A111C240A168A11F501F601750820
:10289800B33E8400831300080A168A111C240A1602
:1028A8008A110130F5070318F60A0030F607760892
:1028B800803AFF0080307F02031D642C08307502C7
:1028C800031C4B2C83120313861208008312031374
:1028D8008616BF300A168A111C240A168A11F601B8
:1028E800F7010A168A11C4240A168A11F500760817
:1028F800A03E84007508831380000130F607031892
:10290800F70A0030F7077708803AFF0080307F0227
:10291800031D902C07307602031C752C83120313B9
:10292800861208000714871407158711071AC22C86
:102938008316B101B2017830F30073088312D30013
:10294800BC01BD0152300A168A1125230A168A11C4
:1029580045300A168A1125230A168A1153300A1699
:102968008A1125230A168A1145300A168A11252349
:102978000A168A1154300A168A11252353080800AA
:10298800F401831603130616F201F30183120313ED
:1029980006107408F0000310700CF1007108F400C0
:1029A800061EDB2C74088038F0007008F40006144A
:1029B8000130F2070318F30A0030F3077308803A6E
:1029C800FF0080307F02031DEB2C08307202031CCD
:1029D800CA2C831603130612831206107408080003
:1029E800700871040319212DF501F50AF11B082D52
:1029F80001300310F00DF10DFF3E031DFD2C0130D9
:102A0800F4007408F507FA2C71087302031D0E2DE3
:102A180070087202031C162D7008F2027108031C5C
:102A2800F303F30201300310F10CF00CFF3E031D19
:102A3800172D0130F502031D082D7308F1007208E7
:102A4800F0000800F5010830F4007408F6000310DF
:102A5800F50C8312031309108316091000000000F7
:102A68000000000000000000831603130914000092
:102A78000000000000000000003083120313091852
:102A88000130C0004008031DF5170730F400740832
:102A9800F00002300A168A1199220A168A110130AA
:102AA800F6027608031D2B2D75080800F501F50AB6
:102AB80075080319080083120313091083160910F7
:102AC8004630F4007408F00002300A168A11992280
:102AD8000A168A118316031309140830F4007408BF
:102AE800F00002300A168A1199220A168A118312F6
:102AF8000313091C822DF501F50A832DF5013C30DD
:102B0800F4007408F00002300A168A1199220A1695
:102B18008A115C2DF7000830F4007408F800770873
:102B28000139F4007408F6008312031309108316A0
:102B38000910000000000000000000007603031DDB
:102B4800A82D8316031309140730F4007408F00045
:102B580002300A168A1199220A168A11831603135B
:102B68000914000000007708F4000310740CF50045
:102B78007508F7000130F802780803190800932D4A
:102B8800FB01FC01760877040319FB2DFD01FD0A02
:102B9800F71BDA2D01300310F60DF70DFF3E031D6C
:102BA800CF2D0130FA007A08FD07CC2D0130031033
:102BB800FB0DFC0DFF3E031DDB2D77087902031D7D
:102BC800E72D76087802031CF02D7608F8027708BE
:102BD800031CF903F9027B1401300310F70CF60CFF
:102BE800FF3E031DF12D0130FD02031DDA2D7C0887
:102BF800F7007B08F60008007408803AF700803078
:102C08007702031D092E5B087302031C452E760804
:102C1800803AF70080307702031D162E83120313C3
:102C28005A087502031C452E023083160313B1009F
:102C38000030B2007830F70077088312D3003030C4
:102C4800F7007708D1003030F7007708D000BC01D2
:102C5800BD01BA01BB014F300A168A1125230A1695
:102C68008A114B300A168A1125230A168A11203038
:102C78000A168A1125230A168A1120300A168A1183
:102C880025238312031353080800F601F31F532E5C
:102C9800F209F309F20A0319F30AF601F60AF11F19
:102CA8005A2EF009F109F00A0319F10A70087104A3
:102CB8000319872EF501F50AF11B6E2E013003105A
:102CC800F00DF10DFF3E031D632E0130F400740872
:102CD800F507602E71087302031D742E70087202C6
:102CE800031C7C2E7008F2027108031CF303F30224
:102CF80001300310F10CF00CFF3E031D7D2E013056
:102D0800F502031D6E2E760803198F2EF209F309BA
:102D1800F20A0319F30A7308F1007208F0000800B8
:102D28007408803A803C031D9B2E73085B02031CC9
:102D3800E62E7608803A803C031DA62E750883127D
:102D480003135A02031CE62E013083120313BC0737
:102D58000318BD0A0030BD073030F7007708D100EE
:102D68003130F7007708D00057300A168A1125232A
:102D78000A168A1141300A168A1125230A168A1161
:102D880052300A168A1125230A168A114D300A165E
:102D98008A1125230A168A1103303D02E9300319E6
:102DA8003C02031CE62E2D30F7007708D0000230D5
:102DB800831631063204031DE62E7730F7007708B4
:102DC8008312D30083120313530808007303740497
:102DD8000319F22E73087404031DFE2E4D300A16D3
:102DE8008A1125230A168A116F300A168A1125239B
:102DF8000A168A11023073067404031D0F2F54300B
:102E08000A168A1125230A168A1175300A168A119C
:102E180025230A168A11033073067404031D202F14
:102E280057300A168A1125230A168A1165300A16A0
:102E38008A1125230A168A11043073067404031DA7
:102E4800312F54300A168A1125230A168A11683040
:102E58000A168A1125230A168A1105307306740486
:102E6800031D422F46300A168A1125230A168A1195
:102E780072300A168A1125230A168A11063073063B
:102E88007404031D532F53300A168A1125230A167A
:102E98008A1161300A168A1125230A168A11073009
:102EA80073067404031D080053300A168A1125237B
:102EB8000A168A1175300A168A1125230800861801
:102EC8006E2F83162308F3007308A0002408F3006C
:102ED8007308A10083162308F039F300F40173087E
:102EE800F5007408F600750E0F39F500760EF03906
:102EF800F504760E0F39F600F030F61D0030F604B2
:102F08007508303E0A168A1125230A168A11831677
:102F180023080F39F300F4017308F5007408F6006C
:102F28007508303E0A168A1125230A168A112F3091
:102F38000A168A1125230A168A1183162408F039DD
:102F4800F300F4017308F5007408F600750E0F39E4
:102F5800F500760EF039F504760E0F39F600F030EC
:102F6800F61D0030F6047508303E0A168A1125232E
:102F78000A168A11831624080F39F300F40173081E
:102F8800F5007408F6007508303E0A168A112523E4
:102F98000A168A112F300A168A1125230A168A1151
:102FA80083162608F039F300F4017308F500740855
:102FB800F600750E0F39F500760EF039F504760E29
:102FC8000F39F600F030F61D0030F6047508303E73
:102FD8000A168A1125230A168A11831626080F391C
:102FE800F300F4017308F5007408F6007508303E24
:082FF8000A168A1125230800C6
:02400E00323F3F
:00000001FF
