:020000040000FA
:060000000A128A11E82F2C
:10000E005708F700F80174087806031D10287308C6
:10001E007706031D1D287608803AF7008030770298
:10002E00031D1B285608750203182A288312031372
:10003E005608F700F80176087806031D282875087B
:10004E007706031D0800023083120313A900003047
:10005E00AA007830F7007708C9004F300A168A11C7
:10006E00E5260A128A114B300A168A11E5260A1263
:10007E008A1120300A168A11E5260A128A112030BA
:10008E000A168A11E526080073037404031953280F
:10009E0073087404031D65284D300A168A11E5266F
:1000AE000A128A116F300A168A11E5260A128A116F
:1000BE006E300A168A11E5260A128A11023073066C
:1000CE007404031D7C2854300A168A11E5260A1280
:1000DE008A1175300A168A11E5260A128A116530C0
:1000EE000A168A11E5260A128A1103307306740461
:1000FE00031D932857300A168A11E5260A128A1113
:10010E0065300A168A11E5260A128A1164300A161B
:10011E008A11E5260A128A11043073067404031D2F
:10012E00AA2854300A168A11E5260A128A11683056
:10013E000A168A11E5260A128A1175300A168A11D4
:10014E00E5260A128A11053073067404031DC128B0
:10015E0046300A168A11E5260A128A1172300A16DC
:10016E008A11E5260A128A1169300A168A11E526C5
:10017E000A128A11063073067404031DD8285330F0
:10018E000A168A11E5260A128A1161300A168A1198
:10019E00E5260A128A1174300A168A11E5260A1209
:1001AE008A11073073067404031D080053300A16B3
:1001BE008A11E5260A128A1175300A168A11E52669
:1001CE000A128A116E300A168A11E52608000714E3
:1001DE00871407118715071A080001300A168A11AD
:1001EE00FC260A128A1180300A168A11FC260A127F
:1001FE008A1154300A168A11E5260A128A116930BC
:10020E000A168A11E5260A128A116D300A168A110B
:10021E00E5260A128A1165300A168A11E5260A1297
:10022E008A115F300A168A11E5260A128A11533096
:10023E000A168A11E5260A128A1165300A168A11E3
:10024E00E5260A128A1174300A168A11E5260A1258
:10025E008A1174300A168A11E5260A128A1169303B
:10026E000A168A11E5260A128A116E300A168A11AA
:10027E00E5260A128A1167300A168A11E5260A1235
:10028E008A1173300A168A11E5260A128A1107148A
:10029E00871007158715871BC52978305006031D53
:1002AE00C52931033204031D60290130E1006108C4
:1002BE00D10731083204031D68290130B100003026
:1002CE00B2000130BD070318BE0A0030BE073E085B
:1002DE00F8003D08F7000A30F9000030FA000A165F
:1002EE008A1172260A128A117808BE007708BD009C
:1002FE002F033004031D9C293C08DD003B08DC0065
:10030E003E08DF003D08DE003030E1006108E0000D
:10031E000A168A11B8270A128A11E200E30162084E
:10032E00BB006308BC00AF01B00109303D063E04BE
:10033E00031DA5290130AF000030B0005430E1009C
:10034E006108F00051080A168A1154260A128A1101
:10035E00E2006208D10002303B063C04031DC029B6
:10036E0004303D063E04031DC029BD01BE01BB0184
:10037E00BC010A168A1193260A128A1183120313DC
:10038E00871B432A79305006031D432A310332045A
:10039E00031DD5290130E1006108CF073108320471
:1003AE00031DDD290130B1000030B2000130C1075C
:1003BE000318C20A0030C2074208F8004108F700CD
:1003CE000A30F9000030FA000A168A1172260A1253
:1003DE008A117808C2007708C1002F033004031D6C
:1003EE00112A4008DD003F08DC004208DF0041080A
:1003FE00DE003030E1006108E0000A168A11B827ED
:10040E000A128A11E200E3016208BF006308C0000D
:10041E00AF01B001093041064204031D1A2A013012
:10042E00AF000030B0004008DD003F08DC0042089D
:10043E00DF004108DE003930E1006108E0000A16F5
:10044E008A11B8270A128A11E200E3016208BF007E
:10045E006308C0005A304F060319CF0106303F061D
:10046E004004031D3E2ABF01C001C101C2010A168C
:10047E008A1193260A128A1188300A168A11FC26CE
:10048E000A128A115108E1006108EA004F08E100E2
:10049E006108E9001130E1006108F0003930E20036
:1004AE006208F10051080A128A1500200A128A11F8
:1004BE00E3006308D1002130E1006108F0004A300A
:1004CE00E2006208F10051080A128A1500200A1291
:1004DE008A11E3006308D1001130E1006108F000D9
:1004EE003930E2006208F1004F080A128A15002026
:1004FE000A128A11E3006308CF002130E10061087F
:10050E00F0004A30E2006208F1004F080A128A1524
:10051E0000200A128A11E3006308CF003130E10097
:10052E006108F0005930E2006208F1004F080A122B
:10053E008A1500200A128A11E3006308CF004130A9
:10054E00E1006108F0006A30E2006208F1004F0835
:10055E000A128A1500200A128A11E3006308CF00DE
:10056E005130E1006108F0007A30E2006208F100DB
:10057E004F080A128A1500200A128A11E300630836
:10058E00CF000710871407158715071BE22A0130C5
:10059E000A168A11FC260A128A11D101CF01BD0159
:1005AE00BE01BB01BC01BF01C001C101C2010A12E3
:1005BE008A154120080007148714071187153A0879
:1005CE00F8003908F7000230F9000030FA000A1678
:1005DE008A1172260A128A117808BA007708B900B1
:1005EE00071A322B39083A04031D322B90300A16A3
:1005FE008A11FC260A128A1148300A168A11E5263B
:10060E000A128A116F300A168A11E5260A128A1109
:10061E0075300A168A11E5260A128A1172300A16E8
:10062E008A11E5260A128A113A300A168A11E5262F
:10063E000A128A117830E1006108D0000A168A1178
:10064E0093260A128A11013083120313B907031875
:10065E00BA0A0030BA070714871407118715071A4C
:10066E006F2B39033A04031D6F2B0130B9070318A2
:10067E00BA0A0030BA070A168A1193260A128A118C
:10068E0090300A168A11FC260A128A114D300A166B
:10069E008A11E5260A128A1169300A168A11E52690
:1006AE000A128A116E300A168A11E5260A128A116A
:1006BE0073300A168A11E5260A128A113A300A1682
:1006CE008A11E5260A128A117930E1006108D000FC
:1006DE0088300A168A11FC260A128A11071487140A
:1006EE000711871588300A168A11FC260A128A11FC
:1006FE0054300A168A11E5260A128A1169300A1632
:10070E008A11E5260A128A116D300A168A11E5261B
:10071E000A128A1165300A168A11E5260A128A1102
:10072E003A300A168A11E5260A128A113B08303E23
:10073E000A168A11E5260A128A113D08303E0A165B
:10074E008A11E5260A128A113A300A168A11E5260E
:10075E000A128A113F08303E0A168A11E5260A123D
:10076E008A114108303E0A168A11E5260A128A11AC
:10077E000710871407158715871BFA28D101CF019B
:10078E00BD01BE01BB01BC01BF01C001C101C2015F
:10079E0001300A168A11FC26080083120313071073
:1007AE00871407158715071A080001300A168A11D3
:1007BE00FC260A128A1180300A168A11FC260A12A9
:1007CE008A1144300A168A11E5260A128A116130FE
:1007DE000A168A11E5260A128A1174300A168A112F
:1007EE00E5260A128A1165300A168A11E5260A12C2
:1007FE008A115F300A168A11E5260A128A115330C1
:10080E000A168A11E5260A128A1165300A168A110D
:10081E00E5260A128A1174300A168A11E5260A1282
:10082E008A1174300A168A11E5260A128A11693065
:10083E000A168A11E5260A128A116E300A168A11D4
:10084E00E5260A128A1167300A168A11E5260A125F
:10085E008A1173300A168A11E5260A128A110714B4
:10086E00871007158715871BAC2C78305006031D93
:10087E00AC2C31033204031D482C0130E100610819
:10088E00D10731083204031D502C0130B100003065
:10089E00B2000130BD070318BE0A0030BE073E0885
:1008AE00F8003D08F7000A30F9000030FA000A1689
:1008BE008A1172260A128A117808BE007708BD00C6
:1008CE002F033004031D842C3C08DD003B08DC00A4
:1008DE003E08DF003D08DE003030E1006108E00038
:1008EE000A168A11B8270A128A11E200E301620879
:1008FE00BB006308BC00AF01B00109303D063E04E9
:10090E00031D8D2C0130AF000030B0004330E100EC
:10091E006108F00051080A168A1154260A128A112B
:10092E00E2006208D1003B033C04031DA72C0330F8
:10093E003D063E04031DA72CBD01BE01BB01BC013B
:10094E000A168A1193260A128A1183120313871B21
:10095E00322D79305006031D322D31033204031D22
:10096E00BC2C0130E1006108CE0731083204031DB2
:10097E00C42C0130B1000030B2000130B7070318AB
:10098E00B80A0030B8073808F8003708F7000A3000
:10099E00F9000030FA000A168A1172260A128A111C
:1009AE007808B8007708B7003808F8003708F7005D
:1009BE000830F9000030FA000A168A1172260A125F
:1009CE008A117808A8007708A7002F033004031DAA
:1009DE00092D3608DD003508DC003808DF00370841
:1009EE00DE003030E1006108E0000A168A11B827F7
:1009FE000A128A11E200E3016208B5006308B6002C
:100A0E00AF01B001093037063804031D122D013035
:100A1E00AF000030B0006330E1006108F0004E0816
:100A2E000A168A1154260A128A11E2006208CE00B2
:100A3E00033035063604031D2D2D023037063804DB
:100A4E00031D2D2DB501B601B701B8010A168A1185
:100A5E0093260A128A1183120313871B992D7A305B
:100A6E005006031D992D31033204031D422D013012
:100A7E00E1006108CF0731083204031D4A2D013011
:100A8E00B1000030B2000130C1070318C20A0030B5
:100A9E00C2074208F8004108F7000A30F90000309A
:100AAE00FA000A168A1172260A128A117808C200F2
:100ABE007708C1002F033004031D7E2D4008DD0092
:100ACE003F08DC004208DF004108DE003030E10064
:100ADE006108E0000A168A11B8270A128A11E2008C
:100AEE00E3016208BF006308C000AF01B001093026
:100AFE0041064204031D872D0130AF000030B000C7
:100B0E005A304F060319CF0106303F064004031D2D
:100B1E00942DBF01C001C101C2010A168A1193268C
:100B2E000A128A11113083120313E1006108F000DA
:100B3E003930E2006208F10051080A128A150020CD
:100B4E000A128A11E3006308D1001130E100610836
:100B5E00F0003930E2006208F1004E080A128A15E0
:100B6E0000200A128A11E3006308CE002130E10052
:100B7E006108F0004A30E2006208F1004E080A12E5
:100B8E008A1500200A128A11E3006308CE00113084
:100B9E00E1006108F0003930E2006208F1004E0811
:100BAE000A128A1500200A128A11E3006308CE0089
:100BBE002130E1006108F0004A30E2006208F100E5
:100BCE004E080A128A1500200A128A11E3006308E1
:100BDE00CE003130E1006108F0005930E2006208C9
:100BEE00F1004E080A128A1500200A128A11E3003B
:100BFE006308CE001130E1006108F0003930E200E8
:100C0E006208F1004F080A128A1500200A128A1192
:100C1E00E3006308CF002130E1006108F0004A30A4
:100C2E00E2006208F1004F080A128A1500200A122B
:100C3E008A11E3006308CF001130E1006108F00073
:100C4E003930E2006208F1004F080A128A150020BE
:100C5E000A128A11E3006308CF002130E100610817
:100C6E00F0004A30E2006208F1004F080A128A15BD
:100C7E0000200A128A11E3006308CF003130E10030
:100C8E006108F0005930E2006208F1004F080A12C4
:100C9E008A1500200A128A11E3006308CF00413042
:100CAE00E1006108F0006A30E2006208F1004F08CE
:100CBE000A128A1500200A128A11E3006308CF0077
:100CCE005130E1006108F0007A30E2006208F10074
:100CDE004F080A128A1500200A128A11E3006308CF
:100CEE00CF0031083204031D7E2E4C08832E3103B3
:100CFE003204031D862E5108E1006108EC004F08F6
:100D0E00E1006108EE004E08E1006108EB0088305A
:100D1E000A168A11FC260A128A1107108714071563
:100D2E008715071BB32ED101CF01CE01B501B60138
:100D3E00B701B801BD01BE01BB01BC01BF01C001BD
:100D4E00C101C20101300A168A11FC260A128A114B
:100D5E000A128A15412008000710871407158715F7
:100D6E003A08F8003908F7000330F9000030FA00AD
:100D7E000A168A1172260A128A117808BA007708A2
:100D8E00B900071A092F39083A04031D092F9030AC
:100D9E000A168A11FC260A128A1144300A168A1182
:100DAE00E5260A128A1161300A168A11E5260A1200
:100DBE008A1179300A168A11E5260A128A113A30FA
:100DCE000A168A11E5260A128A1120300A168A118D
:100DDE00E5260A128A1120300A168A11E5260A1211
:100DEE008A117930E1006108D0000A168A11932623
:100DFE000A128A11013083120313B9070318BA0AB3
:100E0E000030BA070710871407158715071A4C2FDD
:100E1E0039033A04031D4C2F0130B9070318BA0ADF
:100E2E000030BA070A168A1193260A128A119030D8
:100E3E000A168A11FC260A128A114D300A168A11D8
:100E4E00E5260A128A116F300A168A11E5260A1251
:100E5E008A116E300A168A11E5260A128A1174302A
:100E6E000A168A11E5260A128A1168300A168A11A4
:100E7E00E5260A128A113A300A168A11E5260A1256
:100E8E008A117830E1006108D00007108714071529
:100E9E008715071A922F023039063A04031D922F36
:100EAE000A168A1193260A128A110130831203132D
:100EBE00B9070318BA0A0030BA0790300A168A1119
:100ECE00FC260A128A1159300A168A11E5260A12D0
:100EDE008A1165300A168A11E5260A128A116130C6
:100EEE000A168A11E5260A128A1172300A168A111A
:100EFE00E5260A128A113A300A168A11E5260A12D6
:100F0E008A1120300A168A11E5260A128A117A30C1
:100F1E00E1006108D00088300A168A11FC260A12F8
:100F2E008A113508303E0A168A11E5260A128A11F0
:100F3E003708303E0A168A11E5260A128A112F301A
:100F4E000A168A11E5260A128A113B08303E0A1645
:100F5E008A11E5260A128A113D08303E0A168A11B8
:100F6E00E5260A128A112F300A168A11E5260A1270
:100F7E008A113F08303E0A168A11E5260A128A1196
:100F8E004108303E0A168A11E5260A128A11071008
:100F9E00871407158715871BE22BD101CF01CE01D0
:100FAE00BD01BE01BB01BC01BF01C001C101C20137
:100FBE00B501B601B701B80101300A168A11FC2637
:100FCE00080083137030FD001630FE003130FF0034
:100FDE00683084000A168A1186260A128A11203079
:100FEE0084005C300A168A11292683010A128A159A
:100FFE00872CF4007408303EF200003003180130E4
:10100E00F300710872067304031D19287008F200AC
:10101E007208F400B101B2010930F2007208CC007E
:10102E000130F40274080800F400F201F301831297
:10103E00031306120610741806167408F000031037
:10104E00700CF1007108F40006140130F207031859
:10105E00F30A0030F3077308803AFF0080307F02F6
:10106E00031D3B2808307202031C1E288312031333
:10107E00061008008616BE300A128A151B200A12A8
:10108E008A15F501F6017508683E84008313000881
:10109E000A128A151B200A128A150130F507031849
:1010AE00F60A0030F6077608803AFF0080307F029D
:1010BE00031D632808307502031C4A28831203138C
:1010CE0086120800831203138616BF300A128A1581
:1010DE001B200A128A15F601F7010A128A159520AD
:1010EE000A128A15F5007608203E840075088313CF
:1010FE0080000130F6070318F70A0030F70777086B
:10110E00803AFF0080307F02031D8F280730760261
:10111E00031C74288312031386120800F40183162D
:10112E0003130616F201F30183120313061074085B
:10113E00F0000310700CF1007108F400061EAC28CC
:10114E0074088038F0007008F40006140130F207BD
:10115E000318F30A0030F3077308803AFF0080305B
:10116E007F02031DBC2808307202031C9B288316C5
:10117E000313061283120610740808007008710417
:10118E000319F228F501F50AF11BD92801300310D5
:10119E00F00DF10DFF3E031DCE280130F400740852
:1011AE00F507CB2871087302031DDF287008720241
:1011BE00031CE7287008F2027108031CF303F30204
:1011CE0001300310F10CF00CFF3E031DE828013036
:1011DE00F502031DD9287308F1007208F00008000B
:1011EE00F5010830F4007408F6000310F50C8312B4
:1011FE000313091083160910000000000000000000
:10120E000000000083160313091400000000000004
:10121E000000000000308312031309180130C500CE
:10122E004508031DF5170730F4007408F00002306E
:10123E000A168A1146260A128A150130F602760817
:10124E00031DFC2875080800F501F50A7508031939
:10125E000800831203130910831609104630F40098
:10126E007408F00002300A168A1146260A128A15F0
:10127E008316031309140830F4007408F0000230CA
:10128E000A168A1146260A128A1583120313091C9E
:10129E005329F501F50A5429F5013C30F400740880
:1012AE00F00002300A168A1146260A128A152D29D6
:1012BE00F7000830F4007408F80077080139F400DC
:1012CE007408F60083120313091083160910000028
:1012DE0000000000000000007603031D792983162C
:1012EE00031309140730F4007408F00002300A16D4
:1012FE008A1146260A128A15831603130914000052
:10130E0000007708F4000310740CF5007508F70060
:10131E000130F80278080319080064295708F7000D
:10132E00F80174087806031D9E2973087706031DBD
:10133E0008007608803AF70080307702031DA9294D
:10134E00560875020318080002308312031329068B
:10135E002A04031D08007730F7007708C9005730BC
:10136E000A168A11E5260A128A1541300A168A11C2
:10137E00E5260A128A1552300A168A11E5260A1235
:10138E008A154D300A168A11E5260800FB01FC016C
:10139E00760877040319042AFD01FD0AF71BE329D9
:1013AE0001300310F60DF70DFF3E031DD829013055
:1013BE00FA007A08FD07D52901300310FB0DFC0D4C
:1013CE00FF3E031DE42977087902031DF0297608F4
:1013DE007802031CF9297608F8027708031CF90332
:1013EE00F9027B1401300310F70CF60CFF3E031DBF
:1013FE00FA290130FD02031DE3297C08F7007B0862
:10140E00F6000800F601F31F132AF209F309F20A97
:10141E000319F30AF601F60AF11F1A2AF009F10967
:10142E00F00A0319F10A700871040319472AF5012D
:10143E00F50AF11B2E2A01300310F00DF10DFF3EBF
:10144E00031D232A0130F4007408F507202A7108C1
:10145E007302031D342A70087202031C3C2A7008A2
:10146E00F2027108031CF303F30201300310F10CB6
:10147E00F00CFF3E031D3D2A0130F502031D2E2AFE
:10148E00760803194F2AF209F309F20A0319F30A2F
:10149E007308F1007208F000080086185E2A23080F
:1014AE00F3007308A0002408F3007308A1002208BB
:1014BE00F039F300F4017308F5007408F600750EA8
:1014CE000F39F500760EF039F504760E0F39F60069
:1014DE00F030F61D0030F6047508303E0A168A11FB
:1014EE00E5260A128A1522080F39F300F401730853
:1014FE00F5007408F6007508303E0A168A11E526C6
:10150E000A128A153A300A168A11E5260A128A1527
:10151E002108F039F300F4017308F5007408F600A1
:10152E00750E0F39F500760EF039F504760E0F397B
:10153E00F600F030F61D0030F6047508303E0A163F
:10154E008A11E5260A128A1521080F39F300F401D3
:10155E007308F5007408F6007508303E0A168A11F5
:10156E00E5260A128A153A300A168A11E5260A125B
:10157E008A152008F039F300F4017308F500740899
:10158E00F600750E0F39F500760EF039F504760E6D
:10159E000F39F600F030F61D0030F6047508303EB7
:1015AE000A168A11E5260A128A1520080F39F30049
:1015BE00F4017308F5007408F6007508303E0A163B
:1015CE008A11E52608008618F42A2308F30073080A
:1015DE00A0002408F3007308A1002308F039F300DB
:1015EE00F4017308F5007408F600750E0F39F50056
:1015FE00760EF039F504760E0F39F600F030F61D42
:10160E000030F6047508303E0A168A11E5260A12D5
:10161E008A1523080F39F300F4017308F5007408D6
:10162E00F6007508303E0A168A11E5260A128A154A
:10163E002F300A168A11E5260A128A152408F03967
:10164E00F300F4017308F5007408F600750E0F39F7
:10165E00F500760EF039F504760E0F39F600F030FF
:10166E00F61D0030F6047508303E0A168A11E5267E
:10167E000A128A1524080F39F300F4017308F500D5
:10168E007408F6007508303E0A168A11E5260A120D
:10169E008A152F300A168A11E5260A128A1526088F
:1016AE00F039F300F4017308F5007408F600750EB6
:1016BE000F39F500760EF039F504760E0F39F60077
:1016CE00F030F61D0030F6047508303E0A168A1109
:1016DE00E5260A128A1526080F39F300F40173085D
:1016EE00F5007408F6007508303E0A168A11E526D4
:1016FE000800831609140A128A152B210A128A155C
:10170E00CC300A128A155F210A128A150A168A111E
:10171E00BB260A128A1544300A128A155F210A1254
:10172E008A150A128A152B210A128A15CC300A1232
:10173E008A155F210A128A15BE300A128A155F2198
:10174E000A128A150A128A15F7200A128A158312AE
:10175E000313DC005C08DB000A128A15F7200A125C
:10176E008A1583120313DC005C08DA008316091451
:10177E0083125A08DC0004300310DC0DFF3E031DFB
:10178E00C32B3F305C05DD005B08DE000430031028
:10179E00DE0CFF3E031DCE2B5E085D04DF005F08EE
:1017AE00D9005B08DC0003300310DC0DFF3E031D87
:1017BE00DB2B03105C0DDD005D08D8000A30DC0069
:1017CE005C08F00059080A168A1172270A128A1547
:1017DE00DD005D08D6000A30DC005C08F000590818
:1017EE000A168A1151270A128A15DD005D08D700E4
:1017FE00C301C401D81F0B2C4308883EC300440804
:10180E000318013E133EC400581F152C4308C43E56
:10181E00C30044080318013E093EC400D81E1F2C05
:10182E004308E23EC30044080318013E043EC400D0
:10183E00581E292C4308713EC30044080318013E6C
:10184E00023EC400E830F6000330F7004408F90009
:10185E004308F8000A128A15CD210A128A15760855
:10186E00DC005C08D5006430F6000030F700440858
:10187E00F3004308F200E830F0000330F1000A12E2
:10188E008A15C5200A128A157108F9007008F80029
:10189E000A128A15CD210A128A157608DC005C0818
:1018AE00D4000A30F6000030F7004408F300430875
:1018BE00F2006430F0000030F1000A128A15C520E3
:1018CE000A128A157108F9007008F8000A128A15B2
:1018DE00CD210A128A157608DC005C08D3000A3086
:1018EE00F0000030F1004408F3004308F2000A1241
:1018FE008A15C5207008DC005C08D20000000800C4
:10190E000230831686000A168A111C260A128A15C0
:10191E000A128A1541200A128A150A168A1163269E
:10192E000A128A150A168A1121260A128A150A1611
:10193E008A1195270A128A150A168A111C260A126E
:10194E008A150A168A11CF260A128A150A128A15C4
:10195E0080230A128A150A128A1569200A128A151C
:10196E0080300A168A11FC260A128A1554300A167D
:10197E008A11E5260A128A1565300A168A11E5269D
:10198E000A128A156D300A168A11E5260A128A1570
:10199E0070300A168A11E5260A128A153A300A168E
:1019AE008A11E5260A128A150A168A1130270A129A
:1019BE008A1590300A168A11FC260A128A154430AE
:1019CE000A168A11E5260A128A1561300A168A113C
:1019DE00E5260A128A1574300A168A11E5260A12AD
:1019EE008A1565300A168A11E5260A128A153A30CA
:1019FE000A168A11E5260A128A1520300A168A114D
:101A0E00E5260A128A150A128A15EA220A128A1580
:101A1E0088300A168A11FC260A128A1554300A16C4
:101A2E008A11E5260A128A1569300A168A11E526E8
:101A3E000A128A156D300A168A11E5260A128A15BF
:101A4E0065300A168A11E5260A128A153A300A16E8
:101A5E008A11E5260A128A150A128A1554220A12CA
:101A6E008A150A128A15AA250A128A150A128A11CD
:101A7E00D4230A128A150A128A11EE200A128A1526
:101A8E0098300A168A11FC260A128A150230F300C3
:101A9E000030F4000730F5000030F6000A128A110B
:101AAE0007200A128A150230F3000030F4000730C6
:101ABE00F5000030F6000A128A1595210A128A15D1
:101ACE008312031349080A168A1113270A128A155C
:101ADE000A168A1139260A128A15E601E701203004
:101AEE000A168A11E5260A128A150130E60703182E
:101AFE00E70A0030E7076708803AFF0080307F0270
:101B0E00031D8B2D07306602031C762D83120313E3
:101B1E003808F8003708F7000830F9000030FA00EE
:101B2E000A168A1172260A128A157808A8007708F2
:101B3E00A7002808F4002708F3000A128A114B2088
:101B4E000A128A15AD2C0714871007158715071A68
:101B5E00080001300A168A11FC260A128A158030F6
:101B6E000A168A11FC260A128A1574300A168A1170
:101B7E00E5260A128A1568300A168A11E5260A1217
:101B8E008A1572300A168A11E5260A128A156530F0
:101B9E000A168A11E5260A128A1573300A168A1158
:101BAE00E5260A128A1568300A168A11E5260A12E7
:101BBE008A156F300A168A11E5260A128A156C30BC
:101BCE000A168A11E5260A128A1564300A168A1137
:101BDE00E5260A128A1590300A168A11FC260A1278
:101BEE008A1543300A168A11E5260A128A157530AF
:101BFE000A168A11E5260A128A1572300A168A11F9
:101C0E00E5260A128A1572300A168A11E5260A127C
:101C1E008A1565300A168A11E5260A128A156E3063
:101C2E000A168A11E5260A128A1574300A168A11C6
:101C3E00E5260A128A153A300A168A11E5260A1284
:101C4E008A154708303E0A168A11E5260A128A15A9
:101C5E004608303E0A168A11E5260A128A15883081
:101C6E000A168A11FC260A128A1553300A168A1190
:101C7E00E5260A128A1565300A168A11E5260A1219
:101C8E008A1574300A168A11E5260A128A155F30F3
:101C9E000A168A11E5260A128A1574300A168A1156
:101CAE00E5260A128A1568300A168A11E5260A12E6
:101CBE008A1572300A168A11E5260A128A156530BF
:101CCE000A168A11E5260A128A1573300A168A1127
:101CDE00E5260A128A1568300A168A11E5260A12B6
:101CEE008A156F300A168A11E5260A128A156C308B
:101CFE000A168A11E5260A128A1564300A168A1106
:101D0E00E5260A128A153A300A168A11E5260A12B3
:101D1E008A1598300A168A11FC260A128A1507149B
:101D2E00871007158715C101C201BF01C001BD0192
:101D3E00BE01BB01BC01BD01BE0107148710071512
:101D4E008715871B032F98300A168A11FC260A1254
:101D5E008A150130BD070318BE0A0030BE073B08C6
:101D6E00E100E2016108BB006208BC003E08F80019
:101D7E003D08F7000A30F9000030FA000A168A1101
:101D8E0072260A128A157708E100E2016108BD0089
:101D9E006208BE003B08303E0A168A11E5260A127A
:101DAE008A153D08303E0A168A11E5260A128A1552
:101DBE003C08DD003B08DC003E08DF003D08DE008D
:101DCE003930E1006108E0000A168A11B8270A12BC
:101DDE008A15E200E3016208BB006308BC003E08FE
:101DEE00C2003D08C1003C08C0003B08BF000A16F7
:101DFE008A1193260A128A15831203130710871469
:101E0E0007158715071B4D2F3B08E1006108C7001A
:101E1E003D08E1006108C60001300A168A11FC2651
:101E2E000A128A1553300A168A11E5260A128A15E5
:101E3E0041300A168A11E5260A128A1556300A16FC
:101E4E008A11E5260A128A1545300A168A11E526E8
:101E5E000A128A1544300A168A11E5260A128A15C4
:101E6E00E401E501013083120313E4070318E50AC8
:101E7E000030E5076508803AFF00F5307F02031D4C
:101E8E004A2F3030640203180800392F07148714C4
:101E9E0007118715871BBD2F98300A168A11FC264D
:101EAE000A128A150130C1020030031CC203C2029D
:101EBE003F08E100E2016108BF006208C00042086D
:101ECE00F8004108F7000A30F9000030FA000A164F
:101EDE008A1172260A128A157708E100E20161085A
:101EEE00C1006208C2003F08303E0A168A11E5267C
:101EFE000A128A154108303E0A168A11E5260A1280
:101F0E008A154008DD003F08DC004208DF0041086A
:101F1E00DE003030E1006108E0000A168A11DC278D
:101F2E000A128A15E200E3016208BF006308C000CE
:101F3E004108303EE10042080318013E003EE20037
:101F4E00303061066204031DB02F0A30C10000302C
:101F5E00C2004208BE004108BD004008BC003F0858
:101F6E00BB000A168A1193260A128A1583120313CE
:101F7E000710871407158715071BF52F3F08E1007B
:101F8E006108C7004108E1006108C60001300A1669
:101F9E008A11FC260A128A1553300A168A11E52672
:101FAE000A128A1541300A168A11E5260A128A1576
:101FBE0056300A168A11E5260A128A1545300A1677
:101FCE008A11E5260A128A1544300A168A11E52668
:101FDE000A128A150A168A1193260800071087140A
:101FEE0007158715871BA42E01300A168A11FC26A9
:021FFE000800D9
:102C380083168901831289010800073083169F00D3
:102C48000514880181018901080064008001840A53
:102C580004060319003404062A2E003400344034D4
:102C68001234123406341934003407148714071543
:102C78008711071A0800A901AA017830F000700826
:102C8800C9000800F2007008F1007108F300013073
:102C9800F302031D4B2E0130F20203190800472EE0
:102CA800F3007308303EF100003003180130F200E1
:102CB8007008710672040319F301730808000610FE
:102CC800861286168E300A128A151B200A168A1159
:102CD80000300A128A151B20861208007A08F100B3
:102CE8007908F0007808F3007708F2000A128A15CC
:102CF80009227108F8007008F70008007E088A00A9
:102D08007F08820082260A168A118000840A040835
:102D18007D0603190034FF0A0319FE0A862EF00106
:102D2800F1010130F0070318F10A0030F1077108CA
:102D3800803AFF00A7307F02031DA42E10307002D6
:102D480003180800952EF001F1010130F00703186F
:102D5800F10A0030F1077108803AFF0080307F02E5
:102D6800031DB82E0530700203180800A92EF001C3
:102D7800F1010130F0070318F10A0030F10771087A
:102D8800803AFF0080307F02031DCC2E3230700263
:102D980003180800BD2E063083169F00F030870008
:102DA8008312D101D001CF01B901BA010C30B700AB
:102DB8000030B8000130B1000030B200AF01B001FE
:102DC8000800F200831203138516051285110A16EE
:102DD8008A11A7260A168A11831203138515720809
:102DE80088000A168A11A726831203138511080082
:102DF800F200831203138512051285110A168A112F
:102E0800A7260A168A1183120313851572088800EB
:102E18000A168A11A7268312031385110800F200E7
:102E280077307206031D2C2F09150A168A1193266E
:102E38000A168A118312031309110A168A11932696
:102E48000A168A118312031309150A168A11932682
:102E580083120313091108005708303E0A168A1115
:102E6800E5260A168A115608303E0A168A11E52602
:102E78000A168A112E300A168A11E5260A168A11B0
:102E88005508303E0A168A11E5260A168A11540892
:102E9800303E0A168A11E5260800F200F40170088F
:102EA8000319702FF301F30AF01B612F0310F00DC3
:102EB8000130F1007108F307582F0310F40D700862
:102EC8007202031C6B2F7008F20274140310F00CCA
:102ED8000130F302031D612F74080800F400083064
:102EE800F1007108F500F6017408F10007300310CD
:102EF800F10CFF3E031D7B2F7608F2007207710468
:102F0800F3007308F6000310F40D70087602031C32
:102F18008F2F7008F6020130F502031D782F76080E
:102F280008008501831205100A168A11A7260A16B9
:102F38008A11831203130514051530300A168A11F5
:102F4800FC260A168A1101300A168A11FC260A166E
:102F58008A1106300A168A11FC260A168A110C30C4
:102F68000A168A11FC2608005E08303EFB005F083E
:102F78000318013E003EFC0060087B067C04031D2C
:102F8800DA2F0130DC070318DD0A0030DD075D08A1
:102F9800F8005C08F7000A30F9000030FA000A1659
:102FA8008A1172267808DD007708DC005C080800C2
:102FB8005E08303EFB005F080318013E003EFC003F
:102FC80060087B067C04031DFE2FFF30DC07031816
:102FD800DD0AFF30DD075D08F8005C08F7000A30FD
:102FE800F9000030FA000A168A1172267808DD0006
:082FF8007708DC005C0808000A
:02400E00323F3F
:00000001FF
