:020000040000FA
:060000000A128A11E02F34
:10000C00F200831203138512051285110A168A1148
:10001C0004240A128A1183120313851572088800AE
:10002C000A168A110424831203138511080074081C
:10003C00803A803C031D242873085902031C6D2848
:10004C007608803A803C031D2F2875088312031311
:10005C005802031C6D28013083120313BA070318CE
:10006C00BB0A0030BB073030F7007708CF003130C7
:10007C00F7007708CE0057300A168A1140240A126E
:10008C008A1141300A168A1140240A128A11523000
:10009C000A168A1140240A128A114D300A168A1146
:1000AC0040240A128A1100303B02653003193A02CF
:1000BC00031C6D282D30F7007708CE00023038066F
:1000CC003904031D6D287730F7007708D1008312AF
:1000DC000313510808000714871407118715071A12
:1000EC00080001300A128A1106200A128A11803087
:1000FC000A128A1106200A128A1154300A168A1121
:10010C0040240A128A1169300A168A1140240A12F4
:10011C008A116D300A168A1140240A128A11653030
:10012C000A168A1140240A128A115F300A168A11A3
:10013C0040240A128A1153300A168A1140240A12DA
:10014C008A1165300A168A1140240A128A117430F9
:10015C000A168A1140240A128A1174300A168A115E
:10016C0040240A128A1169300A168A1140240A1294
:10017C008A116E300A168A1140240A128A116730CD
:10018C000A168A1140240A128A1173300A168A112F
:10019C0040240A128A110714871007158715871B2C
:1001AC00482978304706031D482924032504031DDC
:1001BC00E3280130E3006308C80724082504031D65
:1001CC00EB280130A4000030A5000130AE07031865
:1001DC00AF0A0030AF072F08F8002E08F7000A30DE
:1001EC00F9000030FA000A168A11CF230A128A117C
:1001FC007808AF007708AE0022032304031D1F29E3
:10020C002D08DF002C08DE002F08E1002E08E0008E
:10021C003030E3006308E2000A168A11FC240A124B
:10022C008A11E400E5016408AC006508AD00A20188
:10023C00A30109302E062F04031D28290130A2002A
:10024C000030A3005430E3006308F00048080A169D
:10025C008A11B1230A128A11E4006408C800023022
:10026C002C062D04031D432904302E062F04031DD8
:10027C004329AE01AF01AC01AD010A168A11F0237E
:10028C000A128A1183120313871BC6297930470679
:10029C00031DC62924032504031D58290130E3003E
:1002AC006308C60724082504031D60290130A40037
:1002BC000030A5000130B2070318B30A0030B307B1
:1002CC003308F8003208F7000A30F9000030FA0061
:1002DC000A168A11CF230A128A117808B3007708FC
:1002EC00B20022032304031D94293108DF003008D7
:1002FC00DE003308E1003208E0003030E300630830
:10030C00E2000A168A11FC240A128A11E400E501A3
:10031C006408B0006508B100A201A30109303206DF
:10032C003304031D9D290130A2000030A3003108C5
:10033C00DF003008DE003308E1003208E00039301D
:10034C00E3006308E2000A168A11FC240A128A11DF
:10035C00E400E5016408B0006508B1005A304606B7
:10036C000319C601063030063104031DC129B00142
:10037C00B101B201B3010A168A11F0230A128A11D3
:10038C0088300A128A1106200A128A1124082504C0
:10039C00031DD8294008E30063088316AF008312BD
:1003AC003F08E32924032504031DE7294808E3003B
:1003BC0063088316AF0083124608E30063088316B4
:1003CC00AE0011308312E3006308F0003930E40012
:1003DC006408F1000430F2000030F30048080A12FF
:1003EC008A1576220A128A11E5006508C8002130A8
:1003FC00E3006308F0004A30E4006408F1000430C4
:10040C00F2000030F30048080A128A1576220A120C
:10041C008A11E5006508C8001130E3006308F0009C
:10042C003930E4006408F1000530F2000030F300CC
:10043C0046080A128A1576220A128A11E500650806
:10044C00C6002130E3006308F0004A30E400640881
:10045C00F1000530F2000030F30046080A128A154C
:10046C0076220A128A11E5006508C6003130E300D5
:10047C006308F0005930E4006408F1000530F20024
:10048C000030F30046080A128A1576220A128A11E5
:10049C00E5006508C6004130E3006308F0006A30EF
:1004AC00E4006408F1000530F2000030F300460867
:1004BC000A128A1576220A128A11E5006508C6000E
:1004CC005130E3006308F0007A30E4006408F10076
:1004DC000530F2000030F30046080A128A15762225
:1004EC000A128A11E5006508C60007108714071563
:1004FC008715071B952A01300A128A1106200A1249
:10050C008A11C801C601AE01AF01AC01AD01B00149
:10051C00B101B201B3010A168A116A250800071449
:10052C008714071187152B08F8002A08F7000230EA
:10053C00F9000030FA000A168A11CF230A128A1128
:10054C007808AB007708AA00071AE52A2A082B04BA
:10055C00031DE52A90300A128A1106200A128A110C
:10056C0048300A168A1140240A128A116F300A1672
:10057C008A1140240A128A1175300A168A114024F5
:10058C000A128A1172300A168A1140240A128A1130
:10059C003A300A168A1140240A128A117830E30084
:1005AC006308C7000A168A11F0230A128A11013057
:1005BC0083120313AA070318AB0A0030AB07071406
:1005CC00871407118715071A222B2A032B04031DE6
:1005DC00222B0130AA070318AB0A0030AB070A160E
:1005EC008A11F0230A128A1190300A128A110620FD
:1005FC000A128A114D300A168A1140240A128A11E5
:10060C0069300A168A1140240A128A116E300A16B1
:10061C008A1140240A128A1173300A168A11402456
:10062C000A128A113A300A168A1140240A128A11C7
:10063C007930E3006308C70088300A128A1106205B
:10064C000A128A11071487140711871588300A12A9
:10065C008A1106200A128A1154300A168A11402473
:10066C000A128A1169300A168A1140240A128A1158
:10067C006D300A168A1140240A128A1165300A1646
:10068C008A1140240A128A113A300A168A1140241F
:10069C000A128A112C08303E0A168A1140240A12BA
:1006AC008A112E08303E0A168A1140240A128A1129
:1006BC003A300A168A1140240A128A113008303E48
:1006CC000A168A1140240A128A113208303E0A1680
:1006DC008A1140240A128A110710871407158715EE
:1006EC00871B7D28C801C601AE01AF01AC01AD016D
:1006FC00B001B101B201B30101300A128A11062016
:10070C000800831203130710871407158715071A9F
:10071C00080001300A128A1106200A128A11803050
:10072C000A128A1106200A128A1144300A168A11FA
:10073C0040240A128A1161300A168A1140240A12C6
:10074C008A1174300A168A1140240A128A116530F3
:10075C000A168A1140240A128A115F300A168A116D
:10076C0040240A128A1153300A168A1140240A12A4
:10077C008A1165300A168A1140240A128A117430C3
:10078C000A168A1140240A128A1174300A168A1128
:10079C0040240A128A1169300A168A1140240A125E
:1007AC008A116E300A168A1140240A128A11673097
:1007BC000A168A1140240A128A1173300A168A11F9
:1007CC0040240A128A110714871007158715871BF6
:1007DC005F2C78304706031D5F2C24032504031D72
:1007EC00FB2B0130E3006308C80724082504031D14
:1007FC00032C0130A4000030A5000130AE07031813
:10080C00AF0A0030AF072F08F8002E08F7000A30A7
:10081C00F9000030FA000A168A11CF230A128A1145
:10082C007808AF007708AE0022032304031D372C91
:10083C002D08DF002C08DE002F08E1002E08E00058
:10084C003030E3006308E2000A168A11FC240A1215
:10085C008A11E400E5016408AC006508AD00A20152
:10086C00A30109302E062F04031D402C0130A200D9
:10087C000030A3004330E3006308F00048080A1678
:10088C008A11B1230A128A11E4006408C8002C03EF
:10089C002D04031D5A2C03302E062F04031D5A2C35
:1008AC00AE01AF01AC01AD010A168A11F0230A1298
:1008BC008A1183120313871BE52C79304706031D1D
:1008CC00E52C24032504031D6F2C0130E300630881
:1008DC00C50724082504031D772C0130A400003023
:1008EC00A5000130A8070318A90A0030A907290898
:1008FC00F8002808F7000A30F9000030FA000A1650
:10090C008A11CF230A128A117808A9007708A80047
:10091C002908F8002808F7000830F9000030FA0020
:10092C000A168A11CF230A128A117808A1007708B7
:10093C00A00022032304031DBC2C2708DF0026087B
:10094C00DE002908E1002808E0003030E3006308ED
:10095C00E2000A168A11FC240A128A11E400E5014D
:10096C006408A6006508A700A201A30109302806A7
:10097C002904031DC52C0130A2000030A3006330F4
:10098C00E3006308F00045080A168A11B1230A1225
:10099C008A11E4006408C500033026062704031DF1
:1009AC00E02C023028062904031DE02CA601A70127
:1009BC00A801A9010A168A11F0230A128A118312BE
:1009CC000313871B4C2D7A304706031D4C2D240333
:1009DC002504031DF52C0130E3006308C607240829
:1009EC002504031DFD2C0130A4000030A5000130AE
:1009FC00B2070318B30A0030B3073308F800320803
:100A0C00F7000A30F9000030FA000A168A11CF23D9
:100A1C000A128A117808B3007708B2002203230463
:100A2C00031D312D3108DF003008DE003308E100F2
:100A3C003208E0003030E3006308E2000A168A1145
:100A4C00FC240A128A11E400E5016408B000650870
:100A5C00B100A201A301093032063304031D3A2D63
:100A6C000130A2000030A3005A3046060319C6011B
:100A7C00063030063104031D472DB001B101B2011F
:100A8C00B3010A168A11F0230A128A11113083124B
:100A9C000313E3006308F0003930E4006408F1004C
:100AAC000130F2000030F30048080A128A15762251
:100ABC000A128A11E5006508C8001130E3006308CA
:100ACC00F0003930E4006408F1000230F20000302C
:100ADC00F30045080A128A1576220A128A11E500DB
:100AEC006508C5002130E3006308F0004A30E400DB
:100AFC006408F1000230F2000030F30045080A12DD
:100B0C008A1576220A128A11E5006508C500113093
:100B1C00E3006308F0003930E4006408F1000230AF
:100B2C00F2000030F30045080A128A1576220A12E8
:100B3C008A11E5006508C5002130E3006308F00068
:100B4C004A30E4006408F1000230F2000030F30097
:100B5C0045080A128A1576220A128A11E5006508E0
:100B6C00C5003130E3006308F0005930E40064083C
:100B7C00F1000230F2000030F30045080A128A1529
:100B8C0076220A128A11E5006508C5001130E300CF
:100B9C006308F0003930E4006408F1000330F2001F
:100BAC000030F30046080A128A1576220A128A11BE
:100BBC00E5006508C6002130E3006308F0004A3008
:100BCC00E4006408F1000330F2000030F300460842
:100BDC000A128A1576220A128A11E5006508C600E7
:100BEC001130E3006308F0003930E4006408F100D0
:100BFC000330F2000030F30046080A128A15762200
:100C0C000A128A11E5006508C6002130E30063086A
:100C1C00F0004A30E4006408F1000330F2000030C8
:100C2C00F30046080A128A1576220A128A11E50088
:100C3C006508C6003130E3006308F0005930E40069
:100C4C006408F1000330F2000030F30046080A1289
:100C5C008A1576220A128A11E5006508C600413011
:100C6C00E3006308F0006A30E4006408F10003302C
:100C7C00F2000030F30046080A128A1576220A1296
:100C8C008A11E5006508C6005130E3006308F000E6
:100C9C007A30E4006408F1000330F2000030F30015
:100CAC0046080A128A1576220A128A11E50065088E
:100CBC00C60024082504031D712E4308E3006308B5
:100CCC008316B10083124108E30063088316B30056
:100CDC0083124208822E24032504031D862E480805
:100CEC00E30063088316B10083124608E30063082F
:100CFC008316B30083124508E30063088316B00023
:100D0C0088300A128A1106200A128A1107108714D9
:100D1C0007158715071BAB2EC801C601C501A60117
:100D2C00A701A801A901AE01AF01AC01AD01B00151
:100D3C00B101B201B30101300A128A1106200A1264
:100D4C008A110A168A116A250800071087140715DC
:100D5C0087152B08F8002A08F7000330F90000303B
:100D6C00FA000A168A11CF230A128A117808AB00EE
:100D7C007708AA00071A012F2A082B04031D012F3C
:100D8C0090300A128A1106200A128A1144300A166F
:100D9C008A1140240A128A1161300A168A114024E1
:100DAC000A128A1179300A168A1140240A128A1101
:100DBC003A300A168A1140240A128A1120300A1677
:100DCC008A1140240A128A1120300A168A114024F2
:100DDC000A128A117930E3006308C7000A168A11D7
:100DEC00F0230A128A11013083120313AA07031885
:100DFC00AB0A0030AB070710871407158715071AC5
:100E0C00442F2A032B04031D442F0130AA07031877
:100E1C00AB0A0030AB070A168A11F0230A128A11AA
:100E2C0090300A128A1106200A128A114D300A16C5
:100E3C008A1140240A128A116F300A168A11402432
:100E4C000A128A116E300A168A1140240A128A116B
:100E5C0074300A168A1140240A128A1168300A1654
:100E6C008A1140240A128A113A300A168A11402437
:100E7C000A128A117830E3006308C7000710871440
:100E8C0007158715071A8A2F02302A062B04031D13
:100E9C008A2F0A168A11F0230A128A110130831242
:100EAC000313AA070318AB0A0030AB0790300A12E1
:100EBC008A1106200A128A1159300A168A11402406
:100ECC000A128A1165300A168A1140240A128A11F4
:100EDC0061300A168A1140240A128A1172300A16DD
:100EEC008A1140240A128A113A300A168A114024B7
:100EFC000A128A1120300A168A1140240A128A1109
:100F0C007A30E3006308C70088300A128A11062081
:100F1C000A128A112608303E0A168A1140240A1237
:100F2C008A112808303E0A168A1140240A128A11A6
:100F3C002F300A168A1140240A128A112C08303ECE
:100F4C000A168A1140240A128A112E08303E0A16FB
:100F5C008A1140240A128A112F300A168A11402451
:100F6C000A128A113008303E0A168A1140240A12DD
:100F7C008A113208303E0A168A1140240A128A114C
:100F8C000710871407158715871B952BC801C601F9
:100F9C00C501AE01AF01AC01AD01B001B101B201AF
:100FAC00B301A601A701A801A90101300A128A11F7
:100FBC00062008008313B530FD001330FE009B3073
:100FCC00FF00AD3084000A168A11E3230A128A113D
:100FDC00A0308400AD300A168A1193230A128A11AC
:100FEC00203084005E300A168A11932383010A1282
:040FFC008A15CD2B5A
:101002000714871407158711071A2B28B801B9018D
:101012007830F3007308D100BA01BB0152300A16CE
:101022008A1140240A128A1545300A168A11402470
:101032000A128A1553300A168A1140240A128A1596
:1010420045300A168A1140240A128A1554300A16AB
:101052008A1140245108080086183828831623086C
:10106200F3007308A0002408F3007308A10083169C
:101072002308F039F300F4017308F5007408F60050
:10108200750E0F39F500760EF039F504760E0F392C
:10109200F600F030F61D0030F6047508303E0A16F0
:1010A2008A1140240A128A15831623080F39F30085
:1010B200F4017308F5007408F6007508303E0A164C
:1010C2008A1140240A128A152F300A168A114024E6
:1010D2000A128A1583162408F039F300F401730802
:1010E200F5007408F600750E0F39F500760EF0392A
:1010F200F504760E0F39F600F030F61D0030F604D6
:101102007508303E0A168A1140240A128A1583167F
:1011120024080F39F300F4017308F5007408F6008F
:101122007508303E0A168A1140240A128A152F3099
:101132000A168A1140240A128A1583162608F039E3
:10114200F300F4017308F5007408F600750E0F3908
:10115200F500760EF039F504760E0F39F600F03010
:10116200F61D0030F6047508303E0A168A11402436
:101172000A128A15831626080F39F300F401730840
:10118200F5007408F6007508303E0A168A114024EC
:1011920008008618D52883162308F3007308A000D8
:1011A2002408F3007308A10083162208F039F30023
:1011B200F4017308F5007408F600750E0F39F50096
:1011C200760EF039F504760E0F39F600F030F61D82
:1011D2000030F6047508303E0A168A1140240A12BD
:1011E2008A157508F3007308C900831622080F399F
:1011F200F300F4017308F5007408F6007508303E38
:101202000A168A1140240A128A153A300A168A11DD
:1012120040240A128A157508F3007308CA0083165F
:101222002108F039F300F4017308F5007408F600A0
:10123200750E0F39F500760EF039F504760E0F397A
:10124200F600F030F61D0030F6047508303E0A163E
:101252008A1140240A128A15831621080F39F300D5
:10126200F4017308F5007408F6007508303E0A169A
:101272008A1140240A128A153A300A168A11402429
:101282000A128A1583162008F039F300F401730854
:10129200F5007408F600750E0F39F500760EF03978
:1012A200F504760E0F39F600F030F61D0030F60424
:1012B2007508303E0A168A1140240A128A158316CE
:1012C20020080F39F300F4017308F5007408F600E2
:1012D2007508303E0A168A11402408008316091444
:1012E2000A168A1154260A128A15CC300A168A1155
:1012F20088260A128A150A168A1118240A128A15D1
:1013020044300A168A1188260A128A150A168A1188
:1013120054260A128A15CC300A168A1188260A1215
:101322008A15BE300A168A1188260A128A150A16EA
:101332008A1120260A128A1583120313DE005E0820
:10134200DD000A168A1120260A128A158312031357
:10135200DE005E08DC008316091483125C08DE00DE
:1013620004300310DE0DFF3E031DB2293F305E053F
:10137200DF005D08E00004300310E00CFF3E031DB7
:10138200BD2960085F04E1006108DB005D08DE0042
:1013920003300310DE0DFF3E031DCA2903105E0D4C
:1013A200DF005F08DA000A30DE005E08F0005B084A
:1013B2000A168A11B6240A128A15DF005F08D800BD
:1013C2000A30DE005E08F0005B080A168A119524D6
:1013D2000A128A15DF005F08D900BC01BD01DA1FBD
:1013E200FA293C08883EBC003D080318013E133E22
:1013F200BD005A1F042A3C08C43EBC003D08031825
:10140200013E093EBD00DA1E0E2A3C08E23EBC0047
:101412003D080318013E043EBD005A1E182A3C082E
:10142200713EBC003D080318013E023EBD00E8309B
:10143200F6000330F7003D08F9003C08F8000A16F0
:101442008A11BE260A128A157608DE005E08D700C7
:101452006430F6000030F7003D08F3003C08F2006B
:10146200E830F0000330F1000A168A11EE250A1264
:101472008A157108F9007008F8000A168A11BE264A
:101482000A128A157608DE005E08D6000A30F600D7
:101492000030F7003D08F3003C08F2006430F00031
:1014A2000030F1000A168A11EE250A128A15710817
:1014B200F9007008F8000A168A11BE260A128A1567
:1014C2007608DE005E08D5000A30F0000030F10038
:1014D2003D08F3003C08F2000A168A11EE25700856
:1014E200DE005E08D40000000800F6007608303EF8
:1014F200F400003003180130F50071087406750419
:10150200031DCB2B7008F4007408F600A401A5019A
:1015120039307106031D952A72037304031D952A3F
:101522000930F4007408C3004A307106031DA12A71
:1015320072037304031DA12A1930F4007408C30056
:1015420059307106031DAD2A72037304031DAD2ABF
:101552002930F4007408C3006A307106031DB92AE9
:1015620072037304031DB92A3930F4007408C300EE
:101572007A307106031DC52A72037304031DC52A3E
:101582004930F4007408C30039307106031DD22AB1
:10159200023072067304031DD22A0930F400740863
:1015A200C2004A307106031DDF2A0230720673043C
:1015B200031DDF2A1930F4007408C2005930710685
:1015C200031DEC2A023072067304031DEC2A293033
:1015D200F4007408C2006A307106031DF92A023051
:1015E20072067304031DF92A3930F4007408C2002C
:1015F2007A307106031D062B023072067304031D36
:10160200062B4930F4007408C20039307106031DFC
:10161200132B033072067304031D132B0930F400DD
:101622007408C1004A307106031D202B0330720674
:101632007304031D202B1930F4007408C1005930C3
:101642007106031D2D2B033072067304031D2D2B0F
:101652002930F4007408C1006A307106031D3A2B68
:10166200033072067304031D3A2B3930F4007408F8
:10167200C1007A307106031D472B033072067304D2
:10168200031D472B4930F4007408C100393071063C
:10169200031D542B043072067304031D542B0930AE
:1016A200F4007408C0004A307106031D612B043037
:1016B20072067304031D612B1930F4007408C00014
:1016C20059307106031D6E2B043072067304031D1C
:1016D2006E2B2930F4007408C0006A307106031DB5
:1016E2007B2B043072067304031D7B2B3930F4000C
:1016F2007408C0007A307106031D882B043072060C
:101702007304031D882B4930F4007408C00039307B
:101712007106031D952B053072067304031D952B6C
:101722000930F4007408BF004A307106031DA22B71
:10173200053072067304031DA22B1930F4007408DD
:10174200BF0059307106031DAF2B053072067304BA
:10175200031DAF2B2930F4007408BF006A307106F4
:10176200031DBC2B053072067304031DBC2B3930DC
:10177200F4007408BF007A307106031DC92B0530CE
:1017820072067304031DC92B4930F4007408BF00AC
:101792000130F602760808000230831686000A1627
:1017A2008A1186230A128A150A168A116A250A12D2
:1017B2008A150A168A11C0230A128A150A168A1174
:1017C2008B230A128A150A168A11D9240A128A153B
:1017D2000A168A1186230A128A150A168A112C24DD
:1017E2000A128A150330E8006808CD000430E800C8
:1017F2006808CC000430B6000030B7000230B400F4
:101802000030B5000A128A156F210A128A150A16CB
:101812008A1192250A128A1580300A128A1106202C
:101822000A128A1554300A168A1140240A128A159D
:1018320065300A168A1140240A128A156D300A167A
:101842008A1140240A128A1570300A168A1140241D
:101852000A128A153A300A168A1140240A128A1587
:101862000A168A1174240A128A1590300A128A11F1
:1018720006200A128A1544300A168A1140240A12D6
:101882008A1561300A168A1140240A128A157430A8
:101892000A168A1140240A128A1565300A168A111C
:1018A20040240A128A153A300A168A1140240A1272
:1018B2008A1520300A168A1140240A128A150A1241
:1018C2008A152D200A128A1588300A128A110620DA
:1018D2000A128A1554300A168A1140240A128A15ED
:1018E20069300A168A1140240A128A156D300A16C6
:1018F2008A1140240A128A1565300A168A11402478
:101902000A128A153A300A168A1140240A128A15D6
:101912000A128A15CA200A128A150A128A159225F3
:101922000A128A150A128A1187230A128A150A12C2
:101932008A1171200A128A1598300A128A11062019
:101942000A128A154908303EE800003003180130B7
:10195200E900003069020230031968020318EB2C17
:101962004A08303EE800003003180130E900003038
:1019720069020830031968020318EB2C4D08E800CD
:10198200E9016808F3006908F4004C08EA00EB0179
:101992006A08F5006B08F6000A168A11FA260A127E
:1019A2008A15EC006C08CB004D08E800E9016808D4
:1019B200F3006908F4004C08EA00EB016A08F5003C
:1019C2006B08F6000A128A111D200A128A15EC0011
:1019D2006C08CB004908303EE800003003180130A3
:1019E200E900680869040319242D4A08303EE8001A
:1019F200003003180130E900003069020830031991
:101A02006802031C242D3508F4003408F30037085B
:101A1200F6003608F5000A168A11FA260A128A1505
:101A2200E8006808CB003508F4003408F3003708F2
:101A3200F6003608F5000A128A111D200A128A15CC
:101A4200E8006808CB000A128A1501200A128A15DA
:101A5200E8006808CB004B080A168A1157240A12BC
:101A62008A1520300A168A1140240A128A15483033
:101A72000A168A1140240A128A153A300A168A1165
:101A820040240A128A154F080A168A1140240A12A3
:101A92008A1543300A168A1140240A128A153A30EE
:101AA2000A168A1140240A128A154E080A168A1149
:101AB20040240A128A15ED01EE0120300A168A111D
:101AC20040240A128A150130ED070318EE0A00308D
:101AD200EE076E08803AFF0080307F02031D732DEF
:101AE20003306D02031C5E2D831203132908F800D4
:101AF2002808F7000830F9000030FA000A168A11A7
:101B0200CF230A128A157808A1007708A0002108BD
:101B1200F4002008F3000A168A1187270A128A1590
:101B2200032C0714871007158715071A08000130C0
:101B32000A128A1106200A128A1580300A128A11A4
:101B420006200A128A1574300A168A1140240A12D3
:101B52008A1568300A168A1140240A128A157230D0
:101B62000A168A1140240A128A1565300A168A1149
:101B720040240A128A1573300A168A1140240A1266
:101B82008A1568300A168A1140240A128A156F30A3
:101B92000A168A1140240A128A156C300A168A1112
:101BA20040240A128A1564300A168A1140240A1245
:101BB2008A1590300A128A1106200A128A154330B9
:101BC2000A168A1140240A128A1575300A168A11D9
:101BD20040240A128A1572300A168A1140240A1207
:101BE2008A1572300A168A1140240A128A15653043
:101BF2000A168A1140240A128A156E300A168A11B0
:101C020040240A128A1574300A168A1140240A12D4
:101C12008A153A300A168A1140240A128A154D088A
:101C2200303E0A168A1140240A128A154C08303EA8
:101C32000A168A1140240A128A1588300A128A1159
:101C420006200A128A1553300A168A1140240A12F3
:101C52008A1565300A168A1140240A128A157430D0
:101C62000A168A1140240A128A155F300A168A114E
:101C720040240A128A1574300A168A1140240A1264
:101C82008A1568300A168A1140240A128A1572309F
:101C92000A168A1140240A128A1565300A168A1118
:101CA20040240A128A1573300A168A1140240A1235
:101CB2008A1568300A168A1140240A128A156F3072
:101CC2000A168A1140240A128A156C300A168A11E1
:101CD20040240A128A1564300A168A1140240A1214
:101CE2008A153A300A168A1140240A128A15983047
:101CF2000A128A1106200A128A150714871007157C
:101D02008715B201B301B001B101AE01AF01AC015F
:101D1200AD01AE01AF010714871007158715871BA8
:101D2200EB2E98300A128A1106200A128A15013007
:101D3200AE070318AF0A0030AF072C08E300E40136
:101D42006308AC006408AD002F08F8002E08F70005
:101D52000A30F9000030FA000A168A11CF230A125B
:101D62008A157708E300E4016308AE006408AF0057
:101D72002C08303E0A168A1140240A128A152E08AF
:101D8200303E0A168A1140240A128A152D08DF00F5
:101D92002C08DE002F08E1002E08E0003930E300B5
:101DA2006308E2000A168A11FC240A128A15E4006A
:101DB200E5016408AC006508AD002F08B3002E08E9
:101DC200B2002D08B1002C08B0000A168A11F023C7
:101DD2000A128A1583120313071087140715871531
:101DE200071B3D2F2C08E3006308CD002E08E300FB
:101DF2006308CC00AE01AF01AC01AD01B001B1018D
:101E0200B201B30101300A128A1106200A128A15A0
:101E120053300A168A1140240A128A1541300A16D2
:101E22008A1140240A128A1556300A168A11402451
:101E32000A128A1545300A168A1140240A128A1596
:101E420044300A168A1140240A128A15E601E70173
:101E5200013083120313E6070318E70A0030E7078D
:101E62006708803AFF00F5307F02031D3A2F3030B9
:101E7200660203180800292F071487140711871513
:101E8200871BAD2F98300A128A1106200A128A1572
:101E92000130B2020030031CB303B3023008E30086
:101EA200E4016308B0006408B1003308F8003208A6
:101EB200F7000A30F9000030FA000A168A11CF231F
:101EC2000A128A157708E300E4016308B200640885
:101ED200B3003008303E0A168A1140240A128A15CD
:101EE2003208303E0A168A1140240A128A15310835
:101EF200DF003008DE003308E1003208E000303055
:101F0200E3006308E2000A168A1120250A128A15E4
:101F1200E400E5016408B0006508B1003208303E13
:101F2200E30033080318013E003EE400303063064C
:101F32006404031DA02F0A30B2000030B30033083E
:101F4200AF003208AE003108AD003008AC000A160E
:101F52008A11F0230A128A158312031307108714B9
:101F620007158715071BED2F3008E3006308CD0026
:101F72003208E3006308CC00AE01AF01AC01AD0151
:101F8200B001B101B201B30101300A128A11062077
:101F92000A128A1553300A168A1140240A128A1527
:101FA20041300A168A1140240A128A1556300A163E
:101FB2008A1140240A128A1545300A168A114024D1
:101FC2000A128A1544300A168A1140240A128A1506
:101FD2000A168A11F02308000710871407158715BF
:101FE200871B8C2EAE01AF01AC01AD01B001B10176
:0E1FF200B201B30101300A128A110620080064
:10270C0083168901831289010800073083169F0004
:10271C000514880181018901080064008001840A84
:10272C000406031900340406942B003418340034C6
:10273C0012341234063419340034F2007008F100EB
:10274C007108F3000130F302031DA82B0130F202D3
:10275C0003190800A42BF3007308303EF10000307D
:10276C0003180130F2007008710672040319F301AA
:10277C00730808000610861286168E300A168A1107
:10278C0044250A168A1100300A168A11442586122D
:10279C0008007A08F1007908F0007808F30077084F
:1027AC00F2000A168A113C277108F8007008F7002D
:1027BC0008007E088A007F088200DF230A168A112F
:1027CC008000840A04087D0603190034FF0A0319EB
:1027DC00FE0AE32BF001F1010130F0070318F10AB6
:1027EC000030F1077108803AFF00A7307F02031D0B
:1027FC00012C1030700203180800F22BF001F101CB
:10280C000130F0070318F10A0030F1077108803A23
:10281C00FF0080307F02031D152C05307002031859
:10282C000800062CF001F1010130F0070318F10A41
:10283C000030F1077108803AFF0080307F02031DE1
:10284C00292C32307002031808001A2C063083161B
:10285C009F00F03087008312C801C701C601AA018E
:10286C00AB01A801A9010130A4000030A500A20110
:10287C00A3010800F20083120313851605128511BB
:10288C000A168A1104240A168A1183120313851559
:10289C00720888000A168A11042483120313851106
:1028AC000800F20077307206031D702C09150A1609
:1028BC008A11F0230A168A118312031309110A16BE
:1028CC008A11F0230A168A118312031309150A16AA
:1028DC008A11F02383120313091108005908303EA2
:1028EC000A168A1140240A168A115808303E0A1614
:1028FC008A1140240A168A112E300A168A11402495
:10290C000A168A115708303E0A168A1140240A16F4
:10291C008A115608303E0A168A1140240800F2002B
:10292C00F40170080319B42CF301F30AF01BA52C65
:10293C000310F00D0130F1007108F3079C2C03100B
:10294C00F40D70087202031CAF2C7008F2027414A0
:10295C000310F00C0130F302031DA52C74080800C1
:10296C00F4000830F1007108F500F6017408F1006C
:10297C0007300310F10CFF3E031DBF2C7608F2004C
:10298C0072077104F3007308F6000310F40D70085D
:10299C007602031CD32C7008F6020130F502031DDD
:1029AC00BC2C760808008501831205100A168A11C2
:1029BC0004240A168A1183120313051405153030EA
:1029CC000A128A1106200A168A1101300A128A117B
:1029DC0006200A168A1106300A128A1106200A16D7
:1029EC008A110C300A128A11062008006008303E49
:1029FC00FB0061080318013E003EFC0062087B06E8
:102A0C007C04031D1E2D0130DE070318DF0A003085
:102A1C00DF075F08F8005E08F7000A30F9000030A5
:102A2C00FA000A168A11CF237808DF007708DE0037
:102A3C005E0808006008303EFB0061080318013E88
:102A4C00003EFC0062087B067C04031D422DFF3017
:102A5C00DE070318DF0AFF30DF075F08F8005E08A7
:102A6C00F7000A30F9000030FA000A168A11CF2359
:102A7C007808DF007708DE005E080800F400F20139
:102A8C00F301831203130612061074180616740849
:102A9C00F0000310700CF1007108F4000614013002
:102AAC00F2070318F30A0030F3077308803AFF00AB
:102ABC0080307F02031D642D08307202031C472DE9
:102ACC0083120313061008008616BE300A168A11EC
:102ADC0044250A168A11F501F6017508AD3E8400ED
:102AEC00831300080A168A1144250A168A1101302C
:102AFC00F5070318F60A0030F6077608803AFF004F
:102B0C0080307F02031D8C2D08307502031C732D41
:102B1C008312031386120800831203138616BF3028
:102B2C000A168A1144250A168A11F601F7010A16AB
:102B3C008A11BE250A168A11F5007608A03E84007B
:102B4C007508831380000130F6070318F70A00306C
:102B5C00F7077708803AFF0080307F02031DB82DFD
:102B6C0007307602031C9D2D831203138612080076
:102B7C00F401831603130616F201F30183120313F7
:102B8C0006107408F0000310700CF1007108F400CA
:102B9C00061ED52D74088038F0007008F400061459
:102BAC000130F2070318F30A0030F3077308803A78
:102BBC00FF0080307F02031DE52D08307202031CDC
:102BCC00C42D831603130612831206107408080012
:102BDC007008710403191B2EF501F50AF11B022E66
:102BEC0001300310F00DF10DFF3E031DF72D0130E8
:102BFC00F4007408F507F42D71087302031D082EF8
:102C0C0070087202031C102E7008F2027108031C6B
:102C1C00F303F30201300310F10CF00CFF3E031D23
:102C2C00112E0130F502031D022E7308F1007208FB
:102C3C00F0000800F5010830F4007408F6000310E9
:102C4C00F50C831203130910831609100000000001
:102C5C00000000000000000083160313091400009C
:102C6C00000000000000000000308312031309185C
:102C7C000130BE003E08031DF5170730F400740840
:102C8C00F00002300A168A11A3230A168A110130A9
:102C9C00F6027608031D252E75080800F501F50AC5
:102CAC007508031908008312031309108316091001
:102CBC004630F4007408F00002300A168A11A3237F
:102CCC000A168A118316031309140830F4007408C9
:102CDC00F00002300A168A11A3230A168A118312F5
:102CEC000313091C7C2EF501F50A7D2EF5013C30F1
:102CFC00F4007408F00002300A168A11A3230A1695
:102D0C008A11562EF7000830F4007408F800770882
:102D1C000139F4007408F6008312031309108316AA
:102D2C000910000000000000000000007603031DE5
:102D3C00A22E8316031309140730F4007408F00054
:102D4C0002300A168A11A3230A168A11831603135A
:102D5C000914000000007708F4000310740CF5004F
:102D6C007508F7000130F8027808031908008D2E59
:102D7C00FB01FC01760877040319F52EFD01FD0A11
:102D8C00F71BD42E01300310F60DF70DFF3E031D7B
:102D9C00C92E0130FA007A08FD07C62E0130031047
:102DAC00FB0DFC0DFF3E031DD52E77087902031D8C
:102DBC00E12E76087802031CEA2E7608F8027708D2
:102DCC00031CF903F9027B1401300310F70CF60C09
:102DDC00FF3E031DEB2E0130FD02031DD42E7C089B
:102DEC00F7007B08F60008007408803AF700803082
:102DFC007702031D032F59087302031C382F760822
:102E0C00803A803C031D0E2F750883120313580261
:102E1C000318382F023083120313B8000030B900A6
:102E2C007830F7007708D1003030F7007708CF0002
:102E3C003030F7007708CE004F300A168A11402444
:102E4C000A168A114B300A168A1140240A168A1166
:102E5C0020300A168A1140240A168A1120300A16CC
:102E6C008A1140248312031351080800F601F31F42
:102E7C00462FF209F309F20A0319F30AF601F60ACE
:102E8C00F11F4D2FF009F109F00A0319F10A70082E
:102E9C00710403197A2FF501F50AF11B612F01302A
:102EAC000310F00DF10DFF3E031D562F0130F40001
:102EBC007408F507532F71087302031D672F7008F0
:102ECC007202031C6F2F7008F2027108031CF303CB
:102EDC00F30201300310F10CF00CFF3E031D702FB8
:102EEC000130F502031D612F76080319822FF209B8
:102EFC00F309F20A0319F30A7308F1007208F000DF
:102F0C0008007303740403198F2F73087404031DD2
:102F1C009B2F4D300A168A1140240A168A116F30E5
:102F2C000A168A1140240A168A1102307306740498
:102F3C00031DAC2F54300A168A1140240A168A112C
:102F4C0075300A168A1140240A168A11033073064A
:102F5C007404031DBD2F57300A168A1140240A161B
:102F6C008A1165300A168A1140240A168A11043017
:102F7C0073067404031DCE2F54300A168A11402494
:102F8C000A168A1168300A168A1140240A168A1108
:102F9C00053073067404031DDF2F46300A168A11A0
:102FAC0040240A168A1172300A168A1140240A1615
:102FBC008A11063073067404031DF02F53300A1661
:102FCC008A1140240A168A1161300A168A1140248B
:102FDC000A168A11073073067404031D0800533057
:102FEC000A168A1140240A168A1175300A168A119B
:042FFC004024080065
:02400E00323F3F
:00000001FF
