:020000040000FA
:060000000A128A11E62F2E
:10000800F7000830F4007408F80077080139F400A4
:100018007408F600831203130910831603130910DA
:10002800000000000000000000007603031D1D28EA
:100038001E2821288316031309140730F4007408B6
:10004800F00002300A168A112F260A128A11831626
:1000580003130914000000007708F4000310740C5F
:10006800F5007508F7000130F8027808031D3D28EF
:100078003E280928080083120313861844284528B7
:100088004D282308F3007308A0002408F300730820
:10009800A1002308F039F300F4017308F50074088F
:1000A800F600750E0F39F500760EF039F504760E68
:1000B8000F39F600F030F61D0030F6047508303EB2
:1000C8000A168A11C2260A128A11831203132308F8
:1000D8000F39F300F4017308F5007408F600750889
:1000E800303E0A168A11C2260A128A112F300A16C1
:1000F8008A11C2260A128A11831203132408F039BE
:10010800F300F4017308F5007408F600750E0F3952
:10011800F500760EF039F504760E0F39F600F0305A
:10012800F61D0030F6047508303E0A168A11C226FC
:100138000A128A118312031324080F39F300F401F9
:100148007308F5007408F6007508303E0A168A111F
:10015800C2260A128A112F300A168A11C2260A12DA
:100168008A11831203132608F039F300F401730887
:10017800F5007408F600750E0F39F500760EF039A3
:10018800F504760E0F39F600F030F61D0030F6044F
:100198007508303E0A168A11C2260A128A1183127D
:1001A800031326080F39F300F4017308F5007408E7
:1001B800F6007508303E0A168A11C2260A128A11FC
:1001C8000800831203130714871407118715071AE9
:1001D800EE28EF28D22B01300A128A1505200A12C0
:1001E8008A1180300A128A1505200A128A115430A1
:1001F8000A168A11C2260A128A1169300A168A1149
:10020800C2260A128A116D300A168A11C2260A12EB
:100218008A1165300A168A11C2260A128A115F30BD
:100228000A168A11C2260A128A1153300A168A112E
:10023800C2260A128A1165300A168A11C2260A12C3
:100248008A1174300A168A11C2260A128A11743069
:100258000A168A11C2260A128A1169300A168A11E8
:10026800C2260A128A116E300A168A11C2260A128A
:100278008A1167300A168A11C2260A128A11733047
:100288000A168A11C2260A128A1183120313071446
:10029800871007158715871B52295329B5297830E8
:1002A8004506031D58295929B5290130D600560895
:1002B800C6070130B3070318B40A0030B40734087E
:1002C800F8003308F7000A30F9000030FA000A167F
:1002D8008A110B260A128A11780883120313B400B4
:1002E8007708B3003208D2003108D1003408D400AE
:1002F8003308D3003930D6005608D5000A168A11BB
:100308007C270A128A1183120313D700D8015708D1
:10031800B1005808B2005430D6005608F00046081C
:100328000A168A111D260A128A1183120313D7008E
:100338005708C600023031063204031DA429A52936
:10034800B029043033063404031DAB29AC29B02985
:10035800B301B401B101B2010A168A1169260A1261
:100368008A1183120313871BBA29BB290E2A7930F5
:100378004506031DC029C1290E2A0130D60056089A
:10038800C4070130B7070318B80A0030B80738089F
:10039800F8003708F7000A30F9000030FA000A16AA
:1003A8008A110B260A128A11780883120313B800DF
:1003B8007708B7003608D2003508D1003808D400CD
:1003C8003708D3003930D6005608D5000A168A11E6
:1003D8007C270A128A1183120313D700D801570801
:1003E800B5005808B6005A304406031DFC29FD29FB
:1003F800FE29C401063035063604031D042A052AE1
:10040800092AB501B601B701B8010A168A11692689
:100418000A128A1188300A128A1505200A128A11CE
:10042800831203134608D6005608DD004408D60098
:100438005608DC001130D6005608F0003930D700D5
:100448005708F10046080A168A11AB260A128A11C3
:1004580083120313D8005808C6002130D600560866
:10046800F0004A30D7005708F10046080A168A11EA
:10047800AB260A128A1183120313D8005808C60043
:100488001130D6005608F0003930D7005708F1006F
:1004980044080A168A11AB260A128A11831203131A
:1004A800D8005808C4002130D6005608F0004A3059
:1004B800D7005708F10044080A168A11AB260A1219
:1004C8008A1183120313D8005808C4003130D600AB
:1004D8005608F0005930D7005708F10044080A16AA
:1004E8008A11AB260A128A1183120313D8005808FE
:1004F800C4004130D6005608F0006A30D7005708CB
:10050800F10044080A168A11AB260A128A118312CE
:100518000313D8005808C4005130D6005608F0001C
:100528007A30D7005708F10044080A168A11AB261A
:100538000A128A1183120313D8005808C40007103E
:10054800871407158715071BAA2AAB2AC32A013067
:100558000A128A1505200A128A1183120313C6018A
:10056800C401B301B401B101B201B501B601B701CB
:10057800B8010A168A11A8270A128A11D22B071461
:100588008714071187153008F8002F08F700023084
:10059800F9000030FA000A168A110B260A128A118D
:1005A800780883120313B0007708AF00071ADD2A12
:1005B800DE2A1B2B2F083004031DE32AE42A1B2BF9
:1005C80090300A128A1505200A128A1148300A1634
:1005D8008A11C2260A128A116F300A168A11C22697
:1005E8000A128A1175300A168A11C2260A128A114D
:1005F80072300A168A11C2260A128A113A300A166D
:100608008A11C2260A128A11783083120313D6007F
:100618005608C5000A168A1169260A128A1101307D
:1006280083120313AF070318B00A0030B00707148A
:10063800871407118715071A222B232B5E2B2F03EC
:100648003004031D282B292B5E2B0130AF0703181C
:10065800B00A0030B0070A168A1169260A128A11F0
:1006680090300A128A1505200A128A114D300A168E
:100678008A11C2260A128A1169300A168A11C226FC
:100688000A128A116E300A168A11C2260A128A11B3
:1006980073300A168A11C2260A128A113A300A16CB
:1006A8008A11C2260A128A11793083120313D600DE
:1006B8005608C50088300A128A1505200A128A11C0
:1006C80083120313071487140711871588300A1239
:1006D8008A1505200A128A1154300A168A11C22670
:1006E8000A128A1169300A168A11C2260A128A1158
:1006F8006D300A168A11C2260A128A1165300A1646
:100708008A11C2260A128A113A300A168A11C2269A
:100718000A128A11831203133108303E0A168A110D
:10072800C2260A128A11831203133308303E0A16AE
:100738008A11C2260A128A113A300A168A11C2266A
:100748000A128A11831203133508303E0A168A11D9
:10075800C2260A128A11831203133708303E0A167A
:100768008A11C2260A128A118312031307108714EA
:1007780007158715871BC12BC22BF528C601C40195
:10078800B301B401B101B201B501B601B701B801B5
:1007980001300A128A1505200A128A1108008312EC
:1007A80003130710871407158715071ADC2BDD2B91
:1007B800E52F01300A128A1505200A128A118030A5
:1007C8000A128A1505200A128A1144300A168A115B
:1007D800C2260A128A1161300A168A11C2260A1222
:1007E8008A1174300A168A11C2260A128A116530D3
:1007F8000A168A11C2260A128A115F300A168A114D
:10080800C2260A128A1153300A168A11C2260A12FF
:100818008A1165300A168A11C2260A128A117430A2
:100828000A168A11C2260A128A1174300A168A1107
:10083800C2260A128A1169300A168A11C2260A12B9
:100848008A116E300A168A11C2260A128A11673076
:100858000A168A11C2260A128A1173300A168A11D8
:10086800C2260A128A118312031307148710071568
:100878008715871B402C412CA22C78304506031D78
:10088800462C472CA22C0130D6005608C60701304A
:10089800B3070318B40A0030B4073408F800330863
:1008A800F7000A30F9000030FA000A168A110B2600
:1008B8000A128A11780883120313B4007708B30068
:1008C8003208D2003108D1003408D4003308D300EC
:1008D8003930D6005608D5000A168A117C270A1224
:1008E8008A1183120313D700D8015708B10058089A
:1008F800B2004330D6005608F00046080A168A119E
:100908001D260A128A1183120313D7005708C6003E
:1009180031033204031D912C922C9D2C0330330695
:100928003404031D982C992C9D2CB301B401B101FA
:10093800B2010A168A1169260A128A118312031350
:10094800871BA72CA82C0A2D79304506031DAD2C32
:10095800AE2C0A2D0130D6005608C3070130AD076A
:100968000318AE0A0030AE072E08F8002D08F7006D
:100978000A30F9000030FA000A168A110B260A120A
:100988008A11780883120313AE007708AD002C088B
:10099800D2002B08D1002E08D4002D08D3003930FE
:1009A800D6005608D5000A168A117C270A128A1121
:1009B80083120313D700D8015708AB005808AC00BE
:1009C8006330D6005608F00043080A168A111D261F
:1009D8000A128A1183120313D7005708C300033081
:1009E8002B062C04031DF92CFA2C052D02302D069C
:1009F8002E04031D002D012D052DAB01AC01AD0109
:100A0800AE010A168A1169260A128A118312031383
:100A1800871B0F2D102D632D7A304506031D152DCC
:100A2800162D632D0130D6005608C4070130B707CC
:100A38000318B80A0030B8073808F8003708F70074
:100A48000A30F9000030FA000A168A110B260A1239
:100A58008A11780883120313B8007708B70036089C
:100A6800D2003508D1003808D4003708D30039300F
:100A7800D6005608D5000A168A117C270A128A1150
:100A880083120313D700D8015708B5005808B600D9
:100A98005A304406031D512D522D532DC4010630E2
:100AA80035063604031D592D5A2D5E2DB501B601A4
:100AB800B701B8010A168A1169260A128A11831227
:100AC80003134608D6005608DF004408D600560827
:100AD800E1004308D6005608DE001130D60056085B
:100AE800F0003930D7005708F10046080A168A1175
:100AF800AB260A128A1183120313D8005808C600BD
:100B08001130D6005608F0003930D7005708F100E8
:100B180043080A168A11AB260A128A118312031394
:100B2800D8005808C3002130D6005608F0004A30D3
:100B3800D7005708F10043080A168A11AB260A1293
:100B48008A1183120313D8005808C3001130D60045
:100B58005608F0003930D7005708F10043080A1644
:100B68008A11AB260A128A1183120313D800580877
:100B7800C3002130D6005608F0004A30D700570885
:100B8800F10043080A168A11AB260A128A11831249
:100B98000313D8005808C3003130D6005608F000B7
:100BA8005930D7005708F10043080A168A11AB26B6
:100BB8000A128A1183120313D8005808C30011308F
:100BC800D6005608F0003930D7005708F10044081D
:100BD8000A168A11AB260A128A1183120313D80047
:100BE8005808C4002130D6005608F0004A30D70013
:100BF8005708F10044080A168A11AB260A128A110E
:100C080083120313D8005808C4001130D6005608C0
:100C1800F0003930D7005708F10044080A168A1145
:100C2800AB260A128A1183120313D8005808C4008D
:100C38002130D6005608F0004A30D7005708F10096
:100C480044080A168A11AB260A128A118312031362
:100C5800D8005808C4003130D6005608F000593082
:100C6800D7005708F10044080A168A11AB260A1261
:100C78008A1183120313D8005808C4004130D600E3
:100C88005608F0006A30D7005708F10044080A16E1
:100C98008A11AB260A128A1183120313D800580846
:100CA800C4005130D6005608F0007A30D7005708F3
:100CB800F10044080A168A11AB260A128A11831217
:100CC8000313D8005808C40088300A128A15052072
:100CD8000A128A1183120313071087140715871540
:100CE800071B772E782E8F2EC601C401C301B301CE
:100CF800B401B101B201B501B601B701B8010130C3
:100D08000A128A1505200A128A110A168A11A827BA
:100D18000A128A11E52F071087140715871530085E
:100D2800F8002F08F7000330F9000030FA000A161F
:100D38008A110B260A128A11780883120313B0004D
:100D48007708AF00071AA92EAA2EED2E2F08300417
:100D5800031DAF2EB02EED2E90300A128A150520F5
:100D68000A128A1144300A168A11C2260A128A11F6
:100D780061300A168A11C2260A128A1179300A16B7
:100D88008A11C2260A128A113A300A168A11C22614
:100D98000A128A1120300A168A11C2260A128A11EA
:100DA80020300A168A11C2260A128A117930831253
:100DB8000313D6005608C5000A168A1169260A12B6
:100DC8008A11013083120313AF070318B00A0030E9
:100DD800B0070710871407158715071AF42EF52E84
:100DE800362F2F033004031DFA2EFB2E362F013029
:100DF800AF070318B00A0030B0070A168A1169262F
:100E08000A128A1190300A128A1505200A128A11CC
:100E18004D300A168A11C2260A128A116F300A1634
:100E28008A11C2260A128A116E300A168A11C2263F
:100E38000A128A1174300A168A11C2260A128A11F5
:100E480068300A168A11C2260A128A113A300A161E
:100E58008A11C2260A128A11783083120313D60027
:100E68005608C5000710871407158715071A3D2F60
:100E78003E2F822F02302F063004031D442F452FAA
:100E8800822F0A168A1169260A128A1101308312E2
:100E98000313AF070318B00A0030B00790300A12E6
:100EA8008A1505200A128A1159300A168A11C22693
:100EB8000A128A1165300A168A11C2260A128A1184
:100EC80061300A168A11C2260A128A1172300A166D
:100ED8008A11C2260A128A113A300A168A11C226C3
:100EE8000A128A1120300A168A11C2260A128A1199
:100EF8007A3083120313D6005608C50088300A12C8
:100F08008A1505200A128A11831203132B08303E12
:100F18000A168A11C2260A128A11831203132D088F
:100F2800303E0A168A11C2260A128A112F300A1672
:100F38008A11C2260A128A11831203133108303E1D
:100F48000A168A11C2260A128A1183120313330859
:100F5800303E0A168A11C2260A128A112F300A1642
:100F68008A11C2260A128A11831203133508303EE9
:100F78000A168A11C2260A128A1183120313370825
:100F8800303E0A168A11C2260A128A1183120313E6
:100F98000710871407158715871BD32FD42FE32B2A
:100FA800C601C401C301B301B401B101B201B50165
:100FB800B601B701B80101300A128A1505200A12D4
:100FC8008A11080083136330FD001530FE00DB3002
:100FD800FF005B3084000A168A1145260A128A111E
:100FE8002030840051300A168A11D3250A128A113A
:080FF80083010A128A15582B2F
:10100A00F200831203138512051285110A168A113A
:10101A007F260A128A15831203138515720888001F
:10102A000A168A117F260A128A158312031385115A
:10103A000800831203138616BF300A168A11262760
:10104A000A128A15F601F7010A128A154C200A12A9
:10105A008A15F5007608203E8400750883138000FF
:10106A000130F6070318F70A0030F7077708803AC5
:10107A00FF0080307F02031D442807307602031CDC
:10108A004728482829288312031386120800F401E6
:10109A00831603130616F201F301831203130610D3
:1010AA007408F0000310700CF1007108F400061EB9
:1010BA005F286028652874088038F0007008F400FA
:1010CA0006140130F2070318F30A0030F307730815
:1010DA00803AFF0080307F02031D752808307202B3
:1010EA00031C7828792852288316031306128312C0
:1010FA00031306107408080070087104031986287F
:10110A008728B628F501F50A952801300310F00D55
:10111A00F10DFF3E031D8B280130F4007408F5071A
:10112A00F11F982899288A2871087302031D9F289D
:10113A0070087202031CA228A328A9287008F202C8
:10114A007108031CF303F30201300310F10CF00CD5
:10115A00FF3E031DAA280130F502031DB528B62853
:10116A0099287308F1007208F0000800F5010830A8
:10117A00F4007408F6000310F50C83120313091027
:10118A00831603130910000000000000000000008D
:10119A000000831603130914000000000000000079
:1011AA00000000308312031309180130BB003B080A
:1011BA000319E028E128E228F5170730F40074083B
:1011CA00F00002300A168A112F260A128A150130F7
:1011DA00F6027608031DF228F328C02875080800CD
:1011EA00F501F50A2929831203130910831603133B
:1011FA0009104630F4007408F00002300A168A1109
:10120A002F260A128A158316031309140830F400CC
:10121A007408F00002300A168A112F260A128A155B
:10122A0083120313091C1A291B291E29F501F50A21
:10123A001F29F5013C30F4007408F00002300A1648
:10124A008A112F260A128A157508031D2D292E299F
:10125A00F8280800831203134C08F700F8017408F1
:10126A007806031D3A2973087706031D3D293E298E
:10127A006B297608803A803C031D452975084B0284
:10128A000318482949296B29023083120313A7003E
:10129A000030A8007830F7007708BF004F300A16F0
:1012AA008A11C2260A128A154B300A168A11C226D8
:1012BA000A128A1520300A168A11C2260A128A15BB
:1012CA0020300A168A11C2260A128A1508008312C9
:1012DA0003134C08F700F80174087806031D7729F0
:1012EA0073087706031D7A297B29AD297608803A87
:1012FA00F70080307702031D84294B087502031812
:10130A0087298829AD290230831203132706280466
:10131A00031D90299129AD297730F7007708BF007E
:10132A0057300A168A11C2260A128A1541300A163D
:10133A008A11C2260A128A1552300A168A11C22640
:10134A000A128A154D300A168A11C2260A128A15FD
:10135A000800FB01FC01760877040319B529B629B0
:10136A00ED29FD01FD0AC42901300310F60DF70D20
:10137A00FF3E031DBA290130FA007A08FD07F71F5C
:10138A00C729C829B92901300310FB0DFC0DFF3EFE
:10139A00031DC92977087902031DD5297608780221
:1013AA00031CD829D929E0297608F8027708031CF2
:1013BA00F903F9027B1401300310F70CF60CFF3E17
:1013CA00031DE1290130FD02031DEC29ED29C8297D
:1013DA007C08F7007B08F6000800F601F31FF629DF
:1013EA00F729FE29F209F309F20A0319F30AF601A9
:1013FA00F60AF11F012A022A072AF009F109F00A5E
:10140A000319F10A7008710403190C2A0D2A3C2ADF
:10141A00F501F50A1B2A01300310F00DF10DFF3E0C
:10142A00031D112A0130F4007408F507F11F1E2A62
:10143A001F2A102A71087302031D252A70087202D6
:10144A00031C282A292A2F2A7008F2027108031C71
:10145A00F303F30201300310F10CF00CFF3E031DFD
:10146A00302A0130F502031D3B2A3C2A1F2A76083E
:10147A000319402A412A462AF209F309F20A0319F2
:10148A00F30A7308F1007208F0000800F601F11F70
:10149A004F2A502A572AF009F109F00A0319F10ACA
:1014AA00F601F60AF31F5A2A5B2A642AF209F3099B
:1014BA00F20A0319F30A0130F4007408F606F70178
:1014CA00F8017008710403196B2A6C2AA32AF50122
:1014DA00F50A7A2A01300310F00DF10DFF3E031DC3
:1014EA00702A0130F4007408F507F11F7D2A7E2A5C
:1014FA006F2A01300310F70DF80DFF3E031D7F2AF6
:10150A0071087302031D8B2A70087202031C8E2A4B
:10151A008F2A962A7008F2027108031CF303F30259
:10152A00771401300310F10CF00CFF3E031D972ACB
:10153A000130F502031DA22AA32A7E2A760803197E
:10154A00A72AA82AAD2AF709F809F70A0319F80AF7
:10155A007808F1007708F000080083120313861850
:10156A00B72AB82AC02A2308F3007308A00024085F
:10157A00F3007308A1002208F039F300F40173089C
:10158A00F5007408F600750E0F39F500760EF0397D
:10159A00F504760E0F39F600F030F61D0030F60429
:1015AA007508303E0A168A11C2260A128A15831253
:1015BA00031322080F39F300F4017308F5007408C5
:1015CA00F6007508303E0A168A11C2260A128A15D2
:1015DA003A300A168A11C2260A128A15831203138E
:1015EA002108F039F300F4017308F5007408F600D5
:1015FA00750E0F39F500760EF039F504760E0F39AF
:10160A00F600F030F61D0030F6047508303E0A1672
:10161A008A11C2260A128A158312031321080F3966
:10162A00F300F4017308F5007408F6007508303EFB
:10163A000A168A11C2260A128A153A300A168A111D
:10164A00C2260A128A15831203132008F039F300FE
:10165A00F4017308F5007408F600750E0F39F500E9
:10166A00760EF039F504760E0F39F600F030F61DD5
:10167A000030F6047508303E0A168A11C2260A128C
:10168A008A158312031320080F39F300F401730833
:10169A00F5007408F6007508303E0A168A11C2264B
:1016AA000A128A15080002308316031386000A16E6
:1016BA008A11CC250A128A150A168A11A8270A1233
:1016CA008A150A168A1154260A128A150A168A11C6
:1016DA00E3250A128A150A168A11FE260A128A15A3
:1016EA000A168A11CC250A128A150A168A11EC25BD
:1016FA000A128A150A128A154A240A128A150A1225
:10170A008A151E200A128A1580300A128A150520A7
:10171A000A128A1554300A168A11C2260A128A1522
:10172A0065300A168A11C2260A128A156D300A16FF
:10173A008A11C2260A128A1570300A168A11C2261E
:10174A000A128A153A300A168A11C2260A128A150C
:10175A000A168A1151270A128A1590300A128A1516
:10176A0005200A128A1544300A168A11C2260A125C
:10177A008A1561300A168A11C2260A128A1574302D
:10178A000A168A11C2260A128A1565300A168A11A1
:10179A00C2260A128A153A300A168A11C2260A1273
:1017AA008A1520300A168A11C2260A128A150A12C6
:1017BA008A113F200A128A1588300A128A150520D2
:1017CA000A128A1554300A168A11C2260A128A1572
:1017DA0069300A168A11C2260A128A156D300A164B
:1017EA008A11C2260A128A1565300A168A11C22679
:1017FA000A128A153A300A168A11C2260A128A155C
:10180A000A128A15B2220A128A150A128A1578252C
:10181A000A128A150A128A11D3230A128A150A127F
:10182A008A11E5200A128A1598300A128A150520AB
:10183A000A128A150230F3000030F4000430F50071
:10184A000030F6000A128A152F210A128A15023070
:10185A00F3000030F4000530F5000030F6000A12FB
:10186A008A156C210A128A15831203133F080A1675
:10187A008A11DB260A128A150A168A11FA250A1211
:10188A008A157F2B0A128A1100288316031309145A
:10189A000A128A15F5200A128A15CC300A128A1100
:1018AA0004200A128A150A168A1195260A128A151E
:1018BA0044300A128A1104200A128A150A128A1559
:1018CA00F5200A128A15CC300A128A1104200A124B
:1018DA008A15BE300A128A1104200A128A150A12BF
:1018EA008A15BB200A128A1583120313D1005108E4
:1018FA00D0000A128A15BB200A128A158312031312
:10190A00D1005108CF00831603130914831203135D
:10191A004F08D10004300310D10DFF3E031D902C57
:10192A003F305105D2005008D30004300310D30CC5
:10193A00FF3E031D9B2C53085204D4005408CE00CA
:10194A005008D10003300310D10DFF3E031DA82C0F
:10195A000310510DD2005208CD000A30F0000030B9
:10196A00F1004E08D100D2015108F2005208F300EA
:10197A000A128A15F2210A128A15700883120313B1
:10198A00D3005308CB000A30F0000030F1004E08B3
:10199A00D100D2015108F2005208F3000A128A1546
:1019AA004B220A128A15700883120313D3005308B4
:1019BA00CC00B901BA01CD1FE32CE42CEC2C390878
:1019CA00883EB9003A080318013E133EBA004D1F7B
:1019DA00EF2CF02CF82C3908C43EB9003A08031849
:1019EA00013E093EBA00CD1EFB2CFC2C042D390801
:1019FA00E23EB9003A080318013E043EBA004D1E01
:101A0A00072D082D102D3908713EB9003A08031820
:101A1A00013E023EBA00E830F6000330F7003A0809
:101A2A00F9003908F8000A128A15AE210A128A1535
:101A3A00760883120313D1005108CA006430F600F5
:101A4A000030F7003A08F3003908F200E830F000F5
:101A5A000330F1000A128A1581200A128A157108C8
:101A6A00F9007008F8000A128A15AE210A128A15BE
:101A7A00760883120313D1005108C9000A30F60010
:101A8A000030F7003A08F3003908F2006430F00039
:101A9A000030F1000A128A1581200A128A1571088B
:101AAA00F9007008F8000A128A15AE210A128A157E
:101ABA00760883120313D1005108C8000A30F000D7
:101ACA000030F1003A08F3003908F2000A128A15C8
:101ADA0081200A128A15700883120313D100510853
:101AEA00C7000000080083120313071487100715A4
:101AFA008715071A812D822DFF2F01300A128A15A8
:101B0A0005200A128A1580300A128A1505200A123F
:101B1A008A1574300A168A11C2260A128A15683082
:101B2A000A168A11C2260A128A1572300A168A11F0
:101B3A00C2260A128A1565300A168A11C2260A12A4
:101B4A008A1573300A168A11C2260A128A15683053
:101B5A000A168A11C2260A128A156F300A168A11C3
:101B6A00C2260A128A156C300A168A11C2260A126D
:101B7A008A1564300A168A11C2260A128A1590300A
:101B8A000A128A1505200A128A1543300A168A1182
:101B9A00C2260A128A1575300A168A11C2260A1234
:101BAA008A1572300A168A11C2260A128A157230EA
:101BBA000A168A11C2260A128A1565300A168A116D
:101BCA00C2260A128A156E300A168A11C2260A120B
:101BDA008A1574300A168A11C2260A128A153A30F0
:101BEA000A168A11C2260A128A15831203133D089D
:101BFA00303E0A168A11C2260A128A158312031364
:101C0A003C08303E0A168A11C2260A128A15883002
:101C1A000A128A1505200A128A1553300A168A11E1
:101C2A00C2260A128A1565300A168A11C2260A12B3
:101C3A008A1574300A168A11C2260A128A155F306A
:101C4A000A168A11C2260A128A1574300A168A11CD
:101C5A00C2260A128A1568300A168A11C2260A1280
:101C6A008A1572300A168A11C2260A128A15653036
:101C7A000A168A11C2260A128A1573300A168A119E
:101C8A00C2260A128A1568300A168A11C2260A1250
:101C9A008A156F300A168A11C2260A128A156C3002
:101CAA000A168A11C2260A128A1564300A168A117D
:101CBA00C2260A128A153A300A168A11C2260A124E
:101CCA008A1598300A128A1505200A128A15831273
:101CDA0003130714871007158715B701B801B50153
:101CEA00B601B301B401B101B201B301B4010714E1
:101CFA00871007158715871B832E842EE72E9830A9
:101D0A000A128A1505200A128A1501308312031352
:101D1A00B3070318B40A0030B4073108D600D70154
:101D2A005608B1005708B2003408F8003308F70023
:101D3A000A30F9000030FA000A168A110B260A1234
:101D4A008A15770883120313D600D7015608B30001
:101D5A005708B4003108303E0A168A11C2260A1200
:101D6A008A15831203133308303E0A168A11C226D3
:101D7A000A128A15831203133208D2003108D100DD
:101D8A003408D4003308D3003930D6005608D500B9
:101D9A000A168A117C270A128A1583120313D7009E
:101DAA00D8015708B1005808B2003408B8003308FF
:101DBA00B7003208B6003108B5000A168A1169263A
:101DCA000A128A1583120313071087140715871539
:101DDA00071BF02EF12E372F3108D6005608BD000A
:101DEA003308D6005608BC0001300A128A150520AD
:101DFA000A128A1553300A168A11C2260A128A153D
:101E0A0041300A168A11C2260A128A1556300A1653
:101E1A008A11C2260A128A1545300A168A11C22662
:101E2A000A128A1544300A168A11C2260A128A151B
:101E3A0083120313D901DA01013083120313D9077C
:101E4A000318DA0A0030DA075A08803AFF00F53038
:101E5A007F02031D322F30305902031C352F362FD3
:101E6A00212FFF2F0714871407118715871B3E2F71
:101E7A003F2FB52F98300A128A1505200A128A15A3
:101E8A00013083120313B7020030031CB803B802EF
:101E9A003508D600D7015608B5005708B6003808E5
:101EAA00F8003708F7000A30F9000030FA000A167D
:101EBA008A110B260A128A15770883120313D60091
:101ECA00D7015608B7005708B8003508303E0A1639
:101EDA008A11C2260A128A15831203133708303E62
:101EEA000A168A11C2260A128A15831203133608A1
:101EFA00D2003508D1003808D4003708D300303072
:101F0A00D6005608D5000A168A11D4270A128A154D
:101F1A0083120313D700D8015708B5005808B60032
:101F2A003708303ED60038080318013E003ED70075
:101F3A00303056065704031DA32FA42FA82F0A30AA
:101F4A00B7000030B8003808B4003708B3003608C4
:101F5A00B2003508B1000A168A1169260A128A15D2
:101F6A00831203130710871407158715071BBE2F43
:101F7A00BF2FF12F3508D6005608BD003708D60006
:101F8A005608BC0001300A128A1505200A128A1561
:101F9A0053300A168A11C2260A128A1541300A16C5
:101FAA008A11C2260A128A1556300A168A11C226C0
:101FBA000A128A1545300A168A11C2260A128A1589
:101FCA0044300A168A11C2260A128A150A168A117A
:101FDA0069260A128A15FF2F071087140715871515
:101FEA00871BF82FF92F7C2E01300A128A1505203B
:061FFA000A128A1508001E
:102B98008316031389018312031389010800640053
:102BA8008001840A0406031900340406D42D003475
:102BB80000344034243411340634223400340730CD
:102BC800831603139F0005148801810189010800F9
:102BD8000630831603139F00F03087008312031317
:102BE800C601C501C401AF01B00108008312031377
:102BF8000714871407158711071A032E042E0A2EA7
:102C0800A701A8017830F0007008BF0008007A0812
:102C1800F1007908F0007808F3007708F2000A124A
:102C28008A15F2210A168A117108F8007008F7004F
:102C38000800F3007308303EF1000030031801303B
:102C4800F200700871067204031D2B2E2C2E2D2EF7
:102C5800F30173080800F2007008F1007108F3002E
:102C68000130F302031D392E3A2E342E0130F202C0
:102C7800031D3F2E402E302E08007E088A007F0854
:102C880082000A168A1141260A168A118000840ACF
:102C980004087D0603190034FF0A0319FE0A452EAD
:102CA800831203130610861286168E300A168A11AE
:102CB80026270A168A1100300A168A1126270A16AC
:102CC8008A118312031386120800F001F101013002
:102CD800F0070318F10A0030F1077108803AFF0085
:102CE800A7307F02031D7A2E10307002031C7D2E40
:102CF8007E2E6B2E0800F001F1010130F007031859
:102D0800F10A0030F1077108803AFF0080307F0235
:102D1800031D902E05307002031C932E942E812ED5
:102D28000800F001F1010130F0070318F10A003042
:102D3800F1077108803AFF0080307F02031DA62E3C
:102D480032307002031CA92EAA2E972E0800F40018
:102D58007408303EF200003003180130F3007108A7
:102D680072067304031DB92EBA2EC02E7008F20025
:102D78007208F4000130F40274080800F2008312AB
:102D880003138516051285110A168A117F260A165D
:102D98008A11831203138515720888000A168A118E
:102DA8007F260A168A118312031385110800F20080
:102DB80077307206031DE12EE22EFA2E83120313DA
:102DC80009150A168A1169260A168A11831203132D
:102DD80009110A168A1169260A168A118312031321
:102DE80009150A168A1169260A168A11831203130D
:102DF80009110800831603138501831203130510B4
:102E08000A168A117F260A168A11831203130514DB
:102E1800051530300A128A1505200A168A11013064
:102E28000A128A1505200A168A1106300A128A150E
:102E380005200A168A110C300A128A1505200A166E
:102E48008A110800F400F201F30183120313061239
:102E58000610741C302F312F322F06167408F0001C
:102E68000310700CF1007108F40006140130F20729
:102E78000318F30A0030F3077308803AFF00803024
:102E88007F02031D492F08307202031C4C2F4D2F5F
:102E9800292F8312031306100800831203134C080A
:102EA800303E0A168A11C2260A168A1183120313A3
:102EB8004B08303E0A168A11C2260A168A112E308D
:102EC8000A168A11C2260A168A11831203134A089F
:102ED800303E0A168A11C2260A168A118312031373
:102EE8004908303E0A168A11C2260A168A110800B5
:102EF800831203135308303EFB0054080318013EA5
:102F0800003EFC0055087B067C04031D8C2F8D2F8A
:102F1800A62F0130D1070318D20A0030D207520871
:102F2800F8005108F7000A30F9000030FA000A16D4
:102F38008A110B260A168A11780883120313D20005
:102F48007708D10051080800831203138616BE3093
:102F58000A168A1126270A168A11F501F60175083C
:102F68005B3E8400831300080A168A1126270A1676
:102F78008A110130F5070318F60A0030F6077608BB
:102F8800803AFF0080307F02031DCC2F0830750285
:102F9800031CCF2FD02FB32F8312031386120800E0
:102FA800831203135308303EFB0054080318013EF4
:102FB800003EFC0055087B067C04031DE42FE52F2A
:102FC800FE2FFF30D1070318D20AFF30D20752086C
:102FD800F8005108F7000A30F9000030FA000A1624
:102FE8008A110B260A168A11780883120313D20055
:082FF8007708D1005108080020
:02400E00323F3F
:00000001FF
