:020000040000FA
:100000000A128A11E02F8501831205100A168A113F
:1000100069240A128A11831203130514051530305E
:100020000A168A11BC240A128A1101300A168A1192
:10003000BC240A128A1106300A168A11BC240A123C
:100040008A110C300A168A11BC240800F601F31F2D
:100050003028F209F309F20A0319F30AF601F60A45
:10006000F11F3728F009F109F00A0319F10A7008A5
:10007000710403196428F501F50AF11B4B280130BE
:100080000310F00DF10DFF3E031D40280130F40078
:100090007408F5073D2871087302031D5128700884
:1000A0007202031C59287008F2027108031CF30342
:1000B000F30201300310F10CF00CFF3E031D5A282F
:1000C0000130F502031D4B28760803196C28F2094C
:1000D000F309F20A0319F30A7308F1007208F00039
:1000E00008000714871407118715071A0800013044
:1000F0000A168A11BC240A128A1180300A168A1143
:10010000BC240A128A1154300A168A11A5240A1234
:100110008A1169300A168A11A5240A128A116D30D3
:100120000A168A11A5240A128A1165300A168A1144
:10013000A5240A128A115F300A168A11A5240A1210
:100140008A1153300A168A11A5240A128A116530C1
:100150000A168A11A5240A128A1174300A168A1105
:10016000A5240A128A1174300A168A11A5240A12CB
:100170008A1169300A168A11A5240A128A116E3072
:100180000A168A11A5240A128A1167300A168A11E2
:10019000A5240A128A1173300A168A11A5240A129C
:1001A0008A110714871007158715871B482978308F
:1001B0004806031D48292B032C04031DE3280130A6
:1001C000E4006408C9072B082C04031DEB28013048
:1001D000AB000030AC000130B5070318B60A0030A0
:1001E000B6073608F8003508F7000A30F900003085
:1001F000FA000A168A1134240A128A117808B60005
:100200007708B50029032A04031D1F293408E000DC
:100210003308DF003608E2003508E1003030E40042
:100220006408E3000A168A1155250A128A11E500AE
:10023000E6016508B3006608B400A901AA01093007
:1002400035063604031D28290130A9000030AA0014
:100250005430E4006408F00049080A168A11162494
:100260000A128A11E5006508C90002303306340419
:10027000031D4329043035063604031D4329B50107
:10028000B601B301B4010A168A1155240A128A1163
:1002900083120313871BC62979304806031DC6291C
:1002A0002B032C04031D58290130E4006408C70700
:1002B0002B082C04031D60290130AB000030AC007A
:1002C0000130B9070318BA0A0030BA073A08F80033
:1002D0003908F7000A30F9000030FA000A168A11CE
:1002E00034240A128A117808BA007708B900290361
:1002F0002A04031D94293808E0003708DF003A0873
:10030000E2003908E1003030E4006408E3000A1636
:100310008A1155250A128A11E500E6016508B70021
:100320006608B800A901AA01093039063A04031D7C
:100330009D290130A9000030AA003808E0003708E4
:10034000DF003A08E2003908E1003930E4006408CF
:10035000E3000A168A1155250A128A11E500E60102
:100360006508B7006608B8005A3047060319C70188
:10037000063037063804031DC129B701B801B90199
:10038000BA010A168A1155240A128A1188300A16EF
:100390008A11BC240A128A112B082C04031DD829A7
:1003A0004108E40064088316AA0083124008E32988
:1003B0002B032C04031DE7294908E4006408831675
:1003C000AA0083124708E40064088316A9001130CC
:1003D0008312E4006408F0003930E5006508F1009C
:1003E0000430F2000030F30049080A128A15BB22DB
:1003F0000A128A11E6006608C9002130E400640888
:10040000F0004A30E5006508F1000430F2000030E9
:10041000F30049080A128A15BB220A128A11E60063
:100420006608C9001130E4006408F0003930E500C6
:100430006508F1000530F2000030F30047080A12A9
:100440008A15BB220A128A11E6006608C70021300D
:10045000E4006408F0004A30E5006508F10005306A
:10046000F2000030F30047080A128A15BB220A1274
:100470008A11E6006608C7003130E4006408F00025
:100480005930E5006508F1000530F2000030F30056
:1004900047080A128A15BB220A128A11E60066086A
:1004A000C7004130E4006408F0006A30E5006508E8
:1004B000F1000530F2000030F30047080A128A15F7
:1004C000BB220A128A11E6006608C7005130E40018
:1004D0006408F0007A30E5006508F1000530F200AC
:1004E0000030F30047080A128A15BB220A128A114B
:1004F000E6006608C7000710871407158715071B55
:10050000952A01300A168A11BC240A128A11C901DF
:10051000C701B501B601B301B401B701B801B90112
:10052000BA010A168A11C325080007148714071197
:1005300087153208F8003108F7000230F900003062
:10054000FA000A168A1134240A128A117808B200B5
:100550007708B100071AE52A31083204031DE52A9D
:1005600090300A168A11BC240A128A1148300A16E1
:100570008A11A5240A128A116F300A168A11A5243D
:100580000A128A1175300A168A11A5240A128A11D4
:1005900072300A168A11A5240A128A113A300A16F4
:1005A0008A11A5240A128A117830E4006408C80070
:1005B0000A168A1155240A128A1101308312031374
:1005C000B1070318B20A0030B207071487140711E5
:1005D0008715071A222B31033204031D222B013009
:1005E000B1070318B20A0030B2070A168A1155245F
:1005F0000A128A1190300A168A11BC240A128A1132
:100600004D300A168A11A5240A128A1169300A1679
:100610008A11A5240A128A116E300A168A11A5249D
:100620000A128A1173300A168A11A5240A128A1135
:100630003A300A168A11A5240A128A117930E40088
:100640006408C80088300A168A11BC240A128A116C
:10065000071487140711871588300A168A11BC24DD
:100660000A128A1154300A168A11A5240A128A1114
:1006700069300A168A11A5240A128A116D300A16E9
:100680008A11A5240A128A1165300A168A11A52436
:100690000A128A113A300A168A11A5240A128A11FE
:1006A0003308303E0A168A11A5240A128A11350829
:1006B000303E0A168A11A5240A128A113A300A1607
:1006C0008A11A5240A128A113708303E0A168A11A7
:1006D000A5240A128A113908303E0A168A11A52467
:1006E0000A128A110710871407158715871B7D28A2
:1006F000C901C701B501B601B301B401B701B80121
:10070000B901BA0101300A168A11BC24080083120B
:1007100003130710871407158715071A08000130FF
:100720000A168A11BC240A128A1180300A168A110C
:10073000BC240A128A1144300A168A11A5240A120E
:100740008A1161300A168A11A5240A128A1174309E
:100750000A168A11A5240A128A1165300A168A110E
:10076000A5240A128A115F300A168A11A5240A12DA
:100770008A1153300A168A11A5240A128A1165308B
:100780000A168A11A5240A128A1174300A168A11CF
:10079000A5240A128A1174300A168A11A5240A1295
:1007A0008A1169300A168A11A5240A128A116E303C
:1007B0000A168A11A5240A128A1167300A168A11AC
:1007C000A5240A128A1173300A168A11A5240A1266
:1007D0008A110714871007158715871B5F2C78303F
:1007E0004806031D5F2C2B032C04031DFB2B01303B
:1007F000E4006408C9072B082C04031D032C0130F6
:10080000AB000030AC000130B5070318B60A003069
:10081000B6073608F8003508F7000A30F90000304E
:10082000FA000A168A1134240A128A117808B600CE
:100830007708B50029032A04031D372C3408E0008B
:100840003308DF003608E2003508E1003030E4000C
:100850006408E3000A168A1155250A128A11E50078
:10086000E6016508B3006608B400A901AA010930D1
:1008700035063604031D402C0130A9000030AA00C3
:100880004330E4006408F00049080A168A1116246F
:100890000A128A11E5006508C90033033404031DF8
:1008A0005A2C033035063604031D5A2CB501B60107
:1008B000B301B4010A168A1155240A128A1183124F
:1008C0000313871BE52C79304806031DE52C2B0309
:1008D0002C04031D6F2C0130E4006408C6072B08AC
:1008E0002C04031D772C0130AB000030AC0001302C
:1008F000AF070318B00A0030B0073008F8002F081F
:10090000F7000A30F9000030FA000A168A11342480
:100910000A128A117808B0007708AF003008F80092
:100920002F08F7000830F9000030FA000A168A1183
:1009300034240A128A117808A8007708A70029032E
:100940002A04031DBC2C2E08E0002D08DF0030080F
:10095000E2002F08E1003030E4006408E3000A16EA
:100960008A1155250A128A11E500E6016508AD00D5
:100970006608AE00A901AA0109302F063004031D44
:10098000C52C0130A9000030AA006330E4006408DF
:10099000F00046080A168A1116240A128A11E50088
:1009A0006508C60003302D062E04031DE02C02301E
:1009B0002F063004031DE02CAD01AE01AF01B001E4
:1009C0000A168A1155240A128A1183120313871BEF
:1009D0004C2D7A304806031D4C2D2B032C04031D8F
:1009E000F52C0130E4006408C7072B082C04031D14
:1009F000FD2C0130AB000030AC000130B90703180A
:100A0000BA0A0030BA073A08F8003908F7000A3085
:100A1000F9000030FA000A168A1134240A128A11E9
:100A20007808BA007708B90029032A04031D312D7C
:100A30003808E0003708DF003A08E2003908E10032
:100A40003030E4006408E3000A168A1155250A12C2
:100A50008A11E500E6016508B7006608B800A9013B
:100A6000AA01093039063A04031D3A2D0130A900C4
:100A70000030AA005A3047060319C701063037066E
:100A80003804031D472DB701B801B901BA010A1690
:100A90008A1155240A128A11113083120313E400BB
:100AA0006408F0003930E5006508F1000130F2001B
:100AB0000030F30049080A128A15BB220A128A1173
:100AC000E6006608C9001130E4006408F00039301F
:100AD000E5006508F1000230F2000030F30046083E
:100AE0000A128A15BB220A128A11E6006608C6009D
:100AF0002130E4006408F0004A30E5006508F100A8
:100B00000230F2000030F30046080A128A15BB22B8
:100B10000A128A11E6006608C6001130E400640873
:100B2000F0003930E5006508F1000230F2000030D5
:100B3000F30046080A128A15BB220A128A11E6003F
:100B40006608C6002130E4006408F0004A30E50081
:100B50006508F1000230F2000030F30046080A1286
:100B60008A15BB220A128A11E6006608C6003130D7
:100B7000E4006408F0005930E5006508F100023037
:100B8000F2000030F30046080A128A15BB220A124E
:100B90008A11E6006608C6001130E4006408F0001F
:100BA0003930E5006508F1000330F2000030F30051
:100BB00047080A128A15BB220A128A11E600660843
:100BC000C7002130E4006408F0004A30E500650801
:100BD000F1000330F2000030F30047080A128A15D2
:100BE000BB220A128A11E6006608C7001130E40031
:100BF0006408F0003930E5006508F1000330F200C8
:100C00000030F30047080A128A15BB220A128A1123
:100C1000E6006608C7002130E4006408F0004A30AE
:100C2000E5006508F1000330F2000030F3004708EA
:100C30000A128A15BB220A128A11E6006608C7004A
:100C40003130E4006408F0005930E5006508F10037
:100C50000330F2000030F30047080A128A15BB2265
:100C60000A128A11E6006608C7004130E4006408F1
:100C7000F0006A30E5006508F1000330F200003052
:100C8000F30047080A128A15BB220A128A11E600ED
:100C90006608C7005130E4006408F0007A30E500CF
:100CA0006508F1000330F2000030F30047080A1233
:100CB0008A15BB220A128A11E6006608C7002B08B3
:100CC0002C04031D712E4408E40064088316AC0054
:100CD00083124208E40064088316AE0083124308BE
:100CE000822E2B032C04031D862E4908E400640881
:100CF0008316AC0083124708E40064088316AE0034
:100D000083124608E40064088316AB0088300A1694
:100D10008A11BC240A128A11071087140715871537
:100D2000071BAB2EC901C701C601AD01AE01AF0162
:100D3000B001B501B601B301B401B701B801B90101
:100D4000BA0101300A168A11BC240A128A110A1645
:100D50008A11C32508000710871407158715320864
:100D6000F8003108F7000330F9000030FA000A16E5
:100D70008A1134240A128A117808B2007708B10067
:100D8000071A012F31083204031D012F90300A1673
:100D90008A11BC240A128A1144300A168A11A52429
:100DA0000A128A1161300A168A11A5240A128A11C0
:100DB00079300A168A11A5240A128A113A300A16C5
:100DC0008A11A5240A128A1120300A168A11A52434
:100DD0000A128A1120300A168A11A5240A128A11D1
:100DE0007930E4006408C8000A168A1155240A12F2
:100DF0008A11013083120313B1070318B20A0030BD
:100E0000B2070710871407158715071A442F3103F7
:100E10003204031D442F0130B1070318B20A003019
:100E2000B2070A168A1155240A128A1190300A163E
:100E30008A11BC240A128A114D300A168A11A5247F
:100E40000A128A116F300A168A11A5240A128A1111
:100E50006E300A168A11A5240A128A1174300A16F5
:100E60008A11A5240A128A1168300A168A11A5244B
:100E70000A128A113A300A168A11A5240A128A1116
:100E80007830E4006408C800071087140715871538
:100E9000071A8A2F023031063204031D8A2F0A16E0
:100EA0008A1155240A128A11013083120313B107E3
:100EB0000318B20A0030B20790300A168A11BC2417
:100EC0000A128A1159300A168A11A5240A128A11A7
:100ED00065300A168A11A5240A128A1161300A1691
:100EE0008A11A5240A128A1172300A168A11A524C1
:100EF0000A128A113A300A168A11A5240A128A1196
:100F000020300A168A11A5240A128A117A30E400C8
:100F10006408C80088300A168A11BC240A128A1193
:100F20002D08303E0A168A11A5240A128A112F08AC
:100F3000303E0A168A11A5240A128A112F300A1689
:100F40008A11A5240A128A113308303E0A168A1122
:100F5000A5240A128A113508303E0A168A11A524E2
:100F60000A128A112F300A168A11A5240A128A1130
:100F70003708303E0A168A11A5240A128A11390848
:100F8000303E0A168A11A5240A128A110710871406
:100F900007158715871B952BC901C701C601B50128
:100FA000B601B301B401B701B801B901BA01AD018D
:100FB000AE01AF01B00101300A168A11BC2408004D
:100FC0008313B030FD001430FE000030FF00A83065
:100FD00084000A168A1148240A128A11A03084005B
:100FE000A8300A168A11F8230A128A1120308400C8
:100FF0005F300A168A11F82383010A128A15122C0F
:101004008316890183128901080073037404031988
:101014000F2873087404031D1B284D300A168A1107
:10102400A5240A128A156F300A168A11A5240A12F9
:101034008A15023073067404031D2C2854300A16D2
:101044008A11A5240A128A1575300A168A11A52454
:101054000A128A15033073067404031D3D285730A1
:101064000A168A11A5240A128A1565300A168A11ED
:10107400A5240A128A15043073067404031D4E282D
:1010840054300A168A11A5240A128A1568300A16E1
:101094008A11A5240A128A15053073067404031DE7
:1010A4005F2846300A168A11A5240A128A1572305E
:1010B4000A168A11A5240A128A15063073067404C6
:1010C400031D702853300A168A11A5240A128A15A2
:1010D40061300A168A11A5240A128A15073073068C
:1010E4007404031D080053300A168A11A5240A1239
:1010F4008A1575300A168A11A524080086188A28CC
:101104002308F3007308A0002408F3007308A10067
:101114002308F039F300F4017308F5007408F600AD
:10112400750E0F39F500760EF039F504760E0F3989
:10113400F600F030F61D0030F6047508303E0A164D
:101144008A11A5240A128A1523080F39F300F40121
:101154007308F5007408F6007508303E0A168A1103
:10116400A5240A128A152F300A168A11A5240A12F8
:101174008A152408F039F300F4017308F5007408A3
:10118400F600750E0F39F500760EF039F504760E7B
:101194000F39F600F030F61D0030F6047508303EC5
:1011A4000A168A11A5240A128A1524080F39F30095
:1011B400F4017308F5007408F6007508303E0A1649
:1011C4008A11A5240A128A152F300A168A11A52419
:1011D4000A128A152608F039F300F4017308F500A1
:1011E4007408F600750E0F39F500760EF039F50423
:1011F400760E0F39F600F030F61D0030F60475084F
:10120400303E0A168A11A5240A128A1526080F39B7
:10121400F300F4017308F5007408F6007508303E15
:101224000A168A11A5240800861820292308F30029
:101234007308A0002408F3007308A1002208F03901
:10124400F300F4017308F5007408F600750E0F3905
:10125400F500760EF039F504760E0F39F600F0300D
:10126400F61D0030F6047508303E0A168A11A524CE
:101274000A128A157508F3007308CA0022080F3988
:10128400F300F4017308F5007408F6007508303EA5
:101294000A168A11A5240A128A153A300A168A11E6
:1012A400A5240A128A157508F3007308CB002108D7
:1012B400F039F300F4017308F5007408F600750EB4
:1012C4000F39F500760EF039F504760E0F39F60075
:1012D400F030F61D0030F6047508303E0A168A1107
:1012E400A5240A128A1521080F39F300F4017308A2
:1012F400F5007408F6007508303E0A168A11A52414
:101304000A128A153A300A168A11A5240A128A1575
:101314002008F039F300F4017308F5007408F600AE
:10132400750E0F39F500760EF039F504760E0F3987
:10133400F600F030F61D0030F6047508303E0A164B
:101344008A11A5240A128A1520080F39F300F40122
:101354007308F5007408F6007508303E0A168A1101
:10136400A5240800831609140A168A11D7260A121E
:101374008A15CC300A168A110B270A128A150A1606
:101384008A117D240A128A1544300A168A110B2701
:101394000A128A150A168A11D7260A128A15CC301F
:1013A4000A168A110B270A128A15BE300A168A11E8
:1013B4000B270A128A150A168A11A3260A128A15FD
:1013C40083120313DF005F08DE000A168A11A326C6
:1013D4000A128A1583120313DF005F08DD008316E7
:1013E400091483125D08DF0004300310DF0DFF3E93
:1013F400031DF7293F305F05E0005E08E10004307B
:101404000310E10CFF3E031D022A61086004E200A0
:101414006208DC005E08DF0003300310DF0DFF3ECE
:10142400031D0F2A03105F0DE0006008DB000A3083
:10143400DF005F08F0005C080A168A1132250A12E0
:101444008A15E0006008D9000A30DF005F08F00068
:101454005C080A168A1111250A128A15E000600830
:10146400DA00BD01BE01DB1F3F2A3D08883EBD00F6
:101474003E080318013E133EBE005B1F492A3D0887
:10148400C43EBD003E080318013E093EBE00DB1EFB
:10149400532A3D08E23EBD003E080318013E043EC7
:1014A400BE005B1E5D2A3D08713EBD003E08031868
:1014B400013E023EBE00E830F6000330F7003E086D
:1014C400F9003D08F8000A168A1141270A128A1504
:1014D4007608DF005F08D8006430F6000030F700BB
:1014E4003E08F3003D08F200E830F0000330F1005C
:1014F4000A168A1171260A128A157108F9007008F1
:10150400F8000A168A1141270A128A157608DF00A4
:101514005F08D7000A30F6000030F7003E08F300F9
:101524003D08F2006430F0000030F1000A168A1120
:1015340071260A128A157108F9007008F8000A1653
:101544008A1141270A128A157608DF005F08D6003F
:101554000A30F0000030F1003E08F3003D08F200CC
:101564000A168A1171267008DF005F08D500000092
:101574000800F6007608303EF4000030031801300D
:10158400F500710874067504031D102C7008F4002E
:101594007408F600AB01AC0139307106031DDA2A78
:1015A40072037304031DDA2A0930F4007408C400BA
:1015B4004A307106031DE62A72037304031DE62AEA
:1015C4001930F4007408C40059307106031DF22A5E
:1015D40072037304031DF22A2930F4007408C40052
:1015E4006A307106031DFE2A72037304031DFE2A6A
:1015F4003930F4007408C4007A307106031D0A2BD4
:1016040072037304031D0A2B4930F4007408C400E8
:1016140039307106031D172B023072067304031D43
:10162400172B0930F4007408C3004A307106031DF7
:10163400242B023072067304031D242B1930F4008A
:101644007408C30059307106031D312B0230720631
:101654007304031D312B2930F4007408C3006A306D
:101664007106031D3E2B023072067304031D3E2BCC
:101674003930F4007408C3007A307106031D4B2B13
:10168400023072067304031D4B2B4930F4007408B6
:10169400C30039307106031D582B033072067304DE
:1016A400031D582B0930F4007408C2004A30710637
:1016B400031D652B033072067304031D652B19305B
:1016C400F4007408C20059307106031D722B0330F4
:1016D40072067304031D722B2930F4007408C200CF
:1016E4006A307106031D7F2B033072067304031DD9
:1016F4007F2B3930F4007408C2007A307106031D60
:101704008C2B033072067304031D8C2B4930F400B8
:101714007408C20039307106031D992B0430720617
:101724007304031D992B0930F4007408C1004A3076
:101734007106031DA62B043072067304031DA62B29
:101744001930F4007408C10059307106031DB32B1D
:10175400043072067304031DB32B2930F40074089B
:10176400C1006A307106031DC02B04307206730475
:10177400031DC02B3930F4007408C1007A3071069F
:10178400031DCD2B043072067304031DCD2B493089
:10179400F4007408C10039307106031DDA2B0530DA
:1017A40072067304031DDA2B0930F4007408C000B8
:1017B4004A307106031DE72B053072067304031DBE
:1017C400E72B1930F4007408C00059307106031D6A
:1017D400F42B053072067304031DF42B2930F40036
:1017E4007408C0006A307106031D012C05307206AE
:1017F4007304031D012C3930F4007408C0007A30DE
:101804007106031D0E2C053072067304031D0E2C85
:101814004930F4007408C0000130F602760808006C
:101824000230831686000A128A1502200A128A15CB
:101834000A168A11C3250A128A150A168A11252442
:101844000A128A150A168A11F0230A128A150A1234
:101854008A1103200A128A150A128A1502200A1212
:101864008A150A168A1191240A128A150230E9008F
:101874006908CE000430E9006908CD000A128A150F
:10188400B4210A128A150A168A1115260A128A1513
:1018940080300A168A11BC240A128A1554300A169A
:1018A4008A11A5240A128A1565300A168A11A524FC
:1018B4000A128A156D300A168A11A5240A128A158D
:1018C40070300A168A11A5240A128A153A300A16AB
:1018D4008A11A5240A128A150A168A11F0240A12FA
:1018E4008A1590300A168A11BC240A128A154430CB
:1018F4000A168A11A5240A128A1561300A168A1159
:10190400A5240A128A1574300A168A11A5240A120B
:101914008A1565300A168A11A5240A128A153A30E6
:101924000A168A11A5240A128A1520300A168A1169
:10193400A5240A128A150A128A1580200A128A1509
:1019440088300A168A11BC240A128A1554300A16E1
:101954008A11A5240A128A1569300A168A11A52447
:101964000A128A156D300A168A11A5240A128A15DC
:1019740065300A168A11A5240A128A153A300A1605
:101984008A11A5240A128A150A128A1516210A1226
:101994008A150A128A1592250A128A150A128A11C0
:1019A40087230A128A150A128A1171200A128A15CB
:1019B40098300A168A11BC240A128A154A08303E45
:1019C400E900003003180130EA00303069066A0487
:1019D400031D242D4B08303EE9000030031801306C
:1019E400EA00303069066A04031D242D4E08E9001C
:1019F400EA016908F3006A08F4004D08EB00EC0101
:101A04006B08F5006C08F6000A168A11BE270A1244
:101A14008A15ED006D08CC004E08E900EA0169085A
:101A2400F3006A08F4004D08EB00EC016B08F500C4
:101A34006C08F6000A168A117D270A128A15ED0031
:101A44006D08CC000A168A11EB250A128A15E900E2
:101A54006908CC004C080A168A11D3240A128A1584
:101A640020300A168A11A5240A128A1548300A164B
:101A74008A11A5240A128A153A300A168A11A52455
:101A84000A128A1550080A168A11A5240A128A1500
:101A940043300A168A11A5240A128A153A300A1606
:101AA4008A11A5240A128A154F080A168A11A52438
:101AB4000A128A15EE01EF0120300A168A11A524B4
:101AC4000A128A150130EE070318EF0A0030EF07F7
:101AD4006F08803AFF0080307F02031D732D0330AE
:101AE4006E02031C5E2D831203133008F8002F08C6
:101AF400F7000830F9000030FA000A168A1134247D
:101B04000A128A157808A8007708A7002808F400A4
:101B14002708F3000A128A1507200A128A15402C96
:101B24000714871007158715071A080001300A16CD
:101B34008A11BC240A128A1580300A168A11BC2420
:101B44000A128A1574300A168A11A5240A128A15F3
:101B540068300A168A11A5240A128A1572300A16E8
:101B64008A11A5240A128A1565300A168A11A52439
:101B74000A128A1573300A168A11A5240A128A15C4
:101B840068300A168A11A5240A128A156F300A16BB
:101B94008A11A5240A128A156C300A168A11A52402
:101BA4000A128A1564300A168A11A5240A128A15A3
:101BB40090300A168A11BC240A128A1543300A1678
:101BC4008A11A5240A128A1575300A168A11A524C9
:101BD4000A128A1572300A168A11A5240A128A1565
:101BE40072300A168A11A5240A128A1565300A165B
:101BF4008A11A5240A128A156E300A168A11A524A0
:101C04000A128A1574300A168A11A5240A128A1532
:101C14003A300A168A11A5240A128A154E08303E53
:101C24000A168A11A5240A128A154D08303E0A168E
:101C34008A11A5240A128A1588300A168A11BC242E
:101C44000A128A1553300A168A11A5240A128A1513
:101C540065300A168A11A5240A128A1574300A16E8
:101C64008A11A5240A128A155F300A168A11A5243E
:101C74000A128A1574300A168A11A5240A128A15C2
:101C840068300A168A11A5240A128A1572300A16B7
:101C94008A11A5240A128A1565300A168A11A52408
:101CA4000A128A1573300A168A11A5240A128A1593
:101CB40068300A168A11A5240A128A156F300A168A
:101CC4008A11A5240A128A156C300A168A11A524D1
:101CD4000A128A1564300A168A11A5240A128A1572
:101CE4003A300A168A11A5240A128A1598300A165F
:101CF4008A11BC240A128A15071487100715871540
:101D0400B901BA01B701B801B501B601B301B40113
:101D1400B501B6010714871007158715871BEB2E2D
:101D240098300A168A11BC240A128A150130B507A4
:101D34000318B60A0030B6073308E400E501640866
:101D4400B3006508B4003608F8003508F7000A3017
:101D5400F9000030FA000A168A1134240A128A158E
:101D64007708E400E5016408B5006508B6003308A7
:101D7400303E0A168A11A5240A128A153508303E07
:101D84000A168A11A5240A128A153408E0003308B9
:101D9400DF003608E2003508E1003930E400640869
:101DA400E3000A168A1155250A128A15E500E60190
:101DB4006508B3006608B4003608BA003508B900EF
:101DC4003408B8003308B7000A168A1155240A12D9
:101DD4008A15831203130710871407158715071B29
:101DE4003D2F3308E4006408CE003508E40064089D
:101DF400CD00B501B601B301B401B701B801B90111
:101E0400BA0101300A168A11BC240A128A15533009
:101E14000A168A11A5240A128A1541300A168A1153
:101E2400A5240A128A1556300A168A11A5240A1204
:101E34008A1545300A168A11A5240A128A154430D7
:101E44000A168A11A5240A128A15E701E80101304D
:101E540083120313E7070318E80A0030E807680849
:101E6400803AFF00F5307F02031D3A2F30306702BD
:101E740003180800292F0714871407118715871BD7
:101E8400AD2F98300A168A11BC240A128A15013023
:101E9400B9020030031CBA03BA023708E400E501B2
:101EA4006408B7006508B8003A08F8003908F70074
:101EB4000A30F9000030FA000A168A1134240A1292
:101EC4008A157708E400E5016408B9006508BA00DA
:101ED4003708303E0A168A11A5240A128A153908D1
:101EE400303E0A168A11A5240A128A153808E00021
:101EF4003708DF003A08E2003908E1003030E40036
:101F04006408E3000A168A1179250A128A15E50085
:101F1400E6016508B7006608B8003908303EE400F9
:101F24003A080318013E003EE500303064066504BB
:101F3400031DA02F0A30B9000030BA003A08B600D9
:101F44003908B5003808B4003708B3000A168A11F6
:101F540055240A128A1583120313071087140715D0
:101F64008715071BED2F3708E4006408CE003908F5
:101F7400E4006408CD00B501B601B301B401B701B2
:101F8400B801B901BA0101300A168A11BC240A1237
:101F94008A1553300A168A11A5240A128A1541306B
:101FA4000A168A11A5240A128A1556300A168A11AD
:101FB400A5240A128A1545300A168A11A5240A1284
:101FC4008A1544300A168A11A5240A128A150A169B
:101FD4008A11552408000710871407158715871BD5
:101FE4008C2EB501B601B301B401B701B801B90132
:0C1FF400BA0101300A168A11BC24080052
:1027E000073083169F0005148801810189010800C4
:1027F00064008001840A0406031900340406F92BDE
:1028000000340234003412341234063419340034E3
:10281000F2007008F1007108F3000130F302031DAB
:102820000D2C0130F20203190800092CF300730883
:10283000303EF100003003180130F20070087106DC
:1028400072040319F3017308080006108612861635
:102850008E300A168A119D250A168A1100300A1632
:102860008A119D25861208007A08F1007908F00087
:102870007808F3007708F2000A128A1126207108FE
:10288000F8007008F70008007E088A007F088200C0
:1028900044240A168A118000840A04087D0603195C
:1028A0000034FF0A0319FE0A482CF001F10101303F
:1028B000F0070318F10A0030F1077108803AFF00B1
:1028C000A7307F02031D662C103070020318080029
:1028D000572CF001F1010130F0070318F10A003024
:1028E000F1077108803AFF0080307F02031D7A2CC7
:1028F00005307002031808006B2CF001F101013063
:10290000F0070318F10A0030F1077108803AFF0060
:1029100080307F02031D8E2C3230700203180800B5
:102920007F2C063083169F00F03087008312C90188
:10293000C801C701B101B201AF01B0010130AB0064
:102940000030AC00A901AA010800F20083120313B1
:102950008516051285110A168A1169240A168A112C
:10296000831203138515720888000A168A116924D8
:102970008312031385110800F200831203138512DA
:10298000051285110A168A1169240A168A11831202
:1029900003138515720888000A168A1169248312A8
:1029A000031385110800F20077307206031DEC2C2A
:1029B00009150A168A1155240A168A11831203135F
:1029C00009110A168A1155240A168A118312031353
:1029D00009150A168A1155248312031309110800D8
:1029E0005A08303E0A168A11A5240A168A11590877
:1029F000303E0A168A11A5240A168A112E300A16AC
:102A00008A11A5240A168A115808303E0A168A111E
:102A1000A5240A168A115708303E0A168A11A524E1
:102A20000800F200F40170080319302DF301F30AD5
:102A3000F01B212D0310F00D0130F1007108F30798
:102A4000182D0310F40D70087202031C2B2D700852
:102A5000F20274140310F00C0130F302031D212D57
:102A600074080800F4000830F1007108F500F60160
:102A70007408F10007300310F10CFF3E031D3B2DDD
:102A80007608F20072077104F3007308F600031071
:102A9000F40D70087602031C4F2D7008F602013009
:102AA000F502031D382D760808006108303EFB0052
:102AB00062080318013E003EFC0063087B067C04AC
:102AC000031D772D0130DF070318E00A0030E0070F
:102AD0006008F8005F08F7000A30F9000030FA00DB
:102AE0000A168A1134247808E0007708DF005F08AE
:102AF00008006108303EFB0062080318013E003EFA
:102B0000FC0063087B067C04031D9B2DFF30DF0760
:102B10000318E00AFF30E0076008F8005F08F700DC
:102B20000A30F9000030FA000A168A1134247808B5
:102B3000E0007708DF005F080800F400F201F3010D
:102B40008312031306120610741806167408F00098
:102B50000310700CF1007108F40006140130F20744
:102B60000318F30A0030F3077308803AFF0080303F
:102B70007F02031DBD2D08307202031CA02D83129D
:102B80000313061008008616BE300A168A119D250A
:102B90000A168A11F501F6017508A83E8400831310
:102BA00000080A168A119D250A168A110130F507B8
:102BB0000318F60A0030F6077608803AFF008030E6
:102BC0007F02031DE52D08307502031CCC2D8312F6
:102BD0000313861208000714871407158711071AB4
:102BE000132EBB01BC017830F3007308D2005230C1
:102BF0000A168A11A5240A168A1145300A168A1166
:102C0000A5240A168A1153300A168A11A5240A1619
:102C10008A1145300A168A11A5240A168A115430E1
:102C20000A168A11A5245208080083120313861677
:102C3000BF300A168A119D250A168A11F601F7017E
:102C40000A168A1141260A168A11F5007608203ED6
:102C500084007508831380000130F6070318F70A13
:102C60000030F7077708803AFF0080307F02031DAD
:102C70003B2E07307602031C202E8312031386128C
:102C80000800F401831603130616F201F301831200
:102C9000031306107408F0000310700CF1007108A3
:102CA000F400061E582E74088038F0007008F400F6
:102CB00006140130F2070318F30A0030F307730813
:102CC000803AFF0080307F02031D682E08307202B8
:102CD000031C472E83160313061283120610740872
:102CE00008007008710403199E2EF501F50AF11B06
:102CF000852E01300310F00DF10DFF3E031D7A2EDD
:102D00000130F4007408F507772E71087302031D73
:102D10008B2E70087202031C932E7008F202710849
:102D2000031CF303F30201300310F10CF00CFF3E1F
:102D3000031D942E0130F502031D852E7308F1004A
:102D40007208F0000800F5010830F4007408F6007D
:102D50000310F50C831203130910831609100000E9
:102D60000000000000000000000083160313091497
:102D70000000000000000000000000308312031378
:102D800009180130BF003F08031DF5170730F40094
:102D90007408F00002300A168A1108240A168A11F3
:102DA0000130F6027608031DA82E75080800F5010B
:102DB000F50A750803190800831203130910831616
:102DC00009104630F4007408F00002300A168A1127
:102DD00008240A168A118316031309140830F40014
:102DE0007408F00002300A168A1108240A168A11A3
:102DF00083120313091CFF2EF501F50A002FF501BC
:102E00003C30F4007408F00002300A168A110824DD
:102E10000A168A11D92EF7000830F4007408F80059
:102E200077080139F4007408F600831203130910BF
:102E30008316091000000000000000000000760367
:102E4000031D252F8316031309140730F40074089B
:102E5000F00002300A168A1108240A168A11831615
:102E600003130914000000007708F4000310740C29
:102E7000F5007508F7000130F8027808031908001A
:102E8000102FFB01FC01760877040319782FFD0150
:102E9000FD0AF71B572F01300310F60DF70DFF3E0B
:102EA000031D4C2F0130FA007A08FD07492F01302D
:102EB0000310FB0DFC0DFF3E031D582F7708790210
:102EC000031D642F76087802031C6D2F7608F80224
:102ED0007708031CF903F9027B1401300310F70C87
:102EE000F60CFF3E031D6E2F0130FD02031D572F10
:102EF0007C08F7007B08F60008007408803A803CE4
:102F0000031D842F73085A02031CBA2F7608803AD7
:102F1000803C031D8F2F7508831203135902031C75
:102F2000BA2F0230831203133B063C04031D9C2F6F
:102F30007730F7007708D2003030F7007708D000FC
:102F40003130F7007708CF0057300A168A11A524D0
:102F50000A168A1141300A168A11A5240A168A1106
:102F600052300A168A11A5240A168A114D300A1603
:102F70008A11A52483120313520808007408803AAA
:102F8000F70080307702031DC72F5A087302031C15
:102F9000FC2F7608803A803C031DD22F75088312DF
:102FA000031359020318FC2F023083120313BB00D2
:102FB0000030BC007830F7007708D2003030F700DE
:102FC0007708D0003030F7007708CF004F300A166E
:102FD0008A11A5240A168A114B300A168A11A524D3
:102FE0000A168A1120300A168A11A5240A168A1197
:102FF00020300A168A11A5248312031352080800F0
:02400E00323F3F
:00000001FF
