:020000040000FA
:060000000A128A11E62F2E
:10000800831203135508303EFB0056080318013EBF
:10001800003EFC0057087B067C04031D14281528A5
:100028002E28FF30D3070318D40AFF30D40754080A
:10003800F8005308F7000A30F9000030FA000A16F1
:100048008A11FB240A128A11780883120313D40038
:100058007708D3005308080073037404031935287C
:1000680036283C2873087404031D3B283C284E2876
:100078004D300A168A11C4250A128A116F300A16E1
:100088008A11C4250A128A116E300A168A11C425EB
:100098000A128A11023073067404031D5428552865
:1000A800672854300A168A11C4250A128A11753035
:1000B8000A168A11C4250A128A1165300A168A118D
:1000C800C4250A128A11033073067404031D6D28AF
:1000D8006E28802857300A168A11C4250A128A11F8
:1000E80065300A168A11C4250A128A1164300A1664
:1000F8008A11C4250A128A11043073067404031D78
:1001080086288728992854300A168A11C4250A1285
:100118008A1168300A168A11C4250A128A117530A4
:100128000A168A11C4250A128A1105307306740446
:10013800031D9F28A028B22846300A168A11C42514
:100148000A128A1172300A168A11C4250A128A11F3
:1001580069300A168A11C4250A128A1106307306F4
:100168007404031DB828B928CB2853300A168A11FD
:10017800C4250A128A1161300A168A11C4250A1286
:100188008A1174300A168A11C4250A128A11073096
:1001980073067404031DD128D228E42853300A16A4
:1001A8008A11C4250A128A1175300A168A11C425C3
:1001B8000A128A116E300A168A11C4250A128A1187
:1001C8000800831203130714871407118715071AE9
:1001D800EE28EF28D22B01300A168A11DD250A12E3
:1001E8008A1180300A168A11DD250A128A115430C4
:1001F8000A168A11C4250A128A1169300A168A1148
:10020800C4250A128A116D300A168A11C4250A12E9
:100218008A1165300A168A11C4250A128A115F30BC
:100228000A168A11C4250A128A1153300A168A112D
:10023800C4250A128A1165300A168A11C4250A12C1
:100248008A1174300A168A11C4250A128A11743068
:100258000A168A11C4250A128A1169300A168A11E7
:10026800C4250A128A116E300A168A11C4250A1288
:100278008A1167300A168A11C4250A128A11733046
:100288000A168A11C4250A128A1183120313071445
:10029800871007158715871B52295329B5297830E8
:1002A8004706031D58295929B5290130D80058088F
:1002B800C8070130B5070318B60A0030B607360874
:1002C800F8003508F7000A30F9000030FA000A167D
:1002D8008A11FB240A128A11780883120313B600C4
:1002E8007708B5003408D4003308D3003608D600A0
:1002F8003508D5003930D8005808D7000A168A11B1
:1003080097260A128A1183120313D900DA015908B1
:10031800B3005A08B4005430D8005808F000480810
:100328000A168A110D250A128A1183120313D9009D
:100338005908C800023033063404031DA429A5292E
:10034800B029043035063604031DAB29AC29B02981
:10035800B501B601B301B4010A168A116B250A1258
:100368008A1183120313871BBA29BB290E2A7930F5
:100378004706031DC029C1290E2A0130D800580894
:10038800C6070130B9070318BA0A0030BA073A0895
:10039800F8003908F7000A30F9000030FA000A16A8
:1003A8008A11FB240A128A11780883120313BA00EF
:1003B8007708B9003808D4003708D3003A08D600BF
:1003C8003908D5003930D8005808D7000A168A11DC
:1003D80097260A128A1183120313D900DA015908E1
:1003E800B7005A08B8005A304606031DFC29FD29F3
:1003F800FE29C601063037063804031D042A052ADB
:10040800092AB701B801B901BA010A168A116B2580
:100418000A128A1188300A168A11DD250A128A11F1
:10042800831203134808D8005808E1004608D8008A
:100438005808E0001130D8005808F0003930D900C9
:100448005908F10048080A168A11AD250A128A11BE
:1004580083120313DA005A08C8002130D80058085C
:10046800F0004A30D9005908F10048080A168A11E4
:10047800AD250A128A1183120313DA005A08C8003C
:100488001130D8005808F0003930D9005908F10067
:1004980046080A168A11AD250A128A118312031317
:1004A800DA005A08C6002130D8005808F0004A304F
:1004B800D9005908F10046080A168A11AD250A1212
:1004C8008A1183120313DA005A08C6003130D800A3
:1004D8005808F0005930D9005908F10046080A16A2
:1004E8008A11AD250A128A1183120313DA005A08F9
:1004F800C6004130D8005808F0006A30D9005908C1
:10050800F10046080A168A11AD250A128A118312CB
:100518000313DA005A08C6005130D8005808F00012
:100528007A30D9005908F10046080A168A11AD2513
:100538000A128A1183120313DA005A08C600071038
:10054800871407158715071BAA2AAB2AC32A013067
:100558000A168A11DD250A128A1183120313C801AB
:10056800C601B501B601B301B401B701B801B901BB
:10057800BA010A168A11C3260A128A11D22B071445
:100588008714071187153208F8003108F700023080
:10059800F9000030FA000A168A11FB240A128A119F
:1005A800780883120313B2007708B100071ADD2A0E
:1005B800DE2A1B2B31083204031DE32AE42A1B2BF5
:1005C80090300A168A11DD250A128A1148300A1657
:1005D8008A11C4250A128A116F300A168A11C42595
:1005E8000A128A1175300A168A11C4250A128A114C
:1005F80072300A168A11C4250A128A113A300A166C
:100608008A11C4250A128A11783083120313D8007C
:100618005808C7000A168A116B250A128A11013078
:1006280083120313B1070318B20A0030B207071484
:10063800871407118715071A222B232B5E2B3103EA
:100648003204031D282B292B5E2B0130B107031818
:10065800B20A0030B2070A168A116B250A128A11EB
:1006680090300A168A11DD250A128A114D300A16B1
:100678008A11C4250A128A1169300A168A11C425FA
:100688000A128A116E300A168A11C4250A128A11B2
:1006980073300A168A11C4250A128A113A300A16CA
:1006A8008A11C4250A128A11793083120313D800DB
:1006B8005808C70088300A168A11DD250A128A11DF
:1006C80083120313071487140711871588300A1635
:1006D8008A11DD250A128A1154300A168A11C42596
:1006E8000A128A1169300A168A11C4250A128A1157
:1006F8006D300A168A11C4250A128A1165300A1645
:100708008A11C4250A128A113A300A168A11C42598
:100718000A128A11831203133308303E0A168A110B
:10072800C4250A128A11831203133508303E0A16AB
:100738008A11C4250A128A113A300A168A11C42568
:100748000A128A11831203133708303E0A168A11D7
:10075800C4250A128A11831203133908303E0A1677
:100768008A11C4250A128A118312031307108714E9
:1007780007158715871BC12BC22BF528C801C60191
:10078800B501B601B301B401B701B801B901BA01A5
:1007980001300A168A11DD250A128A11080083120F
:1007A80003130710871407158715071ADC2BDD2B91
:1007B800E52F01300A168A11DD250A128A118030C8
:1007C8000A168A11DD250A128A1144300A168A117E
:1007D800C4250A128A1161300A168A11C4250A1220
:1007E8008A1174300A168A11C4250A128A116530D2
:1007F8000A168A11C4250A128A115F300A168A114C
:10080800C4250A128A1153300A168A11C4250A12FD
:100818008A1165300A168A11C4250A128A117430A1
:100828000A168A11C4250A128A1174300A168A1106
:10083800C4250A128A1169300A168A11C4250A12B7
:100848008A116E300A168A11C4250A128A11673075
:100858000A168A11C4250A128A1173300A168A11D7
:10086800C4250A128A118312031307148710071567
:100878008715871B402C412CA22C78304706031D76
:10088800462C472CA22C0130D8005808C807013044
:10089800B5070318B60A0030B6073608F800350859
:1008A800F7000A30F9000030FA000A168A11FB2412
:1008B8000A128A11780883120313B6007708B50064
:1008C8003408D4003308D3003608D6003508D500DC
:1008D8003930D8005808D7000A168A1197260A1204
:1008E8008A1183120313D900DA015908B3005A0890
:1008F800B4004330D8005808F00048080A168A1196
:100908000D250A128A1183120313D9005908C80049
:1009180033033404031D912C922C9D2C033035068F
:100928003604031D982C992C9D2CB501B601B301F2
:10093800B4010A168A116B250A128A11831203134D
:10094800871BA72CA82C0A2D79304706031DAD2C30
:10095800AE2C0A2D0130D8005808C5070130AF0762
:100968000318B00A0030B0073008F8002F08F70065
:100978000A30F9000030FA000A168A11FB240A121C
:100988008A11780883120313B0007708AF002E0885
:10099800D4002D08D3003008D6002F08D5003930F0
:1009A800D8005808D7000A168A1197260A128A1101
:1009B80083120313D900DA015908AD005A08AE00B2
:1009C8006330D8005808F00045080A168A110D252A
:1009D8000A128A1183120313D9005908C50003307B
:1009E8002D062E04031DF92CFA2C052D02302F0696
:1009F8003004031D002D012D052DAD01AE01AF0101
:100A0800B0010A168A116B250A128A118312031380
:100A1800871B0F2D102D632D7A304706031D152DCA
:100A2800162D632D0130D8005808C6070130B907C4
:100A38000318BA0A0030BA073A08F8003908F7006C
:100A48000A30F9000030FA000A168A11FB240A124B
:100A58008A11780883120313BA007708B900380896
:100A6800D4003708D3003A08D6003908D500393001
:100A7800D8005808D7000A168A1197260A128A1130
:100A880083120313D900DA015908B7005A08B800CD
:100A98005A304606031D512D522D532DC6010630DE
:100AA80037063804031D592D5A2D5E2DB701B8019C
:100AB800B901BA010A168A116B250A128A11831222
:100AC80003134808D8005808E3004608D800580817
:100AD800E5004508D8005808E2001130D800580849
:100AE800F0003930D9005908F10048080A168A116F
:100AF800AD250A128A1183120313DA005A08C800B6
:100B08001130D8005808F0003930D9005908F100E0
:100B180045080A168A11AD250A128A118312031391
:100B2800DA005A08C5002130D8005808F0004A30C9
:100B3800D9005908F10045080A168A11AD250A128C
:100B48008A1183120313DA005A08C5001130D8003D
:100B58005808F0003930D9005908F10045080A163C
:100B68008A11AD250A128A1183120313DA005A0872
:100B7800C5002130D8005808F0004A30D90059087B
:100B8800F10045080A168A11AD250A128A11831246
:100B98000313DA005A08C5003130D8005808F000AD
:100BA8005930D9005908F10045080A168A11AD25AF
:100BB8000A128A1183120313DA005A08C500113089
:100BC800D8005808F0003930D9005908F100460813
:100BD8000A168A11AD250A128A1183120313DA0044
:100BE8005A08C6002130D8005808F0004A30D90009
:100BF8005908F10046080A168A11AD250A128A1109
:100C080083120313DA005A08C6001130D8005808B6
:100C1800F0003930D9005908F10046080A168A113F
:100C2800AD250A128A1183120313DA005A08C60086
:100C38002130D8005808F0004A30D9005908F1008E
:100C480046080A168A11AD250A128A11831203135F
:100C5800DA005A08C6003130D8005808F000593078
:100C6800D9005908F10046080A168A11AD250A125A
:100C78008A1183120313DA005A08C6004130D800DB
:100C88005808F0006A30D9005908F10046080A16D9
:100C98008A11AD250A128A1183120313DA005A0841
:100CA800C6005130D8005808F0007A30D9005908E9
:100CB800F10046080A168A11AD250A128A11831214
:100CC8000313DA005A08C60088300A168A11DD258F
:100CD8000A128A1183120313071087140715871540
:100CE800071B772E782E8F2EC801C601C501B501C6
:100CF800B601B301B401B701B801B901BA010130B5
:100D08000A168A11DD250A128A110A168A11C326C3
:100D18000A128A11E52F071087140715871532085C
:100D2800F8003108F7000330F9000030FA000A161D
:100D38008A11FB240A128A11780883120313B2005D
:100D48007708B100071AA92EAA2EED2E3108320411
:100D5800031DAF2EB02EED2E90300A168A11DD2518
:100D68000A128A1144300A168A11C4250A128A11F5
:100D780061300A168A11C4250A128A1179300A16B6
:100D88008A11C4250A128A113A300A168A11C42512
:100D98000A128A1120300A168A11C4250A128A11E9
:100DA80020300A168A11C4250A128A117930831252
:100DB8000313D8005808C7000A168A116B250A12AF
:100DC8008A11013083120313B1070318B20A0030E5
:100DD800B2070710871407158715071AF42EF52E82
:100DE800362F31033204031DFA2EFB2E362F013025
:100DF800B1070318B20A0030B2070A168A116B2528
:100E08000A128A1190300A168A11DD250A128A11EF
:100E18004D300A168A11C4250A128A116F300A1633
:100E28008A11C4250A128A116E300A168A11C4253D
:100E38000A128A1174300A168A11C4250A128A11F4
:100E480068300A168A11C4250A128A113A300A161D
:100E58008A11C4250A128A11783083120313D80024
:100E68005808C7000710871407158715071A3D2F5C
:100E78003E2F822F023031063204031D442F452FA6
:100E8800822F0A168A116B250A128A1101308312E1
:100E98000313B1070318B20A0030B20790300A16DC
:100EA8008A11DD250A128A1159300A168A11C425B9
:100EB8000A128A1165300A168A11C4250A128A1183
:100EC80061300A168A11C4250A128A1172300A166C
:100ED8008A11C4250A128A113A300A168A11C425C1
:100EE8000A128A1120300A168A11C4250A128A1198
:100EF8007A3083120313D8005808C70088300A16BE
:100F08008A11DD250A128A11831203132D08303E37
:100F18000A168A11C4250A128A11831203132F088C
:100F2800303E0A168A11C4250A128A112F300A1671
:100F38008A11C4250A128A11831203133308303E1A
:100F48000A168A11C4250A128A1183120313350856
:100F5800303E0A168A11C4250A128A112F300A1641
:100F68008A11C4250A128A11831203133708303EE6
:100F78000A168A11C4250A128A1183120313390822
:100F8800303E0A168A11C4250A128A1183120313E5
:100F98000710871407158715871BD32FD42FE32B2A
:100FA800C801C601C501B501B601B301B401B70155
:100FB800B801B901BA0101300A168A11DD250A12F1
:100FC8008A11080083136730FD001430FE00D93001
:100FD800FF005F3084000A168A1147250A128A1119
:100FE8002030840053300A168A11D1240A128A113B
:080FF80083010A128A15492C3D
:10100C00F7000830F4007408F80077080139F40090
:10101C007408F600831203130910831603130910C6
:10102C00000000000000000000007603031D1F28D4
:10103C00202823288316031309140730F40074089E
:10104C00F00002300A168A111F250A128A1583161F
:10105C0003130914000000007708F4000310740C4B
:10106C00F5007508F7000130F8027808031D3F28D9
:10107C0040280B280800831203134E08F700F801D0
:10108C0074087806031D4C2873087706031D4F2837
:10109C0050287E287608803AF70080307702031DAE
:1010AC0059284D08750203185C285D287E280230EB
:1010BC008312031329062A04031D652866287E283B
:1010CC0057300A168A11C4250A128A1541300A169D
:1010DC008A11C4250A128A1552300A168A11C4259F
:1010EC000A128A154D300A168A11C4250A128A155D
:1010FC000800FB01FC017608770403198628872871
:10110C00BE28FD01FD0A952801300310F60DF70DE0
:10111C00FF3E031D8B280130FA007A08FD07F71FEC
:10112C00982899288A2801300310FB0DFC0DFF3EEE
:10113C00031D9A2877087902031DA62876087802E1
:10114C00031CA928AA28B1287608F8027708031CE2
:10115C00F903F9027B1401300310F70CF60CFF3E77
:10116C00031DB2280130FD02031DBD28BE2899289D
:10117C007C08F7007B08F6000800831203134E0866
:10118C00F700F80174087806031DCE28730877065B
:10119C00031DD128D228DD287608803A803C031D17
:1011AC00D92875084D02031CDC28DD28EC28831295
:1011BC0003134D08F700F80176087806031DE8289C
:1011CC0075087706031DEB28EC280E2902308312D4
:1011DC000313A9000030AA007830F7007708C1008B
:1011EC004F300A168A11C4250A128A154B300A167A
:1011FC008A11C4250A128A1520300A168A11C425B0
:10120C000A128A1520300A168A11C4250A128A1568
:10121C000800F601F31F132914291B29F209F309FD
:10122C00F20A0319F30AF601F60AF11F1E291F2907
:10123C002429F009F109F00A0319F10A7008710464
:10124C00031929292A295929F501F50A38290130C8
:10125C000310F00DF10DFF3E031D2E290130F4009B
:10126C007408F507F11F3B293C292D2971087302DD
:10127C00031D422970087202031C452946294C297A
:10128C007008F2027108031CF303F302013003101F
:10129C00F10CF00CFF3E031D4D290130F502031D2E
:1012AC00582959293C29760803195D295E29632997
:1012BC00F209F309F20A0319F30A7308F100720830
:1012CC00F0000800F601F11F6C296D297429F00952
:1012DC00F109F00A0319F10AF601F60AF31F77294E
:1012EC0078298129F209F309F20A0319F30A01306A
:1012FC00F4007408F606F701F8017008710403197C
:10130C0088298929C029F501F50A9729013003108C
:10131C00F00DF10DFF3E031D8D290130F400740812
:10132C00F507F11F9A299B298C2901300310F70D21
:10133C00F80DFF3E031D9C2971087302031DA8299B
:10134C0070087202031CAB29AC29B3297008F20295
:10135C007108031CF303F302771401300310F10C32
:10136C00F00CFF3E031DB4290130F502031DBF290B
:10137C00C0299B2976080319C429C529CA29F7094C
:10138C00F809F70A0319F80A7808F1007708F00051
:10139C000800831203138618D429D529DD292308C4
:1013AC00F3007308A0002408F3007308A1002208BE
:1013BC00F039F300F4017308F5007408F600750EAB
:1013CC000F39F500760EF039F504760E0F39F6006C
:1013DC00F030F61D0030F6047508303E0A168A11FE
:1013EC00C4250A128A158312031322080F39F3003D
:1013FC00F4017308F5007408F6007508303E0A16FF
:10140C008A11C4250A128A153A300A168A11C42583
:10141C000A128A15831203132108F039F300F40120
:10142C007308F5007408F600750E0F39F500760E8A
:10143C00F039F504760E0F39F600F030F61D003059
:10144C00F6047508303E0A168A11C4250A128A154C
:10145C008312031321080F39F300F4017308F5000C
:10146C007408F6007508303E0A168A11C4250A1253
:10147C008A153A300A168A11C4250A128A15831263
:10148C0003132008F039F300F4017308F500740815
:10149C00F600750E0F39F500760EF039F504760E60
:1014AC000F39F600F030F61D0030F6047508303EAA
:1014BC000A168A11C4250A128A15831203132008EE
:1014CC000F39F300F4017308F5007408F600750881
:1014DC00303E0A168A11C4250A128A150800831296
:1014EC00031386187A2A7B2A832A2308F3007308AD
:1014FC00A0002408F3007308A1002308F039F300BE
:10150C00F4017308F5007408F600750E0F39F50038
:10151C00760EF039F504760E0F39F600F030F61D24
:10152C000030F6047508303E0A168A11C4250A12DA
:10153C008A158312031323080F39F300F40173087F
:10154C00F5007408F6007508303E0A168A11C42599
:10155C000A128A152F300A168A11C4250A128A1506
:10156C00831203132408F039F300F4017308F50017
:10157C007408F600750E0F39F500760EF039F50487
:10158C00760E0F39F600F030F61D0030F6047508B3
:10159C00303E0A168A11C4250A128A1583120313C7
:1015AC0024080F39F300F4017308F5007408F600F1
:1015BC007508303E0A168A11C4250A128A152F3076
:1015CC000A168A11C4250A128A15831203132608D7
:1015DC00F039F300F4017308F5007408F600750E89
:1015EC000F39F500760EF039F504760E0F39F6004A
:1015FC00F030F61D0030F6047508303E0A168A11DC
:10160C00C4250A128A158312031326080F39F30016
:10161C00F4017308F5007408F6007508303E0A16DC
:10162C008A11C4250A128A1508008316031309149B
:10163C000A168A11C6270A128A15CC300A128A1584
:10164C0006200A128A150A168A1197250A128A157B
:10165C0044300A128A1506200A128A150A168A11B3
:10166C00C6270A128A15CC300A128A1506200A12CD
:10167C008A15BE300A128A1506200A128A150A1615
:10168C008A118C270A128A1583120313D30053086C
:10169C00D2000A168A118C270A128A158312031398
:1016AC00D3005308D10083160313091483120313B8
:1016BC005108D30004300310D30DFF3E031D612BE2
:1016CC003F305305D4005208D50004300310D50C1C
:1016DC00FF3E031D6C2B55085404D6005608D00051
:1016EC005208D30003300310D30DFF3E031D792B9A
:1016FC000310530DD4005408CF000A30F000003012
:10170C00F1005008D300D4015308F2005408F30040
:10171C000A128A150F210A128A15700883120313F4
:10172C00D5005508CD000A30F0000030F10050080B
:10173C00D300D4015308F2005408F3000A128A159E
:10174C0068210A128A15700883120313D5005508F4
:10175C00CE00BB01BC01CF1FB42BB52BBD2B3B085E
:10176C00883EBB003C080318013E133EBC004F1FD3
:10177C00C02BC12BC92B3B08C43EBB003C08031833
:10178C00013E093EBC00CF1ECC2BCD2BD52B3B08EC
:10179C00E23EBB003C080318013E043EBC004F1E59
:1017AC00D82BD92BE12B3B08713EBB003C0803180E
:1017BC00013E023EBC00E830F6000330F7003C0866
:1017CC00F9003B08F8000A128A157F200A128A15C4
:1017DC00760883120313D3005308CC006430F60050
:1017EC000030F7003C08F3003B08F200E830F00052
:1017FC000330F1000A168A1152270A128A15710851
:10180C00F9007008F8000A128A157F200A128A154E
:10181C00760883120313D3005308CB000A30F6006A
:10182C000030F7003C08F3003B08F2006430F00095
:10183C000030F1000A168A1152270A128A15710813
:10184C00F9007008F8000A128A157F200A128A150E
:10185C00760883120313D3005308CA000A30F00031
:10186C000030F1003C08F3003B08F2000A168A1124
:10187C0052270A128A15700883120313D3005308D7
:10188C00C9000000080002308316031386000A16F4
:10189C008A11CA240A128A150A168A11C3260A1238
:1018AC008A150A168A1156250A128A150A168A11E1
:1018BC00E1240A128A150A168A1119260A128A15A7
:1018CC000A168A11CA240A128A150A168A11312597
:1018DC000A128A150A128A151B230A128A150A166D
:1018EC008A11EF260A128A1580300A168A11DD2514
:1018FC000A128A1554300A168A11C4250A128A153E
:10190C0065300A168A11C4250A128A156D300A161A
:10191C008A11C4250A128A1570300A168A11C42538
:10192C000A128A153A300A168A11C4250A128A1527
:10193C000A168A116C260A128A1590300A168A1118
:10194C00DD250A128A1544300A168A11C4250A129A
:10195C008A1561300A168A11C4250A128A15743048
:10196C000A168A11C4250A128A1565300A168A11BC
:10197C00C4250A128A153A300A168A11C4250A128D
:10198C008A1520300A168A11C4250A128A150A12E1
:10199C008A1575220A128A1588300A168A11DD25D5
:1019AC000A128A1554300A168A11C4250A128A158D
:1019BC0069300A168A11C4250A128A156D300A1666
:1019CC008A11C4250A128A1565300A168A11C42593
:1019DC000A128A153A300A168A11C4250A128A1577
:1019EC000A128A15CF210A128A150A128A1578252D
:1019FC000A128A150A128A11D3230A128A150A129C
:101A0C008A11E5200A128A1598300A168A11DD25EA
:101A1C000A128A150230F3000030F4000730F5008A
:101A2C000030F6000A128A15C3200A128A150230F9
:101A3C00F3000030F4000730F5000030F6000A1215
:101A4C008A1541200A128A158312031341080A16BB
:101A5C008A11F6250A128A150A168A11EA240A1224
:101A6C008A1583120313DD01DE0120300A168A1158
:101A7C00C4250A128A15013083120313DD070318DB
:101A8C00DE0A0030DE075E08803AFF0080307F02FD
:101A9C00031D522D07305D02031C552D562D3B2D79
:101AAC00831203133008F8002F08F7000830F900F0
:101ABC000030FA000A168A11FB240A128A157808DB
:101ACC0083120313A8007708A7002808F40027083E
:101ADC00F3000A128A1130200A128A15702C0A128D
:101AEC008A11002883120313071487100715871512
:101AFC00071A812D822DFF2F01300A168A11DD2540
:101B0C000A128A1580300A168A11DD250A128A15E6
:101B1C0074300A168A11C4250A128A1568300A16FE
:101B2C008A11C4250A128A1572300A168A11C42524
:101B3C000A128A1565300A168A11C4250A128A15EA
:101B4C0073300A168A11C4250A128A1568300A16CF
:101B5C008A11C4250A128A156F300A168A11C425F7
:101B6C000A128A156C300A168A11C4250A128A15B3
:101B7C0064300A168A11C4250A128A1590300A1686
:101B8C008A11DD250A128A1543300A168A11C425DA
:101B9C000A128A1575300A168A11C4250A128A157A
:101BAC0072300A168A11C4250A128A1572300A1666
:101BBC008A11C4250A128A1565300A168A11C425A1
:101BCC000A128A156E300A168A11C4250A128A1551
:101BDC0074300A168A11C4250A128A153A300A166C
:101BEC008A11C4250A128A15831203133F08303E4A
:101BFC000A168A11C4250A128A15831203133E0889
:101C0C00303E0A168A11C4250A128A1588300A1623
:101C1C008A11DD250A128A1553300A168A11C42539
:101C2C000A128A1565300A168A11C4250A128A15F9
:101C3C0074300A168A11C4250A128A155F300A16E6
:101C4C008A11C4250A128A1574300A168A11C42501
:101C5C000A128A1568300A168A11C4250A128A15C6
:101C6C0072300A168A11C4250A128A1565300A16B2
:101C7C008A11C4250A128A1573300A168A11C425D2
:101C8C000A128A1568300A168A11C4250A128A1596
:101C9C006F300A168A11C4250A128A156C300A167E
:101CAC008A11C4250A128A1564300A168A11C425B1
:101CBC000A128A153A300A168A11C4250A128A1594
:101CCC0098300A168A11DD250A128A15831203131D
:101CDC000714871007158715B901BA01B701B801A8
:101CEC00B501B601B301B401B501B60107148710F3
:101CFC0007158715871B832E842EE72E98300A161E
:101D0C008A11DD250A128A15013083120313B507D7
:101D1C000318B60A0030B6073308D800D9015808A2
:101D2C00B3005908B4003608F8003508F7000A303B
:101D3C00F9000030FA000A168A11FB240A128A15DF
:101D4C00770883120313D800D9015808B500590835
:101D5C00B6003308303E0A168A11C4250A128A15B9
:101D6C00831203133508303E0A168A11C4250A1251
:101D7C008A15831203133408D4003308D3003608B1
:101D8C00D6003508D5003930D8005808D7000A16C7
:101D9C008A1197260A128A1583120313D900DA01C5
:101DAC005908B3005A08B4003608BA003508B9000F
:101DBC003408B8003308B7000A168A116B250A12CA
:101DCC008A15831203130710871407158715071B31
:101DDC00F02EF12E372F3308D8005808BF003508E5
:101DEC00D8005808BE0001300A168A11DD250A12E7
:101DFC008A1553300A168A11C4250A128A154130E5
:101E0C000A168A11C4250A128A1556300A168A1126
:101E1C00C4250A128A1545300A168A11C4250A12DD
:101E2C008A1544300A168A11C4250A128A1583129F
:101E3C000313DB01DC01013083120313DB070318EE
:101E4C00DC0A0030DC075C08803AFF00F5307F02CA
:101E5C00031D322F30305B02031C352F362F212F00
:101E6C00FF2F0714871407118715871B3E2F3F2F51
:101E7C00B52F98300A168A11DD250A128A15013001
:101E8C0083120313B9020030031CBA03BA023708D9
:101E9C00D800D9015808B7005908B8003A08F8001A
:101EAC003908F7000A30F9000030FA000A168A11D6
:101EBC00FB240A128A15770883120313D800D90160
:101ECC005808B9005908BA003708303E0A168A116A
:101EDC00C4250A128A15831203133908303E0A16D8
:101EEC008A11C4250A128A15831203133808D400E8
:101EFC003708D3003A08D6003908D5003030D8005E
:101F0C005808D7000A128A1104200A128A15831263
:101F1C000313D900DA015908B7005A08B800390878
:101F2C00303ED8003A080318013E003ED90030304C
:101F3C0058065904031DA32FA42FA82F0A30B9004B
:101F4C000030BA003A08B6003908B5003808B400B9
:101F5C003708B3000A168A116B250A128A158312E8
:101F6C0003130710871407158715071BBE2FBF2FE8
:101F7C00F12F3708D8005808BF003908D800580886
:101F8C00BE0001300A168A11DD250A128A1553305B
:101F9C000A168A11C4250A128A1541300A168A11AA
:101FAC00C4250A128A1556300A168A11C4250A123B
:101FBC008A1545300A168A11C4250A128A1544302E
:101FCC000A168A11C4250A128A150A168A116B255B
:101FDC000A128A15FF2F0710871407158715871B00
:101FEC00F82FF92F7C2E01300A168A11DD250A12E2
:041FFC008A1508003A
:102994008316031389018312031389010800640059
:1029A4008001840A0406031900340406D22C00347E
:1029B40000344034123412340634193400340730ED
:1029C400831603139F0005148801810189010800FF
:1029D400831203130714871407158711071AF32C9E
:1029E400F42CFA2CA901AA017830F0007008C10077
:1029F40008007A08F1007908F0007808F3007708F5
:102A0400F2000A128A150F210A168A117108F800B9
:102A14007008F7000800F3007308303EF10000303E
:102A240003180130F200700871067204031D1B2D97
:102A34001C2D1D2DF30173080800F2007008F1002D
:102A44007108F3000130F302031D292D2A2D242DD2
:102A54000130F202031D2F2D302D202D08000630E9
:102A6400831603139F00F030870083120313C801F9
:102A7400C701C601B101B2010C30AF000030B00093
:102A840008007E088A007F0882000A168A114325FE
:102A94000A168A118000840A04087D06031900348A
:102AA400FF0A0319FE0A472D831203130610861228
:102AB40086168E300A168A1141260A168A110030AB
:102AC4000A168A1141260A168A11831203138612E2
:102AD4000800F001F1010130F0070318F10A003099
:102AE400F1077108803AFF00A7307F02031D7C2D97
:102AF40010307002031C7F2D802D6D2D0800F00115
:102B0400F1010130F0070318F10A0030F1077108F0
:102B1400803AFF0080307F02031D922D0530700241
:102B2400031C952D962D832D0800F001F101013031
:102B3400F0070318F10A0030F1077108803AFF002A
:102B440080307F02031DA82D32307002031CAB2D90
:102B5400AC2D992D0800F4007408303EF2000030CA
:102B640003180130F300710872067304031DBB2DB2
:102B7400BC2DC22D7008F2007208F4000130F4027A
:102B840074080800F20083120313851605128511D8
:102B94000A168A1181250A168A11831203138515D0
:102BA400720888000A168A1181250A168A1183126E
:102BB400031385110800F200831203138512051212
:102BC40085110A168A1181250A168A1183120313A4
:102BD4008515720888000A168A1181250A168A1139
:102BE4008312031385110800F20077307206031D67
:102BF400FC2DFD2D152E8312031309150A168A11B7
:102C04006B250A168A118312031309110A168A11F5
:102C14006B250A168A118312031309150A168A11E1
:102C24006B250A168A1183120313091108008316EF
:102C3400031385018312031305100A168A118125D3
:102C44000A168A11831203130514051530300A1667
:102C54008A11DD250A168A1101300A168A11DD252A
:102C64000A168A1106300A168A11DD250A168A11F7
:102C74000C300A168A11DD250A168A110800F400A0
:102C8400F201F3018312031306120610741C4B2E77
:102C94004C2E4D2E06167408F0000310700CF10033
:102CA4007108F40006140130F2070318F30A003027
:102CB400F3077308803AFF0080307F02031D642EFF
:102CC40008307202031C672E682E442E83120313ED
:102CD40006100800831203134E08303E0A168A11A8
:102CE400C4250A168A11831203134D08303E0A16AE
:102CF4008A11C4250A168A112E300A168A11C4258F
:102D04000A168A11831203134C08303E0A168A11DC
:102D1400C4250A168A11831203134B08303E0A167F
:102D24008A11C4250A168A11080083120313550850
:102D3400303EFB0056080318013E003EFC005708D5
:102D44007B067C04031DA72EA82EC12E0130D307B9
:102D54000318D40A0030D4075408F8005308F700C5
:102D64000A30F9000030FA000A168A11FB240A1608
:102D74008A11780883120313D4007708D300530808
:102D84000800831203138616BE300A168A114126E0
:102D94000A168A11F501F60175085F3E8400831353
:102DA40000080A168A1141260A168A110130F5070D
:102DB4000318F60A0030F6077608803AFF008030E0
:102DC4007F02031DE72E08307502031CEA2EEB2E4A
:102DD400CE2E831203138612080083120313861661
:102DE400BF300A168A1141260A168A11F601F70124
:102DF4000A168A111D270A168A11F5007608203E44
:102E040084007508831380000130F6070318F70A5D
:102E14000030F7077708803AFF0080307F02031DF7
:102E2400152F07307602031C182F192FFA2E831240
:102E3400031386120800F401831603130616F20125
:102E4400F3018312031306107408F0000310700CCE
:102E5400F1007108F400061E302F312F362F74084C
:102E64008038F0007008F40006140130F2070318EB
:102E7400F30A0030F3077308803AFF0080307F02C2
:102E8400031D462F08307202031C492F4A2F232F9B
:102E94008316031306128312031306107408080022
:102EA400700871040319572F582F872FF501F50A5D
:102EB400662F01300310F00DF10DFF3E031D5C2F52
:102EC4000130F4007408F507F11F692F6A2F5B2F96
:102ED40071087302031D702F70087202031C732F94
:102EE400742F7A2F7008F2027108031CF303F302A3
:102EF40001300310F10CF00CFF3E031D7B2F013059
:102F0400F502031D862F872F6A2F7308F1007208BC
:102F1400F0000800F5010830F4007408F60003100E
:102F2400F50C831203130910831603130910000010
:102F340000000000000000000000831603130914C1
:102F440000000000000000000000003083120313A2
:102F540009180130BD003D080319B12FB22FB32F5A
:102F6400F5170730F4007408F00002300A168A11CD
:102F74001F250A168A110130F6027608031DC32F95
:102F8400C42F912F75080800F501F50AFA2F831252
:102F9400031309108316031309104630F400740850
:102FA400F00002300A168A111F250A168A118316A8
:102FB400031309140830F4007408F00002300A16F0
:102FC4008A111F250A168A1183120313091CEB2F79
:102FD400EC2FEF2FF501F50AF02FF5013C30F4004A
:102FE4007408F00002300A168A111F250A168A1185
:0C2FF4007508031DFE2FFF2FC92F0800D9
:02400E00323F3F
:00000001FF
