:020000040000FA
:060000000A128A11E02F34
:10000A0000341834003412341234063419340034EB
:10001A00730374040319152873087404031D212833
:10002A004D300A168A11E9230A128A116F300A160C
:10003A008A11E9230A128A11023073067404031D15
:10004A00322854300A168A11E9230A128A117530A5
:10005A000A168A11E9230A128A11033073067404F4
:10006A00031D432857300A168A11E9230A128A11F6
:10007A0065300A168A11E9230A128A1104307306B6
:10008A007404031D542854300A168A11E9230A12EB
:10009A008A1168300A168A11E9230A128A11053070
:1000AA0073067404031D652846300A168A11E9236B
:1000BA000A128A1172300A168A11E9230A128A115F
:1000CA00063073067404031D762853300A168A1103
:1000DA00E9230A128A1161300A168A11E9230A12DF
:1000EA008A11073073067404031D080053300A1678
:1000FA008A11E9230A128A1175300A168A11E9232C
:10010A0008000714871407118715071A0800013019
:10011A000A168A1100240A128A1180300A168A11D4
:10012A0000240A128A1154300A168A11E9230A1283
:10013A008A1169300A168A11E9230A128A116D3066
:10014A000A168A11E9230A128A1165300A168A11D7
:10015A00E9230A128A115F300A168A11E9230A1260
:10016A008A1153300A168A11E9230A128A11653054
:10017A000A168A11E9230A128A1174300A168A1198
:10018A00E9230A128A1174300A168A11E9230A121B
:10019A008A1169300A168A11E9230A128A116E3005
:1001AA000A168A11E9230A128A1167300A168A1175
:1001BA00E9230A128A1173300A168A11E9230A12EC
:1001CA008A110714871007158715871B5D29783050
:1001DA004906031D5D2922032304031DF828013063
:1001EA00E5006508CA0722082304031D0029013017
:1001FA00A2000030A3000130AC070318AD0A00309A
:10020A00AD072D08F8002C08F7000A30F900003075
:10021A00FA000A168A1178230A128A117808AD00A0
:10022A007708AC0020032104031D34292B08E100C0
:10023A002A08E0002D08E3002C08E2003030E5002F
:10024A006508E4000A168A11BC240A128A11E6001B
:10025A00E7016608AA006708AB00A001A1010930FE
:10026A002C062D04031D3D290130A0000030A100F9
:10027A005430E5006508F0004A080A168A115A2324
:10028A000A128A11E6006608CA0002302A062B04FE
:10029A00031D582904302C062D04031D5829AC01CE
:1002AA00AD01AA01AB010A168A11AD230A128A11FD
:1002BA0083120313871BC42979304906031DC429F5
:1002CA0022032304031D6D290130E5006508C807D0
:1002DA0022082304031D75290130A2000030A3005F
:1002EA000130B0070318B10A0030B1073108F8002D
:1002FA003008F7000A30F9000030FA000A168A11AD
:10030A0078230A128A117808B1007708B00020030E
:10031A002104031DA9292F08E1002E08E000310855
:10032A00E3003008E2003030E5006508E4000A1610
:10033A008A11BC240A128A11E600E7016608AE0097
:10034A006708AF00A001A101093030063104031D7E
:10035A00B2290130A0000030A1005A304806031922
:10036A00C80106302E062F04031DBF29AE01AF01B6
:10037A00B001B1010A168A11AD230A128A11883016
:10038A000A168A1100240A128A1122082304031D5C
:10039A00D6294208E50065088316B500831241088C
:1003AA00E12922032304031DE5294A08E50065081B
:1003BA008316B50083124808E50065088316B40061
:1003CA0011308312E5006508F0003930E60066084E
:1003DA00F1000430F2000030F3004A080A128A15CC
:1003EA003C220A128A11E7006708CA002130E50098
:1003FA006508F0004A30E6006608F1000430F200B1
:10040A000030F3004A080A128A153C220A128A119D
:10041A00E7006708CA001130E5006508F0003930C6
:10042A00E6006608F1000530F2000030F3004808E3
:10043A000A128A153C220A128A11E7006708C800C4
:10044A002130E5006508F0004A30E6006608F10050
:10045A000530F2000030F30048080A128A153C22DF
:10046A000A128A11E7006708C8003130E5006508FA
:10047A00F0005930E6006608F1000530F20000305D
:10048A00F30048080A128A153C220A128A11E70068
:10049A006708C8004130E5006508F0006A30E600E8
:1004AA006608F1000530F2000030F30048080A122D
:1004BA008A153C220A128A11E7006708C8005130DF
:1004CA00E5006508F0007A30E6006608F1000530BC
:1004DA00F2000030F30048080A128A153C220A1278
:1004EA008A11E7006708C8000710871407158715DF
:1004FA00071B932A01300A168A1100240A128A114C
:10050A000A168A110625CA01C801AC01AD01AA0161
:10051A00AB01AE01AF01B001B101080007148714A5
:10052A00071187152908F8002808F7000230F90092
:10053A000030FA000A168A1178230A128A117808FA
:10054A00A9007708A800071AE32A28082904031D26
:10055A00E32A90300A168A1100240A128A114830B6
:10056A000A168A11E9230A128A116F300A168A11A9
:10057A00E9230A128A1175300A168A11E9230A1226
:10058A008A1172300A168A11E9230A128A113A303C
:10059A000A168A11E9230A128A117830E5006508D9
:1005AA00C9000A168A11AD230A128A110130831270
:1005BA000313A8070318A90A0030A9070714871408
:1005CA0007118715071A202B28032904031D202B3E
:1005DA000130A8070318A90A0030A9070A168A11C8
:1005EA00AD230A128A1190300A168A1100240A12BF
:1005FA008A114D300A168A11E9230A128A116930C2
:10060A000A168A11E9230A128A116E300A168A1109
:10061A00E9230A128A1173300A168A11E9230A1287
:10062A008A113A300A168A11E9230A128A11793094
:10063A00E5006508C90088300A168A1100240A12E2
:10064A008A11071487140711871588300A168A1128
:10065A0000240A128A1154300A168A11E9230A124E
:10066A008A1169300A168A11E9230A128A116D3031
:10067A000A168A11E9230A128A1165300A168A11A2
:10068A00E9230A128A113A300A168A11E9230A1250
:10069A008A112A08303E0A168A11E9230A128A1197
:1006AA002C08303E0A168A11E9230A128A113A30B6
:1006BA000A168A11E9230A128A112E08303E0A16EE
:1006CA008A11E9230A128A113008303E0A168A1161
:1006DA00E9230A128A110710871407158715871B41
:1006EA009228CA01C801AC01AD01AA01AB01AE0151
:1006FA00AF01B001B10101300A168A1100240800C5
:10070A00831203130710871407158715071A0800A1
:10071A0001300A168A1100240A128A1180300A1638
:10072A008A1100240A128A1144300A168A11E9230E
:10073A000A128A1161300A168A11E9230A128A11E9
:10074A0074300A168A11E9230A128A1165300A16C8
:10075A008A11E9230A128A115F300A168A11E923DB
:10076A000A128A1153300A168A11E9230A128A11C7
:10077A0065300A168A11E9230A128A1174300A1698
:10078A008A11E9230A128A1174300A168A11E92396
:10079A000A128A1169300A168A11E9230A128A1181
:1007AA006E300A168A11E9230A128A1167300A166C
:1007BA008A11E9230A128A1173300A168A11E92367
:1007CA000A128A110714871007158715871B5D2CD3
:1007DA0078304906031D5D2C22032304031DF92BDF
:1007EA000130E5006508CA0722082304031D012C0D
:1007FA000130A2000030A3000130AC070318AD0A93
:10080A000030AD072D08F8002C08F7000A30F9006F
:10081A000030FA000A168A1178230A128A11780817
:10082A00AD007708AC0020032104031D352C2B08EA
:10083A00E1002A08E0002D08E3002C08E20030302D
:10084A00E5006508E4000A168A11BC240A128A1116
:10085A00E600E7016608AA006708AB00A001A1014B
:10086A0009302C062D04031D3E2C0130A000003057
:10087A00A1004330E5006508F0004A080A168A110B
:10088A005A230A128A11E6006608CA002A032B04B0
:10089A00031D582C03302C062D04031D582CAC01C3
:1008AA00AD01AA01AB010A168A11AD230A128A11F7
:1008BA0083120313871BE52C79304906031DE52CA7
:1008CA0022032304031D6D2C0130E5006508C707C8
:1008DA0022082304031D752C0130A2000030A30056
:1008EA000130A6070318A70A0030A7072708F8004F
:1008FA002608F7000A30F9000030FA000A168A11B1
:10090A0078230A128A117808A7007708A600270810
:10091A00F8002608F7000830F9000030FA000A1635
:10092A008A1178230A128A1178088316A800770890
:10093A00A700831220032104031DBC2C2508E10013
:10094A002408E0002708E3002608E2003030E5002A
:10095A006508E4000A168A11BC240A128A11E60004
:10096A00E7016608A4006708A500A001A1010930F3
:10097A0026062704031DC52C0130A0000030A10063
:10098A006330E5006508F00047080A168A115A2301
:10099A000A128A11E6006608C700033024062504F5
:1009AA00031DE02C023026062704031DE02CA401B7
:1009BA00A501A601A7010A168A11AD230A128A11F6
:1009CA0083120313871B4C2D7A304906031D4C2DC5
:1009DA0022032304031DF52C0130E5006508C8072E
:1009EA0022082304031DFD2C0130A2000030A300BD
:1009FA000130B0070318B10A0030B1073108F80016
:100A0A003008F7000A30F9000030FA000A168A1195
:100A1A0078230A128A117808B1007708B0002003F7
:100A2A002104031D312D2F08E1002E08E0003108B2
:100A3A00E3003008E2003030E5006508E4000A16F9
:100A4A008A11BC240A128A11E600E7016608AE0080
:100A5A006708AF00A001A101093030063104031D67
:100A6A003A2D0130A0000030A1005A30480603197F
:100A7A00C80106302E062F04031D472DAE01AF0113
:100A8A00B001B1010A168A11AD230A128A11113076
:100A9A0083120313E5006508F0003930E6006608A2
:100AAA00F1000130F2000030F3004A080A128A15F8
:100ABA003C220A128A11E7006708CA001130E500D1
:100ACA006508F0003930E6006608F1000230F200ED
:100ADA000030F30047080A128A153C220A128A11CA
:100AEA00E7006708C7002130E5006508F0004A30D2
:100AFA00E6006608F1000230F2000030F300470811
:100B0A000A128A153C220A128A11E7006708C700EE
:100B1A001130E5006508F0003930E6006608F1009A
:100B2A000230F2000030F30047080A128A153C220C
:100B3A000A128A11E7006708C7002130E500650834
:100B4A00F0004A30E6006608F1000230F200003098
:100B5A00F30047080A128A153C220A128A11E70092
:100B6A006708C7003130E5006508F0005930E60033
:100B7A006608F1000230F2000030F30047080A125A
:100B8A008A153C220A128A11E7006708C700113049
:100B9A00E5006508F0003930E6006608F100033028
:100BAA00F2000030F30048080A128A153C220A12A1
:100BBA008A11E7006708C8002130E5006508F000DF
:100BCA004A30E6006608F1000330F2000030F30014
:100BDA0048080A128A153C220A128A11E700670895
:100BEA00C8001130E5006508F0003930E6006608F3
:100BFA00F1000330F2000030F30048080A128A15A7
:100C0A003C220A128A11E7006708C8002130E50071
:100C1A006508F0004A30E6006608F1000330F20089
:100C2A000030F30048080A128A153C220A128A1177
:100C3A00E7006708C8003130E5006508F000593060
:100C4A00E6006608F1000330F2000030F3004808BD
:100C5A000A128A153C220A128A11E7006708C8009C
:100C6A004130E5006508F0006A30E6006608F100E8
:100C7A000330F2000030F30048080A128A153C22B9
:100C8A000A128A11E7006708C8005130E5006508B2
:100C9A00F0007A30E6006608F1000330F200003016
:100CAA00F30048080A128A153C220A128A11E70040
:100CBA006708C80022082304031D712E4508E500B1
:100CCA0065088316B70083124308E5006508831692
:100CDA00B90083124408822E22032304031D862EA0
:100CEA004A08E50065088316B70083124808E5003C
:100CFA0065088316B90083124708E500650883165C
:100D0A00B60088300A168A1100240A128A110710BE
:100D1A00871407158715071BAB2E0A168A11062595
:100D2A000A128A11CA01C801C701A401A501A601B4
:100D3A00A701AC01AD01AA01AB01AE01AF01B0013F
:100D4A00B10101300A168A1100240800071087141D
:100D5A00071587152908F8002808F7000330F90055
:100D6A000030FA000A168A1178230A128A117808C2
:100D7A00A9007708A800071A012F28082904031DCB
:100D8A00012F90300A168A1100240A128A1144305F
:100D9A000A168A11E9230A128A1161300A168A117F
:100DAA00E9230A128A1179300A168A11E9230A12EA
:100DBA008A113A300A168A11E9230A128A11203056
:100DCA000A168A11E9230A128A1120300A168A1190
:100DDA00E9230A128A117930E5006508C9000A1662
:100DEA008A11AD230A128A11013083120313A8074C
:100DFA000318A90A0030A9070710871407158715D1
:100E0A00071A442F28032904031D442F0130A80779
:100E1A000318A90A0030A9070A168A11AD230A1273
:100E2A008A1190300A168A1100240A128A114D304A
:100E3A000A168A11E9230A128A116F300A168A11D0
:100E4A00E9230A128A116E300A168A11E9230A1254
:100E5A008A1174300A168A11E9230A128A11683033
:100E6A000A168A11E9230A128A113A300A168A11D5
:100E7A00E9230A128A117830E5006508C9000710CB
:100E8A00871407158715071A8A2F0230280629049E
:100E9A00031D8A2F0A168A11AD230A128A110130FC
:100EAA0083120313A8070318A90A0030A907903070
:100EBA000A168A1100240A128A1159300A168A114E
:100ECA00E9230A128A1165300A168A11E9230A12DD
:100EDA008A1161300A168A11E9230A128A117230BC
:100EEA000A168A11E9230A128A113A300A168A1155
:100EFA00E9230A128A1120300A168A11E9230A12F2
:100F0A008A117A30E5006508C90088300A168A1104
:100F1A0000240A128A112408303E0A168A11E9238B
:100F2A000A128A112608303E0A168A11E9230A1281
:100F3A008A112F300A168A11E9230A128A112A08FD
:100F4A00303E0A168A11E9230A128A112C08303E09
:100F5A000A168A11E9230A128A112F300A168A11EF
:100F6A00E9230A128A112E08303E0A168A11E92349
:100F7A000A128A113008303E0A168A11E9230A1227
:100F8A008A110710871407158715871B932BCA0127
:100F9A00C801C701AC01AD01AA01AB01AE01AF01A5
:100FAA00B001B101A401A501A601A70101300A16E9
:100FBA008A11002408008313BB30FD000030FE00B4
:100FCA000530FF00B33084000A168A118C230A12F6
:100FDA008A11A0308400B3300A168A1144230A12F7
:100FEA008A112030840060300A168A114423830152
:100FFA000A128A15932BFB01FC0176087704031960
:10100A003728FD01FD0AF71B162801300310F60DDB
:10101A00F70DFF3E031D0B280130FA007A08FD0781
:10102A00082801300310FB0DFC0DFF3E031D172895
:10103A0077087902031D232876087802031C2C28D6
:10104A007608F8027708031CF903F9027B140130C9
:10105A000310F70CF60CFF3E031D2D280130FD028C
:10106A00031D16287C08F7007B08F60008007408A0
:10107A00803A803C031D432873085B02031C8C28BA
:10108A007608803A803C031D4E28750883120313A4
:10109A005A02031C8C28013083120313BC0703185D
:1010AA00BD0A0030BD073030F7007708D100313073
:1010BA00F7007708D00057300A168A11E9230A1276
:1010CA008A1541300A168A11E9230A128A15523002
:1010DA000A168A11E9230A128A154D300A168A114C
:1010EA00E9230A128A1503303D02E93003193C024A
:1010FA00031C8C282D30F7007708D00002303A06FE
:10110A003B04031D8C287730F7007708D30083123D
:10111A0003135308080086189B2883162308F30034
:10112A007308A0002408F3007308A100831622089C
:10113A00F039F300F4017308F5007408F600750E2F
:10114A000F39F500760EF039F504760E0F39F600F0
:10115A00F030F61D0030F6047508303E0A168A1182
:10116A00E9230A128A157508F3007308CB0083165F
:10117A0022080F39F300F4017308F5007408F60029
:10118A007508303E0A168A11E9230A128A153A307E
:10119A000A168A11E9230A128A157508F3007308D8
:1011AA00CC0083162108F039F300F4017308F50026
:1011BA007408F600750E0F39F500760EF039F5044D
:1011CA00760E0F39F600F030F61D0030F604750879
:1011DA00303E0A168A11E9230A128A158316210853
:1011EA000F39F300F4017308F5007408F600750866
:1011FA00303E0A168A11E9230A128A153A300A166B
:10120A008A11E9230A128A1583162008F039F30095
:10121A00F4017308F5007408F600750E0F39F5002D
:10122A00760EF039F504760E0F39F600F030F61D19
:10123A000030F6047508303E0A168A11E9230A12AC
:10124A008A15831620080F39F300F4017308F50094
:10125A007408F6007508303E0A168A11E923080058
:10126A00831609140A168A111C260A128A15CC300A
:10127A000A168A1150260A128A150A168A11C123D9
:10128A000A128A1544300A168A1150260A128A1539
:10129A000A168A111C260A128A15CC300A168A11D5
:1012AA0050260A128A15BE300A168A1150260A12C8
:1012BA008A150A168A11E8250A128A158312031357
:1012CA00E0006008DF000A168A11E8250A128A156A
:1012DA0083120313E0006008DE00831609148312E8
:1012EA005E08E00004300310E00DFF3E031D78297C
:1012FA003F306005E1005F08E20004300310E20CB1
:10130A00FF3E031D832962086104E3006308DD00D0
:10131A005F08E00003300310E00DFF3E031D902933
:10132A000310600DE1006108DC000A30E00060088B
:10133A00F0005D080A168A1176240A128A15E1005D
:10134A006108DA000A30E0006008F0005D080A1659
:10135A008A1155240A128A15E1006108DB00BE01D0
:10136A00BF01DC1FC0293E08883EBE003F080318A3
:10137A00013E133EBF005C1FCA293E08C43EBE00A0
:10138A003F080318013E093EBF00DC1ED4293E086F
:10139A00E23EBE003F080318013E043EBF005C1E49
:1013AA00DE293E08713EBE003F080318013E023E98
:1013BA00BF00E830F6000330F7003F08F9003E08A6
:1013CA00F8000A128A1500200A128A157608E00027
:1013DA006008D9006430F6000030F7003F08F300D7
:1013EA003E08F200E830F0000330F1000A168A11D4
:1013FA00B6250A128A157108F9007008F8000A124F
:10140A008A1500200A128A157608E0006008D800BA
:10141A000A30F6000030F7003F08F3003E08F200F9
:10142A006430F0000030F1000A168A11B6250A125B
:10143A008A157108F9007008F8000A128A15002046
:10144A000A128A157608E0006008D7000A30F00010
:10145A000030F1003F08F3003E08F2000A168A1134
:10146A00B6257008E0006008D60000000800F60003
:10147A007608303EF400003003180130F500710898
:10148A0074067504031D912B7008F4007408F600A5
:10149A00A201A30139307106031D5B2A720373048A
:1014AA00031D5B2A0930F4007408C5004A3071062E
:1014BA00031D672A72037304031D672A1930F40097
:1014CA007408C50059307106031D732A7203730428
:1014DA00031D732A2930F4007408C5006A307106A6
:1014EA00031D7F2A72037304031D7F2A3930F40017
:1014FA007408C5007A307106031D8B2A72037304BF
:10150A00031D8B2A4930F4007408C500393071066E
:10151A00031D982A023072067304031D982A0930A3
:10152A00F4007408C4004A307106031DA52A02306B
:10153A0072067304031DA52A1930F4007408C40046
:10154A0059307106031DB22A023072067304031D54
:10155A00B22A2930F4007408C4006A307106031DE7
:10156A00BF2A023072067304031DBF2A3930F40001
:10157A007408C4007A307106031DCC2A0230720640
:10158A007304031DCC2A4930F4007408C4003930AE
:10159A007106031DD92A033072067304031DD92A62
:1015AA000930F4007408C3004A307106031DE62AA4
:1015BA00033072067304031DE62A1930F400740816
:1015CA00C30059307106031DF32A033072067304EF
:1015DA00031DF32A2930F4007408C3006A30710627
:1015EA00031D002B033072067304031D002B3930D0
:1015FA00F4007408C3007A307106031D0D2B033002
:10160A0072067304031D0D2B4930F4007408C300DD
:10161A0039307106031D1A2B043072067304031D38
:10162A001A2B0930F4007408C2004A307106031DEF
:10163A00272B043072067304031D272B1930F4007C
:10164A007408C20059307106031D342B0430720627
:10165A007304031D342B2930F4007408C2006A3065
:10166A007106031D412B043072067304031D412BBE
:10167A003930F4007408C2007A307106031D4E2B0B
:10168A00043072067304031D4E2B4930F4007408AB
:10169A00C20039307106031D5B2B053072067304D4
:1016AA00031D5B2B0930F4007408C1004A3071062F
:1016BA00031D682B053072067304031D682B19304D
:1016CA00F4007408C10059307106031D752B0530EA
:1016DA0072067304031D752B2930F4007408C100C7
:1016EA006A307106031D822B053072067304031DCE
:1016FA00822B3930F4007408C1007A307106031D58
:10170A008F2B053072067304031D8F2B4930F400AA
:10171A007408C1000130F602760808000230831608
:10172A0086000A168A1137230A128A150A168A119E
:10173A0006250A128A150A168A1169230A128A15B7
:10174A000A168A113C230A128A150A168A11992442
:10175A000A128A150A168A1137230A128A150A16D4
:10176A008A11D5230A128A150330E8006808CF00C7
:10177A000430E8006808CE000430B8000030B90030
:10178A000230B6000030B7000130B4000030B500B6
:10179A000930B2000030B3000A128A1535210A1244
:1017AA008A150A168A112E250A128A1580300A16F7
:1017BA008A1100240A128A1554300A168A11E9235A
:1017CA000A128A1565300A168A11E9230A128A153D
:1017DA006D300A168A11E9230A128A1570300A1620
:1017EA008A11E9230A128A153A300A168A11E9235C
:1017FA000A128A150A168A1134240A128A15903096
:10180A000A168A1100240A128A1544300A168A1105
:10181A00E9230A128A1561300A168A11E9230A1283
:10182A008A1574300A168A11E9230A128A15653054
:10183A000A168A11E9230A128A153A300A168A11F7
:10184A00E9230A128A1520300A168A11E9230A1294
:10185A008A150A168A1163270A128A1588300A1607
:10186A008A1100240A128A1554300A168A11E923A9
:10187A000A128A1569300A168A11E9230A128A1588
:10188A006D300A168A11E9230A128A1565300A167A
:10189A008A11E9230A128A153A300A168A11E923AB
:1018AA000A128A150A128A1590200A128A150A1231
:1018BA008A157F250A128A150A128A1185230A12A5
:1018CA008A150A128A1186200A128A1598300A166F
:1018DA008A1100240A128A154B08303EE8000030AB
:1018EA0003180130E9000030690202300319680266
:1018FA000318C92C4C08303EE800003003180130A8
:10190A00E900003069020830031968020318C92C7B
:10191A004F08E800E9016808F3006908F4004E0876
:10192A00EA00EB016A08F5006B08F6000A168A114C
:10193A0086260A128A15EC006C08CD004F08E800CA
:10194A00E9016808F3006908F4004E08EA00EB01AF
:10195A006A08F5006B08F6000A128A153C200A127A
:10196A008A15EC006C08CD003508F4003408F30041
:10197A003308F6003208F5000A168A1115270A12EA
:10198A008A15E8006808CD004B08303EE8000030B0
:10199A0003180130E900680869040319102D4C087E
:1019AA00303EE800003003180130E90000306902D7
:1019BA00083003196802031C102D3708F400360892
:1019CA00F3003908F6003808F5000A168A11862647
:1019DA000A128A15E8006808CD003708F4003608AC
:1019EA00F3003908F6003808F5000A128A153C2077
:1019FA000A128A15E8006808CD000030F300F400E6
:101A0A000030F500F6000A168A1115270A128A15FF
:101A1A00E8006808CD000A168A115A250A128A15A2
:101A2A00E8006808CD004D080A168A1117240A1220
:101A3A008A1520300A168A11E9230A128A154830B3
:101A4A000A168A11E9230A128A153A300A168A11E5
:101A5A00E9230A128A1551080A168A11E9230A1279
:101A6A008A1543300A168A11E9230A128A153A306E
:101A7A000A168A11E9230A128A1550080A168A11C7
:101A8A00E9230A128A15ED01EE0120300A168A119D
:101A9A00E9230A128A150130ED070318EE0A00300D
:101AAA00EE076E08803AFF0080307F02031D5F2D2B
:101ABA0003306D02031C4A2D831203132708F80012
:101ACA002608F7000830F9000030FA000A168A11D1
:101ADA0078230A128A1578088316A8007708A700BF
:101AEA002808F4002708F3000A128A110D200A12A6
:101AFA008A15D12B0714871007158715071A0800AE
:101B0A0001300A168A1100240A128A1580300A1630
:101B1A008A1100240A128A1520300A168A11E9232A
:101B2A000A128A1520300A168A11E9230A128A151E
:101B3A0020300A168A11E9230A128A1520300A1659
:101B4A008A11E9230A128A1520300A168A11E92312
:101B5A000A128A1520300A168A11E9230A128A15EE
:101B6A0020300A168A11E9230A128A1520300A1629
:101B7A008A11E9230A128A1520300A168A11E923E2
:101B8A000A128A1590300A168A1100240A128A1536
:101B9A0043300A168A11E9230A128A1575300A1681
:101BAA008A11E9230A128A1572300A168A11E92360
:101BBA000A128A1572300A168A11E9230A128A153C
:101BCA0065300A168A11E9230A128A156E300A1636
:101BDA008A11E9230A128A1574300A168A11E9232E
:101BEA000A128A153A300A168A11E9230A128A1544
:101BFA004F08303E0A168A11E9230A128A154E083E
:101C0A00303E0A168A11E9230A128A150714871028
:101C1A0007158715071A592E78304906031D592EBC
:101C2A000130E5006508CA070130AC070318AD0AA0
:101C3A000030AD072D08F8002C08F7000A30F9002B
:101C4A000030FA000A168A1178230A128A157808CF
:101C5A00AD007708AC002B08E1002A08E0002D0847
:101C6A00E3002C08E2003930E5006508E4000A16B2
:101C7A008A11BC240A128A15E600E7016608AA003E
:101C8A006708AB005430E5006508F0004A080A16F8
:101C9A008A115A230A128A15E6006608CA000A1629
:101CAA008A11AD230A128A1583120313071A9C2E6E
:101CBA0079304906031D9C2E0130E5006508C807E6
:101CCA000130B0070318B10A0030B1073108F80033
:101CDA003008F7000A30F9000030FA000A168A11B3
:101CEA0078230A128A157808B1007708B0002F08FD
:101CFA00E1002E08E0003108E3003008E200393044
:101D0A00E5006508E4000A168A11BC240A128A153D
:101D1A00E600E7016608AE006708AF005A304806D9
:101D2A000319C8010A168A11AD230A128A158312E9
:101D3A00031307148710071587152908F8002808C0
:101D4A00F7000230F9000030FA000A168A117823E7
:101D5A000A128A157808A9007708A800071A282FF6
:101D6A0028082904031D282F0130A8070318A90AE7
:101D7A000030A90788300A168A1100240A128A1527
:101D8A0044300A168A11E9230A128A1561300A16A2
:101D9A008A11E9230A128A1579300A168A11E92367
:101DAA000A128A155F300A168A11E9230A128A155D
:101DBA0074300A168A11E9230A128A1568300A163B
:101DCA008A11E9230A128A1572300A168A11E9233E
:101DDA000A128A1565300A168A11E9230A128A1527
:101DEA0073300A168A11E9230A128A1568300A160C
:101DFA008A11E9230A128A156F300A168A11E92311
:101E0A000A128A156C300A168A11E9230A128A15EF
:101E1A0064300A168A11E9230A128A153A300A1618
:101E2A008A11E9230A128A1520300A168A11E9232F
:101E3A000A128A157830E5006508C9000A168A115F
:101E4A00AD230A128A158312031307148710071584
:101E5A008715071AA32F28032904031DA32F8830E7
:101E6A000A168A1100240A128A154E300A168A1195
:101E7A00E9230A128A1569300A168A11E9230A1215
:101E8A008A1567300A168A11E9230A128A156830F8
:101E9A000A168A11E9230A128A1574300A168A1157
:101EAA00E9230A128A155F300A168A11E9230A12EF
:101EBA008A1568300A168A11E9230A128A157230BD
:101ECA000A168A11E9230A128A1565300A168A1136
:101EDA00E9230A128A1573300A168A11E9230A12AB
:101EEA008A1568300A168A11E9230A128A156F3090
:101EFA000A168A11E9230A128A156C300A168A11FF
:101F0A00E9230A128A1564300A168A11E9230A1289
:101F1A008A153A300A168A11E9230A128A15793083
:101F2A00E5006508C9000130A8070318A90A0030AE
:101F3A00A9070A168A11AD230A128A1583120313F6
:101F4A00B001B101AE01AF01AC01AD01AA01AB0113
:101F5A00AC01AD010710871407158715071BED2F74
:101F6A002E08E5006508CF003008E5006508CE00B8
:101F7A00AE01AF01B001B101AC01AD01B001B101D7
:101F8A0001300A168A1100240A128A1553300A16D9
:101F9A008A11E9230A128A1541300A168A11E9239D
:101FAA000A128A1556300A168A11E9230A128A1564
:101FBA0045300A168A11E9230A128A1544300A168C
:101FCA008A11E9230A128A150A168A11AD23080012
:101FDA000710871407158715871B8B2D01300A16E2
:101FEA008A110024AE01AF01B001B101AC01AD010B
:061FFA00B001B101080076
:10266E0083168901831289010800073083169F00A3
:10267E000514880181018901080064008001840A23
:10268E000406031900340406452BF2007008F1000D
:10269E007108F3000130F302031D512B0130F202D9
:1026AE00031908004D2BF3007308303EF100003083
:1026BE0003180130F2007008710672040319F30159
:1026CE00730808000610861286168E300A168A11B6
:1026DE00E0240A168A1100300A168A11E0248612A6
:1026EE0008007A08F1007908F0007808F3007708FE
:1026FE00F2000A168A11CA267108F8007008F7004F
:10270E0008007E088A007F08820088230A168A1134
:10271E008000840A04087D0603190034FF0A031999
:10272E00FE0A8C2BF001F1010130F0070318F10ABB
:10273E000030F1077108803AFF0080307F02031DE0
:10274E00AA2B05307002031808009B2BF001F10133
:10275E000130F0070318F10A0030F1077108803AD2
:10276E00FF00A7307F02031DBE2B1030700203182E
:10277E000800AF2BF001F1010130F0070318F10A48
:10278E000030F1077108803AFF0080307F02031D90
:10279E00D22B3230700203180800C32B063083167A
:1027AE009F00F03087008312CA01C901C801A80139
:1027BE00A901A601A7010130A2000030A300A001CB
:1027CE00A1010800F200831203138516051285116C
:1027DE000A168A1199230A168A1183120313851574
:1027EE00720888000A168A11992383120313851121
:1027FE000800F200831203138512051285110A16C2
:10280E008A1199230A168A118312031385157208E9
:10281E0088000A168A119923831203138511080062
:10282E00F20077307206031D302C09150A168A1134
:10283E00AD230A168A118312031309110A168A117F
:10284E00AD230A168A118312031309150A168A116B
:10285E00AD2383120313091108005B08303E0A16DC
:10286E008A11E9230A168A115A08303E0A168A116D
:10287E00E9230A168A112E300A168A11E9230A163E
:10288E008A115908303E0A168A11E9230A168A114E
:10289E005808303E0A168A11E9230800F200F401A6
:1028AE0070080319742CF301F30AF01B652C031046
:1028BE00F00D0130F1007108F3075C2C0310F40DDC
:1028CE0070087202031C6F2C7008F202741403104D
:1028DE00F00C0130F302031D652C74080800F4009F
:1028EE000830F1007108F500F6017408F1000730A8
:1028FE000310F10CFF3E031D7F2C7608F2007207C9
:10290E007104F3007308F6000310F40D70087602DC
:10291E00031C932C7008F6020130F502031D7C2C6B
:10292E00760808008501831205100A168A1199236C
:10293E000A168A11831203130514051530300A1670
:10294E008A1100240A168A1101300A168A110024EF
:10295E000A168A1106300A168A1100240A168A11DE
:10296E000C300A168A11002408006208303EFB0063
:10297E0063080318013E003EFC0064087B067C04DD
:10298E00031DDE2C0130E0070318E10A0030E107D9
:10299E006108F8006008F7000A30F9000030FA000C
:1029AE000A168A1178237808E1007708E00060089B
:1029BE000800F400F201F30183120313061206104D
:1029CE00741806167408F0000310700CF1007108EC
:1029DE00F40006140130F2070318F30A0030F3076F
:1029EE007308803AFF0080307F02031D002D0830EF
:1029FE007202031CE32C83120313061008008616C2
:102A0E00BE300A168A11E0240A168A11F501F60163
:102A1E007508B33E8400831300080A168A11E02459
:102A2E000A168A110130F5070318F60A0030F60768
:102A3E007608803AFF0080307F02031D282D083073
:102A4E007502031C0F2D83120313861208008312C6
:102A5E0003138616BF300A168A11E0240A168A114D
:102A6E00F601F7010A168A1186250A168A11F50053
:102A7E007608A03E84007508831380000130F607A7
:102A8E000318F70A0030F7077708803AFF00803006
:102A9E007F02031D542D07307602031C392D83123D
:102AAE000313861208000714871407158711071AD7
:102ABE00842DBA01BB017830F3007308D300BC013A
:102ACE00BD0152300A168A11E9230A168A114530C1
:102ADE000A168A11E9230A168A1153300A168A1128
:102AEE00E9230A168A1145300A168A11E9230A16B5
:102AFE008A1154300A168A11E92353080800F4018A
:102B0E00831603130616F201F30183120313061044
:102B1E007408F0000310700CF1007108F400061E2A
:102B2E009D2D74088038F0007008F40006140130F2
:102B3E00F2070318F30A0030F3077308803AFF0018
:102B4E0080307F02031DAD2D08307202031C8C2DC8
:102B5E0083160313061283120610740808007008F9
:102B6E0071040319E32DF501F50AF11BCA2D01308D
:102B7E000310F00DF10DFF3E031DBF2D0130F400CB
:102B8E007408F507BC2D71087302031DD02D700853
:102B9E007202031CD82D7008F2027108031CF30395
:102BAE00F30201300310F10CF00CFF3E031DD92D82
:102BBE000130F502031DCA2D7308F1007208F000F2
:102BCE000800F5010830F4007408F6000310F50C47
:102BDE008312031309108316091000000000000071
:102BEE00000000000000831603130914000000000B
:102BFE00000000000000003083120313091801309A
:102C0E00C0004008031DF5170730F4007408F000EB
:102C1E0002300A168A114C230A168A110130F60266
:102C2E007608031DED2D75080800F501F50A7508E7
:102C3E000319080083120313091083160910463076
:102C4E00F4007408F00002300A168A114C230A169A
:102C5E008A118316031309140830F4007408F00067
:102C6E0002300A168A114C230A168A118312031394
:102C7E00091C442EF501F50A452EF5013C30F400F1
:102C8E007408F00002300A168A114C230A168A11B3
:102C9E001E2EF7000830F4007408F800770801398A
:102CAE00F4007408F600831203130910831609103A
:102CBE00000000000000000000007603031D6A2ED5
:102CCE008316031309140730F4007408F000023061
:102CDE000A168A114C230A168A1183160313091435
:102CEE00000000007708F4000310740CF50075085E
:102CFE00F7000130F802780803190800552E740801
:102D0E00803AF70080307702031D8F2E5B08730226
:102D1E00031CC62E7608803AF70080307702031D1A
:102D2E009C2E831203135A087502031CC62E023002
:102D3E0083120313BA000030BB007830F700770817
:102D4E00D3003030F7007708D1003030F700770825
:102D5E00D0004F300A168A11E9230A168A114B3019
:102D6E000A168A11E9230A168A1120300A168A11C8
:102D7E00E9230A168A1120300A168A11E9238312D2
:102D8E00031353080800F601F31FD42EF209F309BA
:102D9E00F20A0319F30AF601F60AF11FDB2EF00907
:102DAE00F109F00A0319F10A700871040319082FCA
:102DBE00F501F50AF11BEF2E01300310F00DF10DA8
:102DCE00FF3E031DE42E0130F4007408F507E12EDA
:102DDE0071087302031DF52E70087202031CFD2E7E
:102DEE007008F2027108031CF303F30201300310A2
:102DFE00F10CF00CFF3E031DFE2E0130F502031DFB
:102E0E00EF2E76080319102FF209F309F20A0319AF
:102E1E00F30A7308F1007208F00008007408803A93
:102E2E00F70080307702031D1E2F5B087302031C10
:102E3E005F2F7608803AF70080307702031D2B2F24
:102E4E00831203135A0875020318382F7608803A36
:102E5E00803C031D362F7508831203135A02031C80
:102E6E005F2F013083160313B1070318B20A003027
:102E7E00B2073130F70077088312D1003030F700F7
:102E8E007708D00043300A168A11E9230A168A11F0
:102E9E004F300A168A11E9230A168A114C300A1687
:102EAE008A11E9230A168A1144300A168A11E92377
:102EBE00831203135308080086186E2F83162308F7
:102ECE00F3007308A0002408F3007308A100831612
:102EDE002308F039F300F4017308F5007408F600C6
:102EEE00750E0F39F500760EF039F504760E0F39A2
:102EFE00F600F030F61D0030F6047508303E0A1666
:102F0E008A11E9230A168A11831623080F39F30052
:102F1E00F4017308F5007408F6007508303E0A16C1
:102F2E008A11E9230A168A112F300A168A11E9230B
:102F3E000A168A1183162408F039F300F401730877
:102F4E00F5007408F600750E0F39F500760EF0399F
:102F5E00F504760E0F39F600F030F61D0030F6044B
:102F6E007508303E0A168A11E9230A168A1183164D
:102F7E0024080F39F300F4017308F5007408F60005
:102F8E007508303E0A168A11E9230A168A112F3067
:102F9E000A168A11E9230A168A1183162608F039B1
:102FAE00F300F4017308F5007408F600750E0F397E
:102FBE00F500760EF039F504760E0F39F600F03086
:102FCE00F61D0030F6047508303E0A168A11E92304
:102FDE000A168A11831626080F39F300F4017308B6
:102FEE00F5007408F6007508303E0A168A11E923BA
:022FFE000800C9
:02400E00323F3F
:00000001FF
