:020000040000FA
:060000000A128A11E62F2E
:10000A00F4007408303EF200003003180130F300A7
:10001A00710872067304031D132814281E28700819
:10002A00F2007208F40083120313AB01AC01013031
:10003A00F402740808007303740403192528262897
:10004A002C2873087404031D2B282C283E284D30B5
:10005A000A168A1198250A128A116F300A168A110D
:10006A0098250A128A116E300A168A1198250A12E0
:10007A008A11023073067404031D44284528572840
:10008A0054300A168A1198250A128A1175300A16EE
:10009A008A1198250A128A1165300A168A1198253A
:1000AA000A128A11033073067404031D5D285E2840
:1000BA00702857300A168A1198250A128A11653053
:1000CA000A168A1198250A128A1164300A168A11A8
:1000DA0098250A128A11043073067404031D7628BF
:1000EA007728892854300A168A1198250A128A1103
:1000FA0068300A168A1198250A128A1175300A166A
:10010A008A1198250A128A11053073067404031D90
:10011A008F289028A22846300A168A1198250A1292
:10012A008A1172300A168A1198250A128A116930C0
:10013A000A168A1198250A128A110630730674045F
:10014A00031DA828A928BB2853300A168A11982506
:10015A000A128A1161300A168A1198250A128A111E
:10016A0074300A168A1198250A128A110730730602
:10017A007404031DC128C228D42853300A168A11D0
:10018A0098250A128A1175300A168A1198250A12B8
:10019A008A116E300A168A1198250A128A110800E5
:1001AA00831203130714871407118715071ADE2809
:1001BA00DF28C22B01300A168A11B1250A128A11C8
:1001CA0080300A168A11B1250A128A1154300A1689
:1001DA008A1198250A128A1169300A168A119825F5
:1001EA000A128A116D300A168A1198250A128A1182
:1001FA0065300A168A1198250A128A115F300A1682
:10020A008A1198250A128A1153300A168A119825DA
:10021A000A128A1165300A168A1198250A128A1159
:10022A0074300A168A1198250A128A1174300A162D
:10023A008A1198250A128A1169300A168A11982594
:10024A000A128A116E300A168A1198250A128A1120
:10025A0067300A168A1198250A128A1173300A160B
:10026A008A1198250A128A11831203130714871018
:10027A0007158715871B42294329A529783049067E
:10028A00031D48294929A5290130DA005A08CA0755
:10029A000130B7070318B80A0030B8073808F80061
:1002AA003708F7000A30F9000030FA000A168A11F6
:1002BA00E2240A128A11780883120313B800770815
:1002CA00B7003608D6003508D5003808D8003708F0
:1002DA00D7003930DA005A08D9000A168A116B2673
:1002EA000A128A1183120313DB00DC015B08B500D2
:1002FA005C08B6005430DA005A08F0004A080A16B8
:10030A008A11F4240A128A1183120313DB005B0890
:10031A00CA00023035063604031D94299529A029FE
:10032A00043037063804031D9B299C29A029B701EC
:10033A00B801B501B6010A168A1140250A128A11B6
:10034A0083120313871BAA29AB29FE297930490690
:10035A00031DB029B129FE290130DA005A08C8075D
:10036A000130BB070318BC0A0030BC073C08F80080
:10037A003B08F7000A30F9000030FA000A168A1121
:10038A00E2240A128A11780883120313BC00770840
:10039A00BB003A08D6003908D5003C08D8003B080B
:1003AA00D7003930DA005A08D9000A168A116B26A2
:1003BA000A128A1183120313DB00DC015B08B900FD
:1003CA005C08BA005A304806031DEC29ED29EE29CB
:1003DA00C801063039063A04031DF429F529F9291A
:1003EA00B901BA01BB01BC010A168A1140250A12D9
:1003FA008A1188300A168A11B1250A128A118312C3
:10040A0003134A08DA005A08E3004808DA005A08CF
:10041A00E2001130DA005A08F0003930DB005B08DC
:10042A00F1004A080A128A1105200A128A11831257
:10043A000313DC005C08CA002130DA005A08F00015
:10044A004A30DB005B08F1004A080A128A110520CB
:10045A000A128A1183120313DC005C08CA001130E5
:10046A00DA005A08F0003930DB005B08F10048086E
:10047A000A128A1105200A128A1183120313DC0058
:10048A005C08C8002130DA005A08F0004A30DB0064
:10049A005B08F10048080A128A1105200A128A111B
:1004AA0083120313DC005C08C8003130DA005A08F2
:1004BA00F0005930DB005B08F10048080A128A1183
:1004CA0005200A128A1183120313DC005C08C80093
:1004DA004130DA005A08F0006A30DB005B08F100AC
:1004EA0048080A128A1105200A128A118312031374
:1004FA00DC005C08C8005130DA005A08F0007A3093
:10050A00DB005B08F10048080A128A1105200A126A
:10051A008A1183120313DC005C08C80007108714D1
:10052A0007158715071B9A2A9B2AB32A01300A1630
:10053A008A11B1250A128A1183120313CA01C8014A
:10054A00B701B801B501B601B901BA01BB01BC01D5
:10055A000A168A1197260A128A11C22B07148714BF
:10056A00071187153408F8003308F7000230F9003C
:10057A000030FA000A168A11E2240A128A1178084F
:10058A0083120313B4007708B300071ACD2ACE2AC0
:10059A000B2B33083404031DD32AD42A0B2B903097
:1005AA000A168A11B1250A128A1148300A168A11C6
:1005BA0098250A128A116F300A168A1198250A128A
:1005CA008A1175300A168A1198250A128A11723010
:1005DA000A168A1198250A128A113A300A168A11BD
:1005EA0098250A128A11783083120313DA005A08FE
:1005FA00C9000A168A1140250A128A11013083128B
:10060A000313B3070318B40A0030B4070714871496
:10061A0007118715071A122B132B4E2B3303340499
:10062A00031D182B192B4E2B0130B3070318B40ADC
:10063A000030B4070A168A1140250A128A1190302E
:10064A000A168A11B1250A128A114D300A168A1120
:10065A0098250A128A1169300A168A1198250A12EF
:10066A008A116E300A168A1198250A128A11733075
:10067A000A168A1198250A128A113A300A168A111C
:10068A0098250A128A11793083120313DA005A085C
:10069A00C90088300A168A11B1250A128A118312F2
:1006AA000313071487140711871588300A168A114D
:1006BA00B1250A128A1154300A168A1198250A128B
:1006CA008A1169300A168A1198250A128A116D3020
:1006DA000A168A1198250A128A1165300A168A1191
:1006EA0098250A128A113A300A168A1198250A128E
:1006FA008A11831203133508303E0A168A11982587
:10070A000A128A11831203133708303E0A168A1115
:10071A0098250A128A113A300A168A1198250A125D
:10072A008A11831203133908303E0A168A11982552
:10073A000A128A11831203133B08303E0A168A11E1
:10074A0098250A128A1183120313071087140715B2
:10075A008715871BB12BB22BE528CA01C801B7013F
:10076A00B801B501B601B901BA01BB01BC0101303A
:10077A000A168A11B1250A128A1108008312031374
:10078A000710871407158715071ACC2BCD2BE52FD1
:10079A0001300A168A11B1250A128A1180300A1606
:1007AA008A11B1250A128A1144300A168A1198252B
:1007BA000A128A1161300A168A1198250A128A11B8
:1007CA0074300A168A1198250A128A1165300A1697
:1007DA008A1198250A128A115F300A168A119825F9
:1007EA000A128A1153300A168A1198250A128A1196
:1007FA0065300A168A1198250A128A1174300A1667
:10080A008A1198250A128A1174300A168A119825B3
:10081A000A128A1169300A168A1198250A128A114F
:10082A006E300A168A1198250A128A1167300A163A
:10083A008A1198250A128A1173300A168A11982584
:10084A000A128A11831203130714871007158715D2
:10085A00871B302C312CA22C78304906031D362CEC
:10086A00372CA22C2B032C04031D3C2C3D2C412C91
:10087A000130DA005A08CA072B082C04031D462C3B
:10088A00472C4B2C0130AB000030AC000130B707CD
:10089A000318B80A0030B8073808F8003708F70014
:1008AA000A30F9000030FA000A168A11E2240A1204
:1008BA008A11780883120313B8007708B70036083C
:1008CA00D6003508D5003808D8003708D70039309F
:1008DA00DA005A08D9000A168A116B260A128A11F6
:1008EA0083120313DB00DC015B08B5005C08B60069
:1008FA004330DA005A08F0004A080A168A11F4242A
:10090A000A128A1183120313DB005B08CA0035033B
:10091A003604031D912C922C9D2C03303706380483
:10092A00031D982C992C9D2CB701B801B501B6016D
:10093A000A168A1140250A128A1183120313871B89
:10094A00A72CA82C0A2D79304906031DAD2CAE2CF4
:10095A000A2D0130DA005A08C7070130B107031817
:10096A00B20A0030B2073208F8003108F7000A303C
:10097A00F9000030FA000A168A11E2240A128A11D2
:10098A00780883120313B2007708B1003008D60042
:10099A002F08D5003208D8003108D7003930DA00DC
:1009AA005A08D9000A168A116B260A128A1183126A
:1009BA000313DB00DC015B08AF005C08B0006330A6
:1009CA00DA005A08F00047080A168A11F4240A12B3
:1009DA008A1183120313DB005B08C70003302F065A
:1009EA003004031DF92CFA2C052D0230310632048D
:1009FA00031D002D012D052DAF01B001B101B2017A
:100A0A000A168A1140250A128A1183120313871BB8
:100A1A000F2D102D632D7A304906031D152D162D25
:100A2A00632D0130DA005A08C8070130BB070318E2
:100A3A00BC0A0030BC073C08F8003B08F7000A3043
:100A4A00F9000030FA000A168A11E2240A128A1101
:100A5A00780883120313BC007708BB003A08D60053
:100A6A003908D5003C08D8003B08D7003930DA00ED
:100A7A005A08D9000A168A116B260A128A11831299
:100A8A000313DB00DC015B08B9005C08BA005A30CA
:100A9A004806031D512D522D532DC8010630390623
:100AAA003A04031D592D5A2D5E2DB901BA01BB0115
:100ABA00BC010A168A1140250A128A1183120313ED
:100ACA004A08DA005A08E5004808DA005A08E70036
:100ADA004708DA005A08E4001130DA005A08F00030
:100AEA003930DB005B08F1004A080A128A11052036
:100AFA000A128A1183120313DC005C08CA0011303F
:100B0A00DA005A08F0003930DB005B08F1004708C8
:100B1A000A128A1105200A128A1183120313DC00B1
:100B2A005C08C7002130DA005A08F0004A30DB00BE
:100B3A005B08F10047080A128A1105200A128A1175
:100B4A0083120313DC005C08C7001130DA005A086C
:100B5A00F0003930DB005B08F10047080A128A11FD
:100B6A0005200A128A1183120313DC005C08C700ED
:100B7A002130DA005A08F0004A30DB005B08F10045
:100B8A0047080A128A1105200A128A1183120313CE
:100B9A00DC005C08C7003130DA005A08F00059302E
:100BAA00DB005B08F10047080A128A1105200A12C5
:100BBA008A1183120313DC005C08C7001130DA00C3
:100BCA005A08F0003930DB005B08F10048080A12C5
:100BDA008A1105200A128A1183120313DC005C08A9
:100BEA00C8002130DA005A08F0004A30DB005B08FE
:100BFA00F10048080A128A1105200A128A11831282
:100C0A000313DC005C08C8001130DA005A08F0004F
:100C1A003930DB005B08F10048080A128A11052006
:100C2A000A128A1183120313DC005C08C8002130FF
:100C3A00DA005A08F0004A30DB005B08F100480885
:100C4A000A128A1105200A128A1183120313DC0080
:100C5A005C08C8003130DA005A08F0005930DB006D
:100C6A005B08F10048080A128A1105200A128A1143
:100C7A0083120313DC005C08C8004130DA005A080A
:100C8A00F0006A30DB005B08F10048080A128A119A
:100C9A0005200A128A1183120313DC005C08C800BB
:100CAA005130DA005A08F0007A30DB005B08F100B4
:100CBA0048080A128A1105200A128A11831203139C
:100CCA00DC005C08C80088300A168A11B1250A12AD
:100CDA008A11831203130710871407158715071B38
:100CEA00772E782E8F2ECA01C801C701B701B80125
:100CFA00B501B601B901BA01BB01BC0101300A163E
:100D0A008A11B1250A128A110A168A1197260A121D
:100D1A008A11E52F07108714071587153408F8007C
:100D2A003308F7000330F9000030FA000A168A1176
:100D3A00E2240A128A11780883120313B40077088E
:100D4A00B300071AA92EAA2EED2E33083404031D68
:100D5A00AF2EB02EED2E90300A168A11B1250A1246
:100D6A008A1144300A168A1198250A128A116130AA
:100D7A000A168A1198250A128A1179300A168A11D6
:100D8A0098250A128A113A300A168A1198250A12E7
:100D9A008A1120300A168A1198250A128A112030DF
:100DAA000A168A1198250A128A11793083120313B6
:100DBA00DA005A08C9000A168A1140250A128A114D
:100DCA00013083120313B3070318B40A0030B407BF
:100DDA000710871407158715071AF42EF52E362FD4
:100DEA0033033404031DFA2EFB2E362F0130B307CA
:100DFA000318B40A0030B4070A168A1140250A12E9
:100E0A008A1190300A168A11B1250A128A114D30B8
:100E1A000A168A1198250A128A116F300A168A113F
:100E2A0098250A128A116E300A168A1198250A1212
:100E3A008A1174300A168A1198250A128A116830A2
:100E4A000A168A1198250A128A113A300A168A1144
:100E5A0098250A128A11783083120313DA005A0885
:100E6A00C9000710871407158715071A3D2F3E2F4B
:100E7A00822F023033063404031D442F452F822F5C
:100E8A000A168A1140250A128A11013083120313A5
:100E9A00B3070318B40A0030B40790300A168A114F
:100EAA00B1250A128A1159300A168A1198250A128E
:100EBA008A1165300A168A1198250A128A11613038
:100ECA000A168A1198250A128A1172300A168A118C
:100EDA0098250A128A113A300A168A1198250A1296
:100EEA008A1120300A168A1198250A128A117A3034
:100EFA0083120313DA005A08C90088300A168A11C5
:100F0A00B1250A128A11831203132F08303E0A16DA
:100F1A008A1198250A128A11831203133108303E66
:100F2A000A168A1198250A128A112F300A168A116E
:100F3A0098250A128A11831203133508303E0A16BD
:100F4A008A1198250A128A11831203133708303E30
:100F5A000A168A1198250A128A112F300A168A113E
:100F6A0098250A128A11831203133908303E0A1689
:100F7A008A1198250A128A11831203133B08303EFC
:100F8A000A168A1198250A128A1183120313071066
:100F9A00871407158715871BD32FD42FD32BCA0184
:100FAA00C801C701B701B801B501B601B901BA0153
:100FBA00BB01BC0101300A168A11B1250A128A1135
:100FCA00080083136930FD001430FE00C030FF00B2
:100FDA00613084000A168A111C250A128A112030EF
:100FEA00840055300A168A11B8240A128A1183011C
:060FFA000A128A15492CC1
:10100C00F7000830F4007408F80077080139F40090
:10101C007408F600831203130910831603130910C6
:10102C00000000000000000000007603031D1F28D4
:10103C00202823288316031309140730F40074089E
:10104C00F00002300A168A1106250A128A15831638
:10105C0003130914000000007708F4000310740C4B
:10106C00F5007508F7000130F8027808031D3F28D9
:10107C0040280B280800831203135008F700F801CE
:10108C0074087806031D4C2873087706031D4F2837
:10109C0050287E287608803AF70080307702031DAE
:1010AC0059284F08750203185C285D287E280230E9
:1010BC008312031329062A04031D652866287E283B
:1010CC0057300A168A1198250A128A1541300A16C9
:1010DC008A1198250A128A1552300A168A119825F7
:1010EC000A128A154D300A168A1198250A128A1589
:1010FC000800FB01FC017608770403198628872871
:10110C00BE28FD01FD0A952801300310F60DF70DE0
:10111C00FF3E031D8B280130FA007A08FD07F71FEC
:10112C00982899288A2801300310FB0DFC0DFF3EEE
:10113C00031D9A2877087902031DA62876087802E1
:10114C00031CA928AA28B1287608F8027708031CE2
:10115C00F903F9027B1401300310F70CF60CFF3E77
:10116C00031DB2280130FD02031DBD28BE2899289D
:10117C007C08F7007B08F600080083120313500864
:10118C00F700F80174087806031DCE28730877065B
:10119C00031DD128D228DD287608803A803C031D17
:1011AC00D92875084F02031CDC28DD28EC28831293
:1011BC0003134F08F700F80176087806031DE8289A
:1011CC0075087706031DEB28EC280E2902308312D4
:1011DC000313A9000030AA007830F7007708C30089
:1011EC004F300A168A1198250A128A154B300A16A6
:1011FC008A1198250A128A1520300A168A11982508
:10120C000A128A1520300A168A1198250A128A1594
:10121C000800F601F31F132914291B29F209F309FD
:10122C00F20A0319F30AF601F60AF11F1E291F2907
:10123C002429F009F109F00A0319F10A7008710464
:10124C00031929292A295929F501F50A38290130C8
:10125C000310F00DF10DFF3E031D2E290130F4009B
:10126C007408F507F11F3B293C292D2971087302DD
:10127C00031D422970087202031C452946294C297A
:10128C007008F2027108031CF303F302013003101F
:10129C00F10CF00CFF3E031D4D290130F502031D2E
:1012AC00582959293C29760803195D295E29632997
:1012BC00F209F309F20A0319F30A7308F100720830
:1012CC00F0000800F601F11F6C296D297429F00952
:1012DC00F109F00A0319F10AF601F60AF31F77294E
:1012EC0078298129F209F309F20A0319F30A01306A
:1012FC00F4007408F606F701F8017008710403197C
:10130C0088298929C029F501F50A9729013003108C
:10131C00F00DF10DFF3E031D8D290130F400740812
:10132C00F507F11F9A299B298C2901300310F70D21
:10133C00F80DFF3E031D9C2971087302031DA8299B
:10134C0070087202031CAB29AC29B3297008F20295
:10135C007108031CF303F302771401300310F10C32
:10136C00F00CFF3E031DB4290130F502031DBF290B
:10137C00C0299B2976080319C429C529CA29F7094C
:10138C00F809F70A0319F80A7808F1007708F00051
:10139C000800831203138618D429D529DD292308C4
:1013AC00F3007308A0002408F3007308A1002208BE
:1013BC00F039F300F4017308F5007408F600750EAB
:1013CC000F39F500760EF039F504760E0F39F6006C
:1013DC00F030F61D0030F6047508303E0A168A11FE
:1013EC0098250A128A158312031322080F39F30069
:1013FC00F4017308F5007408F6007508303E0A16FF
:10140C008A1198250A128A153A300A168A119825DB
:10141C000A128A15831203132108F039F300F40120
:10142C007308F5007408F600750E0F39F500760E8A
:10143C00F039F504760E0F39F600F030F61D003059
:10144C00F6047508303E0A168A1198250A128A1578
:10145C008312031321080F39F300F4017308F5000C
:10146C007408F6007508303E0A168A1198250A127F
:10147C008A153A300A168A1198250A128A1583128F
:10148C0003132008F039F300F4017308F500740815
:10149C00F600750E0F39F500760EF039F504760E60
:1014AC000F39F600F030F61D0030F6047508303EAA
:1014BC000A168A1198250A128A158312031320081A
:1014CC000F39F300F4017308F5007408F600750881
:1014DC00303E0A168A1198250A128A1508008312C2
:1014EC00031386187A2A7B2A832A2308F3007308AD
:1014FC00A0002408F3007308A1002308F039F300BE
:10150C00F4017308F5007408F600750E0F39F50038
:10151C00760EF039F504760E0F39F600F030F61D24
:10152C000030F6047508303E0A168A1198250A1206
:10153C008A158312031323080F39F300F40173087F
:10154C00F5007408F6007508303E0A168A119825C5
:10155C000A128A152F300A168A1198250A128A1532
:10156C00831203132408F039F300F4017308F50017
:10157C007408F600750E0F39F500760EF039F50487
:10158C00760E0F39F600F030F61D0030F6047508B3
:10159C00303E0A168A1198250A128A1583120313F3
:1015AC0024080F39F300F4017308F5007408F600F1
:1015BC007508303E0A168A1198250A128A152F30A2
:1015CC000A168A1198250A128A1583120313260803
:1015DC00F039F300F4017308F5007408F600750E89
:1015EC000F39F500760EF039F504760E0F39F6004A
:1015FC00F030F61D0030F6047508303E0A168A11DC
:10160C0098250A128A158312031326080F39F30042
:10161C00F4017308F5007408F6007508303E0A16DC
:10162C008A1198250A128A150800831603130914C7
:10163C000A168A11C6270A128A15CC300A128A1584
:10164C0006200A128A150A168A116C250A128A15A6
:10165C0044300A128A1506200A128A150A168A11B3
:10166C00C6270A128A15CC300A128A1506200A12CD
:10167C008A15BE300A128A1506200A128A150A1615
:10168C008A118C270A128A1583120313D500550868
:10169C00D4000A168A118C270A128A158312031396
:1016AC00D5005508D30083160313091483120313B2
:1016BC005308D50004300310D50DFF3E031D612BDC
:1016CC003F305505D6005408D70004300310D70C12
:1016DC00FF3E031D6C2B57085604D8005808D20047
:1016EC005408D50003300310D50DFF3E031D792B94
:1016FC000310550DD6005608D1000A30F00000300A
:10170C00F1005208D500D6015508F2005608F30036
:10171C000A128A150F210A128A15700883120313F4
:10172C00D7005708CF000A30F0000030F100520803
:10173C00D500D6015508F2005608F3000A128A1596
:10174C0068210A128A15700883120313D7005708F0
:10175C00D000BD01BE01D11FB42BB52BBD2B3D0854
:10176C00883EBD003E080318013E133EBE00511FCB
:10177C00C02BC12BC92B3D08C43EBD003E0803182D
:10178C00013E093EBE00D11ECC2BCD2BD52B3D08E6
:10179C00E23EBD003E080318013E043EBE00511E51
:1017AC00D82BD92BE12B3D08713EBD003E08031808
:1017BC00013E023EBE00E830F6000330F7003E0862
:1017CC00F9003D08F8000A128A157F200A128A15C2
:1017DC00760883120313D5005508CE006430F6004A
:1017EC000030F7003E08F3003D08F200E830F0004E
:1017FC000330F1000A168A1152270A128A15710851
:10180C00F9007008F8000A128A157F200A128A154E
:10181C00760883120313D5005508CD000A30F60064
:10182C000030F7003E08F3003D08F2006430F00091
:10183C000030F1000A168A1152270A128A15710813
:10184C00F9007008F8000A128A157F200A128A150E
:10185C00760883120313D5005508CC000A30F0002B
:10186C000030F1003E08F3003D08F2000A168A1120
:10187C0052270A128A15700883120313D5005508D3
:10188C00CB000000080002308316031386000A16F2
:10189C008A11B1240A128A150A168A1197260A127D
:1018AC008A150A168A112B250A128A150A168A110C
:1018BC00C8240A128A150A168A11ED250A128A15ED
:1018CC000A168A11B1240A128A150A168A1182255F
:1018DC000A128A150A128A151B230A128A150A166D
:1018EC008A11EF260A128A1580300A168A11B12540
:1018FC000A128A1554300A168A1198250A128A156A
:10190C0065300A168A1198250A128A156D300A1646
:10191C008A1198250A128A1570300A168A11982590
:10192C000A128A153A300A168A1198250A128A1553
:10193C000A168A1140260A128A1590300A168A1144
:10194C00B1250A128A1544300A168A1198250A12F2
:10195C008A1561300A168A1198250A128A15743074
:10196C000A168A1198250A128A1565300A168A11E8
:10197C0098250A128A153A300A168A1198250A12E5
:10198C008A1520300A168A1198250A128A150A120D
:10199C008A1575220A128A1588300A168A11B12501
:1019AC000A128A1554300A168A1198250A128A15B9
:1019BC0069300A168A1198250A128A156D300A1692
:1019CC008A1198250A128A1565300A168A119825EB
:1019DC000A128A153A300A168A1198250A128A15A3
:1019EC000A128A15CF210A128A150A128A1578252D
:1019FC000A128A150A128A11C3230A128A150A12AC
:101A0C008A11D5200A128A1598300A168A11B12526
:101A1C000A128A150230F3000030F4000730F5008A
:101A2C000030F6000A128A15C3200A128A150230F9
:101A3C00F3000030F4000730F5000030F6000A1215
:101A4C008A1541200A128A158312031343080A16B9
:101A5C008A11CA250A128A150A168A11D1240A1269
:101A6C008A1583120313DF01E00120300A168A1154
:101A7C0098250A128A15013083120313DF07031805
:101A8C00E00A0030E0076008803AFF0080307F02F7
:101A9C00031D522D07305F02031C552D562D3B2D77
:101AAC00831203133208F8003108F7000830F900EC
:101ABC000030FA000A168A11E2240A128A157808F4
:101ACC0083120313A8007708A7002808F40027083E
:101ADC00F3000A128A1120200A128A15702C0A129D
:101AEC008A11002883120313071487100715871512
:101AFC00071A812D822DFF2F01300A168A11B1256C
:101B0C000A128A1580300A168A11B1250A128A1512
:101B1C0074300A168A1198250A128A1568300A162A
:101B2C008A1198250A128A1572300A168A1198257C
:101B3C000A128A1565300A168A1198250A128A1516
:101B4C0073300A168A1198250A128A1568300A16FB
:101B5C008A1198250A128A156F300A168A1198254F
:101B6C000A128A156C300A168A1198250A128A15DF
:101B7C0064300A168A1198250A128A1590300A16B2
:101B8C008A11B1250A128A1543300A168A11982532
:101B9C000A128A1575300A168A1198250A128A15A6
:101BAC0072300A168A1198250A128A1572300A1692
:101BBC008A1198250A128A1565300A168A119825F9
:101BCC000A128A156E300A168A1198250A128A157D
:101BDC0074300A168A1198250A128A153A300A1698
:101BEC008A1198250A128A15831203134108303E74
:101BFC000A168A1198250A128A15831203134008B3
:101C0C00303E0A168A1198250A128A1588300A164F
:101C1C008A11B1250A128A1553300A168A11982591
:101C2C000A128A1565300A168A1198250A128A1525
:101C3C0074300A168A1198250A128A155F300A1612
:101C4C008A1198250A128A1574300A168A11982559
:101C5C000A128A1568300A168A1198250A128A15F2
:101C6C0072300A168A1198250A128A1565300A16DE
:101C7C008A1198250A128A1573300A168A1198252A
:101C8C000A128A1568300A168A1198250A128A15C2
:101C9C006F300A168A1198250A128A156C300A16AA
:101CAC008A1198250A128A1564300A168A11982509
:101CBC000A128A153A300A168A1198250A128A15C0
:101CCC0098300A168A11B1250A128A158312031349
:101CDC000714871007158715BB01BC01B901BA01A0
:101CEC00B701B801B501B601B701B80107148710E7
:101CFC0007158715871B832E842EE72E98300A161E
:101D0C008A11B1250A128A15013083120313B70701
:101D1C000318B80A0030B8073508DA00DB015A0896
:101D2C00B5005B08B6003808F8003708F7000A3031
:101D3C00F9000030FA000A168A11E2240A128A15F8
:101D4C00770883120313DA00DB015A08B7005B082B
:101D5C00B8003508303E0A168A1198250A128A15E1
:101D6C00831203133708303E0A168A1198250A127B
:101D7C008A15831203133608D6003508D5003808A7
:101D8C00D8003708D7003930DA005A08D9000A16BB
:101D9C008A116B260A128A1583120313DB00DC01ED
:101DAC005B08B5005C08B6003808BC003708BB00FF
:101DBC003608BA003508B9000A168A1140250A12ED
:101DCC008A15831203130710871407158715071B31
:101DDC00F02EF12E372F3508DA005A08C1003708DB
:101DEC00DA005A08C00001300A168A11B1250A120D
:101DFC008A1553300A168A1198250A128A15413011
:101E0C000A168A1198250A128A1556300A168A1152
:101E1C0098250A128A1545300A168A1198250A1235
:101E2C008A1544300A168A1198250A128A158312CB
:101E3C000313DD01DE01013083120313DD070318E8
:101E4C00DE0A0030DE075E08803AFF00F5307F02C4
:101E5C00031D322F30305D02031C352F362F212FFE
:101E6C00FF2F0714871407118715871B3E2F3F2F51
:101E7C00B52F98300A168A11B1250A128A1501302D
:101E8C0083120313BB020030031CBC03BC023908D1
:101E9C00DA00DB015A08B9005B08BA003C08F8000C
:101EAC003B08F7000A30F9000030FA000A168A11D4
:101EBC00E2240A128A15770883120313DA00DB0175
:101ECC005A08BB005B08BC003908303E0A168A1160
:101EDC0098250A128A15831203133B08303E0A1602
:101EEC008A1198250A128A15831203133A08D60010
:101EFC003908D5003C08D8003B08D7003030DA0050
:101F0C005A08D9000A168A11C3260A128A15831296
:101F1C000313DB00DC015B08B9005C08BA003B086A
:101F2C00303EDA003C080318013E003EDB00303046
:101F3C005A065B04031DA32FA42FA82F0A30BB0045
:101F4C000030BC003C08B8003B08B7003A08B600AB
:101F5C003908B5000A168A1140250A128A1583120F
:101F6C0003130710871407158715071BBE2FBF2FE8
:101F7C00F12F3908DA005A08C1003B08DA005A0878
:101F8C00C00001300A168A11B1250A128A15533085
:101F9C000A168A1198250A128A1541300A168A11D6
:101FAC0098250A128A1556300A168A1198250A1293
:101FBC008A1545300A168A1198250A128A1544305A
:101FCC000A168A1198250A128A150A168A114025B2
:101FDC000A128A15FF2F0710871407158715871B00
:101FEC00F82FF92F7C2E01300A168A11B1250A120E
:041FFC008A1508003A
:10296200831603138901831203138901080064008B
:102972008001840A0406031900340406B92C0034C9
:10298200003440341234123406341934003407301F
:10299200831603139F000514880181018901080031
:1029A200831203130714871407158711071ADA2CE9
:1029B200DB2CE12CA901AA017830F0007008C300D9
:1029C20008007A08F1007908F0007808F300770827
:1029D200F2000A128A150F210A168A117108F800EC
:1029E2007008F7000800F3007308303EF100003071
:1029F20003180130F200700871067204031D022DE3
:102A0200032D042DF30173080800F2007008F10091
:102A12007108F3000130F302031D102D112D0B2D4F
:102A22000130F202031D162D172D072D08007E0816
:102A32008A007F0882000A168A1118250A168A114E
:102A42008000840A04087D0603190034FF0A031972
:102A5200FE0A1C2D831203130610861286168E3070
:102A62000A168A1115260A168A1100300A168A11C8
:102A720015260A168A118312031386120800F00122
:102A8200F1010130F0070318F10A0030F107710873
:102A9200803AFF00A7307F02031D512D10307002D3
:102AA200031C542D552D422D0800F001F101013077
:102AB200F0070318F10A0030F1077108803AFF00AD
:102AC20080307F02031D672D05307002031C6A2DC2
:102AD2006B2D582D0800F001F1010130F0070318A9
:102AE200F10A0030F1077108803AFF0080307F025E
:102AF200031D7D2D32307002031C802D812D6E2D21
:102B020008000630831603139F00F03087008312FB
:102B12000313CA01C901C801B301B4010C30B100E9
:102B22000030B2000130AB000030AC000800F2000F
:102B3200831203138516051285110A168A1156256A
:102B42000A168A11831203138515720888000A1661
:102B52008A1156250A168A11831203138511080059
:102B6200F200831203138512051285110A168A11C7
:102B720056250A168A1183120313851572088800D6
:102B82000A168A1156250A168A1183120313851111
:102B92000800F20077307206031DD02DD12DE92DE9
:102BA2008312031309150A168A1140250A168A117F
:102BB2008312031309110A168A1140250A168A1173
:102BC2008312031309150A168A1140250A168A115F
:102BD200831203130911080083160313850183125C
:102BE200031305100A168A1156250A168A11831232
:102BF20003130514051530300A168A11B1250A1679
:102C02008A1101300A168A11B1250A168A11063074
:102C12000A168A11B1250A168A110C300A168A116F
:102C2200B1250A168A110800F400F201F301831299
:102C3200031306120610741C1F2E202E212E0616B8
:102C42007408F0000310700CF1007108F40006140F
:102C52000130F2070318F30A0030F3077308803AD1
:102C6200FF0080307F02031D382E08307202031CE1
:102C72003B2E3C2E182E83120313061008008312DB
:102C820003135008303E0A168A1198250A168A1133
:102C9200831203134F08303E0A168A1198250A162A
:102CA2008A112E300A168A1198250A168A11831261
:102CB20003134E08303E0A168A1198250A168A1105
:102CC200831203134D08303E0A168A1198250A16FC
:102CD2008A110800831203135708303EFB0058087C
:102CE2000318013E003EFC0059087B067C04031DCC
:102CF2007B2E7C2E952E0130D5070318D60A003084
:102D0200D6075608F8005508F7000A30F9000030D7
:102D1200FA000A168A11E2240A168A117808831226
:102D22000313D6007708D500550808008312031351
:102D32008616BE300A168A1115260A168A11F50160
:102D4200F6017508613E8400831300080A168A1191
:102D520015260A168A110130F5070318F60A003003
:102D6200F6077608803AFF0080307F02031DBB2EF3
:102D720008307502031CBE2EBF2EA22E831203132F
:102D820086120800831203135708303EFB005808CE
:102D92000318013E003EFC0059087B067C04031D1B
:102DA200D32ED42EED2EFF30D5070318D60AFF30CE
:102DB200D6075608F8005508F7000A30F900003027
:102DC200FA000A168A11E2240A168A117808831276
:102DD2000313D6007708D5005508080083120313A1
:102DE2008616BF300A168A1115260A168A11F601AE
:102DF200F7010A168A111D270A168A11F5007608AC
:102E0200203E84007508831380000130F607031802
:102E1200F70A0030F7077708803AFF0080307F0218
:102E2200031D152F07307602031C182F192FFA2EB7
:102E32008312031386120800F40183160313061685
:102E4200F201F3018312031306107408F000031059
:102E5200700CF1007108F400061E302F312F362F4E
:102E620074088038F0007008F40006140130F2078C
:102E72000318F30A0030F3077308803AFF0080302A
:102E82007F02031D462F08307202031C492F4A2F6E
:102E9200232F8316031306128312031306107408DA
:102EA2000800700871040319572F582F872FF50156
:102EB200F50A662F01300310F00DF10DFF3E031DE0
:102EC2005C2F0130F4007408F507F11F692F6A2F97
:102ED2005B2F71087302031D702F70087202031CAE
:102EE200732F742F7A2F7008F2027108031CF303F8
:102EF200F30201300310F10CF00CFF3E031D7B2F97
:102F02000130F502031D862F872F6A2F7308F10007
:102F12007208F0000800F5010830F4007408F600A9
:102F22000310F50C831203130910831603130910FF
:102F320000000000000000000000000083160313E0
:102F4200091400000000000000000000003083129D
:102F5200031309180130BF003F080319B12FB22F24
:102F6200B32FF5170730F4007408F00002300A1688
:102F72008A1106250A168A110130F6027608031D07
:102F8200C32FC42F912F75080800F501F50AFA2FF7
:102F92008312031309108316031309104630F40039
:102FA2007408F00002300A168A1106250A168A11E0
:102FB2008316031309140830F4007408F000023079
:102FC2000A168A1106250A168A1183120313091C8E
:102FD200EB2FEC2FEF2FF501F50AF02FF5013C3026
:102FE200F4007408F00002300A168A1106250A1647
:0E2FF2008A117508031DFE2FFF2FC92F08003E
:02400E00323F3F
:00000001FF
